:020000040800F2
:1000000000380120492E0008A7A60008352E000858
:10001000352E0008352E0008352E0008000000009F
:10002000000000000000000000000000392F000860
:10003000352E000800000000A92E0008115200080B
:100040002532000825320008253200082532000834
:100050002532000825320008253200082532000824
:100060002532000825320008253200082532000814
:100070002532000825320008253200082532000804
:1000800025320008253200082532000825320008F4
:1000900025320008253200082532000825320008E4
:1000A00025320008253200082532000825320008D4
:1000B00025320008253200082532000825320008C4
:1000C00025320008253200082532000825320008B4
:1000D00025320008253200082532000825320008A4
:1000E0002532000825320008253200082532000894
:1000F0002532000825320008253200082532000884
:100100002532000825320008253200082532000873
:100110002532000825320008253200082532000863
:100120002532000825320008253200082532000853
:100130002532000825320008253200082532000843
:100140002532000825320008253200082532000833
:100150002532000825320008253200082532000823
:100160002532000825320008253200082532000813
:100170002532000825320008253200082532000803
:1001800025320008253200082532000825320008F3
:1001900025320008253200082532000825320008E3
:1001A00025320008253200082532000825320008D3
:1001B00025320008253200082532000825320008C3
:0801C000253200082532000879
:1001C8000B49C0F307230246C0B231F8133031F8A7
:1001D80010100B441B2B08DC0C2006494343C8189D
:1001E800CB589A4218BF002070470020704700BFC4
:1001F8005CE8000830090120F8B506460F46064CB1
:100208001C25236813B139462046B047013D04F147
:100218000C04F6D1F8BD00BF300901200000000031
:1002280000000000000000000000000000000000C6
:1002380000000000000000000000000000000000B6
:1002480000000000000000000000000000000000A6
:100258000000000000000000000000000000000096
:100268000000000000000000000000000000000086
:100278000000000000000000000000000000000076
:100288000000000000000000000000000000000066
:100298000000000000000000000000000000000056
:1002A8000000000000000000000000000000000046
:1002B8000000000000000000000000000000000036
:1002C80053B94AB9002908BF00281CBF4FF0FF31B5
:1002D8004FF0FF3000F00CB8ADF1080C6DE904CE1A
:1002E80000F01AF8DDF804E0DDE9022304B07047F5
:1002F800704700BF10F8012B11F8013B012A28BFF5
:100308009A42F7D0D01A7047034613F8012B002AF7
:10031800FBD1181A013870472DE9F04786468C46FC
:100328000846089E154674461946002B40F0C280C0
:100338008542B2FA82F245D94AB1C2F1200300FAE5
:1003480002FC2EFA03F3954043EA0C0C94404FEA62
:10035800154EA8B2BCFBFEF8230C0EFB18CC08FB0C
:1003680000F943EA0C43994528D9EB1808F1FF37FF
:1003780004D2994502D9A8F102072B44A3EB09033B
:10038800A4B2B3FBFEFC0EFB1C330CFB00F044EAEA
:100398000344A04214D92C190CF1FF3304D2A04213
:1003A80002D9ACF102032C44241A43EA07401EB1D7
:1003B800D440002334607360BDE8F0874746DDE72A
:1003C8006346F1E792BB431B01214FEA154EAFB2DA
:1003D800B3FBFEFC200C0EFB1C330CFB07F840EAB9
:1003E8000343984562D9EB180CF1FF3004D29845C5
:1003F80002D9ACF102002B44A3EB0803A4B2B3FB6F
:10040800FEFC0EFB1C330CFB07F744EA0344A7422F
:100418004ED92C190CF1FF3304D2A74202D9ACF102
:1004280002032C44E41B43EA0040C0E7C2F1200366
:1004380020FA03F1954090402EFA03F303434FEA64
:10044800154EAFB2B1FBFEFC0EFB1C10190C0CFBD9
:1004580007F841EA0041884504FA02F422D96918EC
:100468000CF1FF3004D2884502D9ACF102002944CE
:10047800A1EB08019BB2B1FBFEFC0EFB1C110CFBAF
:1004880007F743EA01439F420ED9EB180CF1FF31FD
:1004980004D29F4202D9ACF102012B44DB1B41EA92
:1004A800004192E76046E3E76146F7E76046A3E765
:1004B8006346B7E7834206D916B9002108467BE7A9
:1004C800C6E900E0F9E7B3FA83F78FB9834201D3AD
:1004D800724508D8BEEB020460EB030301209C467A
:1004E8001EB9002168E73846FAE7C6E9004CF8E784
:1004F800C7F1200CBB4022FA0CF41C432EFA0CF175
:1005080020FA0CF3B84001434FEA14490EFA07F5F4
:10051800B3FBF9F81FFA84FE09FB18300B0C08FB33
:100528000EFA43EA00439A4502FA07F240D9E31863
:1005380008F1FF3004D29A4502D9A8F102002344F9
:10054800A3EB0A0389B2B3FBF9F809FB183308FBDC
:100558000EFE41EA03418E452CD9611808F1FF339C
:1005680004D28E4502D9A8F10203214443EA00408F
:10057800A0FB0298A1EB0E014145CE46434602D3AB
:1005880006D14D4504D2B9EB020E68EB04030138DD
:10059800002EA6D0B5EB0E0261EB030101FA0CFCAC
:1005A80022FA07F34CEA0303F940C6E9003198E759
:1005B8004046C5E74346D9E7012801F004012DE983
:1005C800F04D14468AB01E4602D0042840F0B3808D
:1005D8006368002BC0F2AF805B4FA368BB4200F298
:1005E800AA8002AD002976D0294600F0ABFDDDE9EE
:1005F8000232B2F1004F08BF002B0AD05B422846F6
:1006080062EB4202CDE90232049B5B42049300F0A4
:10061800DFFC2146284609F0A6FA4C49D4E9003205
:1006280099424FF0040393412BDADDE902030228D3
:1006380073F1000254DB013842F2107243F1FF33C8
:10064800A0FB020102FB0311414C09F0C3FA80FB35
:1006580004483BA3D3E9002320464146FFF730FE78
:100668003B4A0023CDE9060120464146FFF728FE14
:1006780000230892012206A92846CDE9022309F0A1
:1006880072FADDE90248B8F1000F4FDB54EA0803BB
:10069800049828D188BB2246434668460AF0E2FE01
:1006A800DDE900AB4146204609F094FA5B46524624
:1006B80068460AF0FCFEDDE9004854EA0803F1D177
:1006C8002EB100230022C6E900230023B3600020D6
:1006D8000AB0BDE8F08D94E80F0085E80F009CE7AC
:1006E80000200146B0E74FF0FF336FF0004290451D
:1006F80008BF9C4201D1B8421BD042F21073154A80
:10070800C117A4FB034503FB08580023FFF7D8FDD6
:100718004FF0FF3224186FF0004348EB0108A24263
:1007280073EB0801B7D214469846B4E70024A046F4
:10073800B1E71C46FBE76FF01500C9E7AFF300808F
:1007480000CA9A3B00000000FFC99A3B08FA824B96
:1007580040420F00A0860100064A002302F8013B30
:100768000133802BFAD14FF0FF304FF0FF3109F001
:1007780027B800BF800C01202DE970412B4A8FB0AB
:1007880002212B4808F050F909F013F8002833D05B
:100798000A210423002427484FF4806208AD562616
:1007A800CDE90A134FF0FF332349CDE90C33CDE9E6
:1007B8000844224B03DF224C014620601C480AF003
:1007C80082FF246808F0F5FF58B32046702603DF3F
:1007D80008F0EFFF1B4A1C49002808BF11461B48B8
:1007E80008F04EFD4FF0FF304FF0FF3108F0E8FF02
:1007F80000200FB0BDE870814FF0FF324FF0FF339B
:1008080000900D49CDE906230A230422CDE9010011
:10081800CDE9033207484FF48062084B06F00CF923
:10082800C9E7204606F0EEFFD2E700BF40080120E6
:1008380004150120000D012000380120610700087F
:100848000015012071C7000866C7000882C70008A4
:100858002DE9F04F91B0840705460E46009302F04B
:100868000403DDF868800293C2F3C203039203F124
:100878000103059340F0BA81041D30B1072909D856
:100888006FF01B0011B0BDE8F08F01F0070634448B
:10089800C6F10806009B4FF000094FF0040A591EE4
:1008A8004FF0FF334F46CB4601935346CDF8109097
:1008B8000DB1009A22600598002800F3E880984856
:1008C800009A824203D397488242C0F0E080039A9C
:1008D800A4EB050E92074FEA9E0000F103810F2F4B
:1008E80000F2B180002D00F0058107F140020DEB08
:1008F800020C019A0CF8200C0CF8102C049801300A
:100908000490E7E07A285DD84B280ED8472859D8B4
:1009180029282DD8252852D054D820287AD02338F1
:10092800D0F1000B4BEB000B74E04C382E2849D863
:10093800DFE800F070484848484848484848484870
:100948004B484848484848484859484B4B595959D2
:10095800704B6D487048184B184848827F4B484880
:100968004B487F0000204FF0000B4FF0040A38E09E
:100978002A380122C0B202FA00F010EA0E0F49D15B
:1009880010F0625C2FD110EA020B43D06046013CA4
:100998005444B4FBFAF40AFB04F4002D61D0A3EB31
:1009A800050CA444B4453FF66BAF002868D1042B6E
:1009B80047D158F8043B2360043404232AE0019A01
:1009C800013A01924FF0000B24E011F8010C6C2859
:1009D80034D111F8023C00206C2B8346C5D14FF06E
:1009E800080A5346D3E708F10708073428F0070830
:1009F80024F00704F8E802AB35B106982044B04269
:100A08003FF63EAFC4E900AB08344FF0000B4FF09F
:100A1800080A534611F8010F002878D0BBF1000FDF
:100A28007FF470AF2528F5D1019B4FF0010B0133FE
:100A380001934FF0040AECE7584694E700208346F8
:100A4800A5E7082B02D06FF015001BE708F107088F
:100A580028F00708F8E80223C4E90023083408232B
:100A6800D8E768B9042B02D108F10408A4E7082BD9
:100A7800E9D108F1070828F0070808F10808EDE7A8
:100A8800059A013A059258F8042B009210E7039A48
:100A9800900720D5A4EB050E4FF0010C4FEA9E00FD
:100AA800BEF5007FCFD20F2FCDD8F5B107F14002A8
:100AB800C0B20DEB020E019A0EF8200C0EF8102CA5
:100AC800BCF1000F3FF41AAF60F07F0009F1010993
:100AD8000EF8200C0137C5F1080204344FF6DA7E0F
:100AE800069297E74FF0000CDAE7BCF1000F01D04F
:100AF8000136EFE7029802360028EBD10098CDE9DD
:100B08000631FFF701FC0644DDE90631E2E7631B25
:100B1800B3F5806F97D23DB9A6F10804E018B1E6A5
:100B2800D0B900087CEA00089B08029A28602B705C
:100B38009DF81030C2B1EB7085F80290B9F1000F42
:100B480005D008A80022C5F1010C97420ED1C5F1C5
:100B580001030DF120084FF0000A0DF1300B01934D
:100B6800574512D1601B8DE66B70E5E710F8013B25
:100B7800190608D50CEB040E03F07F03B6453FF6C3
:100B88007FAE04F8013B0132DFE7B9F1000F03D073
:100B980098F90020002A17DB029BD3B11AF80B2022
:100BA80004F8012B0022019B18191044B0423FF6AB
:100BB80067AE98F80000009904F8010B20460392EC
:100BC8000AF077FE039A14440AF1010A08F10108B1
:100BD800C6E798F8002055F822300093029B009849
:100BE80045F82230FFF790FB421CDCE76FF00D0060
:100BF80048E600BF2DE9F04F95B004469346894674
:100C080000AF90F802A0BB61BB6FC3F3C0033B61A8
:100C180041B9457800780AEB800020444D4519D841
:100C2800A0EB0409E3787B61BAF1000F02D0BB6F37
:100C3800D80718D47B69002B40D1BBF1000F03D033
:100C4800BA6949462046D8474D4628465437BD46D6
:100C5800BDE8F08F461C09F101093046FFF754FB47
:100C680001303044DAE7237862687B629B00FA61DE
:100C7800FB607B6A04EB8301BBF1000F40F00A8143
:100C88004D460E4601EB0A084FF0000B464525D0AD
:100C980016F8013B796254F82300FFF735FBFB6F28
:100CA8000130796A43B1D7F880309B453EBFFB6F6E
:100CB80023F81B000BF1010B0544E7E7BB6F99070D
:100CC800BBD5237819467B629B0004EB8101FB604E
:100CD8006368FB61BBF1000F72D14D46BB6F01EB3E
:100CE8000A0913F0050F0CBF022301237B627B69FD
:100CF80009EB430ABB6F03F00203BB61D145A4D0E3
:100D080019F8021B19F8013C54F82360A94B9E42BC
:100D180002D3A94B9E422AD33B69002B3CD0F869E9
:100D280008F0FCFE002837D0C7F820D08AB06B4600
:100D3800A24A03F110065A61FA69C3E906214FF481
:100D480000721A849E4A1A61EFF30588B8F1000F01
:100D58001AD109F0BDFCB8B132469A484FF4125185
:100D680043469E2603DF023DD7F820D0C6E73B69FD
:100D780023B1F86908F0D2FE0028D5D1BB6FDA0795
:100D88000DD47B6AED1AB9E7002332464FF41251AD
:100D98008C4800F08DFFE6E7BB69002BAED03046EB
:100DA800FFF7B2FAFB6F4BB1D7F880309B453FBFD6
:100DB800431CFA6F22F81B300BF1010B05449DE729
:100DC800BAF1000F6CD0BB6F13F004066BD0D0469D
:100DD800002607F14000524639620AF06AFD396A76
:100DE80001EB0A037A693B627B695B007B603B6AC3
:100DF80003EB4203BB60BB6F03F002033B60BB68BD
:100E08003A6A934251D1B96F63788907B86F06EB94
:100E1800030254BF4FEA58010021C507D2B200F1BE
:100E2800968010F0040F14BF404600206270A07036
:100E38002046E170BA69F968FB61D847051EFFF6DC
:100E480004AF7B6A4146BA6907F140002370FB6929
:100E580084F802A063707B69E370D847B0F100089A
:100E6800C0F2B280FB68A9EB0A01BA69C91A7B68AB
:100E7800386AC91AD8470028C0F2A880A8444FF099
:100E8800000908EB0005B14563D30021BA6908469B
:100E9800D847DAE656464FF0000807F130009AE7DF
:100EA8005646D0469CE7B0469AE73B6A13F8021BC1
:100EB80013F8015C3B6254F825003E4B984202D37C
:100EC8003D4B98421DD33B6923B1F86908F026FED3
:100ED800002894D13B68FBB908F1280307F12802E0
:100EE80008F1010008F1020803EB020C07F15003B6
:100EF8005FFA88F853FA80F00CF8101C00F8105CC0
:100F08007DE73B692BB1F86908F008FE00287FF4FB
:100F180076AFBB6FDB0709D506F1280307F1280276
:100F2800711C9E1806F8205CCEB268E7BB6F5807A4
:100F38007FF565AF08F1280307F1280208F10101E0
:100F480003EB020808F8105C5FFA81F857E7002005
:100F58006CE707F1300313F8093054F823A087F839
:100F68002F30FB6F13B3D7F8803099451ED2FB6F33
:100F780033F81980BA69012107F12F00D8470028F2
:100F880024DB0544B8F1000F06D15046FFF7BCF941
:100F980000F101081FFA88F8BA6941465046D84757
:100FA800002813DB054409F101096CE74FF000083C
:100FB800E0E700BFD0B900087CEA000898C700083D
:100FC800040000011CC0000845463EE605463CE614
:100FD800214B70B582689A4215DD0133D0E90016BD
:100FE80092FBF3F301294FEAE37476F1000520DA66
:100FF800C91844EB0604C0E90014184901FB03238F
:101008008360012070BD002AFBDAB2F1004F1BBFDC
:101018009B1A13490323B3FBF1F3D0E90041DE1710
:1010280000290FDA01F100459C42B5410ADA002097
:10103800E8E7CD439D426FF00045A5EB0605A541C5
:10104800D6DAF4E7E41A61EB0601C0E90041044985
:1010580001FB03228260D4E7FFC99A3B003665C4CE
:1010680000CA9A3B80B500AF6C468CB06A460D4BFF
:101078004FF4615153610C4BC2E9063010230B4801
:1010880013620B4B53620B4B93620B4B42F8103FAE
:1010980008F0B3FD094BA5469B68D3F88C0009F00E
:1010A800F0FA00BF4CC80008B3C8000844C00008E4
:1010B800D7CE000800020305060000020014012034
:1010C80080B500AF6C468CB06A460D4B4FF4615149
:1010D80053610C4BC2E9063010230B4813620B4BCB
:1010E80053620B4B93620B4B42F8103F08F085FD9F
:1010F800094BA5469B68D3F88C0009F0C2FA00BFDB
:101108004CC80008CCC8000844C0000892C80008B1
:1011180000020305060000020014012030B5044651
:10112800EFF31185102383F31288BFF36F8F044BFD
:101138000FCB84E80F0085F31188BFF36F8F30BDA4
:10114800A80D012001282DE95F410C4606D004288E
:1011580025D06FF0150004B0BDE8508108F065FD9A
:1011680042F210720023FFF7ABF8134B5A43C4E95D
:101178000001A26008F027FD68B168467B2603DFFE
:101188006946204608F0EFFC18B90C4B0FCB84E8F1
:101198000F000020DFE76846FFF7C0FFF0E708F020
:1011A80044FD42F210720023FFF78AF8024B5A43BB
:1011B800C4E90001A260ECE7A086010078C000083D
:1011C80010B5064C049AA368C3F88C2008F03FFDBC
:1011D800A3680020C3F88C0010BD00BF00140120D4
:1011E80001287FB50D462DD18A68184B9A4229D817
:1011F80008F01BFD42F2107200236C46FFF760F8FE
:101208004042134B61EB41015343CDE900012046B5
:101218000293FFF7DDFE2946204608F0A4FCEFF311
:101228001186102383F31288BFF36F8F094D94E85A
:101238000F0085E80F0086F31188BFF36F8F002039
:1012480004B070BD6FF01500FAE700BFFFC99A3B04
:101258006079FEFFA80D012010B5064C049AA3681A
:10126800C3F88C2008F006FDA3680022C3F88C2080
:1012780010BD00BF0014012012F1110F2DE9F0413B
:10128800064600AF884615461C461CD96C468CB0ED
:101298006A46264B4FF4615125485361254BC2E9F4
:1012A800063510231362244B5362244B9362244B5C
:1012B80042F8103F08F0A1FCA546224B9B68D3F8E2
:1012C8008C0009F0DEF900221021284609F01EFAE8
:1012D8000028DBD10CB314F1110F17D96D468CB06F
:1012E8006A46124B4FF4615111485361114BC2E9E0
:1012F800063410231362144B5362104B9362104B45
:1013080042F8103F08F079FCAD46D6E701221021DB
:10131800204609F0FBF90028E0D123462A46414639
:101328003046FFF749F9BD46BDE8F0814CC80008D2
:1013380044C0000898C80008D7CE0008000203057A
:10134800060000020014012092C8000870B5064C7F
:10135800069EA568C5F88C60FFF78EFFA36800227B
:10136800C3F88C2070BD00BF00140120014B186029
:10137800704700BF5408012070B504464518044E54
:10138800AC4200D170BD336814F8010B9847F7E7F9
:10139800540801202DE9F047DFF8A09000AFC842BB
:1013A8000446D9F808300D46BA6AC3F88C2024D30D
:1013B800EA468CB06B46224A03F110061D625A6158
:1013C800204AC3E90624204A5A62204A9A62204ADF
:1013D8001A61EFF305844CBB09F07AF930B3324651
:1013E8001C484FF4615123469E2603DFD9F8083084
:1013F800D546D3F88C0009F044F919B1C3434A1E05
:101408009342D5D900222946204609F07FF906469D
:101418000028CDD120462946FFF7AEFFD9F808307D
:101428003046C3F88C60BD46BDE8F08700233246DD
:101438004FF46151074800F03BFCD7E70014012046
:101448004CC80008E9C80008D7CE00080002030508
:101458000600000244C0000880B505460F469146C4
:101468009A46EFF30583DBB909F032F9C0B14A2691
:1014780003DF0446DFF838800AF09CFA064640F895
:101488000840524649463846A84756F80840EFF300
:10149800058343B909F01CF928B12046552603DF16
:1014A80006F010FAE5E7204601F0E4FCF8E700BF93
:1014B800080000002DE9F041451D00AF04461FD982
:1014C8006D468CB06B46164A03F110065A61154AF0
:1014D800C3E9062404221A62134A5A62134A9A621A
:1014E800134A1A6108F0EBFB034690B132461148E3
:1014F8004FF4615100239E2603DF0120AD4605E02D
:101508000122042109F002F90028D9D1BD46BDE81D
:10151800F0814FF461513246064800F0C9FBECE710
:101528004CC80008FAC8000892C800080002030561
:101538000600000244C00008F8B50C4F1546089A8A
:101548000446BB680E46C3F88C20FFF7B3FF48B9C2
:1015580032462B46204608F0B9FBBB680022C3F888
:101568008C20F8BD6FF00C00F7E700BF00140120D5
:1015780038B50A4D0446069AAB68C3F88C20FFF7C5
:1015880099FF38B9204608F0C1FBAB680022C3F8C0
:101598008C2038BD6FF00C00F7E700BF0014012065
:1015A800034A0020536823F002035360704700BFCA
:1015B800002004E0064B1A6842F400721A601A68A8
:1015C80042F480721A60034B034A1A60704700BFE6
:1015D800003C0240840801200024F4002DE9F04773
:1015E800044607464FF00109DFF8508014B9384621
:1015F800BDE8F08794FAA4F5B5FA85F509FA05F37C
:101608002E0108EB05156FEA030A24EA03042B7B75
:10161800002BEBD058F806301B694BB9464404221E
:10162800284607EA0A077368196808F0B0FEDDE77C
:10163800284698470028D9D1F0E700BF64C00008C1
:101648002DE9484108F022FE20B105486B2603DF4A
:10165800BDE848810248BDE8484109F069BF00BFBC
:10166800681201202DE9704100228FB01B491C48E7
:1016780009F051FF08F00AFE0E23C8B100241948EA
:1016880019494FF4407208AD5626CDE90A34CDE920
:101698000844CDE90C44154B03DF08F0F7FDC0B151
:1016A80010485C26124903DF00200FB0BDE87081A6
:1016B8000024002500904FF440720B49CDE9033017
:1016C800CDE90100094B0748CDE9064505F0B4F915
:1016D800E3E70749034809F04EFDE5E717A30008CB
:1016E80068120120B80D012000200120091B000804
:1016F80023C900082DE9484108F0C8FD20B1054874
:101708004C2603DFBDE848810248BDE8484104F0A3
:10171800E9BE00BF200901202DE9F0478046204896
:101728000F4608F0BAFD0646002832D000252846A4
:10173800BDE8F087237B83B12368DB680BB12046C3
:101748009847636883F8069023681B69CBB9636878
:1017580004222046196808F01AFE01361034544550
:10176800E8D3B8F1000FE2D0002DDFD02846FFF70C
:1017780035FF0546002FF7D06420002108F09AFDB8
:10178800F2E7204698470028E1D009FA06F31D43FE
:10179800E3E7044C0546DFF810A04FF00109DEE747
:1017A8008015012064C0000874C00008014B53F87C
:1017B800200070479CC0000808B5034608462BB1B6
:1017C800044A136000F056FD002008BD6FF01500B4
:1017D800FBE700BF5808012010B5044C23780BB96B
:1017E800FFF788FF0123237010BD00BF04180120F4
:1017F800034B00229B68C3F88C20024B1868704783
:10180800001401207C15012010B504460A4808F090
:1018180044FD5CB1094BBFF35B8F53E8001F0139EE
:1018280043E80012002AF8D1BFF35B8FFFF708FFE7
:10183800BDE81040FFF75EBF781501207C15012038
:101848000020064BBFF35B8F014653E8000F43E8C7
:101858000012002AF9D1BFF35B8F70477815012079
:1018680070B5FFF7EDFF084C0546084EB44200D3AB
:1018780070BD63685B792BB123685B6813B1294637
:10188800204698471034F1E764C0000874C0000887
:1018980010B5044C0449204608F05EFB034B1C605D
:1018A80010BD00BFD008012088C0000870150120B5
:1018B80000230D4A4FF47A710C4810B513700C4A86
:1018C80013600C4A1360FFF777FFFFF7E1FF0A4B3D
:1018D8000A4918468B4200D310BD1A1A5C681033A7
:1018E800121101322271F5E70518012007A300083B
:1018F800781501207C15012064C0000874C0000818
:10190800014600220023014808F052BBD0080120FC
:10191800014808F0F7BB00BFD0080120024B014680
:10192800186808F043BC00BF70150120014808F092
:1019380081BC00BFD0080120264B70B5187800285C
:1019480046D0FFF7E5FF054600283ED1224B234C41
:101958001B68002B12DD08F0C0FC0A220023FEF7EA
:10196800AFFCD4E90032C01A40F2E93361EB02015E
:10197800984271F1000101D3FFF772FFD4E90032F8
:1019880013F57A7342F10002C4E90032BDE87040F1
:10199800FFF7CCBF63685B7923B1236829462046EB
:1019A8001B6898471034B442F4D32846FFF7B6FFB3
:1019B8000B4BBFF35B8F53E8001F013943E800125C
:1019C800002AF8D1BFF35B8FC0E7064C064EEAE762
:1019D80070BD00BF04180120781501206012012095
:1019E8007C15012064C0000874C0000870B50D4D56
:1019F800297861B90C4C01200C4EFFF78DFEB442DA
:101A080006D308F097FC0028FBD101232B7070BD8A
:101A180063685B791BB1236820469B68984710343C
:101A2800EDE700BF0518012064C0000874C0000875
:101A380010B5064C049AA368C3F88C20FFF7D6FFAC
:101A4800A3680020C3F88C0010BD00BF001401205B
:101A58002DE953411D4808F020FC1D4B04461B7816
:101A68007BB1EFF31184102383F31288BFF36F8FD8
:101A780008F060FC84F31188BFF36F8F02B0BDE8F3
:101A88005081144B1B68002BF8D0A8B908F0FEFB56
:101A980038B1114842F2107122462346682603DF06
:101AA800ECE7002200230C48CDE9002342F2107233
:101AB800002306F041FBE1E70928DFD1FFF7C0FD6D
:101AC80002B0BDE85041FFF715BE00BF7C150120EC
:101AD800051801207415012068120120064B10B565
:101AE80004461B6898472146A060044808F0EBFAB2
:101AF800BDE81040FFF7ACBF58080120D00801200E
:101B080000212DE9F0470846FFF706FE044650B3CA
:101B18004FF4FA7500271F4B09F04CFF1E4A1B585B
:101B280013602BB11D4B1B68092B01DDFFF7E2FD8C
:101B38000026DFF86CA03CB12046FFF74FFD0446B5
:101B480010B94FF0FF352F4608F0F4FB814640B935
:101B5800C6B908F09BFBB8B1124829463A464F2649
:101B680003DF4E46E7E74FF0FF352F46D3E73368EC
:101B78009B691BB1002230461146984710365645DE
:101B8800F5D3E6E7084EFAE706482A463B4604F04E
:101B980019FDE6E708000000741501207C150120F6
:101BA80074C000082009012064C0000810B5064C64
:101BB800049AA368C3F88C20FFF7BEFEA36800222E
:101BC800C3F88C2010BD00BF00140120044A054B47
:101BD8009B1AB1EBD30F34BF52F831000020704785
:101BE8001CC0000864C00008B0B500AF28B9E9B14E
:101BF8006C4688B06A461C4B03E06C4688B06A465F
:101C08001A4B53614FF4E251194B1A4893614FF440
:101C180000739383184B42F8103F08F09DFB174B55
:101C2800A5469B68D3F88C0008F02BFD144C15488A
:101C3800001BC50840F3CF00904206DD042B09D9EC
:101C48006C4688B06A46104BDBE76C4688B06A463B
:101C58000E4BD6E7954202D80846BD46B0BD04EB08
:101C6800C2042079F9E700BF84C900082FC9000819
:101C78000DCA000844C00008030000010014012038
:101C88001CC0000864C00008E2C90008B3C9000805
:101C980070B5064C12B2069EA568C5F88C60FFF7B1
:101CA800A3FFA3680022C3F88C2070BD0014012094
:101CB8002DE9F04F8FB0C1F34A280D46914604AF85
:101CC8000C0DB8607B60B8F1000F63D0002607F1F7
:101CD80014034FF0040B4FF00A0AC7F80C80324681
:101CE8007E624846C7E90766019307F11C03CDF8F1
:101CF80008B0CDF800A0F968FEF77CFFB0F5006FDA
:101D080003461CD36C468AB0D9F8041004AB2648A5
:101D18001A46C3E9050140F2FF712448D9614FF41E
:101D2800007119844FF41251214B42F8103F334689
:101D380008F0C3FBA5462C37BD46BDE8F08FC0F3BD
:101D48000A0804F117003B60184468F3532520F093
:101D580007008008FFF7D4FD044690B13B6800F106
:101D68001001144A4846F961C7E9083607F1140317
:101D7800CDF808B0CDE900A307F11C03F968FEF718
:101D880039FF68F353257B68B96820462A4608F06E
:101D980025FBD0E704F1170020F007008008FFF7C3
:101DA800AFFD0446EDE700BF2CCA000824C00008B8
:101DB80004000001B7A3000870B5064C069EA5688C
:101DC800C5F88C60FFF774FFA3680020C3F88C0087
:101DD80070BD00BF001401202DE9F04F85B0044606
:101DE8008846934602AF9946BE6B3D6B002E38D0AD
:101DF800FB6B102100207B60009333467A6BFEF763
:101E080027FDB0F5006F82462CD308F0C9FAA8B9AF
:101E180008F0C6FA50B134480221344A40F2FF7340
:101E28009C2603DF0C37BD46BDE8F08F40F2FF73F8
:101E38002E4A02212C4808F02AFBF3E76C4688B0AA
:101E480002AA2A4B4FF4C4512748536140F2FF734A
:101E58009361032342F8103F002308F02EFBA546A8
:101E6800E0E7B24604F007040BF0070BE40044EA8D
:101E78008B1444EA4A2444EA055408F091FAE8B17C
:101E88000AF10703002523F00703ADEB030D0DF15D
:101E9800080B3EB1FB6B51465846009333467A6BAC
:101EA800FEF7D6FC2E465D4608F07AFA4B46A0B1FE
:101EB8002A462146404608F000FBB3E705F1170023
:101EC800504420F007008008FFF71AFD054610B1BE
:101ED80000F1100BDDE70646E6E7224641463046AC
:101EE80008F07CFA9EE700BF24C000086BCA00080F
:101EF800406820B1034BC01A40F3CF0070474FF041
:101F0800FF3070471CC000080EB403B503AB014690
:101F1800054853F8042B019301F0EAFC02B05DF880
:101F280004EB03B0704700BF2BA50008CA0605D410
:101F38008B064CBF02490349FFF7E6BF704700BF55
:101F4800A4CA0008A3CA00082DE9F04F89B09B462F
:101F580004460D46149B90469DF84CA00693159B8D
:101F6800179E0593169B0493BAF1000F00F09D800D
:101F780006F4807306F00209079308F0EBF90246AD
:101F880000283ED091492046FFF7BEFF0746B9F129
:101F9800000F08D016F0440F35D12A468C49204648
:101FA800FFF7B2FF074406F0010353B1894B2046FF
:101FB800894953F82A20894B002A08BF1A46FFF797
:101FC800A3FF06F48073002B49D006F00803002B0A
:101FD80063D1B8F1000F66D0424681492046FFF729
:101FE80093FF0546069B3D44002B6DD1049B002BB7
:101FF80073D1F30700F1E48031462046FFF796FFDE
:10200800D8E00746C3E7774B18680028CAD0764B54
:102018004FF47A794FF03C0C1B68B5FBF3F5B5FB30
:10202800F0F100FB11554FF4616309FB05F5B1FBB5
:10203800F3F2B5FBF0FE03FB121100FB1E55B1FBDA
:10204800FCF309FB05F50CFB1311B5FBF0F500914A
:1020580020466649CDE901E5FFF756FFA2E706F0FD
:102068000803EBB1624B2046624953F82A20FFF778
:102078004BFF0546B8F1000F05D0424658492046A7
:10208800FFF742FF0544BBF1000FABD05A465A494F
:102098002046FFF739FF0544A4E74FF0000BE1E7BE
:1020A80006F00805E6E745469CE7BBF1010F069BED
:1020B80006D1002B64D1049B002B7BD000250CE0BB
:1020C800002BF8D04D485CE04D48069B22464D4910
:1020D80007F0F3FC049B002B68D0DFF82C81DFF8B5
:1020E8002C91049F4FF0000B31462046102F28BF3B
:1020F8001027FFF71BFF5D4545DC059B4FF0010BE3
:10210800494620461A78FFF7FFFE1BF0070F03D158
:1021180041462046FFF7F8FE5F453BD9059B4946F7
:10212800204613F80B20FFF7EFFE0BF1010BBBF174
:10213800100FEAD14FF0000B35492046FFF7E4FEB7
:102148005A46059B20469A5CA2F120015F29314935
:1021580028BF2E22FFF7D8FE0BF1010BBBF1100FA1
:102168001DD01BF0070F03D141462046FFF7CCFED8
:102178005F455A46E5D841462046FFF7C5FEEBE7DE
:102188001F485546A1E7414620460BF1010BFFF7D2
:10219800BBFEB0E720492046FFF7B6FEC5E7059B22
:1021A8003B440593049BDB1B04939AD1BAF1000FBF
:1021B8007FF41FAF204609B0BDE8F04F08F0A4B97E
:1021C800064A20460449FFF79FFE15E7ABCA0008F8
:1021D800AFCA0008ACC00008F8E10008A6CA0008A9
:1021E800D4CA00088815012084150120B8CA00083F
:1021F800C0C00008D8CA0008DECA000861A50008E7
:102208002BA50008F9380008EBCA0008E3CA000843
:10221800EDCA00086DD70008E9CA000842F20F733A
:10222800114A8B4273B5044628BF0B460568052141
:10223800684607F037F8636806460B2228465B684D
:102248000A4908F053F963683246694628465B68CC
:1022580008F04CF963681B2205495B68284608F0BA
:1022680045F902B070BD00BF4FD700080BCB00087E
:10227800EFCA000800210123064A904206D8064A00
:1022880001B901231360054B18607047400801210C
:102298005B00F2E740420F008415012088150120F9
:1022A8002DE9F8430D46044600EB01090D4F4C4556
:1022B80002D12846BDE8F88314F8018BEFF30586B0
:1022C80056B908F005FA38B126F0FF06384646EA4E
:1022D80008018F2603DFEAE7BB68414601485B68CF
:1022E8009847E4E778BC0008014B03600220704778
:1022F80008C100082DE9F047064600AF0C46002942
:102308003ED0E9468AB0A3686D46D1E9001240483C
:102318004FF0050AA846C5E90501C5E9072348F8AD
:1023280010AF002342464FF421513A48FFF7C0FC52
:10233800CD466369AD46D4E903123748C5F810A005
:10234800C5E90501C5E90723002342464FF4215199
:102358003048FFF7ADFCCD46E56908F07AF920BBB7
:102368002E4A2B4601212B4808F091F8A56908F060
:1023780070F950BB2A4A2B460121264808F087F8F5
:10238800012E0BD1EFF30585103D08F062F968BB0B
:10239800244A2B4631461F4808F079F82146304632
:1023A80003F0A8F9BD46BDE8F08788B06A461B4B24
:1023B800C2E90535032342F8103F00234FF4C25108
:1023C8001448FFF775FCCD46D0E7E84688B06A4662
:1023D800134BC2E90535032342F8103F00234FF49D
:1023E800C2510C48FFF764FCC546C9E7E84688B007
:1023F8006A460C4BC2E90535032342F8103F002317
:102408004FF4C2510348FFF753FCC546C6E700BF67
:1024180070CB000844C000089FCB0008CECB000852
:10242800DDCB00080BCC000830BFFFF7FDBF00BFB5
:102438002DE9F0410B4E0546DFF82C80324606EBBD
:102448000807CC1B0949204609F033FAA019083CB3
:102458004246002109F03BFA07F10800C5F894400C
:10246800BDE8F081000000000400000074C000080E
:1024780086461E488068D0F8A4004FF4806C6044FB
:10248800EC4680F309880EB52DE9011017488068DD
:1024980000F0E2FEBDE80110DCF80000DCF804C042
:1024A8002DE901106246494009F011FABDE8011012
:1024B8006044BDE80E4080F30988704603B40B48B9
:1024C8008068D0F8A01051F00101EFF3148C5CF093
:1024D800010CC0F8A010BFF34F8F8CF31488BFF322
:1024E8006F8F03BCDFF808C06047000000140120AC
:1024F800611400084FF0A10C664503D1EC462DE9A4
:10250800305002E0EC462DE93010DFF858C04FEAB1
:102518008606B444DCF800C0E047DDF810E0DDF8DA
:102528000CC08CF3098803B40F488068D0F8A01059
:1025380051F00101C0F8A010BFF34F8FEFF3148CD6
:102548005CF0010C8CF31488BFF36F8F03BC4FF061
:1025580000014FF000024FF00003C4465CF0010C8C
:1025680060470000D8C400080014012037B54FF0B8
:10257800FF3301930023C55C1DB18B4201D00133A9
:10258800F9E71846002101910199116003B030BDA7
:10259800054BDA699B689A4204D0044A536843F0B1
:1025A80080535360704700BF0014012000ED00E025
:1025B8007FB508F07BF800285BD15549554808F0ED
:1025C8007FF8554B9B6A990169D508F06FF8002888
:1025D8005AD152494F4808F073F81E204E4B9B6A57
:1025E800DA0108D508F062F800285AD14C49494860
:1025F80008F066F81F20484B9B6A1B0308D508F0B3
:1026080055F8002858D14749424808F059F8212080
:10261800414B9B6A590308D508F048F8002856D161
:1026280041493C4808F04CF822203B4B9B6A9A03EE
:1026380008D508F03BF8002854D13C49354808F043
:102648003FF82320344B9B6ADB0308D508F02EF8AB
:10265800002852D136492F4808F032F824202E4A53
:10266800936A6FEA03436FEA1343936207B05DF816
:1026780004FB274B04AA4FF48251264805930223F2
:10268800049308F01AF89CE7244B04AA4FF48251EB
:10269800204805930223049308F00FF89DE71D20B6
:1026A8009CE71F4B04AA4FF482511A480593022352
:1026B800049308F002F89DE71A4B04AA4FF48251DC
:1026C800144805930223049307F0F7FF9FE7164B7E
:1026D80004AA4FF482510F4805930223049307F08C
:1026E800ECFFA1E7114B04AA4FF482510948059366
:1026F8000223049307F0E1FFA3E70D4B04AA4FF46C
:102708008251044805930223049307F0D6FFA5E7F6
:102718001ECC000844C0000800ED00E036CC0008DC
:1027280049CC000863CC000881CC0008A6CC00087E
:10273800C0CC00082DE9F04387B00546894690468D
:1027480000AF07F0B3FF002843D17949794807F073
:10275800B7FF794B9B6ADA0653D507F0A7FF002825
:1027680043D17649734807F0ABFF1124724B9B6A3B
:102778001B0708D507F09AFF002844D170496D4817
:1027880007F09EFF12246C4B9B6A9E0763D507F0E7
:102798008DFF002843D16B49664807F091FF664BCF
:1027A8005E6B9B6A1C0640F1A58007F07FFF00283E
:1027B80041D1654A334601215E4807F068FEB9F108
:1027C800000F04D05C4A936A23F0800393621324B9
:1027D80043E0574B07F110024FF4825155487B6193
:1027E80002233B6107F069FFB3E7544B07F110027E
:1027F8004FF482514F487B6102233B6107F05DFF34
:10280800B3E71024B2E74E4B07F110024FF48251A0
:1028180048487B6102233B6107F04FFFB2E7494B11
:1028280007F110024FF4825142487B6102233B6159
:1028380007F043FFB3E76C4688B06A46424B4FF453
:10284800C2513C48C2E90536032342F8103F07F05D
:1028580034FFA546B3E76FF01506374B9B6AD807D8
:1028680008D507F023FF002847D13849314807F039
:1028780027FF1424304B9B6A990608D507F016FFEA
:10288800002846D132492B4807F01AFF15242A4B55
:102898009A6AD20602D49A6A90070AD55B68190523
:1028A80007D52946304600F051FC10B180F309885D
:1028B8000224214B9A6A920603D55A6A22F40052DE
:1028C8005A629A6A42F0FF029A62224BAA6923F07E
:1028D8000103934229D8204B23F00103934224D9C2
:1028E8001E4BAB61012320461C3788F80030BD46DB
:1028F800BDE8F0836FF0150669E7144B07F1100285
:102908004FF482510B487B6102233B6107F0D5FEEF
:10291800AFE70F4B07F110024FF4825105487B6176
:1029280002233B6107F0C9FEB0E70023DBE700BFE5
:10293800EBCC000844C0000800ED00E001CD000821
:1029480034CD000847CD00085FCD000875CD0008DC
:1029580094CD00087F2500088125000891250008EE
:102968002DE9F04387B004460E46154600AF07F040
:102978009DFE002873D17449744807F0A1FE744B7A
:102988009B6AD90440F1838007F090FE002872D139
:1029980070496E4807F094FE17206D4B9B6A1A0524
:1029A80008D507F083FE002873D16B49674807F004
:1029B80087FE1820664B9B6A9B051ED507F076FE9E
:1029C800002872D16549614807F07AFE604BD3F858
:1029D80038809B6A18040FD507F068FE002870D16C
:1029E8005F4A43460121594807F051FD26B1584A2C
:1029F800936A23F4004393621920554B9B6A590547
:102A080008D507F053FE00286BD156494F4807F008
:102A180057FE1A204E4B9A6AD2057AD507F046FE21
:102A280000286AD15049494807F04AFE1B20484A05
:102A3800936A43F47F4393624C4BA26923F00103EA
:102A480093427ED84A4B23F00103934279D9494BEC
:102A5800A36101231C372B70BD46BDE8F0833A4BB8
:102A680007F110024FF4825138487B6102233B6121
:102A780007F023FE83E7374B07F110024FF482512A
:102A880032487B6102233B6107F017FE84E716207A
:102A980083E7314B07F110024FF482512B487B61D9
:102AA80002233B6107F009FE83E72C4B07F1100274
:102AB8004FF4825125487B6102233B6107F0FDFDFD
:102AC80084E7E94688B06A46254B4FF4C2511F484F
:102AD800C2E90538032342F8103F07F0EEFDCD4662
:102AE80084E7204B07F110024FF4825117487B61AD
:102AF80002233B6107F0E1FD8BE71B4B07F1100256
:102B08004FF4825111487B6102233B6107F0D5FDE8
:102B18008CE79B6A9B048AD507F0C8FD28B916493B
:102B28000A4807F0CDFD1C2081E7134B07F110027E
:102B38004FF4825105487B6102233B6107F0BDFDDC
:102B4800F1E7002386E700BFC3CD000844C00008B2
:102B580000ED00E0D9CD000834CD0008EACD00082A
:102B680003CE000818CE000833CE00087F250008E1
:102B7800812500089125000894CD00082DE9F04131
:102B8800974B8AB004460025D3F8048000AFC8F3F9
:102B9800080685F31188BFF36F8F02F07F43B3F106
:102BA8007F4F0AD102F00C03082B26D107F07EFDD7
:102BB800B8B98C498C4807F083FD00252C460023C2
:102BC800FB71F31E092B00F2EB80DFE813F01B000A
:102BD800DC00DF00D900E900E900E900E900E900CC
:102BE800E200804B07F118024FF482517E48FB61E6
:102BF8000223BB6107F061FDDFE710074CBF0C46FD
:102C08000125DCE707F052FD90B97849764807F0CE
:102C180057FD0023FB71724BDA6A920720D507F043
:102C280045FD88B97249704807F04AFD002365E000
:102C38006E4B07F118024FF482516B48FB61022377
:102C4800BB6107F03AFDE4E7694BFB61022307F13A
:102C580018024FF482516448BB6107F02EFDE5E786
:102C6800DA6A002A06DA07F021FD08B96149DAE7CD
:102C7800604BEAE7DB6A5B00D8D507F017FD30BB8D
:102C88005D49594807F01CFD554BA1695A6942F442
:102C980080725A61BFF34F8FBFF36F8F5A6931F853
:102CA800021C22F480725A61BFF34F8FBFF36F8FFB
:102CB8004DF60272914216D09A6AD2B2002A50D0CA
:102CC800FA1D01212046FFF735FD034616E04A4B61
:102CD80007F118024FF482514348FB610223BB619C
:102CE80007F0EBFCD0E7266807F0E0FC48BB434A56
:102CF800334601213C4807F0CAFB2368FA79E2B958
:102D080007F1080604F1200C2068083454F8041C64
:102D18003246644503C21646F6D17A6A002D5AD067
:102D2800C2F3080121B96FEA52226FEA42227A629D
:102D380007F108011846FFF7DDFA2837BD46BDE858
:102D4800F081E84688B06A462C4B4FF4C2512648B9
:102D5800C2E90536032342F8103F07F0AEFCC5462A
:102D6800CBE79A6A12F47F4F05D0FA1D012120465D
:102D7800FFF7F6FDA9E79B6AB3F5803FFFF456AF6E
:102D8800FFF716FCA1E7FA1D00219BE7FA1D0021B9
:102D9800EDE707F08BFC08B9194944E7184B54E7ED
:102DA80018F4F87F174AE8468AB0174B18BF13463D
:102DB8006A461649103E0C48D661C2E905134FF41D
:102DC80000734FF411511384114B42F8103F07F070
:102DD80074FCC5462AE722F4FF7222F00102A6E736
:102DE80000ED00E079CE000844C00008A4CE000839
:102DF800BBCE0008DCCE0008EACE000809CF0008E8
:102E080025CF000860CE00084BCE000849CF000847
:102E180004000001044B5A6942F010025A615A69D1
:102E280022F008025A61704700ED00E0EFF30880D5
:102E3800EFF3098101B57246FFF7A0FE01BD00BF9F
:102E48000A4880F30888102080F3118808484FF456
:102E58000461401880F30988EFF3148002210843C5
:102E680080F31488BFF36F8F00F0FCF8003801205E
:102E780040230120084B9B6883420BD1EFF3058365
:102E880043B1064B5A6842F080525A605A6A22F49B
:102E980000425A6204F024BD0014012000ED00E055
:102EA80001B508F074F9BDE801401E498A684FF081
:102EB80040001044EFF3098C80E8F01F102080F3E5
:102EC8001288BFF36F8F184F4FF00066CA698A6087
:102ED8003E60D2F89400154C2060D2F89800002388
:102EE800C2F8983080F3118804B5104600F0B4F9A0
:102EF800BDE80440D2F8A000EFF3148323F00103E7
:102F080043EA000383F31488BFF36F8F02F1400094
:102F180090E8F01F8CF3098801B503F0AFFFBDE816
:102F2800014070470014012004ED00E00008012072
:102F38001EF0040F0CBFEFF30880EFF309808169DE
:102F480011F8021CEFF31482032909D012F0010FC3
:102F580001D10229FFD001B5724607F081FB01BDFE
:102F6800DFF894C0DCF808C0DCF8A4C00CF5806C6D
:102F78004FF02008ACF1080CACEB080CF0B404B42A
:102F880002464244C16911F4007F03D031F4007154
:102F980002F10402CCF800204CF80820CCF81C10F0
:102FA80001466246F0C9F0C230C930C208F10408CF
:102FB8004CF808501149CCF818108169884604BCAF
:102FC800F0BC8CF309884FF0A20C664502D306606A
:102FD8004FF0A10608488068D0F8A01021F0010140
:102FE800C0F8A010BFF34F8F22F0010282F31488BB
:102FF800BFF36F8F7047000000140120FD24000804
:1030080040B2002807DB0123410900F01F00024AF3
:10301800834042F82130704700E100E040B20131BE
:1030280000284FEA0111C9B206DB00F1604000F543
:10303800614080F80013704700F00F00014B1954ED
:10304800704700BF14ED00E0044B054A23F07F03EE
:103058009360BFF34F8FBFF36F8F70470000000876
:1030680000ED00E008B5FFF7EFFF0B4AD2F8883013
:1030780023F47003C2F88830EFF3148323F00403B9
:1030880083F31488BFF36F8F02F04CFC04F0E4FD67
:1030980000F0B8F802F0E4FC00ED00E00F4C9A46AE
:1030A8008846914683B5A3680746D3F8880008F098
:1030B80067FBA56840304A466C6F41462E6FAB6F80
:1030C8004034403EC5F8A4006C67E41A2E675346A6
:1030D8003846CDE90064FFF7CBF900BF00140120A2
:1030E80070B50446084615461E4608F049F828B14A
:1030F800236F40332367636F403B6367227BA5F1EF
:103108002003104912F0040F0F4A45F8206C18BF2D
:103118000A4622F0010245F8082C049A45F81C2CAE
:10312800059A45F8182C069A45F8142C4FF0807229
:1031380045F8042C23660023C4F89830C4E92833E2
:1031480070BD00BFA530000861140008174A034687
:1031580010B594682CB3D4F8A400A0B1EFF314828E
:1031680012F001020CD113F1160F05D0A0F14004A2
:103178009C4218D8984216D9884298BF002010BDA2
:10318800D4F88800F8E713F1160F226F05D0A2F1E2
:1031980040049C42F3D89342F1D2914238BF104682
:1031A800EDE72046EBE71046E9E700BF00140120F1
:1031B80008B50F4B04461546D0F8942098600E4683
:1031C8000C4B1A6003F05AFE204600F045F82C46D6
:1031D80086F309880020044B9847204600210022E6
:1031E8000023024C20470000E3A6000861140008F1
:1031F8000014012000080120014B10221A617047B9
:1032080000ED00E0002304481021C2180133622BAE
:1032180082F80013F9D1704700E100E008B5EFF338
:103228000583064A103B02EBC30152F83300496894
:103238008847BDE80840FFF7ABB900BF98BC000855
:10324800024B0121024A034800F008BA0000052099
:103258000000012028C100082DE9F04F83B0054681
:103268006E4600AF88B06A46524B4FF00409DFF84B
:1032780048815361C2E9068042F8109F00234FF449
:1032880004514E48FEF714FDD5F88440B546002C8D
:1032980055D088B06A46DFF828B1D461C2E905B8CC
:1032A80042F8109F00234FF404514448FEF700FDF4
:1032B800B54694F868A088B06A46C2E905B8D461F2
:1032C80042F8109F00233D484FF40451DFF8F4B052
:1032D800FEF7EEFC04F160033848B54626460024A4
:1032E8007B6073683BB3A146C7F800D001348AB04D
:1032F8003168E4B26A46DFF8D0C0C2E90713052393
:10330800C2E905C842F8103F00234FF42451FEF7E4
:10331800CFFC0C233268BAF1010A03FB09F9D7F88C
:1033280000D026480BEB09034BF8092072685A6055
:10333800B2689A6003D00C367B689E42D1D16E4643
:1033480088B06A46214BD561C2E90538042342F8A2
:10335800103F002319484FF40451FEF7A9FCD5F893
:10336800A430B5461748D5F870C093B9ACF14003FE
:103378000C226243811883504022154B1148C1E941
:103388000123611CC9B200F0B5F90C37BD46BDE890
:10339800F08FD5F8886021466A6F0C250134403BD0
:1033A80069436244E4B2921B451846506A60094A70
:1033B800AA60DDE75CCF0008D7CF00083CC0000852
:1033C8007DCF0008B015012096CF0008B0CF0008C7
:1033D80000000B1500000B13134A98B5C2F89800AB
:1033E80000AF0B688AB023F01F03034343F01003B8
:1033F800C2F89C308B6843F00103C2F8A0306A46DB
:103408000C688B680949C2E90843516106230849D9
:10341800C2E9061042F8103F00234FF44451054812
:10342800FEF746FCBD4698BD00ED00E0FFCF000862
:10343800D5D000083CC00008F8B5234B00AF0446BF
:103448000E46D3F890300546C3F30723013B984254
:1034580022D9EFF3058555B11C4A234601211C48A2
:1034680007F015F86FF015052846BD46F8BD07F0BA
:103478002FF90028F0D06E4688B06A46134BC2E98F
:103488000534032342F8103F4FF4C2512B4610482D
:10349800FEF70EFCB546E5E76C4688B06A460D4B6C
:1034A80053610D4BC2E90630042342F8103F002354
:1034B8004FF404510648FEF7FBFB31462846A54663
:1034C800FFF78AFFD0E700BF00ED00E016D0000844
:1034D8003CC000083CD00008E1D00008F0B585B039
:1034E80005460C466E4600AF88B06A460E4B5361DF
:1034F8000E4BC2E90630042342F8103F00234FF474
:1035080004510B48FEF7D4FB2368B546391D7B6090
:10351800D4E9010307F0FCF803432846FB60FFF7F2
:103528008BFF1437BD46F0BD61D00008FAD0000803
:103538003CC00008044B0522C3F89420BFF34F8F0A
:10354800BFF36F8F704700BF00ED00E0BFF35F8FE0
:10355800024B0022C3F89420704700BF00ED00E042
:10356800044B054AD3F890301078C3F30723181A90
:10357800704700BF00ED00E0071801202DE9F04179
:103588000346EFF3118C102686F31288BFF36F8F72
:10359800314CD4F89000C0F307200138451C05D100
:1035A8008CF31188BFF36F8FBDE8F081EFF31187BB
:1035B80086F31288BFF36F8FC4F89800D4F8A05030
:1035C80087F31188BFF36F8FEF07E6D5EFF3118705
:1035D80086F31288BFF36F8FC4F89800D4F89C5014
:1035E800D4F8A08087F31188BFF36F8F71B34F1E93
:1035F800DF19D2D225F01F05AB42CED3C8F3440859
:103608004FF0010E013D08F101080EFA08FE75445D
:10361800BD42C2D3EFF31181102383F31288BFF3A5
:103628006F8F0D4BC3F89800D3F8A03081F3118841
:10363800BFF36F8F180EC3F302634AB1DE1E7042E8
:103648007041B0FA80F040094042A9E70F46CFE741
:1036580000F00200F5E700BF00ED00E02DE9F041C1
:10366800214D00AF884604462A780026464513DADD
:103678006368002B34D0591E0B4211D11F2B0FD970
:10368800236819420CD12146D0B2FFF727FF10F169
:10369800160F24D16FF015022A70BD46BDE8F081DF
:1036A800EFF3058434B1114A33460121104806F07E
:1036B800EEFEEFE707F00CF80028F4D0E84688B0F3
:1036C8006A460A4BC2E90536032342F8103F4FF415
:1036D800C25123460648FEF7EBFAC546DAE7421C14
:1036E80001360C34C2E700BF0718012088D0000853
:1036F8003CC00008134B70B50D461B7804460026E5
:10370800AE420BDB13F1160F07D00F490020D1F89A
:103718009020C2F3072293420DDB70BD62683AB174
:103728002146D8B2FFF7DAFE10F1160FF5D0431C88
:1037380001360C34E4E7C1F898300133C1F8A00031
:10374800E5E700BF0718012000ED00E02DE9F0478C
:103758005E4A84B05E4ED2F89030356800AFC3F34D
:1037680007239D4200F2AE806C4688B0D2F89030B4
:103778006A465849C3F307235161D3610423564964
:10378800916142F8103F00234FF4045153484FF021
:103798000C08FEF78DFAA5460024FFF7D7FEAC42C9
:1037A8001BD34F4C3846DFF83C812570FEF79CFD53
:1037B80000250646DFF83091DFF830A1AE4214D17B
:1037C800237800204149D1F89020C2F30722934280
:1037D80072DB0020FFF7AEFE42E07168204608FB6E
:1037E80004110134FFF7F8FDD9E738684FEA051CE2
:1037F80000EB0511CB6803EA0803B3F5000F45D0C9
:103808000AD8B3F5001F2FD0B3F5800F35D0B3F524
:10381800801F10D00135D1E7B3F1807F3FD0B3F1DD
:10382800007FF7D150F80C30886806F071FF4A68BD
:1038380040F4802009E050F80C30886806F068FFF2
:1038480040F088504A6840F43020F860391D2078EC
:10385800C7E90123FFF7F0FD002829DA6FF015000A
:103868001037BD46BDE8F08750F80C30886806F080
:103878004FFF4A6840EA0900E7E750F80C308868CB
:1038880006F046FF4A6840EA0A00DEE750F80C30C6
:10389800886806F03DFF4A6840F08270D5E750F826
:1038A8000C30886806F034FF4A6840F08870CCE72E
:1038B800237801332370ADE7C1F898300133C1F89C
:1038C800A00080E74FF0FF30CAE700BF00ED00E03E
:1038D80034C10008ABD00008C6D000083CC00008BE
:1038E800071801200000F0FF000008110000020680
:1038F800F0B587B007460E461446002110226846E8
:103908001D4607F0E4FF02232A4621468DF80230BF
:103918006846044BCDE90476019305F0EDFC07B049
:10392800F0BD00BF39A70008024808B507F06FFFCF
:10393800002008BD0C09012008B5024B1B689847F8
:10394800002008BD2408012010B5064C049AA3687D
:10395800C3F88C20FFF7F0FFA3680022C3F88C207F
:1039680010BD00BF00140120034B044A186093786F
:1039780043F00203937070472408012014080120C3
:103988000C23012110B5013B0A464FEA4101FAD147
:103998000A48B2F5006F20F4FF6121F0070101F534
:1039A800006409D10130844288BF4FF48062044822
:1039B80006F046F8002010BD1946F8E7FF07012079
:1039C8002C0801202DE9F041054600244FF001089C
:1039D8000E4E0F4F2B7871691A19D2B208FA02F2FB
:1039E80001EA02008A4309D153FA84F3706157F857
:1039F80033201AB107EBC3035968904701346A783A
:103A0800E3B29A42E6D2BDE8F08100BF003C014033
:103A180028160120044B18440023013300F8012B19
:103A28009942FADC704700BFA008012007B50622BA
:103A380001210020FFF7EEFF002206201146FFF7C4
:103A4800EDFA012107220846FFF7E4FF00220720CC
:103A58001146FFF7E3FA082201210220FFF7DAFFF7
:103A6800002208201146FFF7D9FA09220121032074
:103A7800FFF7D0FF002209201146FFF7CFFA0A22EC
:103A880001210420FFF7C6FF00220A201146FFF794
:103A9800C5FA052117220846FFF7BCFF00221720A8
:103AA8001146FFF7BBFA282206210A20FFF7B2FFCA
:103AB800002228201146FFF7B1FA4FF48043442230
:103AC8000648CDE9002383681B6823B169469847F7
:103AD80003B05DF804FB6FF05700F9E798BA0008E7
:103AE800034660B1B0FA80F2C2F11F02D2B20549B2
:103AF8008856054A11680B431360FFF781BAFF2205
:103B0800F5E700BFA0080120003C0140024A136805
:103B180023EA000313607047003C0140032921D8C1
:103B2800DFE801F0020C10190F4B9A6822EA000234
:103B38009A60DA6822EA0002DA6070470A4B9A68EB
:103B48000243F5E7084BDA680243DA609A6822EA2A
:103B580000029A607047044B9A6802439A60DA68D8
:103B68001043D860704700BF003C014030B5B0B189
:103B7800B0FA80F3C3F11F03DBB20B4850F83340AF
:103B88008C4204D100EBC3056D68954205D044B959
:103B980040F8331000EBC3004260002030BDFF2323
:103BA800EBE76FF00F00F9E72816012060B1B0FAD3
:103BB80080F3C3F11F03DBB2044A002142F833103B
:103BC80002EBC30251607047FF23F5E72816012076
:103BD80000F003020F23043292009340074A43EA9D
:103BE8009000C3B2023352F82320030C93FAA3F3D4
:103BF80002EA1040B3FA83F3D84070470038014016
:103C080038B5284B14460D4618680B88C3F30B02C9
:103C1800092A1DD0072A134611D8CAB1931E052BAD
:103C280006D8DFE803F0360336341E284FF4FA408E
:103C380020602B68B3F5805F2DD2002038BD402A64
:103C48000DD008D822F00402302AF1D0382BEFD05A
:103C58006FF08500F2E7442A0BD0A82AF7E780081E
:103C6800E6E700F0B5F81923B0FBF3F04FF4D8738A
:103C780058434008DCE700F0ABF81923B0FBF3F039
:103C88004FF4D87358430923B0FBF3F0D0E7064844
:103C9800CEE70020CCE7C3F313330133B0FBF3F0D6
:103CA8002060CAE78408012040787D0170B5444D42
:103CB80000F0C2F8434C284606F002FE01F084FBEF
:103CC800A368414AC3F30313D35C20FA03F61378BD
:103CD8001D41AE4202D2284601F0A4FB236823F41A
:103CE80080232360236843F480332360354B1A68AC
:103CF8009103FCD55A6F42F001025A675A6F920736
:103D0800FCD59A6802F00C02082A17D11A689407A1
:103D180007D41A6842F001021A602A4A1368980701
:103D2800FCD5284B9A6822F003029A609A6812F030
:103D38000C0FFBD19A6822F0F0029A60214C23689C
:103D480023F08073236023689901FCD4636823F40B
:103D580040336360636823F0706343F0106363600B
:103D680000F03AF8236843F080732360154B1A6813
:103D78009201FCD59A6822F0F0029A609A6822F0C3
:103D8800030242F002029A609A6802F00C02082AC2
:103D9800FAD1AE4202D3284601F044FB0B4B002077
:103DA800074A1A60074A936823F4E05343F4A05380
:103DB8009360936823F4604343F40043936070BDB9
:103DC80000E6DF0C0038024086D500088408012090
:103DD8000048704740787D01114B12495A681140DC
:103DE800114A0A4311495A605A681140104A0A4355
:103DF8005A601A6842F080721A60A3F5E4331A68B0
:103E080042F480321A605A68D203FCD51A6842F428
:103E180000321A60074A53689B03FCD5704700BFFD
:103E2800003802400080BCFF196C40000080BFF0E1
:103E3800196C400900700040064B82B01A6C42F0C1
:103E480080521A641B6C03F080530193019B02B0EB
:103E5800704700BF0038024008B5074806F0EDFF7C
:103E680038B10648FFF780FD0448FDF77FFA0020C7
:103E780008BD6FF01200FBE778BC0008893E000817
:103E88000A2838B50446074D04D1AB680D212846E9
:103E98005B689847AB68E1B202485B689847204680
:103EA80038BD00BF78BC00082DE9F843D0F804807D
:103EB8001746D0F810900D46D8F808001E4606F0B0
:103EC80053FCB7F5001F044616D1D8F80840284619
:103ED800FFF77EFE84420CD1294606F045FC0446D5
:103EE800FFF714FE2046FFF761FE00212046FFF78A
:103EF80015FE0020BDE8F883B7F5800F20D0B6F195
:103F0800806F19D0B6F1C06F18D0B6F1007F1AD102
:103F180002264A460F492046FFF728FEB0B9D8F8CE
:103F28000810284606F023FC20463146FFF7F6FD28
:103F38002046FFF7D5FDDCE70126EAE70326E8E798
:103F48006FF08500D6E76FF01500D3E76FF00F002C
:103F5800D0E700BF4BAB000838B50369044658608A
:103F68000A4D284606F069FF60B1AB6861681B68B6
:103F78000C3123B12846984700EAE07038BD6FF04D
:103F88005700F9E76FF01200F8E700BF98BA000889
:103F98002DE9F0412F4E00AF14460546B3685FFA8D
:103FA80081F83A6AC3F88C20FCF70AF9294606F02A
:103FB800F6FDA0B9A86803684BBB6C468AB06A4690
:103FC800254B4FF441515361244B9361244BC2E973
:103FD8000730244B5362244B42F8103F0EE06C46E6
:103FE80088B06A46214B4FF4E25153611B4B9361F1
:103FF8004FF4007393831E4B42F8103F1D4806F0A0
:10400800DEFDB368A546D3F88C0006F03AFBE20261
:10401800D5F810C006D514F4402F03D0E30748BFE5
:1040280084F440240121DCF8003024F48012E407F1
:1040380001FA08F14CBF0B438B434146CCF80030E2
:10404800036828469847B3680022C3F88C20BD4609
:10405800BDE8F0810014012018D20008C3D300087D
:1040680061D200080002010305000002F1D1000836
:104078000300000144C000082DE9F041334C00AFB3
:1040880006460D46A3683A6AC3F88C20FCF798F8F0
:10409800314606F084FDA0B9B3685A684ABB6D463C
:1040A8008AB06A462A4951612A4991612A49C2E976
:1040B80007132A4B4FF441515362294B42F8103FE2
:1040C8000EE06D4688B06A46264B4FF4E2515361C4
:1040D800204B93614FF400739383234B42F8103FB6
:1040E800224806F06CFDAD46A368D3F88C0006F0B4
:1040F800C8FA6B1D17D96E468CB06A461C4B4FF434
:1041080061511A485361134BC2E9063504231362FF
:10411800184B5362184B9362184B42F8103F06F045
:104128004EFDB546E0E701220421284606F0EEFAE6
:1041380080460028DFD1B368294630465B68984737
:10414800A368C3F88C80BD46BDE8F0810014012047
:1041580018D20008AAD300086FD200080002010391
:1041680005000002F1D100080300000144C0000866
:104178004CC8000892C800080002030506000002A7
:104188002DE9F047244E00AF91460446B3688846AF
:10419800BA6AC3F88C20FCF713F8214606F0FFFC36
:1041A8000546B8B9A368D3F808A0BAF1000F29D119
:1041B8006C468AB06A461949516119499161194991
:1041C800C2E90713184B4FF441515362174B42F899
:1041D800103F0EE06C4688B06A46154B4FF4E2512A
:1041E80053610F4B93614FF400739383114B42F863
:1041F800103F114806F0E3FCB368A546D3F88C00DD
:1042080006F03FFA4A4641462046D047B368C3F80D
:104218008C50BD46BDE8F0870014012018D2000874
:104228008AD300087CD200080002010305000002BE
:10423800F1D100080300000144C000082DE9F04155
:10424800224E00AF04468846B3683A6AC3F88C2009
:10425800FBF7B6FF214606F0A2FC0546A0B9A36805
:10426800DA684ABB6C468AB06A46194951611949ED
:1042780091611949C2E90713184B4FF44151536230
:10428800174B42F8103F0EE06C4688B06A46154B53
:104298004FF4E25153610F4B93614FF400739383D2
:1042A800114B42F8103F114806F089FCB368A54647
:1042B800D3F88C0006F0E5F9414620469047B368EC
:1042C800C3F88C50BD46BDE8F08100BF0014012042
:1042D80018D200086CD3000890D20008000201032D
:1042E80005000002F1D100080300000144C00008E5
:1042F8002DE9F041224E00AF04468846B3683A6A79
:10430800C3F88C20FBF75CFF214606F048FC054605
:10431800A0B9A3681A694ABB6C468AB06A461949AB
:104328005161194991611949C2E90713184B4FF4B2
:1043380041515362174B42F8103F0EE06C4688B06B
:104348006A46154B4FF4E25153610F4B93614FF49A
:1043580000739383114B42F8103F114806F02FFC6D
:10436800B368A546D3F88C0006F08BF94146204681
:104378009047B368C3F88C50BD46BDE8F08100BFD4
:104388000014012018D200084CD30008A2D200085B
:104398000002010305000002F1D10008030000013A
:1043A80044C000082DE9F041224E00AF044688467B
:1043B800B3683A6AC3F88C20FBF702FF214606F07F
:1043C800EEFB0546A0B9A3685A694ABB6C468AB099
:1043D8006A4619495161194991611949C2E9071396
:1043E800184B4FF441515362174B42F8103F0EE0FF
:1043F8006C4688B06A46154B4FF4E25153610F4B37
:1044080093614FF400739383114B42F8103F1148A6
:1044180006F0D5FBB368A546D3F88C0006F031F951
:10442800414620469047B368C3F88C50BD46BDE866
:10443800F08100BF0014012018D200082FD3000813
:10444800B6D200080002010305000002F1D10008FD
:104458000300000144C000082DE9F8432C4E00AFCA
:1044680014460546B3685FFA81F8BA6AC3F88C2027
:10447800FBF7A6FE294606F092FBB8B9AB68D3F85D
:104488001890B9F1000F29D16C468AB06A462149C3
:104498005161214991612149C2E90713204B4FF429
:1044A800415153621F4B42F8103F0EE06C4688B0F2
:1044B8006A461D4B4FF4E2515361174B93614FF419
:1044C80000739383194B42F8103F194806F077FBA5
:1044D800B368A546D3F88C0006F0D3F823022A69FE
:1044E80007D50123126803FA08F3134201D084F0B8
:1044F800C064104B04F0B072414628462340C847B8
:10450800B3680022C3F88C20BD46BDE8F88300BF1D
:104518000014012018D200080BD30008C7D20008E5
:104528000002010305000002F1D1000803000001A8
:1045380044C0000840000006F8B5214E00AF04460C
:10454800B3683A6AC3F88C20FBF73AFE214606F0B6
:1045580026FB0546A0B9A3681A6A4ABB6C468AB00E
:104568006A4618495161184991611849C2E9071307
:10457800174B4FF441515362164B42F8103F0EE06F
:104588006C4688B06A46144B4FF4E25153610E4BA7
:1045980093614FF400739383104B42F8103F104817
:1045A80006F00DFBB368A546D3F88C0006F069F851
:1045B80020469047B368C3F88C50BD46F8BD00BF8D
:1045C8000014012018D20008EFD20008DFD200083A
:1045D8000002010305000002F1D1000803000001F8
:1045E80044C000082DE9F047044600EBC106002549
:1045F8001C4FB44201D1002014E02068C30600F02B
:104608001F0911D4656845F02005C0F3481AC0F3A6
:104618004420102823D857F82080B8F1000F0DD176
:104628006FF01200BDE8F087B9F1100F04D0B9F1AE
:10463800110FEAD16568E8E73025E6E7404606F05D
:10464800FCFB0028ECD04B462A460AF00F014046F6
:1046580006F08DFA002804F10804CADAE2E76FF0E0
:104668001500DFE734C200087FB506F039FB38B91A
:104678000A4A01210A4807B05DF804EB05F0FEBEBE
:10468800064B059302230493002304AA4FF4825196
:104698000348FDF70DFB07B05DF804FBEED30008F7
:1046A8005CC00008F8B50C46036941685D68237969
:1046B800012B15D09F1E7E427E41B6026279022AE6
:1046C80096BF444F4FF4005737F81270A279022A68
:1046D80009D0042A2FD0003B18BF01231B0306E092
:1046E8004FF4C066EAE7B3FA83F35B091B07E27984
:1046F8000968012A14BF4FF0000C4FF4407CA54212
:104708001CD10A6822F0805222F4B05232431A4374
:104718000A604B6823F440533B434B6043681A6874
:10472800936823F4407343EA0C0393602968BDE857
:10473800F84006F051BB4FF48053D8E7D1F800E0B9
:104748000EF4C06E764506D0D1F800E02EF4C06EA7
:104758004EEA06060E6041680E68716801F4405121
:104768008F4204D0716821F4405139437160416827
:104778000E68316801F010218B4204D0316821F0B5
:1047880010210B433360436819688B6803F4407346
:104798009C4505D08B6823F4407343EA0C038B6077
:1047A80043681B689968490405D5032A09D09A68A3
:1047B80022F4804204E0032A03D19A6842F480423A
:1047C8009A6021682B68994203D006F005FB23689C
:1047D8002B60F8BD60C700082DE9F04387B0064696
:1047E8004568D0F8108000AF7A48C8F8000006F095
:1047F80024FB0446B8B906F073FA38B9764A0121A1
:10480800764805F03BFE6FF012041CE0724B7B61AA
:1048180002233B61234607F110024FF482516F488F
:10482800FDF746FAEFE7D8F80000E96883681B68E7
:1048380073B19847044668B93A460021286A06F0D9
:10484800C1F9041E1EDA20461C37BD46BDE8F083B8
:104858006FF0570406F044FA38B9614A01215F48FD
:1048680005F00CFE002CEEDBE6E75D4B7B610223D6
:104878003B61002307F110024FF482515748FDF7BE
:1048880017FAEFE73B68002219791868FFF7AAFEC4
:10489800041ED8DB756833692C68D3F80490236844
:1048A80023F001032360686806F0C7FA804650B910
:1048B80006F016FA08B94B4AA1E74A4B7B61022376
:1048C8003B614346A7E7D5E901018368DB6803B18B
:1048D800984754E8003F43F00C0344E80032002AAC
:1048E800F7D149463046FFF7DDFE2B7D1BB1A368A3
:1048F80043F00803A3606B7D1BB1636843F4004376
:104908006360AB7D1BB1636843F480336360EB7D08
:104918001BB1636843F4003363602B7E002B4FD0D8
:10492800314B9C4232D0A3F54C439C422ED003F528
:1049380080639C422AD003F580639C4226D003F50D
:1049480080639C4222D003F544439C421ED0A3F5C9
:104958001C439C421AD003F580639C4216D06C46D7
:1049680088B033686A462149C2E905134FF40073D9
:1049780093831F4B42F8103F00234FF4E25117482E
:10498800FDF796F9A5466FF015045CE773681A6899
:10499800936843F48043936023686A7E23F07873B6
:1049A80043EA425323602368AA7E23F4F81343EAB8
:1049B80002432360EB7E1BB1A36843F40043A3606A
:1049C800236843F001032360E3699B02FCD50024BC
:1049D80039E700BF98BA00081CD400085CC000087A
:1049E8003BD400085BD400080010014076D40008CE
:1049F80003000001F8B5436802460E4691F805E049
:104A08001C68036908795D6801288B791ED1BEF19D
:104A1800020F72D9022B1F464FF4C0614FF4005C9D
:104A280000F08380042B7BD020B1C31E012B79D9E1
:104A38004FF48050BCF5805F00F08180BCF5405F8A
:104A48007FD0BCF1000F1CD101231BE002280AD142
:104A5800BEF1020F5DD9022B1F464FF480610BD0C7
:104A68004FF4005CDEE7BEF1020F55D9022B1F465A
:104A780054D100285FD00021C31E012B52D9002039
:104A88000227032373454DD106F0E8F8B84249D10F
:104A9800F37903B3012B56D12C4B9C421BD0A3F5C1
:104AA8004C439C4217D003F580639C4213D003F516
:104AB80080639C420FD003F580639C420BD003F5C2
:104AC80044439C4207D0A3F51C439C4203D003F502
:104AD80080639C4226D123683146104623F00103A7
:104AE8002360FFF7DFFD236843F00103236096E8A6
:104AF800030085E803000020F8BD4FF4C061144F9F
:104B0800022B37F81EC01F468CD170B94FF0805069
:104B180090E74FF48061F2E70021F0E700219FE77A
:104B2800002885D06FF08500E6E7C31E012BF9D970
:104B3800022700207EE701464FF08050A1E70023BE
:104B4800A0E702239EE7032BA6D0EBE70010014065
:104B580060C70008F8B5214E00AF0446B3683A6A4A
:104B6800C3F88C20FBF72CFB214606F053F90546C9
:104B7800A0B9A3689A684ABB6C468AB06A461849C5
:104B88005161184991611849C2E90713174B4FF44D
:104B980041515362164B42F8103F0EE06C4688B004
:104BA8006A46144B4FF4E25153610E4B93614FF434
:104BB80000739383104B42F8103F104806F03AF9FF
:104BC800B368A546D3F88C0005F05BFD20469047F6
:104BD800B368C3F88C50BD46F8BD00BF001401206F
:104BE80018D2000870D50008C3D4000800020103D9
:104BF80005000002F1D100080300000144C00008CC
:104C0800F8B5354C00AF06460D46A3683A6AC3F8B6
:104C18008C20FBF7D5FA314606F0FCF8A0B9B3684A
:104C28001A684ABB6D468AB06A462C4951612C49BC
:104C380091612C49C2E907132B4B4FF44151536240
:104C48002A4B42F8103F0EE06D4688B06A46284B62
:104C58004FF4E2515361224B93614FF400739383F5
:104C6800244B42F8103F244806F0E4F8AD46A36808
:104C7800D3F88C0005F005FD6B1C17D16E468CB07F
:104C88006A461E4B4FF461511B485361144BC2E9ED
:104C98000635012313621A4B53621A4B93621A4B5F
:104CA80042F8103F06F0C6F8B546E0E7012228466C
:104CB800114605F02BFD0028E0D1B3681B6843B10D
:104CC800294630469847A3680022C3F88C20BD4681
:104CD800F8BD6FF05700F6E70014012018D200085D
:104CE8005CD50008CDD400080002010305000002CD
:104CF800F1D100080300000144C000084CC80008B6
:104D080092C800080002030506000002F8B5314CFD
:104D180000AF06460D46A3683A6AC3F88C20FBF735
:104D28004FFA314606F076F8A0B9B3681A684ABB5C
:104D38006D468AB06A4628495161284991612849D7
:104D4800C2E90713274B4FF441515362264B42F8EF
:104D5800103F0EE06D4688B06A46244B4FF4E2518E
:104D680053611E4B93614FF400739383204B42F8B9
:104D7800103F204806F05EF8AD46A368D3F88C00D3
:104D880005F07FFCEB1C17D96E468CB06A461A4BAF
:104D98004FF4615117485361104BC2E9063502239D
:104DA8001362164B5362164B9362164B42F8103F30
:104DB80006F040F8B546E0E701220221284605F052
:104DC800A5FC0028E0D1A368C3F88C006FF085002B
:104DD800BD46F8BD0014012018D2000844D50008CB
:104DE800CDD400080002010305000002F1D100083B
:104DF8000300000144C000084CC8000892C800081D
:104E080000020305060000022DE9F041234D00AF22
:104E180006465FFA81F8AB683A6AC3F88C20FBF75C
:104E2800CFF9314605F0F6FF0446A0B9B3685A68D1
:104E38004ABB6C468AB06A46194951611949916161
:104E48001949C2E90713194B4FF441515362184BE2
:104E580042F8103F0EE06C4688B06A46154B4FF496
:104E6800E25153610F4B93614FF400739383124BDC
:104E780042F8103F114805F0DDFFAB68A546D3F8AE
:104E88008C0005F0FEFB304641469047AB68204653
:104E9800C3F88C40BD46BDE8F08100BF0014012076
:104EA80018D200082FD50008D5D400080002010345
:104EB80005000002F1D100080300000144C0000809
:104EC800B0B51F4C00AF0546A368BA69C3F88C207B
:104ED800FBF776F9294605F09DFFA0B9A9684A684D
:104EE8004ABB6D468AB06A46164B5361164B9361AE
:104EF800164BC2E90731164B4FF441515362154B1B
:104F080042F8103F0EE06D4688B06A46124B4FF4E7
:104F1800E25153610C4B93614FF4007393830F4B31
:104F280042F8103F0E4805F085FFA368AD46D3F858
:104F38008C0005F0A6FBA268C2F88C00BD46B0BD87
:104F48000014012018D2000816D50008D5D400088E
:104F58000002010305000002F1D10008030000016E
:104F680044C00008F8B5364C00AF06460D46A368A5
:104F78003A6AC3F88C20FBF723F9314605F04AFF5B
:104F8800A0B9B3681A694ABB6D468AB06A462D490A
:104F980051612D4991612D49C2E907132C4B4FF4FA
:104FA800415153622B4B42F8103F0EE06D4688B0DA
:104FB8006A46294B4FF4E2515361234B93614FF4F6
:104FC80000739383254B42F8103F254805F032FFC4
:104FD800AD46A368D3F88C0005F053FB15F1090F13
:104FE80017D96E468CB06A461E4B4FF461511C4867
:104FF8005361154BC2E90635082313621A4B5362F5
:105008001A4B93621A4B42F8103F05F013FFB5464E
:10501800DFE701220821284605F078FB0028E0D1C7
:10502800B3681B6943B1294630469847A3680022F4
:10503800C3F88C20BD46F8BD6FF05700F6E700BFF7
:105048000014012018D20008FFD40008DED400089C
:105058000002010305000002F1D10008030000016D
:1050680044C000084CC8000892C8000800020305A4
:1050780006000002F8B5364C00AF06460D463A6AFF
:10508800A368C3F88C20FBF79BF8314605F0C2FEF5
:105098000246A0B9B368196949BB6D468AB06A4629
:1050A8002C4951612C4991612C49C2E907132C4BB9
:1050B8004FF4415153622B4B42F8103F0EE06D46BE
:1050C80088B06A46284B4FF4E2515361224B9361F2
:1050D8004FF400739383254B42F8103F244805F0A2
:1050E800A9FEAD46A368D3F88C0005F0CAFA15F1FD
:1050F800090F17D96E468CB06A461E4B4FF46151A2
:105108001B485361144BC2E90635082313621A4B36
:1051180053621A4B93621A4B42F8103F05F08AFE0D
:10512800B546DFE70821284605F0F0FA0028E1D166
:10513800B368DB6843B1294630469847A368002224
:10514800C3F88C20BD46F8BD6FF05700F6E700BFE6
:105158000014012018D20008E9D40008DED40008A1
:105168000002010305000002F1D10008030000015C
:1051780044C000084CC80008D7CE00080002030548
:10518800060000024FF0E0230F4910B59C691A6928
:1051980008689B6902F480320C4934B993B9034614
:1051A8004AB90A681044C01A10BD002B08BF03464C
:1051B8000AB9A342F5D90A6802440A604FF0E0220E
:1051C8001269EEE70446F3E78817012084170120E7
:1051D8000A4B1022002083F8232045F26042084B36
:1051E8001A6045F25F42074B18604FF0E0235A619E
:1051F80098611A6942F007021A61704700ED00E0F1
:105208008817012084170120684620F007018D4681
:1052180019B5FFF7B7FF1149114B0868D3E90042E8
:10522800001942F10002C3E900020E4A00230B6094
:1052380045F26043D2E90041001BB0FBF3F0434361
:105248001B1941F10001C2E9003102F02BFEFDF704
:105258009FF9BDE819408546704700BF84170120B3
:10526800A8120120A01201202DE9F041DFF8E0800A
:1052780099B1421C0BD14FF0E022136923F00103CE
:1052880013614FF07F43C8F80030BDE8F081D8F8CB
:105298000060012807DC00270BE0431CD8F80060F9
:1052A800F7D140F20730B0F5427FA8BF4FF4427003
:1052B800471EEFF31185102383F31288BFF36F8F16
:1052C800FFF760FF234C4FF0E0239969D4E90023EE
:1052D80080184FF0000243F10003C4E900031E4B9D
:1052E8001A601E4B1A68831A2ED445F2604C0CFBC8
:1052F800073303F5A8435F33B3FBFCF7131A40F2F7
:1053080046520CFB0733934238BF1346144A934264
:1053180028BF1346C8F800304FF0E022013B9069DF
:105328005361002381429361A1EB0003D4E9001289
:1053380038BF9B195B1842F10002C4E9003285F3BB
:105348001188BFF36F8FA0E740F24653E2E700BF32
:1053580088170120A812012084170120A01201201B
:10536800A06EFF0038B5EFF31185102383F3128880
:10537800BFF36F8F084B1C68084B1B68E41AFFF7D4
:1053880001FF85F31188BFF36F8F45F26043204416
:10539800B0FBF3F038BD00BFA8120120A012012015
:1053A80038B5EFF31185102383F31288BFF36F8F9D
:1053B800044B1C68FFF7E6FE85F31188BFF36F8F77
:1053C800204438BDA8120120134908B58B6803F0A2
:1053D8000C03042B1BD0082B1BD14A684B68496867
:1053E80002F03F0213F48003C1F388111ABF0B487F
:1053F80000230B48A1FB0001FAF762FF064B5B682C
:10540800C3F3014301335B00B0FBF3F008BD03486D
:10541800FCE70348FAE700BF0038024040787D0106
:105428000024F40000285DD02F4B1A681B6802F492
:105438004042B2F5404F33D113F4803310D102F11A
:105448000F6202F58C52904248D8284A904247D8B9
:10545800274A904235D8274A904209D902230DE0BD
:10546800254B984238D8234B98424FF0060305D86D
:10547800224A904202D9012B38BF012320490A68E9
:1054880022F00F021A430A600A6802F00F029342E0
:1054980002D00A6802F00F02981A18BF012070475C
:1054A80003F44043B3F5004F05D103F10F6303F54F
:1054B800A343984212D80D4B984211D80C4B9842EE
:1054C80001D90323DAE70B4B9842C7D80B4B984214
:1054D80094BF00230123D1E70723CFE70523CDE7B6
:1054E8000423CBE70120704700700040000E270717
:1054F800804A5D05008793038058840C80C3C901E6
:10550800003C024038B5054C054DAC4200D338BDCF
:105518002046203406F084F9F7E700BF98BA00085F
:1055280098BC000870B5044688B10378C3B10D4D26
:105538000D4EB54201D3002409E029688C4208D1F8
:10554800284605F07AFC002814BF2C460024204683
:1055580070BD2046FAF7CEFE0028F1D02035E8E7E6
:105568001C46F4E798BA000898BC000810B50B4C24
:105578008CB00146109A6846A368C3F88C20302284
:1055880003F064FD40B96846FFF7CCFFA36800222A
:10559800C3F88C200CB010BD0020F7E700140120E0
:1055A800F8B51B4D00AF0446AB683A6AC3F88C20C7
:1055B800FAF706FE00210122064603F0CBFC01465D
:1055C800E8B13246214600236C4603F0F9FB88B067
:1055D8006A46104B5361104B93614FF400739383E9
:1055E8000E4B42F8103F00230D484FF4E251FCF7F0
:1055F8005FFBAB68A546D3F88C0005F042F820465F
:1056080005F01BFCAB68C3F88C10BD46F8BD00BFA5
:1056180000140120F1D10008ABD5000803000001F7
:1056280044C000082DE9F0411B4E00AF0446B368A2
:105638003A6AC3F88C20FAF7C3FD0122002180469C
:1056480003F088FC0546E8B14246214600236C4633
:1056580003F0B6FB88B06A46104B5361104B936158
:105668004FF4007393830F4B42F8103F00230E480A
:105678004FF4E251FCF71CFBB368A546D3F88C0045
:1056880004F0FFFF204605F0E3FBB368C3F88C5035
:10569800BD46BDE8F08100BF00140120F1D100082B
:1056A80096D500080300000144C0000830B5044640
:1056B80087B0FCF79BF9EFF305853DB10B4A012153
:1056C8000B4804F0DBFE204605F0DAFB05F000F895
:1056D8000028F3D0054B0593022304934FF482511D
:1056E8002B4604AA0248FCF7E3FAECE7C2D5000807
:1056F80044C000082DE9F04387B004460D4600AFCA
:10570800EFF31188102383F31288BFF36F8F0428F7
:10571800344AE9468AB098BF334B9668117C6A468A
:1057280094BF53F82030314BC2E9073140F20133BE
:105738002F4893842F4BC2E9050442F8103F0023F9
:105748004FF431512C48FCF7B3FACD466DB1EB69F3
:10575800C3F308034BB1EFF30589B9F1000F2FD05C
:10576800264A0121244804F089FE2EB1304605F06E
:1057780005FD08B1037803B92148E9468AB06A46AD
:10578800204BD061C2E9053640F2013313841E4B29
:1057980042F8103F00234FF411511748FCF788FADC
:1057A80029462046CD46FFF781FF88F31188BFF3CD
:1057B8006F8F3046FDF75EFB1C37BD46BDE8F083B2
:1057C80004F086FF0028CBD00C4B7B6102233B61A1
:1057D8004FF482514B4607F110020748FCF768FA6C
:1057E800C3E700BF0014012014C30008D1D5000886
:1057F800E7D500080500000144C000080FD60008DE
:10580800DFD5000830D600080400000138B50A4B7F
:1058180053F82040013053F82050A54200D838BD35
:10582800606830B1037FDB0701D405F031FB083431
:10583800F3E723689847FAE728C30008324B0122A8
:105848000320F0B5314C87B0314E1A70FFF7DEFFF8
:1058580003F052FC0420FFF7D9FF25463034B54247
:1058680014D32C4C2C4FBC4236D3284C01F0C2FD2B
:105878002A4DB44232D301F0D1FDFAF77DFF284A10
:10588800137B23F00103137307B0F0BD54F80C3CED
:10589800059354F8103C049354F8143C039354F8BB
:1058A800183C029354F81C3C019354F8203C009394
:1058B80054E90A2354E90C0101F008F854F8303C83
:1058C8005D66CAE7216805F097FF63685859043593
:1058D8000028F7D10834C6E70025F6E7D4E90A23FB
:1058E800B3F1FF3F08BFB2F1FF3F05D052EA030111
:1058F800206803D101F086FF3034BAE72946183012
:1059080002F024FAF8E700BF08180120B8BF000821
:10591800B8BF0008A8BF0008A8BF0008D1B2000897
:105928005813012006480021064A08B5121A05F046
:10593800C6FA0548054A0021121A05F0C0FA08BD42
:10594800800C01200C18012000000020000000201D
:105958002DE9F0411B4E00AF0446B3683A6AC3F81C
:105968008C20FAF72DFC01220021804603F0F2FA80
:105978000546E8B14246214600236C4603F020FA6A
:1059880088B06A46104B5361104B93614FF4007313
:1059980093830F4B42F8103F00230E484FF4E25117
:1059A800FCF786F9B368A546D3F88C0004F069FEC5
:1059B800204605F088FAB368C3F88C50BD46BDE8A8
:1059C800F08100BF00140120F1D1000892D6000830
:1059D8000300000144C000082DE9F041A8231B4F33
:1059E8001B4E1C2586B0044605FB00754FF00108C8
:1059F80003FB00660F2200234FF4C0701549019382
:105A080000FB041130460095CDE90232CDE904834C
:105A18004FF4A072104B00F059FF737B0F4A23F02C
:105A28000403EE602C7473734FF4046304FB0333B4
:105A380013446B6007EB041307EB0417283387F84C
:105A48003080AB6106B0BDE8F08100BF00140120D2
:105A5800B0120120802B0120E1AE00084023012074
:105A6800BFB50020FFF7D2FE284B83F30888284DE6
:105A78000024F023274F85F82230EC772C766C76BB
:105A8800AC7685F820406B6A43F4E0236B62FDF73F
:105A9800C1F9FDF7B1FB4FF0FF33AB62EB62FDF7E5
:105AA80055FE1D4DFDF7CCFBFBF702FF1B4801F02F
:105AB800EBF9FFF727FDFBF77DFD0120FFF7A6FEB9
:105AC8000220FFF7A3FE01F0F9FC154B15494FF42E
