:020000040800F2
:1000000000380120A92E000887A70008952E0008B7
:10001000952E0008952E0008952E0008000000007F
:10002000000000000000000000000000992F000800
:10003000952E000800000000092F000871520008EA
:1000400085320008853200088532000885320008B4
:1000500085320008853200088532000885320008A4
:100060008532000885320008853200088532000894
:100070008532000885320008853200088532000884
:100080008532000885320008853200088532000874
:100090008532000885320008853200088532000864
:1000A0008532000885320008853200088532000854
:1000B0008532000885320008853200088532000844
:1000C0008532000885320008853200088532000834
:1000D0008532000885320008853200088532000824
:1000E0008532000885320008853200088532000814
:1000F0008532000885320008853200088532000804
:1001000085320008853200088532000885320008F3
:1001100085320008853200088532000885320008E3
:1001200085320008853200088532000885320008D3
:1001300085320008853200088532000885320008C3
:1001400085320008853200088532000885320008B3
:1001500085320008853200088532000885320008A3
:100160008532000885320008853200088532000893
:100170008532000885320008853200088532000883
:100180008532000885320008853200088532000873
:100190008532000885320008853200088532000863
:1001A0008532000885320008853200088532000853
:1001B0008532000885320008853200088532000843
:0801C0008532000885320008B9
:1001C8000B49C0F307230246C0B231F8133031F8A7
:1001D80010100B441D2B08DC0C2006494343C8189B
:1001E800CB589A4218BF002070470020704700BFC4
:1001F8003CE9000844090120F8B506460F46064CBC
:100208001E25236813B139462046B047013D04F145
:100218000C04F6D1F8BD00BF44090120000000001D
:1002280000000000000000000000000000000000C6
:1002380000000000000000000000000000000000B6
:1002480000000000000000000000000000000000A6
:100258000000000000000000000000000000000096
:100268000000000000000000000000000000000086
:100278000000000000000000000000000000000076
:100288000000000000000000000000000000000066
:100298000000000000000000000000000000000056
:1002A8000000000000000000000000000000000046
:1002B8000000000000000000000000000000000036
:1002C80053B94AB9002908BF00281CBF4FF0FF31B5
:1002D8004FF0FF3000F00CB8ADF1080C6DE904CE1A
:1002E80000F01AF8DDF804E0DDE9022304B07047F5
:1002F800704700BF10F8012B11F8013B012A28BFF5
:100308009A42F7D0D01A7047034613F8012B002AF7
:10031800FBD1181A013870472DE9F04786468C46FC
:100328000846089E154674461946002B40F0C280C0
:100338008542B2FA82F245D94AB1C2F1200300FAE5
:1003480002FC2EFA03F3954043EA0C0C94404FEA62
:10035800154EA8B2BCFBFEF8230C0EFB18CC08FB0C
:1003680000F943EA0C43994528D9EB1808F1FF37FF
:1003780004D2994502D9A8F102072B44A3EB09033B
:10038800A4B2B3FBFEFC0EFB1C330CFB00F044EAEA
:100398000344A04214D92C190CF1FF3304D2A04213
:1003A80002D9ACF102032C44241A43EA07401EB1D7
:1003B800D440002334607360BDE8F0874746DDE72A
:1003C8006346F1E792BB431B01214FEA154EAFB2DA
:1003D800B3FBFEFC200C0EFB1C330CFB07F840EAB9
:1003E8000343984562D9EB180CF1FF3004D29845C5
:1003F80002D9ACF102002B44A3EB0803A4B2B3FB6F
:10040800FEFC0EFB1C330CFB07F744EA0344A7422F
:100418004ED92C190CF1FF3304D2A74202D9ACF102
:1004280002032C44E41B43EA0040C0E7C2F1200366
:1004380020FA03F1954090402EFA03F303434FEA64
:10044800154EAFB2B1FBFEFC0EFB1C10190C0CFBD9
:1004580007F841EA0041884504FA02F422D96918EC
:100468000CF1FF3004D2884502D9ACF102002944CE
:10047800A1EB08019BB2B1FBFEFC0EFB1C110CFBAF
:1004880007F743EA01439F420ED9EB180CF1FF31FD
:1004980004D29F4202D9ACF102012B44DB1B41EA92
:1004A800004192E76046E3E76146F7E76046A3E765
:1004B8006346B7E7834206D916B9002108467BE7A9
:1004C800C6E900E0F9E7B3FA83F78FB9834201D3AD
:1004D800724508D8BEEB020460EB030301209C467A
:1004E8001EB9002168E73846FAE7C6E9004CF8E784
:1004F800C7F1200CBB4022FA0CF41C432EFA0CF175
:1005080020FA0CF3B84001434FEA14490EFA07F5F4
:10051800B3FBF9F81FFA84FE09FB18300B0C08FB33
:100528000EFA43EA00439A4502FA07F240D9E31863
:1005380008F1FF3004D29A4502D9A8F102002344F9
:10054800A3EB0A0389B2B3FBF9F809FB183308FBDC
:100558000EFE41EA03418E452CD9611808F1FF339C
:1005680004D28E4502D9A8F10203214443EA00408F
:10057800A0FB0298A1EB0E014145CE46434602D3AB
:1005880006D14D4504D2B9EB020E68EB04030138DD
:10059800002EA6D0B5EB0E0261EB030101FA0CFCAC
:1005A80022FA07F34CEA0303F940C6E9003198E759
:1005B8004046C5E74346D9E7012801F004012DE983
:1005C800F04D14468AB01E4602D0042840F0B3808D
:1005D8006368002BC0F2AF805B4FA368BB4200F298
:1005E800AA8002AD002976D0294600F0DBFDDDE9BE
:1005F8000232B2F1004F08BF002B0AD05B422846F6
:1006080062EB4202CDE90232049B5B42049300F0A4
:100618000FFD2146284609F016FB4C49D4E9003263
:1006280099424FF0040393412BDADDE902030228D3
:1006380073F1000254DB013842F2107243F1FF33C8
:10064800A0FB020102FB0311414C09F033FB80FBC4
:1006580004483BA3D3E9002320464146FFF730FE78
:100668003B4A0023CDE9060120464146FFF728FE14
:1006780000230892012206A92846CDE9022309F0A1
:10068800E2FADDE90248B8F1000F4FDB54EA08034B
:10069800049828D188BB2246434668460AF052FF90
:1006A800DDE900AB4146204609F004FB5B465246B3
:1006B80068460AF06CFFDDE9004854EA0803F1D106
:1006C8002EB100230022C6E900230023B3600020D6
:1006D8000AB0BDE8F08D94E80F0085E80F009CE7AC
:1006E80000200146B0E74FF0FF336FF0004290451D
:1006F80008BF9C4201D1B8421BD042F21073154A80
:10070800C117A4FB034503FB08580023FFF7D8FDD6
:100718004FF0FF3224186FF0004348EB0108A24263
:1007280073EB0801B7D214469846B4E70024A046F4
:10073800B1E71C46FBE76FF01500C9E7AFF300808F
:1007480000CA9A3B00000000FFC99A3B08FA824B96
:1007580040420F00A086010008B5104A002302F8A5
:10076800013B0133802BFAD10D4A002302F8013BEB
:100778000133202BFAD109F04CF80A4A0A4900281B
:1007880008BF1146094808F0ABFD4FF0FF304FF0A5
:10079800FF31BDE8084009F083B800BF000D012013
:1007A800800C012051C8000846C8000862C800082B
:1007B80008B50C4A002302F8013B0133802BFAD11B
:1007C80009F027F8084A0949002808BF11460848CF
:1007D80008F086FD4FF0FF304FF0FF31BDE80840CC
:1007E80009F05EB8800C012051C8000846C800080E
:1007F80062C80008F7B54FF0FF344FF0FF351D4AC7
:1008080002211D4808F040F91C4F1D4A02211D48CD
:1008180008F03AF91C4E1D4A1D491E48CDE900450D
:1008280008F0FEFF1C4A38601C491D48CDE9004508
:1008380008F0F6FF396830600F480AF0B4FF3168F5
:1008480010480AF0B0FF386809F01AF8306809F063
:1008580017F808F0DEFF134A1349002808BF1146AD
:10086800124808F03DFD2046294609F019F80020F5
:1008780003B0F0BD480801209C1601202C16012069
:1008880040080120301601202816012061070008C1
:10089800003C0120280E0120B9070008003801207B
:1008A800800D012051C8000846C8000862C8000829
:1008B8002DE9F04F91B0840705460E46009302F0EB
:1008C8000403DDF868800293C2F3C203039203F1C4
:1008D8000103059340F0BA81041D30B1072909D8F6
:1008E8006FF01B0011B0BDE8F08F01F0070634442B
:1008F800C6F10806009B4FF000094FF0040A591E84
:100908004FF0FF334F46CB4601935346CDF8109036
:100918000DB1009A22600598002800F3E8809848F5
:10092800009A824203D397488242C0F0E080039A3B
:10093800A4EB050E92074FEA9E0000F103810F2FEA
:1009480000F2B180002D00F0058107F140020DEBA7
:10095800020C019A0CF8200C0CF8102C04980130A9
:100968000490E7E07A285DD84B280ED8472859D854
:1009780029282DD8252852D054D820287AD0233891
:10098800D0F1000B4BEB000B74E04C382E2849D803
:10099800DFE800F070484848484848484848484810
:1009A8004B484848484848484859484B4B59595972
:1009B800704B6D487048184B184848827F4B484820
:1009C8004B487F0000204FF0000B4FF0040A38E03E
:1009D8002A380122C0B202FA00F010EA0E0F49D1FB
:1009E80010F0625C2FD110EA020B43D06046013C44
:1009F8005444B4FBFAF40AFB04F4002D61D0A3EBD1
:100A0800050CA444B4453FF66BAF002868D1042B0D
:100A180047D158F8043B2360043404232AE0019AA0
:100A2800013A01924FF0000B24E011F8010C6C28F8
:100A380034D111F8023C00206C2B8346C5D14FF00D
:100A4800080A5346D3E708F10708073428F00708CF
:100A580024F00704F8E802AB35B106982044B04208
:100A68003FF63EAFC4E900AB08344FF0000B4FF03F
:100A7800080A534611F8010F002878D0BBF1000F7F
:100A88007FF470AF2528F5D1019B4FF0010B01339E
:100A980001934FF0040AECE7584694E70020834698
:100AA800A5E7082B02D06FF015001BE708F107082F
:100AB80028F00708F8E80223C4E9002308340823CB
:100AC800D8E768B9042B02D108F10408A4E7082B79
:100AD800E9D108F1070828F0070808F10808EDE748
:100AE800059A013A059258F8042B009210E7039AE8
:100AF800900720D5A4EB050E4FF0010C4FEA9E009D
:100B0800BEF5007FCFD20F2FCDD8F5B107F1400247
:100B1800C0B20DEB020E019A0EF8200C0EF8102C44
:100B2800BCF1000F3FF41AAF60F07F0009F1010932
:100B38000EF8200C0137C5F1080204344FF6DA7EAE
:100B4800069297E74FF0000CDAE7BCF1000F01D0EE
:100B58000136EFE7029802360028EBD10098CDE97C
:100B68000631FFF7D1FB0644DDE90631E2E7631BF6
:100B7800B3F5806F97D23DB9A6F10804E018B1E645
:100B8800B0BA000864EB00089B08029A28602B7032
:100B98009DF81030C2B1EB7085F80290B9F1000FE2
:100BA80005D008A80022C5F1010C97420ED1C5F165
:100BB80001030DF120084FF0000A0DF1300B0193ED
:100BC800574512D1601B8DE66B70E5E710F8013BC5
:100BD800190608D50CEB040E03F07F03B6453FF663
:100BE8007FAE04F8013B0132DFE7B9F1000F03D013
:100BF80098F90020002A17DB029BD3B11AF80B20C2
:100C080004F8012B0022019B18191044B0423FF64A
:100C180067AE98F80000009904F8010B204603928B
:100C28000AF0B7FE039A14440AF1010A08F1010810
:100C3800C6E798F8002055F822300093029B0098E8
:100C480045F82230FFF760FB421CDCE76FF00D002F
:100C580048E600BF2DE9F04F95B004469346894613
:100C680000AF90F802A0BB61BB6FC3F3C0033B6148
:100C780041B9457800780AEB800020444D4519D8E1
:100C8800A0EB0409E3787B61BAF1000F02D0BB6FD7
:100C9800D80718D47B69002B40D1BBF1000F03D0D3
:100CA800BA6949462046D8474D4628465437BD4676
:100CB800BDE8F08F461C09F101093046FFF724FB17
:100CC80001303044DAE7237862687B629B00FA617E
:100CD800FB607B6A04EB8301BBF1000F40F00A81E3
:100CE8004D460E4601EB0A084FF0000B464525D04D
:100CF80016F8013B796254F82300FFF705FBFB6FF8
:100D08000130796A43B1D7F880309B453EBFFB6F0D
:100D180023F81B000BF1010B0544E7E7BB6F9907AC
:100D2800BBD5237819467B629B0004EB8101FB60ED
:100D38006368FB61BBF1000F72D14D46BB6F01EBDD
:100D48000A0913F0050F0CBF022301237B627B699C
:100D580009EB430ABB6F03F00203BB61D145A4D082
:100D680019F8021B19F8013C54F82360A94B9E425C
:100D780002D3A94B9E422AD33B69002B3CD0F86989
:100D880008F03CFF002837D0C7F820D08AB06B465F
:100D9800A24A03F110065A61FA69C3E906214FF421
:100DA80000721A849E4A1A61EFF30588B8F1000FA1
:100DB8001AD109F0FDFCB8B132469A484FF41251E5
:100DC80043469E2603DF023DD7F820D0C6E73B699D
:100DD80023B1F86908F012FF0028D5D1BB6FDA07F4
:100DE8000DD47B6AED1AB9E7002332464FF412514D
:100DF8008C4800F08DFFE6E7BB69002BAED030468B
:100E0800FFF782FAFB6F4BB1D7F880309B453FBFA5
:100E1800431CFA6F22F81B300BF1010B05449DE7C8
:100E2800BAF1000F6CD0BB6F13F004066BD0D0463C
:100E3800002607F14000524639620AF0AAFD396AD5
:100E480001EB0A037A693B627B695B007B603B6A62
:100E580003EB4203BB60BB6F03F002033B60BB685C
:100E68003A6A934251D1B96F63788907B86F06EB34
:100E7800030254BF4FEA58010021C507D2B200F15E
:100E8800968010F0040F14BF404600206270A070D6
:100E98002046E170BA69F968FB61D847051EFFF67C
:100EA80004AF7B6A4146BA6907F140002370FB69C9
:100EB80084F802A063707B69E370D847B0F100083A
:100EC800C0F2B280FB68A9EB0A01BA69C91A7B684B
:100ED800386AC91AD8470028C0F2A880A8444FF039
:100EE800000908EB0005B14563D30021BA6908463B
:100EF800D847DAE656464FF0000807F130009AE77F
:100F08005646D0469CE7B0469AE73B6A13F8021B60
:100F180013F8015C3B6254F825003E4B984202D31B
:100F28003D4B98421DD33B6923B1F86908F066FE32
:100F3800002894D13B68FBB908F1280307F128027F
:100F480008F1010008F1020803EB020C07F1500355
:100F58005FFA88F853FA80F00CF8101C00F8105C5F
:100F68007DE73B692BB1F86908F048FE00287FF45B
:100F780076AFBB6FDB0709D506F1280307F1280216
:100F8800711C9E1806F8205CCEB268E7BB6F580744
:100F98007FF565AF08F1280307F1280208F1010180
:100FA80003EB020808F8105C5FFA81F857E70020A5
:100FB8006CE707F1300313F8093054F823A087F8D9
:100FC8002F30FB6F13B3D7F8803099451ED2FB6FD3
:100FD80033F81980BA69012107F12F00D847002892
:100FE80024DB0544B8F1000F06D15046FFF78CF911
:100FF80000F101081FFA88F8BA6941465046D847F7
:10100800002813DB054409F101096CE74FF00008DB
:10101800E0E700BFB0BA000864EB000878C8000831
:1010280004000001FCC0000845463EE605463CE6D3
:10103800214B70B582689A4215DD0133D0E900165C
:1010480092FBF3F301294FEAE37476F1000520DA05
:10105800C91844EB0604C0E90014184901FB03232E
:101068008360012070BD002AFBDAB2F1004F1BBF7C
:101078009B1A13490323B3FBF1F3D0E90041DE17B0
:1010880000290FDA01F100459C42B5410ADA002037
:10109800E8E7CD439D426FF00045A5EB0605A54165
:1010A800D6DAF4E7E41A61EB0601C0E90041044925
:1010B80001FB03228260D4E7FFC99A3B003665C46E
:1010C80000CA9A3B80B500AF6C468CB06A460D4B9F
:1010D8004FF4615153610C4BC2E9063010230B48A1
:1010E80013620B4B53620B4B93620B4B42F8103F4E
:1010F80008F0F3FD094BA5469B68D3F88C0009F06E
:1011080030FB00BF2CC9000893C9000824C100089F
:10111800B7CF0008000203050600000228150120C9
:1011280080B500AF6C468CB06A460D4B4FF46151E8
:1011380053610C4BC2E9063010230B4813620B4B6A
:1011480053620B4B93620B4B42F8103F08F0C5FDFE
:10115800094BA5469B68D3F88C0009F002FB00BF39
:101168002CC90008ACC9000824C1000872C90008CD
:1011780000020305060000022815012030B50446C8
:10118800EFF31185102383F31288BFF36F8F044B9D
:101198000FCB84E80F0085F31188BFF36F8F30BD44
:1011A800D00E012001282DE95F410C4606D0042805
:1011B80025D06FF0150004B0BDE8508108F0A5FDFA
:1011C80042F210720023FFF77BF8134B5A43C4E92D
:1011D8000001A26008F067FD68B168467B2603DF5E
:1011E8006946204608F02FFD18B90C4B0FCB84E850
:1011F8000F000020DFE76846FFF7C0FFF0E708F0C0
:1012080084FD42F210720023FFF75AF8024B5A434A
:10121800C4E90001A260ECE7A086010058C10008FB
:1012280010B5064C049AA368C3F88C2008F07FFD1B
:10123800A3680020C3F88C0010BD00BF281501204A
:1012480001287FB50D462DD18A68184B9A4229D8B6
:1012580008F05BFD42F2107200236C46FFF730F88D
:101268004042134B61EB41015343CDE90001204655
:101278000293FFF7DDFE2946204608F0E4FCEFF371
:101288001186102383F31288BFF36F8F094D94E8FA
:101298000F0085E80F0086F31188BFF36F8F0020D9
:1012A80004B070BD6FF01500FAE700BFFFC99A3BA4
:1012B8006079FEFFD00E012010B5064C049AA36891
:1012C800C3F88C2008F046FDA3680022C3F88C20E0
:1012D80010BD00BF2815012012F1110F2DE9F041B2
:1012E800064600AF884615461C461CD96C468CB08D
:1012F8006A46264B4FF4615125485361254BC2E994
:10130800063510231362244B5362244B9362244BFB
:1013180042F8103F08F0E1FCA546224B9B68D3F841
:101328008C0009F01EFA00221021284609F05EFA06
:101338000028DBD10CB314F1110F17D96D468CB00E
:101348006A46124B4FF4615111485361114BC2E97F
:10135800063410231362144B5362104B9362104BE4
:1013680042F8103F08F0B9FCAD46D6E7012210213B
:10137800204609F03BFA0028E0D123462A46414698
:101388003046FFF719F9BD46BDE8F0812CC90008C1
:1013980024C1000878C90008B7CF00080002030577
:1013A800060000022815012072C9000870B5064C15
:1013B800069EA568C5F88C60FFF78EFFA36800221B
:1013C800C3F88C2070BD00BF28150120014B1860A0
:1013D800704700BF6808012070B504464518044EE0
:1013E800AC4200D170BD336814F8010B9847F7E799
:1013F800680801202DE9F047DFF8A09000AFC84247
:101408000446D9F808300D46BA6AC3F88C2024D3AC
:10141800EA468CB06B46224A03F110061D625A61F7
:10142800204AC3E90624204A5A62204A9A62204A7E
:101438001A61EFF305844CBB09F0BAF930B33246B0
:101448001C484FF4615123469E2603DFD9F8083023
:10145800D546D3F88C0009F084F919B1C3434A1E64
:101468009342D5D900222946204609F0BFF90646FD
:101478000028CDD120462946FFF7AEFFD9F808301D
:101488003046C3F88C60BD46BDE8F087002332467D
:101498004FF46151074800F03BFCD7E728150120BD
:1014A8002CC90008C9C90008B7CF00080002030505
:1014B8000600000224C1000880B505460F46914683
:1014C8009A46EFF30583DBB909F072F9C0B14A26F1
:1014D80003DF0446DFF838800AF0DCFA064640F8F5
:1014E8000840524649463846A84756F80840EFF3A0
:1014F800058343B909F05CF928B12046552603DF76
:1015080006F010FAE5E7204601F0E4FCF8E700BF32
:10151800080000002DE9F041451D00AF04461FD921
:101528006D468CB06B46164A03F110065A61154A8F
:10153800C3E9062404221A62134A5A62134A9A62B9
:10154800134A1A6108F02BFC034690B13246114841
:101558004FF4615100239E2603DF0120AD4605E0CC
:101568000122042109F042F90028D9D1BD46BDE87D
:10157800F0814FF461513246064800F0C9FBECE7B0
:101588002CC90008DAC9000872C90008000203055E
:101598000600000224C10008F8B50C4F1546089A49
:1015A8000446BB680E46C3F88C20FFF7B3FF48B962
:1015B80032462B46204608F0F9FBBB680022C3F8E8
:1015C8008C20F8BD6FF00C00F7E700BF281501204C
:1015D80038B50A4D0446069AAB68C3F88C20FFF765
:1015E80099FF38B9204608F001FCAB680022C3F81F
:1015F8008C2038BD6FF00C00F7E700BF28150120DC
:10160800034A0020536823F002035360704700BF69
:10161800002004E0064B1A6842F400721A601A6847
:1016280042F480721A60034B034A1A60704700BF85
:10163800003C0240980801200024F4002DE9F047FE
:10164800044607464FF00109DFF8508014B93846C0
:10165800BDE8F08794FAA4F5B5FA85F509FA05F31B
:101668002E0108EB05156FEA030A24EA03042B7B15
:10167800002BEBD058F806301B694BB946440422BE
:10168800284607EA0A077368196808F0F0FEDDE7DC
:10169800284698470028D9D1F0E700BF44C1000880
:1016A8002DE9484108F062FE20B105486B2603DFAA
:1016B800BDE848810248BDE8484109F0A9BF00BF1C
:1016C800901301202DE9704100228FB01B491C485E
:1016D80009F091FF08F04AFE0E23C8B1002419480A
:1016E80019494FF4407208AD5626CDE90A34CDE9C0
:1016F8000844CDE90C44154B03DF08F037FEC0B1B0
:1017080010485C26124903DF00200FB0BDE8708145
:101718000024002500904FF440720B49CDE90330B6
:10172800CDE90100094B0748CDE9064505F0B4F9B4
:10173800E3E70749034809F08EFDE5E7F7A300084A
:1017480090130120E00E012000200120691B0008F1
:1017580003CA00082DE9484108F008FE20B10548F1
:101768004C2603DFBDE848810248BDE8484104F043
:10177800E9BE00BF340901202DE9F0478046204822
:101788000F4608F0FAFD0646002832D00025284604
:10179800BDE8F087237B83B12368DB680BB1204663
:1017A8009847636883F8069023681B69CBB9636818
:1017B80004222046196808F05AFE013610345445B0
:1017C800E8D3B8F1000FE2D0002DDFD02846FFF7AC
:1017D80035FF0546002FF7D06420002108F0DAFD18
:1017E800F2E7204698470028E1D009FA06F31D439E
:1017F800E3E7044C0546DFF810A04FF00109DEE7E7
:101808001817012044C1000854C10008014B53F8BF
:10181800200070477CC1000808B5034608462BB174
:10182800044A136000F056FD002008BD6FF0150053
:10183800FBE700BF6C08012010B5044C23780BB9F6
:10184800FFF788FF0123237010BD00BF9C190120FA
:10185800034B00229B68C3F88C20024B1868704722
:10186800281501201417012010B504460A4808F06D
:1018780084FD5CB1094BBFF35B8F53E8001F01394E
:1018880043E80012002AF8D1BFF35B8FFFF708FF87
:10189800BDE81040FFF75EBF1017012014170120A4
:1018A8000020064BBFF35B8F014653E8000F43E867
:1018B8000012002AF9D1BFF35B8F7047101701207F
:1018C80070B5FFF7EDFF084C0546084EB44200D34B
:1018D80070BD63685B792BB123685B6813B12946D7
:1018E800204698471034F1E744C1000854C1000865
:1018F80010B5044C0449204608F09EFB034B1C60BD
:1019080010BD00BFE408012068C1000808170120C5
:1019180000230D4A4FF47A710C4810B513700C4A25
:1019280013600C4A1360FFF777FFFFF7E1FF0A4BDC
:101938000A4918468B4200D310BD1A1A5C68103346
:10194800121101322271F5E79D190120E7A3000861
:10195800101701201417012044C1000854C10008C1
:10196800014600220023014808F092BBE408012048
:10197800014808F037BC00BFE4080120024B0146CB
:10198800186808F083BC00BF08170120014808F058
:10199800C1BC00BFE4080120264B70B518780028A8
:1019A80046D0FFF7E5FF054600283ED1224B234CE1
:1019B8001B68002B12DD08F000FD0A220023FEF749
:1019C8007FFCD4E90032C01A40F2E93361EB02012E
:1019D800984271F1000101D3FFF772FFD4E9003298
:1019E80013F57A7342F10002C4E90032BDE8704091
:1019F800FFF7CCBF63685B7923B12368294620468B
:101A08001B6898471034B442F4D32846FFF7B6FF52
:101A18000B4BBFF35B8F53E8001F013943E80012FB
:101A2800002AF8D1BFF35B8FC0E7064C064EEAE701
:101A380070BD00BF9C1901201017012088130120D8
:101A48001417012044C1000854C1000870B50D4D99
:101A5800297861B90C4C01200C4EFFF78DFEB44279
:101A680006D308F0D7FC0028FBD101232B7070BDEA
:101A780063685B791BB1236820469B6898471034DC
:101A8800EDE700BF9D19012044C1000854C10008BA
:101A980010B5064C049AA368C3F88C20FFF7D6FF4C
:101AA800A3680020C3F88C0010BD00BF28150120D2
:101AB8002DE953411D4808F060FC1D4B04461B7876
:101AC8007BB1EFF31184102383F31288BFF36F8F78
:101AD80008F0A0FC84F31188BFF36F8F02B0BDE853
:101AE8005081144B1B68002BF8D0A8B908F03EFCB5
:101AF80038B1114842F2107122462346682603DFA6
:101B0800ECE7002200230C48CDE9002342F21072D2
:101B1800002306F041FBE1E70928DFD1FFF7C0FD0C
:101B280002B0BDE85041FFF715BE00BF14170120F1
:101B38009D1901200C17012090130120064B10B5A8
:101B480004461B6898472146A060044808F02BFB10
:101B5800BDE81040FFF7ACBF6C080120E408012085
:101B680000212DE9F0470846FFF706FE044650B36A
:101B78004FF4FA7500271F4B09F08CFF1E4A1B58BB
:101B880013602BB11D4B1B68092B01DDFFF7E2FD2C
:101B98000026DFF86CA03CB12046FFF74FFD044655
:101BA80010B94FF0FF352F4608F034FC814640B994
:101BB800C6B908F0DBFBB8B1124829463A464F26A9
:101BC80003DF4E46E7E74FF0FF352F46D3E733688C
:101BD8009B691BB10022304611469847103656457E
:101BE800F5D3E6E7084EFAE706482A463B4604F0EE
:101BF80019FDE6E7080000000C1701201417012062
:101C080054C100083409012044C1000810B5064C2D
:101C1800049AA368C3F88C20FFF7BEFEA3680022CD
:101C2800C3F88C2010BD00BF28150120044A054BBD
:101C38009B1AB1EBD30F34BF52F831000020704724
:101C4800FCC0000844C10008B0B500AF28B9E9B12C
:101C58006C4688B06A461C4B03E06C4688B06A46FE
:101C68001A4B53614FF4E251194B1A4893614FF4E0
:101C780000739383184B42F8103F08F0DDFB174BB5
:101C8800A5469B68D3F88C0008F06BFD144C1548EA
:101C9800001BC50840F3CF00904206DD042B09D98C
:101CA8006C4688B06A46104BDBE76C4688B06A46DB
:101CB8000E4BD6E7954202D80846BD46B0BD04EBA8
:101CC800C2042079F9E700BF64CA00080FCA0008F7
:101CD800EDCA000824C100080300000128150120EE
:101CE800FCC0000844C10008C2CA000893CA000822
:101CF80070B5064C12B2069EA568C5F88C60FFF751
:101D0800A3FFA3680022C3F88C2070BD281501200A
:101D18002DE9F04F8FB0C1F34A280D46914604AF24
:101D28000C0DB8607B60B8F1000F63D0002607F196
:101D380014034FF0040B4FF00A0AC7F80C80324620
:101D48007E624846C7E90766019307F11C03CDF890
:101D580008B0CDF800A0F968FEF77CFFB0F5006F79
:101D680003461CD36C468AB0D9F8041004AB264845
:101D78001A46C3E9050140F2FF712448D9614FF4BE
:101D8800007119844FF41251214B42F8103F334629
:101D980008F003FCA5462C37BD46BDE8F08FC0F31C
:101DA8000A0804F117003B60184468F3532520F033
:101DB80007008008FFF7D4FD044690B13B6800F1A6
:101DC8001001144A4846F961C7E9083607F11403B7
:101DD800CDF808B0CDE900A307F11C03F968FEF7B8
:101DE80039FF68F353257B68B96820462A4608F00E
:101DF80065FBD0E704F1170020F007008008FFF723
:101E0800AFFD0446EDE700BF0CCB000804C1000895
:101E18000400000197A4000870B5064C069EA5684A
:101E2800C5F88C60FFF774FFA3680020C3F88C0026
:101E380070BD00BF281501202DE9F04F85B004467C
:101E48008846934602AF9946BE6B3D6B002E38D04C
:101E5800FB6B102100207B60009333467A6BFEF702
:101E680027FDB0F5006F82462CD308F009FBA8B90E
:101E780008F006FB50B134480221344A40F2FF739F
:101E88009C2603DF0C37BD46BDE8F08F40F2FF7398
:101E98002E4A02212C4808F06AFBF3E76C4688B00A
:101EA80002AA2A4B4FF4C4512748536140F2FF73EA
:101EB8009361032342F8103F002308F06EFBA54608
:101EC800E0E7B24604F007040BF0070BE40044EA2D
:101ED8008B1444EA4A2444EA055408F0D1FAE8B1DC
:101EE8000AF10703002523F00703ADEB030D0DF1FD
:101EF800080B3EB1FB6B51465846009333467A6B4C
:101F0800FEF7D6FC2E465D4608F0BAFA4B46A0B15D
:101F18002A462146404608F040FBB3E705F1170082
:101F2800504420F007008008FFF71AFD054610B15D
:101F380000F1100BDDE70646E6E72246414630464B
:101F480008F0BCFA9EE700BF04C100084BCB0008AC
:101F5800406820B1034BC01A40F3CF0070474FF0E0
:101F6800FF307047FCC000080EB403B503AB014650
:101F7800054853F8042B019301F0EAFC02B05DF820
:101F880004EB03B0704700BF0BA60008CA0605D4CF
:101F98008B064CBF02490349FFF7E6BF704700BFF5
:101FA80084CB000883CB00082DE9F04F89B09B460D
:101FB80004460D46149B90469DF84CA00693159B2D
:101FC800179E0593169B0493BAF1000F00F09D80AD
:101FD80006F4807306F00209079308F02BFA02460C
:101FE80000283ED091492046FFF7BEFF0746B9F1C9
:101FF800000F08D016F0440F35D12A468C492046E8
:10200800FFF7B2FF074406F0010353B1894B20469E
:10201800894953F82A20894B002A08BF1A46FFF736
:10202800A3FF06F48073002B49D006F00803002BA9
:1020380063D1B8F1000F66D0424681492046FFF7C8
:1020480093FF0546069B3D44002B6DD1049B002B56
:1020580073D1F30700F1E48031462046FFF796FF7D
:10206800D8E00746C3E7774B18680028CAD0764BF4
:102078004FF47A794FF03C0C1B68B5FBF3F5B5FBD0
:10208800F0F100FB11554FF4616309FB05F5B1FB55
:10209800F3F2B5FBF0FE03FB121100FB1E55B1FB7A
:1020A800FCF309FB05F50CFB1311B5FBF0F50091EA
:1020B80020466649CDE901E5FFF756FFA2E706F09D
:1020C8000803EBB1624B2046624953F82A20FFF718
:1020D8004BFF0546B8F1000F05D042465849204647
:1020E800FFF742FF0544BBF1000FABD05A465A49EF
:1020F8002046FFF739FF0544A4E74FF0000BE1E75E
:1021080006F00805E6E745469CE7BBF1010F069B8C
:1021180006D1002B64D1049B002B7BD000250CE05A
:10212800002BF8D04D485CE04D48069B22464D49AF
:1021380007F033FD049B002B68D0DFF82C81DFF813
:102148002C91049F4FF0000B31462046102F28BFDA
:102158001027FFF71BFF5D4545DC059B4FF0010B82
:10216800494620461A78FFF7FFFE1BF0070F03D1F8
:1021780041462046FFF7F8FE5F453BD9059B494697
:10218800204613F80B20FFF7EFFE0BF1010BBBF114
:10219800100FEAD14FF0000B35492046FFF7E4FE57
:1021A8005A46059B20469A5CA2F120015F293149D5
:1021B80028BF2E22FFF7D8FE0BF1010BBBF1100F41
:1021C8001DD01BF0070F03D141462046FFF7CCFE78
:1021D8005F455A46E5D841462046FFF7C5FEEBE77E
:1021E8001F485546A1E7414620460BF1010BFFF772
:1021F800BBFEB0E720492046FFF7B6FEC5E7059BC2
:102208003B440593049BDB1B04939AD1BAF1000F5E
:102218007FF41FAF204609B0BDE8F04F08F0E4B9DD
:10222800064A20460449FFF79FFE15E78BCB0008B6
:102238008FCB00088CC10008D8E2000886CB0008C4
:10224800B4CB0008201701201C17012098CB0008E8
:10225800A0C10008B8CB0008BECB000841A6000802
:102268000BA6000859390008CBCB0008C3CB0008DF
:10227800CDCB00084DD80008C9CB000842F20F7337
:10228800114A8B4273B5044628BF0B4605680521E1
:10229800684607F037F8636806460B2228465B68ED
:1022A8000A4908F093F963683246694628465B682C
:1022B80008F08CF963681B2205495B68284608F01A
:1022C80085F902B070BD00BF2FD80008EBCB00081D
:1022D800CFCB000800210123064A904206D8064ABF
:1022E80001B901231360054B1860704740080121AC
:1022F8005B00F2E740420F001C1701202017012065
:102308002DE9F8430D46044600EB01090D4F4C45F5
:1023180002D12846BDE8F88314F8018BEFF305864F
:1023280056B908F045FA38B126F0FF06384646EAAD
:1023380008018F2603DFEAE7BB68414601485B686E
:102348009847E4E758BD0008014B03600220704736
:10235800E8C100082DE9F047064600AF0C46002901
:102368003ED0E9468AB0A3686D46D1E900124048DC
:102378004FF0050AA846C5E90501C5E9072348F84D
:1023880010AF002342464FF421513A48FFF7C0FCF2
:10239800CD466369AD46D4E903123748C5F810A0A5
:1023A800C5E90501C5E90723002342464FF4215139
:1023B8003048FFF7ADFCCD46E56908F0BAF920BB17
:1023C8002E4A2B4601212B4808F0D1F8A56908F0C0
:1023D800B0F950BB2A4A2B460121264808F0C7F815
:1023E800012E0BD1EFF30585103D08F0A2F968BB6B
:1023F800244A2B4631461F4808F0B9F82146304692
:1024080003F0A8F9BD46BDE8F08788B06A461B4BC3
:10241800C2E90535032342F8103F00234FF4C251A7
:102428001448FFF775FCCD46D0E7E84688B06A4601
:10243800134BC2E90535032342F8103F00234FF43C
:10244800C2510C48FFF764FCC546C9E7E84688B0A6
:102458006A460C4BC2E90535032342F8103F0023B6
:102468004FF4C2510348FFF753FCC546C6E700BF07
:1024780050CC000824C100087FCC0008AECC00086E
:10248800BDCC0008EBCC000830BFFFF7FDBF00BF94
:102498002DE9F0410B4E0546DFF82C80324606EB5D
:1024A8000807CC1B0949204609F073FAA019083C13
:1024B8004246002109F07BFA07F10800C5F894406C
:1024C800BDE8F081000000000400000054C10008CD
:1024D80086461E488068D0F8A4004FF4806C60449B
:1024E800EC4680F309880EB52DE90110174880687D
:1024F80000F0E2FEBDE80110DCF80000DCF804C0E2
:102508002DE901106246494009F051FABDE8011071
:102518006044BDE80E4080F30988704603B40B4858
:102528008068D0F8A01051F00101EFF3148C5CF032
:10253800010CC0F8A010BFF34F8F8CF31488BFF3C1
:102548006F8F03BCDFF808C0604700002815012022
:10255800C11400084FF0A10C664503D1EC462DE9E3
:10256800305002E0EC462DE93010DFF858C04FEA51
:102578008606B444DCF800C0E047DDF810E0DDF87A
:102588000CC08CF3098803B40F488068D0F8A010F9
:1025980051F00101C0F8A010BFF34F8FEFF3148C76
:1025A8005CF0010C8CF31488BFF36F8F03BC4FF001
:1025B80000014FF000024FF00003C4465CF0010C2C
:1025C80060470000B8C500082815012037B54FF04E
:1025D800FF3301930023C55C1DB18B4201D0013349
:1025E800F9E71846002101910199116003B030BD47
:1025F800054BDA699B689A4204D0044A536843F051
:1026080080535360704700BF2815012000ED00E09B
:102618007FB508F0BBF800285BD15549554808F04C
:10262800BFF8554B9B6A990169D508F0AFF80028A7
:102638005AD152494F4808F0B3F81E204E4B9B6AB6
:10264800DA0108D508F0A2F800285AD14C494948BF
:1026580008F0A6F81F20484B9B6A1B0308D508F012
:1026680095F8002858D14749424808F099F82120A0
:10267800414B9B6A590308D508F088F8002856D1C1
:1026880041493C4808F08CF822203B4B9B6A9A034E
:1026980008D508F07BF8002854D13C49354808F0A3
:1026A8007FF82320344B9B6ADB0308D508F06EF8CB
:1026B800002852D136492F4808F072F824202E4AB3
:1026C800936A6FEA03436FEA1343936207B05DF8B6
:1026D80004FB274B04AA4FF4825126480593022392
:1026E800049308F05AF89CE7244B04AA4FF482514B
:1026F800204805930223049308F04FF89DE71D2016
:102708009CE71F4B04AA4FF482511A4805930223F1
:10271800049308F042F89DE71A4B04AA4FF482513B
:10272800144805930223049308F037F89FE7164BE3
:1027380004AA4FF482510F4805930223049308F02A
:102748002CF8A1E7114B04AA4FF4825109480593CC
:102758000223049308F021F8A3E70D4B04AA4FF4D1
:102768008251044805930223049308F016F8A5E75C
:10277800FECC000824C1000800ED00E016CD0008DA
:1027880029CD000843CD000861CD000886CD00089A
:10279800A0CD00082DE9F04387B00546894690464C
:1027A80000AF07F0F3FF002843D17949794807F0D3
:1027B800F7FF794B9B6ADA0653D507F0E7FF002845
:1027C80043D17649734807F0EBFF1124724B9B6A9B
:1027D8001B0708D507F0DAFF002844D170496D4877
:1027E80007F0DEFF12246C4B9B6A9E0763D507F047
:1027F800CDFF002843D16B49664807F0D1FF664BEF
:102808005E6B9B6A1C0640F1A58007F0BFFF00289D
:1028180041D1654A334601215E4807F0A8FEB9F167
:10282800000F04D05C4A936A23F080039362132458
:1028380043E0574B07F110024FF4825155487B6132
:1028480002233B6107F0A9FFB3E7544B07F11002DD
:102858004FF482514F487B6102233B6107F09DFF93
:10286800B3E71024B2E74E4B07F110024FF4825140
:1028780048487B6102233B6107F08FFFB2E7494B71
:1028880007F110024FF4825142487B6102233B61F9
:1028980007F083FFB3E76C4688B06A46424B4FF4B3
:1028A800C2513C48C2E90536032342F8103F07F0FD
:1028B80074FFA546B3E76FF01506374B9B6AD80738
:1028C80008D507F063FF002847D13849314807F099
:1028D80067FF1424304B9B6A990608D507F056FF0A
:1028E800002846D132492B4807F05AFF15242A4BB5
:1028F8009A6AD20602D49A6A90070AD55B681905C3
:1029080007D52946304600F051FC10B180F30988FC
:102918000224214B9A6A920603D55A6A22F400527D
:102928005A629A6A42F0FF029A62224BAA6923F01D
:102938000103934229D8204B23F00103934224D961
:102948001E4BAB61012320461C3788F80030BD467A
:10295800BDE8F0836FF0150669E7144B07F1100224
:102968004FF482510B487B6102233B6107F015FF4E
:10297800AFE70F4B07F110024FF4825105487B6116
:1029880002233B6107F009FFB0E70023DBE700BF44
:10299800CBCD000824C1000800ED00E0E1CD00081F
:1029A80014CE000827CE00083FCE000855CE0008F8
:1029B80074CE0008DF250008E1250008F12500088D
:1029C8002DE9F04387B004460E46154600AF07F0E0
:1029D800DDFE002873D17449744807F0E1FE744B9A
:1029E8009B6AD90440F1838007F0D0FE002872D199
:1029F80070496E4807F0D4FE17206D4B9B6A1A0584
:102A080008D507F0C3FE002873D16B49674807F063
:102A1800C7FE1820664B9B6A9B051ED507F0B6FEBD
:102A2800002872D16549614807F0BAFE604BD3F8B7
:102A380038809B6A18040FD507F0A8FE002870D1CB
:102A48005F4A43460121594807F091FD26B1584A8B
:102A5800936A23F4004393621920554B9B6A5905E6
:102A680008D507F093FE00286BD156494F4807F068
:102A780097FE1A204E4B9A6AD2057AD507F086FE41
:102A880000286AD15049494807F08AFE1B20484A65
:102A9800936A43F47F4393624C4BA26923F001038A
:102AA80093427ED84A4B23F00103934279D9494B8C
:102AB800A36101231C372B70BD46BDE8F0833A4B58
:102AC80007F110024FF4825138487B6102233B61C1
:102AD80007F063FE83E7374B07F110024FF482518A
:102AE80032487B6102233B6107F057FE84E71620DA
:102AF80083E7314B07F110024FF482512B487B6179
:102B080002233B6107F049FE83E72C4B07F11002D3
:102B18004FF4825125487B6102233B6107F03DFE5B
:102B280084E7E94688B06A46254B4FF4C2511F48EE
:102B3800C2E90538032342F8103F07F02EFECD46C0
:102B480084E7204B07F110024FF4825117487B614C
:102B580002233B6107F021FE8BE71B4B07F11002B4
:102B68004FF4825111487B6102233B6107F015FE47
:102B78008CE79B6A9B048AD507F008FE28B916499A
:102B88000A4807F00DFE1C2081E7134B07F11002DD
:102B98004FF4825105487B6102233B6107F0FDFD3C
:102BA800F1E7002386E700BFA3CE000824C1000890
:102BB80000ED00E0B9CE000814CE0008CACE000827
:102BC800E3CE0008F8CE000813CF0008DF25000880
:102BD800E1250008F125000874CE00082DE9F04130
:102BE800974B8AB004460025D3F8048000AFC8F399
:102BF800080685F31188BFF36F8F02F07F43B3F1A6
:102C08007F4F0AD102F00C03082B26D107F0BEFD36
:102C1800B8B98C498C4807F0C3FD00252C46002321
:102C2800FB71F31E092B00F2EB80DFE813F01B00A9
:102C3800DC00DF00D900E900E900E900E900E9006B
:102C4800E200804B07F118024FF482517E48FB6185
:102C58000223BB6107F0A1FDDFE710074CBF0C465C
:102C68000125DCE707F092FD90B97849764807F02E
:102C780097FD0023FB71724BDA6A920720D507F0A3
:102C880085FD88B97249704807F08AFD002365E020
:102C98006E4B07F118024FF482516B48FB61022317
:102CA800BB6107F07AFDE4E7694BFB61022307F19A
:102CB80018024FF482516448BB6107F06EFDE5E7E6
:102CC800DA6A002A06DA07F061FD08B96149DAE72D
:102CD800604BEAE7DB6A5B00D8D507F057FD30BBED
:102CE8005D49594807F05CFD554BA1695A6942F4A2
:102CF80080725A61BFF34F8FBFF36F8F5A6931F8F3
:102D0800021C22F480725A61BFF34F8FBFF36F8F9A
:102D18004DF60272914216D09A6AD2B2002A50D069
:102D2800FA1D01212046FFF735FD034616E04A4B00
:102D380007F118024FF482514348FB610223BB613B
:102D480007F02BFDD0E7266807F020FD48BB434A73
:102D5800334601213C4807F00AFC2368FA79E2B9B6
:102D680007F1080604F1200C2068083454F8041C04
:102D78003246644503C21646F6D17A6A002D5AD007
:102D8800C2F3080121B96FEA52226FEA42227A623D
:102D980007F108011846FFF7DDFA2837BD46BDE8F8
:102DA800F081E84688B06A462C4B4FF4C251264859
:102DB800C2E90536032342F8103F07F0EEFCC5468A
:102DC800CBE79A6A12F47F4F05D0FA1D01212046FD
:102DD800FFF7F6FDA9E79B6AB3F5803FFFF456AF0E
:102DE800FFF716FCA1E7FA1D00219BE7FA1D002159
:102DF800EDE707F0CBFC08B9194944E7184B54E74D
:102E080018F4F87F174AE8468AB0174B18BF1346DC
:102E18006A461649103E0C48D661C2E905134FF4BC
:102E280000734FF411511384114B42F8103F07F00F
:102E3800B4FCC5462AE722F4FF7222F00102A6E795
:102E480000ED00E059CF000824C1000884CF000835
:102E58009BCF0008BCCF0008CACF0008E9CF000804
:102E680005D0000840CF00082BCF000829D0000863
:102E780004000001044B5A6942F010025A615A6971
:102E880022F008025A61704700ED00E0EFF3088075
:102E9800EFF3098101B57246FFF7A0FE01BD00BF3F
:102EA8000A4880F30888102080F3118808484FF4F6
:102EB8000461401880F30988EFF314800221084365
:102EC80080F31488BFF36F8F00F0FCF800380120FE
:102ED80040230120084B9B6883420BD1EFF3058305
:102EE80043B1064B5A6842F080525A605A6A22F43B
:102EF80000425A6204F024BD2815012000ED00E0CC
:102F080001B508F0B4F9BDE801401E498A684FF0E0
:102F180040001044EFF3098C80E8F01F102080F384
:102F28001288BFF36F8F184F4FF00066CA698A6026
:102F38003E60D2F89400154C2060D2F89800002327
:102F4800C2F8983080F3118804B5104600F0B4F93F
:102F5800BDE80440D2F8A000EFF3148323F0010386
:102F680043EA000383F31488BFF36F8F02F1400034
:102F780090E8F01F8CF3098801B503F0AFFFBDE8B6
:102F8800014070472815012004ED00E000080120E9
:102F98001EF0040F0CBFEFF30880EFF3098081697E
:102FA80011F8021CEFF31482032909D012F0010F63
:102FB80001D10229FFD001B5724607F0C1FB01BD5E
:102FC800DFF894C0DCF808C0DCF8A4C00CF5806C0D
:102FD8004FF02008ACF1080CACEB080CF0B404B4CA
:102FE80002464244C16911F4007F03D031F40071F4
:102FF80002F10402CCF800204CF80820CCF81C1090
:1030080001466246F0C9F0C230C930C208F104086E
:103018004CF808501149CCF818108169884604BC4E
:10302800F0BC8CF309884FF0A20C664502D3066009
:103038004FF0A10608488068D0F8A01021F00101DF
:10304800C0F8A010BFF34F8F22F0010282F314885A
:10305800BFF36F8F70470000281501205D25000819
:1030680040B2002807DB0123410900F01F00024A93
:10307800834042F82130704700E100E040B201315E
:1030880000284FEA0111C9B206DB00F1604000F5E3
:10309800614080F80013704700F00F00014B19548D
:1030A800704700BF14ED00E0044B054A23F07F038E
:1030B8009360BFF34F8FBFF36F8F70470000000816
:1030C80000ED00E008B5FFF7EFFF0B4AD2F88830B3
:1030D80023F47003C2F88830EFF3148323F0040359
:1030E80083F31488BFF36F8F02F04CFC04F0E4FD07
:1030F80000F0B8F802F0E4FC00ED00E00F4C9A464E
:103108008846914683B5A3680746D3F8880008F037
:10311800A7FBA56840304A466C6F41462E6FAB6FDF
:103128004034403EC5F8A4006C67E41A2E67534645
:103138003846CDE90064FFF7CBF900BF2815012018
:1031480070B50446084615461E4608F089F828B1A9
:10315800236F40332367636F403B6367227BA5F18E
:103168002003104912F0040F0F4A45F8206C18BFCD
:103178000A4622F0010245F8082C049A45F81C2C4E
:10318800059A45F8182C069A45F8142C4FF08072C9
:1031980045F8042C23660023C4F89830C4E9283382
:1031A80070BD00BF05310008C1140008174A034666
:1031B80010B594682CB3D4F8A400A0B1EFF314822E
:1031C80012F001020CD113F1160F05D0A0F1400442
:1031D8009C4218D8984216D9884298BF002010BD42
:1031E800D4F88800F8E713F1160F226F05D0A2F182
:1031F80040049C42F3D89342F1D2914238BF104622
:10320800EDE72046EBE71046E9E700BF2815012067
:1032180008B50F4B04461546D0F8942098600E4622
:103228000C4B1A6003F05AFE204600F045F82C4675
:1032380086F309880020044B984720460021002285
:103248000023024C20470000C3A70008C11400084F
:103258002815012000080120014B10221A6170472F
:1032680000ED00E0002304481021C2180133622B4E
:1032780082F80013F9D1704700E100E008B5EFF3D8
:103288000583064A103B02EBC30152F83300496834
:103298008847BDE80840FFF7ABB900BF78BD000814
:1032A800024B0121024A034800F008BA0000052039
:1032B8000000012008C200082DE9F04F83B0054640
:1032C8006E4600AF88B06A46524B4FF00409DFF8EB
:1032D80048815361C2E9068042F8109F00234FF4E9
:1032E80004514E48FEF714FDD5F88440B546002C2D
:1032F80055D088B06A46DFF828B1D461C2E905B86C
:1033080042F8109F00234FF404514448FEF700FD93
:10331800B54694F868A088B06A46C2E905B8D46191
:1033280042F8109F00233D484FF40451DFF8F4B0F1
:10333800FEF7EEFC04F160033848B5462646002443
:103348007B6073683BB3A146C7F800D001348AB0EC
:103358003168E4B26A46DFF8D0C0C2E90713052332
:10336800C2E905C842F8103F00234FF42451FEF784
:10337800CFFC0C233268BAF1010A03FB09F9D7F82C
:1033880000D026480BEB09034BF8092072685A60F5
:10339800B2689A6003D00C367B689E42D1D16E46E3
:1033A80088B06A46214BD561C2E90538042342F842
:1033B800103F002319484FF40451FEF7A9FCD5F833
:1033C800A430B5461748D5F870C093B9ACF140039E
:1033D8000C226243811883504022154B1148C1E9E1
:1033E8000123611CC9B200F0B5F90C37BD46BDE830
:1033F800F08FD5F8886021466A6F0C250134403B70
:1034080069436244E4B2921B451846506A60094A0F
:10341800AA60DDE73CD00008B7D000081CC100084E
:103428005DD000084817012076D0000890D0000829
:1034380000000B1500000B13134A98B5C2F898004A
:1034480000AF0B688AB023F01F03034343F0100357
:10345800C2F89C308B6843F00103C2F8A0306A467A
:103468000C688B680949C2E9084351610623084979
:10347800C2E9061042F8103F00234FF444510548B2
:10348800FEF746FCBD4698BD00ED00E0DFD0000821
:10349800B5D100081CC10008F8B5234B00AF04469D
:1034A8000E46D3F890300546C3F30723013B9842F4
:1034B80022D9EFF3058555B11C4A234601211C4842
:1034C80007F055F86FF015052846BD46F8BD07F01A
:1034D8006FF90028F0D06E4688B06A46134BC2E9EF
:1034E8000534032342F8103F4FF4C2512B461048CD
:1034F800FEF70EFCB546E5E76C4688B06A460D4B0C
:1035080053610D4BC2E90630042342F8103F0023F3
:103518004FF404510648FEF7FBFB31462846A54602
:10352800FFF78AFFD0E700BF00ED00E0F6D0000803
:103538001CC100081CD10008C1D10008F0B585B035
:1035480005460C466E4600AF88B06A460E4B53617E
:103558000E4BC2E90630042342F8103F00234FF413
:1035680004510B48FEF7D4FB2368B546391D7B6030
:10357800D4E9010307F03CF903432846FB60FFF751
:103588008BFF1437BD46F0BD41D10008DAD10008E1
:103598001CC10008044B0522C3F89420BFF34F8FC9
:1035A800BFF36F8F704700BF00ED00E0BFF35F8F80
:1035B800024B0022C3F89420704700BF00ED00E0E2
:1035C800044B054AD3F890301078C3F30723181A30
:1035D800704700BF00ED00E09F1901202DE9F04180
:1035E8000346EFF3118C102686F31288BFF36F8F12
:1035F800314CD4F89000C0F307200138451C05D1A0
:103608008CF31188BFF36F8FBDE8F081EFF311875A
:1036180086F31288BFF36F8FC4F89800D4F8A050CF
:1036280087F31188BFF36F8FEF07E6D5EFF31187A4
:1036380086F31288BFF36F8FC4F89800D4F89C50B3
:10364800D4F8A08087F31188BFF36F8F71B34F1E32
:10365800DF19D2D225F01F05AB42CED3C8F34408F8
:103668004FF0010E013D08F101080EFA08FE7544FD
:10367800BD42C2D3EFF31181102383F31288BFF345
:103688006F8F0D4BC3F89800D3F8A03081F31188E1
:10369800BFF36F8F180EC3F302634AB1DE1E704288
:1036A8007041B0FA80F040094042A9E70F46CFE7E1
:1036B80000F00200F5E700BF00ED00E02DE9F04161
:1036C800214D00AF884604462A780026464513DA7D
:1036D8006368002B34D0591E0B4211D11F2B0FD910
:1036E800236819420CD12146D0B2FFF727FF10F109
:1036F800160F24D16FF015022A70BD46BDE8F0817F
:10370800EFF3058434B1114A33460121104806F01D
:103718002EFFEFE707F04CF80028F4D0E84688B011
:103728006A460A4BC2E90536032342F8103F4FF4B4
:10373800C25123460648FEF7EBFAC546DAE7421CB3
:1037480001360C34C2E700BF9F19012068D1000878
:103758001CC10008134B70B50D461B7804460026A3
:10376800AE420BDB13F1160F07D00F490020D1F83A
:103778009020C2F3072293420DDB70BD62683AB114
:103788002146D8B2FFF7DAFE10F1160FF5D0431C28
:1037980001360C34E4E7C1F898300133C1F8A000D1
:1037A800E5E700BF9F19012000ED00E02DE9F04793
:1037B8005E4A84B05E4ED2F89030356800AFC3F3ED
:1037C80007239D4200F2AE806C4688B0D2F8903054
:1037D8006A465849C3F307235161D3610423564904
:1037E800916142F8103F00234FF4045153484FF0C1
:1037F8000C08FEF78DFAA5460024FFF7D7FEAC4269
:103808001BD34F4C3846DFF83C812570FEF79CFDF2
:1038180000250646DFF83091DFF830A1AE4214D11A
:10382800237800204149D1F89020C2F3072293421F
:1038380072DB0020FFF7AEFE42E07168204608FB0D
:1038480004110134FFF7F8FDD9E738684FEA051C81
:1038580000EB0511CB6803EA0803B3F5000F45D068
:103868000AD8B3F5001F2FD0B3F5800F35D0B3F5C4
:10387800801F10D00135D1E7B3F1807F3FD0B3F17D
:10388800007FF7D150F80C30886806F0B1FF4A681D
:1038980040F4802009E050F80C30886806F0A8FF52
:1038A80040F088504A6840F43020F860391D20788C
:1038B800C7E90123FFF7F0FD002829DA6FF01500AA
:1038C8001037BD46BDE8F08750F80C30886806F020
:1038D8008FFF4A6840EA0900E7E750F80C3088682B
:1038E80006F086FF4A6840EA0A00DEE750F80C3026
:1038F800886806F07DFF4A6840F08270D5E750F886
:103908000C30886806F074FF4A6840F08870CCE78D
:10391800237801332370ADE7C1F898300133C1F83B
:10392800A00080E74FF0FF30CAE700BF00ED00E0DD
:1039380014C200088BD10008A6D100081CC10008D9
:103948009F1901200000F0FF000008110000020686
:10395800F0B587B007460E46144600211022684687
:103968001D4608F024F802232A4621468DF8023025
:103978006846044BCDE90476019305F0EDFC07B0E9
:10398800F0BD00BF19A80008024808B507F0AFFF4E
:10399800002008BD2009012008B5024B1B68984784
:1039A800002008BD2408012010B5064C049AA3681D
:1039B800C3F88C20FFF7F0FFA3680022C3F88C201F
:1039C80010BD00BF28150120034B044A18609378E6
:1039D80043F0020393707047240801201408012063
:1039E8000C23012110B5013B0A464FEA4101FAD1E7
:1039F8000A48B2F5006F20F4FF6121F0070101F5D4
:103A0800006409D10130844288BF4FF480620448C1
:103A180006F086F8002010BD1946F8E7FF070120D8
:103A28002C0801202DE9F041054600244FF001083B
:103A38000E4E0F4F2B7871691A19D2B208FA02F29A
:103A480001EA02008A4309D153FA84F3706157F8F6
:103A580033201AB107EBC3035968904701346A78D9
:103A6800E3B29A42E6D2BDE8F08100BF003C0140D3
:103A7800C0170120044B18440023013300F8012B20
:103A88009942FADC704700BFB408012007B5062246
:103A980001210020FFF7EEFF002206201146FFF764
:103AA800EDFA012107220846FFF7E4FF002207206C
:103AB8001146FFF7E3FA082201210220FFF7DAFF97
:103AC800002208201146FFF7D9FA09220121032014
:103AD800FFF7D0FF002209201146FFF7CFFA0A228C
:103AE80001210420FFF7C6FF00220A201146FFF734
:103AF800C5FA052117220846FFF7BCFF0022172048
:103B08001146FFF7BBFA282206210A20FFF7B2FF69
:103B1800002228201146FFF7B1FA4FF480434422CF
:103B28000648CDE9002383681B6823B16946984796
:103B380003B05DF804FB6FF05700F9E778BB0008A5
:103B4800034660B1B0FA80F2C2F11F02D2B2054951
:103B58008856054A11680B431360FFF781BAFF22A4
:103B6800F5E700BFB4080120003C0140024A136891
:103B780023EA000313607047003C0140032921D861
:103B8800DFE801F0020C10190F4B9A6822EA0002D4
:103B98009A60DA6822EA0002DA6070470A4B9A688B
:103BA8000243F5E7084BDA680243DA609A6822EACA
:103BB80000029A607047044B9A6802439A60DA6878
:103BC8001043D860704700BF003C014030B5B0B129
:103BD800B0FA80F3C3F11F03DBB20B4850F833404F
:103BE8008C4204D100EBC3056D68954205D044B9F9
:103BF80040F8331000EBC3004260002030BDFF23C3
:103C0800EBE76FF00F00F9E7C017012060B1B0FAD9
:103C180080F3C3F11F03DBB2044A002142F83310DA
:103C280002EBC30251607047FF23F5E7C01701207C
:103C380000F003020F23043292009340074A43EA3C
:103C48009000C3B2023352F82320030C93FAA3F373
:103C580002EA1040B3FA83F3D840704700380140B5
:103C680038B5284B14460D4618680B88C3F30B0269
:103C7800092A1DD0072A134611D8CAB1931E052B4D
:103C880006D8DFE803F0360336341E284FF4FA402E
:103C980020602B68B3F5805F2DD2002038BD402A04
:103CA8000DD008D822F00402302AF1D0382BEFD0FA
:103CB8006FF08500F2E7442A0BD0A82AF7E78008BE
:103CC800E6E700F0B5F81923B0FBF3F04FF4D8732A
:103CD80058434008DCE700F0ABF81923B0FBF3F0D9
:103CE8004FF4D87358430923B0FBF3F0D0E70648E4
:103CF800CEE70020CCE7C3F313330133B0FBF3F076
:103D08002060CAE79808012040787D0170B5444DCD
:103D180000F0C2F8434C284606F042FE01F084FB4E
:103D2800A368414AC3F30313D35C20FA03F613785C
:103D38001D41AE4202D2284601F0A4FB236823F4B9
:103D480080232360236843F480332360354B1A684B
:103D58009103FCD55A6F42F001025A675A6F9207D5
:103D6800FCD59A6802F00C02082A17D11A68940741
:103D780007D41A6842F001021A602A4A13689807A1
:103D8800FCD5284B9A6822F003029A609A6812F0D0
:103D98000C0FFBD19A6822F0F0029A60214C23683C
:103DA80023F08073236023689901FCD4636823F4AB
:103DB80040336360636823F0706343F010636360AB
:103DC80000F03AF8236843F080732360154B1A68B3
:103DD8009201FCD59A6822F0F0029A609A6822F063
:103DE800030242F002029A609A6802F00C02082A62
:103DF800FAD1AE4202D3284601F044FB0B4B002017
:103E0800074A1A60074A936823F4E05343F4A0531F
:103E18009360936823F4604343F40043936070BD58
:103E280000E6DF0C0038024066D60008980801203A
:103E38000048704740787D01114B12495A6811407B
:103E4800114A0A4311495A605A681140104A0A43F4
:103E58005A601A6842F080721A60A3F5E4331A684F
:103E680042F480321A605A68D203FCD51A6842F4C8
:103E780000321A60074A53689B03FCD5704700BF9D
:103E8800003802400080BCFF196C40000080BFF081
:103E9800196C400900700040064B82B01A6C42F061
:103EA80080521A641B6C03F080530193019B02B08B
:103EB800704700BF0038024008B5074807F02DF8E2
:103EC80038B10648FFF780FD0448FDF77FFA002067
:103ED80008BD6FF01200FBE758BD0008E93E000876
:103EE8000A2838B50446074D04D1AB680D21284689
:103EF8005B689847AB68E1B202485B689847204620
:103F080038BD00BF58BD00082DE9F843D0F804803B
:103F18001746D0F810900D46D8F808001E4606F04F
:103F280093FCB7F5001F044616D1D8F80840284678
:103F3800FFF77EFE84420CD1294606F085FC044634
:103F4800FFF714FE2046FFF761FE00212046FFF729
:103F580015FE0020BDE8F883B7F5800F20D0B6F134
:103F6800806F19D0B6F1C06F18D0B6F1007F1AD1A2
:103F780002264A460F492046FFF728FEB0B9D8F86E
:103F88000810284606F063FC20463146FFF7F6FD88
:103F98002046FFF7D5FDDCE70126EAE70326E8E738
:103FA8006FF08500D6E76FF01500D3E76FF00F00CC
:103FB800D0E700BF2BAC000838B503690446586049
:103FC8000A4D284606F0A9FF60B1AB6861681B6816
:103FD8000C3123B12846984700EAE07038BD6FF0ED
:103FE8005700F9E76FF01200F8E700BF78BB000848
:103FF8002DE9F0412F4E00AF14460546B3685FFA2D
:1040080081F83A6AC3F88C20FCF7DAF8294606F0FA
:1040180036FEA0B9A86803684BBB6C468AB06A46EE
:10402800254B4FF441515361244B9361244BC2E912
:104038000730244B5362244B42F8103F0EE06C4685
:1040480088B06A46214B4FF4E25153611B4B936190
:104058004FF4007393831E4B42F8103F1D4806F03F
:104068001EFEB368A546D3F88C0006F07AFBE20280
:10407800D5F810C006D514F4402F03D0E30748BF85
:1040880084F440240121DCF8003024F48012E40791
:1040980001FA08F14CBF0B438B434146CCF8003082
:1040A800036828469847B3680022C3F88C20BD46A9
:1040B800BDE8F08128150120F8D20008A3D4000833
:1040C80041D300080002010305000002D1D2000814
:1040D8000300000124C100082DE9F041334C00AF72
:1040E80006460D46A3683A6AC3F88C20FCF768F8C0
:1040F800314606F0C4FDA0B9B3685A684ABB6D469C
:104108008AB06A462A4951612A4991612A49C2E915
:1041180007132A4B4FF441515362294B42F8103F81
:104128000EE06D4688B06A46264B4FF4E251536163
:10413800204B93614FF400739383234B42F8103F55
:10414800224806F0ACFDAD46A368D3F88C0006F013
:1041580008FB6B1D17D96E468CB06A461C4B4FF492
:1041680061511A485361134BC2E90635042313629F
:10417800184B5362184B9362184B42F8103F06F0E5
:104188008EFDB546E0E701220421284606F02EFB05
:1041980080460028DFD1B368294630465B689847D7
:1041A800A368C3F88C80BD46BDE8F08128150120BE
:1041B800F8D200088AD400084FD30008000201038F
:1041C80005000002D1D200080300000124C1000844
:1041D8002CC9000872C90008000203050600000285
:1041E8002DE9F047244E00AF91460446B36888464F
:1041F800BA6AC3F88C20FBF7E3FF214606F03FFDBF
:104208000546B8B9A368D3F808A0BAF1000F29D1B8
:104218006C468AB06A461949516119499161194930
:10422800C2E90713184B4FF441515362174B42F838
:10423800103F0EE06C4688B06A46154B4FF4E251C9
:1042480053610F4B93614FF400739383114B42F802
:10425800103F114806F023FDB368A546D3F88C003B
:1042680006F07FFA4A4641462046D047B368C3F86D
:104278008C50BD46BDE8F08728150120F8D200080B
:104288006AD400085CD3000800020103050000029C
:10429800D1D200080300000124C100082DE9F04133
:1042A800224E00AF04468846B3683A6AC3F88C20A9
:1042B800FBF786FF214606F0E2FC0546A0B9A36895
:1042C800DA684ABB6C468AB06A461949516119498D
:1042D80091611949C2E90713184B4FF441515362D0
:1042E800174B42F8103F0EE06C4688B06A46154BF3
:1042F8004FF4E25153610F4B93614FF40073938372
:10430800114B42F8103F114806F0C9FCB368A546A6
:10431800D3F88C0006F025FA414620469047B3684A
:10432800C3F88C50BD46BDE8F08100BF28150120B8
:10433800F8D200084CD4000870D30008000201032A
:1043480005000002D1D200080300000124C10008C2
:104358002DE9F041224E00AF04468846B3683A6A18
:10436800C3F88C20FBF72CFF214606F088FC054695
:10437800A0B9A3681A694ABB6C468AB06A4619494B
:104388005161194991611949C2E90713184B4FF452
:1043980041515362174B42F8103F0EE06C4688B00B
:1043A8006A46154B4FF4E25153610F4B93614FF43A
:1043B80000739383114B42F8103F114806F06FFCCD
:1043C800B368A546D3F88C0006F0CBF941462046E1
:1043D8009047B368C3F88C50BD46BDE8F08100BF74
:1043E80028150120F8D200082CD4000882D3000830
:1043F8000002010305000002D1D2000803000001F9
:1044080024C100082DE9F041224E00AF0446884639
:10441800B3683A6AC3F88C20FBF7D2FE214606F04F
:104428002EFC0546A0B9A3685A694ABB6C468AB0F7
:104438006A4619495161194991611949C2E9071335
:10444800184B4FF441515362174B42F8103F0EE09E
:104458006C4688B06A46154B4FF4E25153610F4BD6
:1044680093614FF400739383114B42F8103F114846
:1044780006F015FCB368A546D3F88C0006F071F970
:10448800414620469047B368C3F88C50BD46BDE806
:10449800F08100BF28150120F8D200080FD40008C9
:1044A80096D300080002010305000002D1D20008DB
:1044B8000300000124C100082DE9F8432C4E00AF89
:1044C80014460546B3685FFA81F8BA6AC3F88C20C7
:1044D800FBF776FE294606F0D2FBB8B9AB68D3F8ED
:1044E8001890B9F1000F29D16C468AB06A46214963
:1044F8005161214991612149C2E90713204B4FF4C9
:10450800415153621F4B42F8103F0EE06C4688B091
:104518006A461D4B4FF4E2515361174B93614FF4B8
:1045280000739383194B42F8103F194806F0B7FB04
:10453800B368A546D3F88C0006F013F923022A695C
:1045480007D50123126803FA08F3134201D084F057
:10455800C064104B04F0B072414628462340C84757
:10456800B3680022C3F88C20BD46BDE8F88300BFBD
:1045780028150120F8D20008EBD30008A7D30008BB
:104588000002010305000002D1D200080300000167
:1045980024C1000840000006F8B5214E00AF0446CB
:1045A800B3683A6AC3F88C20FBF70AFE214606F086
:1045B80066FB0546A0B9A3681A6A4ABB6C468AB06E
:1045C8006A4618495161184991611849C2E90713A7
:1045D800174B4FF441515362164B42F8103F0EE00F
:1045E8006C4688B06A46144B4FF4E25153610E4B47
:1045F80093614FF400739383104B42F8103F1048B7
:1046080006F04DFBB368A546D3F88C0006F0A9F870
:1046180020469047B368C3F88C50BD46F8BD00BF2C
:1046280028150120F8D20008CFD30008BFD300080E
:104638000002010305000002D1D2000803000001B6
:1046480024C100082DE9F047044600EBC106002507
:104658001C4FB44201D1002014E02068C30600F0CA
:104668001F0911D4656845F02005C0F3481AC0F346
:104678004420102823D857F82080B8F1000F0DD116
:104688006FF01200BDE8F087B9F1100F04D0B9F14E
:10469800110FEAD16568E8E73025E6E7404606F0FD
:1046A8003CFC0028ECD04B462A460AF00F01404655
:1046B80006F0CDFA002804F10804CADAE2E76FF040
:1046C8001500DFE714C300087FB506F079FB38B999
:1046D8000A4A01210A4807B05DF804EB05F03EBF1D
:1046E800064B059302230493002304AA4FF4825136
:1046F8000348FDF70DFB07B05DF804FBCED40008B6
:104708003CC10008F8B50C46036941685D68237927
:10471800012B15D09F1E7E427E41B6026279022A85
:1047280096BF444F4FF4005737F81270A279022A07
:1047380009D0042A2FD0003B18BF01231B0306E031
:104748004FF4C066EAE7B3FA83F35B091B07E27923
:104758000968012A14BF4FF0000C4FF4407CA542B1
:104768001CD10A6822F0805222F4B05232431A4314
:104778000A604B6823F440533B434B6043681A6814
:10478800936823F4407343EA0C0393602968BDE8F7
:10479800F84006F091BB4FF48053D8E7D1F800E019
:1047A8000EF4C06E764506D0D1F800E02EF4C06E47
:1047B8004EEA06060E6041680E68716801F44051C1
:1047C8008F4204D0716821F44051394371604168C7
:1047D8000E68316801F010218B4204D0316821F055
:1047E80010210B433360436819688B6803F44073E6
:1047F8009C4505D08B6823F4407343EA0C038B6017
:1048080043681B689968490405D5032A09D09A6842
:1048180022F4804204E0032A03D19A6842F48042D9
:104828009A6021682B68994203D006F045FB2368FB
:104838002B60F8BD40C800082DE9F04387B0064654
:104848004568D0F8108000AF7A48C8F8000006F034
:1048580064FB0446B8B906F0B3FA38B9764A0121C0
:10486800764805F07BFE6FF012041CE0724B7B610A
:1048780002233B61234607F110024FF482516F482F
:10488800FDF746FAEFE7D8F80000E96883681B6887
:1048980073B19847044668B93A460021286A06F079
:1048A80001FA041E1EDA20461C37BD46BDE8F08317
:1048B8006FF0570406F084FA38B9614A01215F485D
:1048C80005F04CFE002CEEDBE6E75D4B7B61022336
:1048D8003B61002307F110024FF482515748FDF75E
:1048E80017FAEFE73B68002219791868FFF7AAFE64
:1048F800041ED8DB756833692C68D3F804902368E4
:1049080023F001032360686806F007FB804650B96E
:1049180006F056FA08B94B4AA1E74A4B7B610223D5
:104928003B614346A7E7D5E901018368DB6803B12A
:10493800984754E8003F43F00C0344E80032002A4B
:10494800F7D149463046FFF7DDFE2B7D1BB1A36842
:1049580043F00803A3606B7D1BB1636843F4004315
:104968006360AB7D1BB1636843F480336360EB7DA8
:104978001BB1636843F4003363602B7E002B4FD078
:10498800314B9C4232D0A3F54C439C422ED003F5C8
:1049980080639C422AD003F580639C4226D003F5AD
:1049A80080639C4222D003F544439C421ED0A3F569
:1049B8001C439C421AD003F580639C4216D06C4677
:1049C80088B033686A462149C2E905134FF4007379
:1049D80093831F4B42F8103F00234FF4E2511748CE
:1049E800FDF796F9A5466FF015045CE773681A6839
:1049F800936843F48043936023686A7E23F0787356
:104A080043EA425323602368AA7E23F4F81343EA57
:104A180002432360EB7E1BB1A36843F40043A36009
:104A2800236843F001032360E3699B02FCD500245B
:104A380039E700BF78BB0008FCD400083CC1000877
:104A48001BD500083BD500080010014056D50008CA
:104A580003000001F8B5436802460E4691F805E0E8
:104A68001C68036908795D6801288B791ED1BEF13D
:104A7800020F72D9022B1F464FF4C0614FF4005C3D
:104A880000F08380042B7BD020B1C31E012B79D981
:104A98004FF48050BCF5805F00F08180BCF5405F2A
:104AA8007FD0BCF1000F1CD101231BE002280AD1E2
:104AB800BEF1020F5DD9022B1F464FF480610BD067
:104AC8004FF4005CDEE7BEF1020F55D9022B1F46FA
:104AD80054D100285FD00021C31E012B52D90020D9
:104AE8000227032373454DD106F028F9B84249D16E
:104AF800F37903B3012B56D12C4B9C421BD0A3F561
:104B08004C439C4217D003F580639C4213D003F5B5
:104B180080639C420FD003F580639C420BD003F561
:104B280044439C4207D0A3F51C439C4203D003F5A1
:104B380080639C4226D123683146104623F0010346
:104B48002360FFF7DFFD236843F00103236096E845
:104B5800030085E803000020F8BD4FF4C061144F3E
:104B6800022B37F81EC01F468CD170B94FF0805009
:104B780090E74FF48061F2E70021F0E700219FE71A
:104B8800002885D06FF08500E6E7C31E012BF9D910
:104B9800022700207EE701464FF08050A1E700235E
:104BA800A0E702239EE7032BA6D0EBE70010014005
:104BB80040C80008F8B5214E00AF0446B3683A6A09
:104BC800C3F88C20FBF7FCFA214606F093F905465A
:104BD800A0B9A3689A684ABB6C468AB06A46184965
:104BE8005161184991611849C2E90713174B4FF4ED
:104BF80041515362164B42F8103F0EE06C4688B0A4
:104C08006A46144B4FF4E25153610E4B93614FF4D3
:104C180000739383104B42F8103F104806F07AF95E
:104C2800B368A546D3F88C0005F09BFD2046904755
:104C3800B368C3F88C50BD46F8BD00BF28150120E5
:104C4800F8D2000850D60008A3D5000800020103D6
:104C580005000002D1D200080300000124C10008A9
:104C6800F8B5354C00AF06460D46A3683A6AC3F856
:104C78008C20FBF7A5FA314606F03CF9A0B9B368D9
:104C88001A684ABB6D468AB06A462C4951612C495C
:104C980091612C49C2E907132B4B4FF441515362E0
:104CA8002A4B42F8103F0EE06D4688B06A46284B02
:104CB8004FF4E2515361224B93614FF40073938395
:104CC800244B42F8103F244806F024F9AD46A36867
:104CD800D3F88C0005F045FD6B1C17D16E468CB0DF
:104CE8006A461E4B4FF461511B485361144BC2E98D
:104CF8000635012313621A4B53621A4B93621A4BFF
:104D080042F8103F06F006F9B546E0E701222846CA
:104D1800114605F06BFD0028E0D1B3681B6843B16C
:104D2800294630469847A3680022C3F88C20BD4620
:104D3800F8BD6FF05700F6E728150120F8D20008F3
:104D48003CD60008ADD500080002010305000002AA
:104D5800D1D200080300000124C100082CC90008B2
:104D680072C900080002030506000002F8B5314CBC
:104D780000AF06460D46A3683A6AC3F88C20FBF7D5
:104D88001FFA314606F0B6F8A0B9B3681A684ABBEC
:104D98006D468AB06A462849516128499161284977
:104DA800C2E90713274B4FF441515362264B42F88F
:104DB800103F0EE06D4688B06A46244B4FF4E2512E
:104DC80053611E4B93614FF400739383204B42F859
:104DD800103F204806F09EF8AD46A368D3F88C0033
:104DE80005F0BFFCEB1C17D96E468CB06A461A4B0F
:104DF8004FF4615117485361104BC2E9063502233D
:104E08001362164B5362164B9362164B42F8103FCF
:104E180006F080F8B546E0E701220221284605F0B1
:104E2800E5FC0028E0D1A368C3F88C006FF085008A
:104E3800BD46F8BD28150120F8D2000824D6000880
:104E4800ADD500080002010305000002D1D2000818
:104E58000300000124C100082CC9000872C9000819
:104E680000020305060000022DE9F041234D00AFC2
:104E780006465FFA81F8AB683A6AC3F88C20FBF7FC
:104E88009FF9314606F036F80446A0B9B3685A6867
:104E98004ABB6C468AB06A46194951611949916101
:104EA8001949C2E90713194B4FF441515362184B82
:104EB80042F8103F0EE06C4688B06A46154B4FF436
:104EC800E25153610F4B93614FF400739383124B7C
:104ED80042F8103F114806F01DF8AB68A546D3F814
:104EE8008C0005F03EFC304641469047AB682046B2
:104EF800C3F88C40BD46BDE8F08100BF28150120ED
:104F0800F8D200080FD60008B5D500080002010342
:104F180005000002D1D200080300000124C10008E6
:104F2800B0B51F4C00AF0546A368BA69C3F88C201A
:104F3800FBF746F9294605F0DDFFA0B9A9684A68DC
:104F48004ABB6D468AB06A46164B5361164B93614D
:104F5800164BC2E90731164B4FF441515362154BBA
:104F680042F8103F0EE06D4688B06A46124B4FF487
:104F7800E25153610C4B93614FF4007393830F4BD1
:104F880042F8103F0E4805F0C5FFA368AD46D3F8B8
:104F98008C0005F0E6FBA268C2F88C00BD46B0BDE7
:104FA80028150120F8D20008F6D50008B5D5000864
:104FB8000002010305000002D1D20008030000012D
:104FC80024C10008F8B5364C00AF06460D46A36864
:104FD8003A6AC3F88C20FBF7F3F8314605F08AFFEC
:104FE800A0B9B3681A694ABB6D468AB06A462D49AA
:104FF80051612D4991612D49C2E907132C4B4FF49A
:10500800415153622B4B42F8103F0EE06D4688B079
:105018006A46294B4FF4E2515361234B93614FF495
:1050280000739383254B42F8103F254805F072FF23
:10503800AD46A368D3F88C0005F093FB15F1090F72
:1050480017D96E468CB06A461E4B4FF461511C4806
:105058005361154BC2E90635082313621A4B536294
:105068001A4B93621A4B42F8103F05F053FFB546AE
:10507800DFE701220821284605F0B8FB0028E0D127
:10508800B3681B6943B1294630469847A368002294
:10509800C3F88C20BD46F8BD6FF05700F6E700BF97
:1050A80028150120F8D20008DFD50008BED5000871
:1050B8000002010305000002D1D20008030000012C
:1050C80024C100082CC9000872C9000800020305A1
:1050D80006000002F8B5364C00AF06460D463A6A9F
:1050E800A368C3F88C20FBF76BF8314605F002FF84
:1050F8000246A0B9B368196949BB6D468AB06A46C9
:105108002C4951612C4991612C49C2E907132C4B58
:105118004FF4415153622B4B42F8103F0EE06D465D
:1051280088B06A46284B4FF4E2515361224B936191
:105138004FF400739383254B42F8103F244805F041
:10514800E9FEAD46A368D3F88C0005F00AFB15F11B
:10515800090F17D96E468CB06A461E4B4FF4615141
:105168001B485361144BC2E90635082313621A4BD6
:1051780053621A4B93621A4B42F8103F05F0CAFE6D
:10518800B546DFE70821284605F030FB0028E1D1C5
:10519800B368DB6843B1294630469847A3680022C4
:1051A800C3F88C20BD46F8BD6FF05700F6E700BF86
:1051B80028150120F8D20008C9D50008BED5000876
:1051C8000002010305000002D1D20008030000011B
:1051D80024C100082CC90008B7CF00080002030545
:1051E800060000024FF0E0230F4910B59C691A69C8
:1051F80008689B6902F480320C4934B993B90346B4
:105208004AB90A681044C01A10BD002B08BF0346EB
:105218000AB9A342F5D90A6802440A604FF0E022AD
:105228001269EEE70446F3E7201901201C19012052
:105238000A4B1022002083F8232045F26042084BD5
:105248001A6045F25F42074B18604FF0E0235A613D
:1052580098611A6942F007021A61704700ED00E090
:10526800201901201C190120684620F007018D46ED
:1052780019B5FFF7B7FF1149114B0868D3E9004288
:10528800001942F10002C3E900020E4A00230B6034
:1052980045F26043D2E90041001BB0FBF3F0434301
:1052A8001B1941F10001C2E9003102F02BFEFDF7A4
:1052B8009FF9BDE819408546704700BF1C190120B9
:1052C800D0130120C81301202DE9F041DFF8E08058
:1052D80099B1421C0BD14FF0E022136923F001036E
:1052E80013614FF07F43C8F80030BDE8F081D8F86B
:1052F8000060012807DC00270BE0431CD8F8006099
:10530800F7D140F20730B0F5427FA8BF4FF44270A2
:10531800471EEFF31185102383F31288BFF36F8FB5
:10532800FFF760FF234C4FF0E0239969D4E900238D
:1053380080184FF0000243F10003C4E900031E4B3C
:105348001A601E4B1A68831A2ED445F2604C0CFB67
:10535800073303F5A8435F33B3FBFCF7131A40F296
:1053680046520CFB0733934238BF1346144A934204
:1053780028BF1346C8F800304FF0E022013B90697F
:105388005361002381429361A1EB0003D4E9001229
:1053980038BF9B195B1842F10002C4E9003285F35B
:1053A8001188BFF36F8FA0E740F24653E2E700BFD2
:1053B80020190120D01301201C190120C813012035
:1053C800A06EFF0038B5EFF31185102383F3128820
:1053D800BFF36F8F084B1C68084B1B68E41AFFF774
:1053E80001FF85F31188BFF36F8F45F260432044B6
:1053F800B0FBF3F038BD00BFD0130120C813012063
:1054080038B5EFF31185102383F31288BFF36F8F3C
:10541800044B1C68FFF7E6FE85F31188BFF36F8F16
:10542800204438BDD0130120134908B58B6803F018
:105438000C03042B1BD0082B1BD14A684B68496806
:1054480002F03F0213F48003C1F388111ABF0B481E
:1054580000230B48A1FB0001FAF732FF064B5B68FB
:10546800C3F3014301335B00B0FBF3F008BD03480D
:10547800FCE70348FAE700BF0038024040787D01A6
:105488000024F40000285DD02F4B1A681B6802F432
:105498004042B2F5404F33D113F4803310D102F1BA
:1054A8000F6202F58C52904248D8284A904247D859
:1054B800274A904235D8274A904209D902230DE05D
:1054C800254B984238D8234B98424FF0060305D80D
:1054D800224A904202D9012B38BF012320490A6889
:1054E80022F00F021A430A600A6802F00F02934280
:1054F80002D00A6802F00F02981A18BF01207047FC
:1055080003F44043B3F5004F05D103F10F6303F5EE
:10551800A343984212D80D4B984211D80C4B98428D
:1055280001D90323DAE70B4B9842C7D80B4B9842B3
:1055380094BF00230123D1E70723CFE70523CDE755
:105548000423CBE70120704700700040000E2707B6
:10555800804A5D05008793038058840C80C3C90185
:10556800003C024038B5054C054DAC4200D338BD6F
:105578002046203406F0C4F9F7E700BF78BB0008DE
:1055880078BD000870B5044688B10378C3B10D4DE5
:105598000D4EB54201D3002409E029688C4208D198
:1055A800284605F0BAFC002814BF2C4600242046E3
:1055B80070BD2046FAF79EFE0028F1D02035E8E7B6
:1055C8001C46F4E778BB000878BD000810B50B4C02
:1055D8008CB00146109A6846A368C3F88C20302224
:1055E80003F064FD40B96846FFF7CCFFA3680022CA
:1055F800C3F88C200CB010BD0020F7E72815012057
:10560800F8B51B4D00AF0446AB683A6AC3F88C2066
:10561800FAF7D6FD00210122064603F0CBFC01462D
:10562800E8B13246214600236C4603F0F9FB88B006
:105638006A46104B5361104B93614FF40073938388
:105648000E4B42F8103F00230D484FF4E251FCF78F
:105658005FFBAB68A546D3F88C0005F082F82046BE
:1056680005F05BFCAB68C3F88C10BD46F8BD00BF05
:1056780028150120D1D200088BD6000803000001AC
:1056880024C100082DE9F0411B4E00AF0446B36861
:105698003A6AC3F88C20FAF793FD0122002180466C
:1056A80003F088FC0546E8B14246214600236C46D3
:1056B80003F0B6FB88B06A46104B5361104B9361F8
:1056C8004FF4007393830F4B42F8103F00230E48AA
:1056D8004FF4E251FCF71CFBB368A546D3F88C00E5
:1056E80005F03FF8204605F023FCB368C3F88C505A
:1056F800BD46BDE8F08100BF28150120D1D20008C1
:1057080076D600080300000124C1000830B504461D
:1057180087B0FCF79BF9EFF305853DB10B4A0121F2
:105728000B4804F01BFF204605F01AFC05F040F872
:105738000028F3D0054B0593022304934FF48251BC
:105748002B4604AA0248FCF7E3FAECE7A2D60008C5
:1057580024C100082DE9F04387B004460D4600AF88
:10576800EFF31188102383F31288BFF36F8F042897
:10577800344AE9468AB098BF334B9668117C6A462A
:1057880094BF53F82030314BC2E9073140F201335E
:105798002F4893842F4BC2E9050442F8103F002399
:1057A8004FF431512C48FCF7B3FACD466DB1EB6993
:1057B800C3F308034BB1EFF30589B9F1000F2FD0FC
:1057C800264A0121244804F0C9FE2EB1304605F0CE
:1057D80045FD08B1037803B92148E9468AB06A460D
:1057E800204BD061C2E9053640F2013313841E4BC9
:1057F80042F8103F00234FF411511748FCF788FA7C
:1058080029462046CD46FFF781FF88F31188BFF36C
:105818006F8F3046FDF75EFB1C37BD46BDE8F08351
:1058280004F0C6FF0028CBD00C4B7B6102233B6100
:105838004FF482514B4607F110020748FCF768FA0B
:10584800C3E700BF28150120F4C30008B1D600083B
:10585800C7D600080500000124C10008EFD60008DB
:10586800BFD6000810D700080400000138B50A4B5D
:1058780053F82040013053F82050A54200D838BDD5
:10588800606830B1037FDB0701D405F071FB083491
:10589800F3E723689847FAE708C40008324B012267
:1058A8000320F0B5314C87B0314E1A70FFF7DEFF98
:1058B80003F052FC0420FFF7D9FF25463034B542E7
:1058C80014D32C4C2C4FBC4236D3284C01F0C2FDCB
:1058D8002A4DB44232D301F0D1FDFAF78BFF284AA2
:1058E800137B23F00103137307B0F0BD54F80C3C8D
:1058F800059354F8103C049354F8143C039354F85B
:10590800183C029354F81C3C019354F8203C009333
:1059180054E90A2354E90C0101F008F854F8303C22
:105928005D66CAE7216805F0D7FF636858590435F2
:105938000028F7D10834C6E70025F6E7D4E90A239A
:10594800B3F1FF3F08BFB2F1FF3F05D052EA0301B0
:10595800206803D101F086FF3034BAE729461830B1
:1059680002F024FAF8E700BFA019012098C0000847
:1059780098C0000888C0000888C00008B1B30008B3
:105988008014012006480021064A08B5121A05F0BD
:1059980006FB0548054A0021121A05F000FB08BD60
:1059A800800C0120A4190120000000200000002024
:1059B8002DE9F0411B4E00AF0446B3683A6AC3F8BC
:1059C8008C20FAF7FDFB01220021804603F0F2FA51
:1059D8000546E8B14246214600236C4603F020FA0A
:1059E80088B06A46104B5361104B93614FF40073B3
:1059F80093830F4B42F8103F00230E484FF4E251B7
:105A0800FCF786F9B368A546D3F88C0004F0A9FE24
:105A1800204605F0C8FAB368C3F88C50BD46BDE807
:105A2800F08100BF28150120D1D2000872D70008E4
:105A38000300000124C100082DE9F041A8231B4FF1
:105A48001B4E1C2586B0044605FB00754FF0010867
:105A580003FB00660F2200234FF4C0701549019321
:105A680000FB041130460095CDE90232CDE90483EC
:105A78004FF4A072104B00F059FF737B0F4A23F0CC
:105A88000403EE602C7473734FF4046304FB033354
:105A980013446B6007EB041307EB0417283387F8EC
:105AA8003080AB6106B0BDE8F08100BF2815012049
:105AB800D8130120802B0120C1AF0008402301200A
:105AC800BFB50020FFF7D2FE284B83F30888284D86
