:020000040800F2
:1000000000300120893A00085DB00008753A000808
:10001000753A0008753A0008753A000800000000BB
:100020000000000000000000000000006D3B000820
:10003000753A000800000000E93A0008695F00080E
:100040004D3E00084D3E00084D3E00084D3E000864
:100050004D3E00084D3E00084D3E00084D3E000854
:100060004D3E00084D3E00084D3E00084D3E000844
:100070004D3E00084D3E00084D3E00084D3E000834
:100080004D3E00084D3E00084D3E00084D3E000824
:100090004D3E00084D3E00084D3E00084D3E000814
:1000A0004D3E00084D3E00084D3E00084D3E000804
:1000B0004D3E00084D3E00084D3E00084D3E0008F4
:1000C0004D3E00084D3E00084D3E00084D3E0008E4
:1000D0004D3E00084D3E00084D3E00084D3E0008D4
:1000E0004D3E00084D3E00084D3E00084D3E0008C4
:1000F0004D3E00084D3E00084D3E00084D3E0008B4
:100100004D3E00084D3E00084D3E00084D3E0008A3
:100110004D3E00084D3E00084D3E00084D3E000893
:100120004D3E00084D3E00084D3E00084D3E000883
:100130004D3E00084D3E00084D3E00084D3E000873
:100140004D3E00084D3E00084D3E00084D3E000863
:100150004D3E00084D3E00084D3E00084D3E000853
:100160004D3E00084D3E00084D3E00084D3E000843
:100170004D3E00084D3E00084D3E00084D3E000833
:100180004D3E00084D3E00084D3E00084D3E000823
:100190004D3E00084D3E00084D3E00084D3E000813
:1001A0004D3E00084D3E00084D3E00084D3E000803
:1001B0004D3E00084D3E00084D3E00084D3E0008F3
:0801C0004D3E00084D3E000811
:100200000B49C0F307230246C0B231F8133031F86E
:1002100010100B442A2B08DC0C2006494343C81855
:10022000CB589A4218BF002070470020704700BF8B
:100230007CF3000830020120F8B506460F46064C54
:100240002B25236813B139462046B047013D04F100
:100250000C04F6D1F8BD00BF300201200000000000
:10026000000000000000000000000000000000008E
:10027000000000000000000000000000000000007E
:10028000000000000000000000000000000000006E
:10029000000000000000000000000000000000005E
:1002A000000000000000000000000000000000004E
:1002B000000000000000000000000000000000003E
:1002C000000000000000000000000000000000002E
:1002D000000000000000000000000000000000001E
:1002E000000000000000000000000000000000000E
:1002F00000000000000000000000000000000000FE
:1003000090F800F06DE9024520F007016FF0000C55
:1003100010F0070491F820F040F049804FF00004FD
:100320006FF00700D1E9002391F840F000F10800D8
:1003300082FA4CF2A4FA8CF283FA4CF3A2FA8CF310
:100340004BBBD1E9022382FA4CF200F10800A4FA77
:100350008CF283FA4CF3A2FA8CF3E3B9D1E90423CB
:1003600082FA4CF200F10800A4FA8CF283FA4CF302
:10037000A2FA8CF37BB9D1E9062301F1200182FABC
:100380004CF200F10800A4FA8CF283FA4CF3A2FAC2
:100390008CF3002BC6D0002A04BF04301A4612BAD0
:1003A000B2FA82F2FDE8024500EBD2007047D1E9D3
:1003B000002304F00305C4F100004FEAC50514F062
:1003C000040F91F840F00CFA05F562EA05021CBF33
:1003D00063EA050362464FF00004A9E7000000004D
:1003E000A2EB0300704700BF02780B78012A28BFF8
:1003F0009A42F5D16DE9044540EA0104CDE902676E
:100400006FF0000C4FEA447212B380EA010414F05A
:10041000070F6AD100F0070420F0070004F003057D
:1004200021F007014FEAC505F0E8042314F0040F9A
:10043000F1E804670CFA05F462EA040266EA0406CD
:100440000AD063EA0403624667EA0407664603E0EB
:10045000F0E80423F1E8046782FA4CF582EA060426
:10046000A4FA8CF46CBB83FA4CF583EA0705A5FA71
:100470008CF595B950E9022351E9026782FA4CF5EF
:1004800082EA0604A4FA8CF483FA4CF583EA0705A1
:10049000A5FA8CF52543DBD09CB92DBAB5FA85F4C5
:1004A00024F0070427FA04F1DDE9026723FA04F3D4
:1004B00003F0FF0001F0FF01FDE80445A0EB01009F
:1004C000704724BAB4FA84F424F0070426FA04F13D
:1004D000DDE9026722FA04F202F0FF0001F0FF01F9
:1004E000FDE80445A0EB0100704714F0030F3CD178
:1004F00010F0030428D150F8082B51F8083B82FA79
:100500004CF582EA0305A5FA8CF55DB950F8042C88
:1005100051F8043C82FA4CF582EA0305A5FA8CF501
:10052000002DE8D02DBAB5FA85F424F0070423FA9B
:1005300004F122FA04F202F0FF0001F0FF01FDE8ED
:100540000445A0EB010070474FEAC40420F003000B
:1005500050F8082B21F0030151F8083B0CFA04F481
:1005600062EA040263EA0403C9E710F003041AD044
:10057000A1EB040120F00300E40750F8042B06D09F
:100580000FD28B785FFAA2F4E41A06D12BB1CB78A4
:100590005FFAB2F4E41A00D11BB920465DF8104BA3
:1005A000704701F1040150F8042BCC0721F003013E
:1005B00051F8043B48D824D222F07F4482FA4CF50B
:1005C00094EA1325A5FA8CF50AD165B951F8043BD4
:1005D00084EA0204B4EB036F0ED150F8042BEBE76E
:1005E0004FEA132355E035F07F454DD10878FDE8FB
:1005F0000445C0F1000070474FEA126203F0FF03A8
:1006000047E002EA1C4482FA4CF594EA1345A5FA45
:100610008CF50AD165B951F8043B84EA0204B4EBC5
:10062000034F0CD150F8042BEBE74FEA134330E0B3
:1006300015EA1C4528D10B884FEA124229E04FEAFF
:10064000124203EA1C4324E002F0FF0482FA4CF554
:1006500094EA1365A5FA8CF50AD165B951F8043B03
:1006600084EA0204B4EB032F09D150F8042BEBE722
:100670004FEA13630DE015F0FF0F05D10B684FEA49
:10068000122223F07F4304E04FF00000FDE8044510
:10069000704712BA1BBA82FA4CF482EA0304A4FA35
:1006A0008CF5B5FA85F402FA04F203FA04F34FEA82
:1006B0001260FDE80445A0EB13607047844641EAF0
:1006C000000313F003036DD1403A41D351F8043BCA
:1006D00040F8043B51F8043B40F8043B51F8043B1C
:1006E00040F8043B51F8043B40F8043B51F8043B0C
:1006F00040F8043B51F8043B40F8043B51F8043BFC
:1007000040F8043B51F8043B40F8043B51F8043BEB
:1007100040F8043B51F8043B40F8043B51F8043BDB
:1007200040F8043B51F8043B40F8043B51F8043BCB
:1007300040F8043B51F8043B40F8043B51F8043BBB
:1007400040F8043B51F8043B40F8043B403ABDD22A
:10075000303211D351F8043B40F8043B51F8043BCC
:1007600040F8043B51F8043B40F8043B51F8043B8B
:1007700040F8043B103AEDD20C3205D351F8043B5B
:1007800040F8043B043AF9D2043208D0D2071CBF27
:1007900011F8013B00F8013B01D30B880380604650
:1007A000704700BF082A13D38B078DD010F00303C6
:1007B0008AD0C3F10403D21ADB071CBF11F8013B36
:1007C00000F8013B80D331F8023B20F8023B7BE785
:1007D000043AD9D3013A11F8013B00F8013BF9D2B0
:1007E0000B7803704B7843708B788370604670474A
:1007F00053B94AB9002908BF00281CBF4FF0FF3188
:100800004FF0FF3000F00CB8ADF1080C6DE904CEEC
:1008100000F008F8DDF804E0DDE9022304B07047D9
:10082000704700BF2DE9F04786468C460846089E73
:10083000154674461946002B40F0C2808542B2FA34
:1008400082F245D94AB1C2F1200300FA02FC2EFA25
:1008500003F3954043EA0C0C94404FEA154EA8B2BE
:10086000BCFBFEF8230C0EFB18CC08FB00F943EA96
:100870000C43994528D9EB1808F1FF3704D2994564
:1008800002D9A8F102072B44A3EB0903A4B2B3FBDE
:10089000FEFC0EFB1C330CFB00F044EA0344A042B8
:1008A00014D92C190CF1FF3304D2A04202D9ACF1B7
:1008B00002032C44241A43EA07401EB1D44000230B
:1008C00034607360BDE8F0874746DDE76346F1E7D3
:1008D00092BB431B01214FEA154EAFB2B3FBFEFCA6
:1008E000200C0EFB1C330CFB07F840EA0343984531
:1008F00062D9EB180CF1FF3004D2984502D9ACF163
:1009000002002B44A3EB0803A4B2B3FBFEFC0EFBD6
:100910001C330CFB07F744EA0344A7424ED92C19B9
:100920000CF1FF3304D2A74202D9ACF102032C44EC
:10093000E41B43EA0040C0E7C2F1200320FA03F1C0
:10094000954090402EFA03F303434FEA154EAFB2A1
:10095000B1FBFEFC0EFB1C10190C0CFB07F841EA66
:100960000041884504FA02F422D969180CF1FF30DD
:1009700004D2884502D9ACF102002944A1EB080158
:100980009BB2B1FBFEFC0EFB1C110CFB07F743EA0C
:1009900001439F420ED9EB180CF1FF3104D29F4264
:1009A00002D9ACF102012B44DB1B41EA004192E782
:1009B0006046E3E76146F7E76046A3E76346B7E7CB
:1009C000834206D916B9002108467BE7C6E900E054
:1009D000F9E7B3FA83F78FB9834201D3724508D898
:1009E000BEEB020460EB030301209C461EB900210C
:1009F00068E73846FAE7C6E9004CF8E7C7F1200C8B
:100A0000BB4022FA0CF41C432EFA0CF120FA0CF332
:100A1000B84001434FEA14490EFA07F5B3FBF9F861
:100A20001FFA84FE09FB18300B0C08FB0EFA43EA90
:100A300000439A4502FA07F240D9E31808F1FF3063
:100A400004D29A4502D9A8F102002344A3EB0A0379
:100A500089B2B3FBF9F809FB183308FB0EFE41EA33
:100A600003418E452CD9611808F1FF3304D28E451D
:100A700002D9A8F10203214443EA0040A0FB0298F6
:100A8000A1EB0E014145CE46434602D306D14D456A
:100A900004D2B9EB020E68EB04030138002EA6D095
:100AA000B5EB0E0261EB030101FA0CFC22FA07F32D
:100AB0004CEA0303F940C6E9003198E74046C5E730
:100AC0004346D9E700000000012801F004012DE9A8
:100AD000F04D14468AB01E4602D0042840F0B38080
:100AE0006368002BC0F2AF805B4FA368BB4200F28B
:100AF000AA8002AD002976D0294600F05FFDDDE92D
:100B00000232B2F1004F08BF002B0AD05B422846E8
:100B100062EB4202CDE90232049B5B42049300F097
:100B200093FC2146284609F0A1FC4C49D4E9003247
:100B300099424FF0040393412BDADDE902030228C6
:100B400073F1000254DB013842F2107243F1FF33BB
:100B5000A0FB020102FB0311414C09F0BEFC80FB2B
:100B600004483BA3D3E9002320464146FFF740FE5B
:100B70003B4A0023CDE9060120464146FFF738FEF7
:100B800000230892012206A92846CDE9022309F094
:100B90006DFCDDE90248B8F1000F4FDB54EA0803B1
:100BA000049828D188BB2246434668460BF043F997
:100BB000DDE900AB4146204609F08FFC5B4652461A
:100BC00068460BF05DF9DDE9004854EA0803F1D10D
:100BD0002EB100230022C6E900230023B3600020C9
:100BE0000AB0BDE8F08D94E80F0085E80F009CE79F
:100BF00000200146B0E74FF0FF336FF00042904510
:100C000008BF9C4201D1B8421BD042F21073154A72
:100C1000C117A4FB034503FB08580023FFF7E8FDB9
:100C20004FF0FF3224186FF0004348EB0108A24256
:100C300073EB0801B7D214469846B4E70024A046E7
:100C4000B1E71C46FBE76FF01500C9E7AFF3008082
:100C500000CA9A3B00000000FFC99A3B08FA824B89
:100C600040420F00A086010038B50F4D03210F4C04
:100C70000F4A284608F08EFD0E4A0321204608F050
:100C800089FD0D4928460BF007FA0C4928460BF060
:100C900003FA0B4920460BF0FFF90A4920460BF0F6
:100CA000FBF9002038BD00BF4C110120E0100120ED
:100CB0008C00012080000120E0080120380801207C
:100CC00090070120E80601202DE9F04F91B084073C
:100CD00005460E46009302F00403DDF86880029397
:100CE000C2F3C203039203F10103059340F0BA81FA
:100CF000041D30B1072909D86FF01B0011B0BDE801
:100D0000F08F01F007063444C6F10806009B4FF04F
:100D100000094FF0040A591E4FF0FF334F46CB46EF
:100D200001935346CDF810900DB1009A22600598BA
:100D3000002800F3E8809848009A824203D397483D
:100D40008242C0F0E080039AA4EB050E92074FEABE
:100D50009E0000F103810F2F00F2B180002D00F002
:100D6000058107F140020DEB020C019A0CF8200CF2
:100D70000CF8102C049801300490E7E07A285DD834
:100D80004B280ED8472859D829282DD8252852D0A5
:100D900054D820287AD02338D0F1000B4BEB000B2D
:100DA00074E04C382E2849D8DFE800F070484848F5
:100DB00048484848484848484B48484848484848B0
:100DC0004859484B4B595959704B6D487048184B0E
:100DD000184848827F4B48484B487F0000204FF01E
:100DE000000B4FF0040A38E02A380122C0B202FAA0
:100DF00000F010EA0E0F49D110F0625C2FD110EA1A
:100E0000020B43D06046013C5444B4FBFAF40AFBA5
:100E100004F4002D61D0A3EB050CA444B4453FF6C7
:100E20006BAF002868D1042B47D158F8043B2360EE
:100E3000043404232AE0019A013A01924FF0000B96
:100E400024E011F8010C6C2834D111F8023C002088
:100E50006C2B8346C5D14FF0080A5346D3E708F1FF
:100E60000708073428F0070824F00704F8E802AB65
:100E700035B106982044B0423FF63EAFC4E900AB1E
:100E800008344FF0000B4FF0080A534611F8010FD9
:100E9000002878D0BBF1000F7FF470AF2528F5D182
:100EA000019B4FF0010B013301934FF0040AECE773
:100EB000584694E700208346A5E7082B02D06FF040
:100EC00015001BE708F1070828F00708F8E80223D7
:100ED000C4E9002308340823D8E768B9042B02D1F9
:100EE00008F10408A4E7082BE9D108F1070828F065
:100EF000070808F10808EDE7059A013A059258F845
:100F0000042B009210E7039A900720D5A4EB050E5E
:100F10004FF0010C4FEA9E00BEF5007FCFD20F2F9D
:100F2000CDD8F5B107F14002C0B20DEB020E019A27
:100F30000EF8200C0EF8102CBCF1000F3FF41AAF85
:100F400060F07F0009F101090EF8200C0137C5F1AE
:100F5000080204344FF6DA7E069297E74FF0000C51
:100F6000DAE7BCF1000F01D00136EFE70298023654
:100F70000028EBD10098CDE90631FFF7C1F906440E
:100F8000DDE90631E2E7631BB3F5806F97D23DB927
:100F9000A6F10804E018B1E68CC20008BCF5000810
:100FA0009B08029A28602B709DF81030C2B1EB703C
:100FB00085F80290B9F1000F05D008A80022C5F10C
:100FC000010C97420ED1C5F101030DF120084FF03D
:100FD000000A0DF1300B0193574512D1601B8DE6CD
:100FE0006B70E5E710F8013B190608D50CEB040E11
:100FF00003F07F03B6453FF67FAE04F8013B0132B4
:10100000DFE7B9F1000F03D098F90020002A17DBC1
:10101000029BD3B11AF80B2004F8012B0022019B8C
:1010200018191044B0423FF667AE98F800000099D6
:1010300004F8010B20460392FFF740FB039A144487
:101040000AF1010A08F10108C6E798F8002055F8EE
:1010500022300093029B009845F82230FFF750F9A8
:10106000421CDCE76FF00D0048E600BF2DE9F04FB1
:1010700095B004469346894600AF90F802A0BB6144
:10108000BB6FC3F3C0033B6141B9457800780AEBFD
:10109000800020444D4519D8A0EB0409E3787B611A
:1010A000BAF1000F02D0BB6FD80718D47B69002BB0
:1010B00040D1BBF1000F03D0BA6949462046D8475A
:1010C0004D4628465437BD46BDE8F08F461C09F111
:1010D00001093046FFF714F901303044DAE723788C
:1010E00062687B629B00FA61FB607B6A04EB8301B0
:1010F000BBF1000F40F00A814D460E4601EB0A0895
:101100004FF0000B464525D016F8013B796254F8A4
:101110002300FFF7F5F8FB6F0130796A43B1D7F888
:1011200080309B453EBFFB6F23F81B000BF1010B8A
:101130000544E7E7BB6F9907BBD5237819467B6267
:101140009B0004EB8101FB606368FB61BBF1000F56
:1011500072D14D46BB6F01EB0A0913F0050F0CBFAE
:10116000022301237B627B6909EB430ABB6F03F017
:101170000203BB61D145A4D019F8021B19F8013C48
:1011800054F82360A94B9E4202D3A94B9E422AD316
:101190003B69002B3CD0F86909F043F9002837D0AF
:1011A000C7F820D08AB06B46A24A03F110065A61F4
:1011B000FA69C3E906214FF400721A849E4A1A6143
:1011C000EFF30588B8F1000F1AD109F060FFB8B14C
:1011D00032469A484FF4125143469F2603DF023DA0
:1011E000D7F820D0C6E73B6923B1F86909F019F9AF
:1011F0000028D5D1BB6FDA070DD47B6AED1AB9E7A9
:10120000002332464FF412518C4801F091FBE6E77F
:10121000BB69002BAED03046FFF772F8FB6F4BB1C5
:10122000D7F880309B453FBF431CFA6F22F81B3034
:101230000BF1010B05449DE7BAF1000F6CD0BB6FB9
:1012400013F004066BD0D046002607F1400052464A
:101250003962FFF733FA396A01EB0A037A693B62B4
:101260007B695B007B603B6A03EB4203BB60BB6F47
:1012700003F002033B60BB683A6A934251D1B96FF5
:1012800063788907B86F06EB030254BF4FEA580131
:101290000021C507D2B200F1968010F0040F14BFF0
:1012A000404600206270A0702046E170BA69F9687B
:1012B000FB61D847051EFFF604AF7B6A4146BA6959
:1012C00007F140002370FB6984F802A063707B691A
:1012D000E370D847B0F10008C0F2B280FB68A9EB18
:1012E0000A01BA69C91A7B68386AC91AD84700283E
:1012F000C0F2A880A8444FF0000908EB0005B145F2
:1013000063D30021BA690846D847DAE656464FF05B
:10131000000807F130009AE75646D0469CE7B046F1
:101320009AE73B6A13F8021B13F8015C3B6254F81E
:1013300025003E4B984202D33D4B98421DD33B695A
:1013400023B1F86909F06DF8002894D13B68FBB926
:1013500008F1280307F1280208F1010008F102084A
:1013600003EB020C07F150035FFA88F853FA80F0A0
:101370000CF8101C00F8105C7DE73B692BB1F86994
:1013800009F04FF800287FF476AFBB6FDB0709D573
:1013900006F1280307F12802711C9E1806F8205C4C
:1013A000CEB268E7BB6F58077FF565AF08F1280339
:1013B00007F1280208F1010103EB020808F8105CAC
:1013C0005FFA81F857E700206CE707F1300313F864
:1013D000093054F823A087F82F30FB6F13B3D7F8E8
:1013E000803099451ED2FB6F33F81980BA6901210C
:1013F00007F12F00D847002824DB0544B8F1000F7F
:1014000006D15046FEF77CFF00F101081FFA88F86C
:10141000BA6941465046D847002813DB054409F114
:1014200001096CE74FF00008E0E700BF8CC200083C
:10143000BCF500086FD2000804000001DCC90008F8
:1014400045463EE605463CE6214B70B582689A4229
:1014500015DD0133D0E9001692FBF3F301294FEAC1
:10146000E37476F1000520DAC91844EB0604C0E9FC
:101470000014184901FB03238360012070BD002A7A
:10148000FBDAB2F1004F1BBF9B1A13490323B3FBD6
:10149000F1F3D0E90041DE1700290FDA01F1004530
:1014A0009C42B5410ADA0020E8E7CD439D426FF047
:1014B0000045A5EB0605A541D6DAF4E7E41A61EB91
:1014C0000601C0E90041044901FB03228260D4E720
:1014D000FFC99A3B003665C400CA9A3B80B500AF8D
:1014E0006C468CB06A460D4B4FF4615153610C4B06
:1014F000C2E9063010230B4813620B4B53620B4BAF
:1015000093620B4B42F8103F08F0FAFF094BA546D7
:101510009B68D3F8900009F093FD00BF23D3000827
:101520008AD3000804CA0008D0D9000800020305C5
:1015300006000002E00F012080B500AF6C468CB0C1
:101540006A460D4B4FF4615153610C4BC2E90630B2
:1015500010230B4813620B4B53620B4B93620B4BE4
:1015600042F8103F08F0CCFF094BA5469B68D3F822
:10157000900009F065FD00BF23D30008A3D3000845
:1015800004CA000869D3000800020305060000022F
:10159000E00F012030B50446EFF31185102383F3EB
:1015A0001288BFF36F8F044B0FCB84E80F0085F3D5
:1015B0001188BFF36F8F30BD8809012001282DE904
:1015C0005F410C4606D0042825D06FF0150004B00A
:1015D000BDE8508108F0ACFF42F210720023FFF723
:1015E00007F9134B5A43C4E90001A26008F06EFFEB
:1015F00068B168467B2603DF6946204608F036FF5F
:1016000018B90C4B0FCB84E80F000020DFE76846C9
:10161000FFF7C0FFF0E708F08BFF42F210720023E3
:10162000FFF7E6F8024B5A43C4E90001A260ECE779
:10163000A086010038CA000810B5064C049AA368B9
:10164000C3F8902008F086FFA3680020C3F890003C
:1016500010BD00BFE00F012001287FB50D462DD140
:101660008A68184B9A4229D808F062FF42F2107239
:1016700000236C46FFF7BCF84042134B61EB41017D
:101680005343CDE9000120460293FFF7DDFE2946D2
:10169000204608F0EBFEEFF31186102383F3128847
:1016A000BFF36F8F094D94E80F0085E80F0086F3B4
:1016B0001188BFF36F8F002004B070BD6FF015006C
:1016C000FAE700BFFFC99A3B6079FEFF8809012055
:1016D00010B5064C049AA368C3F8902008F04DFF9B
:1016E000A3680022C3F8902010BD00BFE00F0120C6
:1016F00012F1110F2DE9F041064600AF884615465C
:101700001C461CD96C468CB06A46264B4FF461517E
:1017100025485361254BC2E9063510231362244B3B
:101720005362244B9362244B42F8103F08F0E8FECA
:10173000A546224B9B68D3F8900009F081FC00225B
:101740001021284609F0C1FC0028DBD10CB314F1AC
:10175000110F17D96D468CB06A46124B4FF4615188
:1017600011485361114BC2E9063410231362144B24
:101770005362104B9362104B42F8103F08F0C0FECA
:10178000AD46D6E701221021204609F09EFC002834
:10179000E0D123462A4641463046FFF795F9BD463B
:1017A000BDE8F08123D3000804CA00086FD3000805
:1017B000D0D900080002030506000002E00F012056
:1017C00069D3000870B5064C069EA568C5F8906000
:1017D000FFF78EFFA3680022C3F8902070BD00BF02
:1017E000E00F0120014B1860704700BFBC000120D2
:1017F00070B504464518044EAC4200D170BD336844
:1018000014F8010B9847F7E7BC0001202DE9F047D9
:10181000DFF8A09000AFC8420446D9F808300D4662
:10182000BA6AC3F8902024D3EA468CB06B46224AA9
:1018300003F110061D625A61204AC3E90624204ABA
:101840005A62204A9A62204A1A61EFF305844CBB1F
:1018500009F01DFC30B332461C484FF46151234659
:101860009F2603DFD9F80830D546D3F8900009F059
:10187000E7FB19B1C3434A1E9342D5D9002229463A
:10188000204609F022FC06460028CDD120462946F4
:10189000FFF7AEFFD9F808303046C3F89060BD4678
:1018A000BDE8F087002332464FF46151074801F04C
:1018B0003FF8D7E7E00F012023D30008C0D300088A
:1018C000D0D90008000203050600000204CA00087F
:1018D00030B5002587B0044600950595CDE9030194
:1018E00003A9054800F06EF8DDE904309842B8BF5E
:1018F000255407B030BD00BFABA50008F0B50246C7
:101900000168084E00200A270B4601311C78355D1E
:101910006D0701D41360F0BD07FB0043A3F1300055
:10192000F2E700BF31D100082DE9F84F15469A467D
:10193000D3788146224A0F466F2B12F803B00BF082
:10194000030B2BD026D8582B0CBF10260A26DDF807
:1019500028803246002348463946FEF749FF092AC7
:1019600008F1FF38D4B21ED83034B145E4B277F173
:10197000000788F8004001D3D04511D82B789B068A
:1019800005D5082E15D1AB7843F00803AB7040465F
:10199000BDE8F88F03F0F703702BD5E70826D6E7EC
:1019A00081460F46D5E7BBF1010F0CBF37345734E2
:1019B000DBE7102EEBD1AB7843F01003E6E700BF76
:1019C00031D100082DE9F04F8A4697B016461C46E3
:1019D00000250390307808B9284656E325280AD018
:1019E0005146039B98470028C0F24F83731C013572
:1019F0000493049EEEE71822002110A808F0F6FADE
:101A00007378252B00F0A3800023711C98469E4616
:101A10009C4618460F4611F8012B2B2A00F0C68071
:101A200000F2BD80202A00F0C480232A00F0C48088
:101A30002BB19DF8483043F040038DF84830B8F1A1
:101A4000000F05D09DF8483043F020038DF8483052
:101A5000BEF1000F05D09DF8483043F010038DF81B
:101A60004830BCF1000F05D09DF8483043F0080322
:101A70008DF8483028B19DF8483043F004038DF8C4
:101A800048309DF8483003F04401442903D16FF3F6
:101A900086138DF848309DF848302A2A099743F07C
:101AA00080038DF8483040F08C809DF8493043F039
:101AB00001038DF849307B1C1A782E2A9DF84920A5
:101AC0000CBF0121002161F341028DF849200CD1A6
:101AD0005A1C09925A782A2A40F083809DF849209E
:101AE000023342F004028DF849201A786C2A00F083
:101AF000A48000F28680682A00F08C806A2A00F0B8
:101B0000A5804C2A00F0AA801A4612F8013B782BD7
:101B100004928DF84B309DF8492000F217816D2B0F
:101B200000F2A980692B00F21181572B00F2BE80D0
:101B3000412B03D0453B022B00F208819DF84A302F
:101B4000042262F302038DF84A300123CAE08DF8C3
:101B50004B30B31C04939DF84930D90740F1FD8008
:101B600054F8048BB8F1000F07DA9DF84820C8F14B
:101B7000000842F004028DF848205A0740F1F68030
:101B800054F804BBBBF1000F80F2F5809DF849309A
:101B90006FF341038DF849304FF0FF3BEBE02D2A06
:101BA0000DD0302A7FF444AF012333E74FF0010C0E
:101BB00030E74FF0010E2DE74FF001082AE7012032
:101BC00028E709A8FFF79AFE099BBB423FF474AFD0
:101BD0009DF848201390C00F60F341028DF8482013
:101BE0006AE709A8FFF78AFE9DF848301490C3F30E
:101BF000400242EAD07262F341038DF84830099BFB
:101C000073E7742A26D07A2A7FF47EAF9DF84920A4
:101C100006210CE05A78682A9DF8492006D1012156
:101C200061F3C60202338DF849206DE7022161F3AA
:101C3000C6028DF84920013366E75A786C2A9DF870
:101C4000492001D10421EBE70321F0E79DF8492069
:101C50000521ECE79DF849200721E8E7BDF8482079
:101C600022F4F04222F0020242F4804242F00202E8
:101C7000ADF84820DFE76E3BD9B201238B4040F23C
:101C800082410B4238D113F0240F52D1DF075DD5CA
:101C90009DF84A30032161F302038DF84A3002F0C7
:101CA0007803A3F14000434243411BE0A3F15801F4
:101CB0000120C9B200FA01F111F4624F7FF43EAF86
:101CC00040F6010739421DD111F4043F3ED09DF882
:101CD0004A3060F3020302F078028DF84A30402A5D
:101CE00034D000239DF84820C2F340010B4363F336
:101CF00041028DF848202EE79DF84A30022161F319
:101D00000203E8E79DF84A10022002F0780260F32F
:101D10000201402A8DF84A1002BF9DF8481041F098
:101D200001018DF84810632BDBD1131E18BF01236E
:101D3000D8E79DF84A30032112F0780F61F30203CF
:101D40008DF84A3014BF01230023CBE79DF84830BB
:101D500043F001038DF84830C3E79DF94820002A7D
:101D6000B4BFDDF84C804FF0FF3806E79F077FF5E2
:101D700013AFDDF850B000239DF84910CDE91333BF
:101D80009DF84A30C1F3C30103F00703012B32D1A0
:101D9000CB1E042B04D8DFE803F0204545202000AB
:101DA000236801294FEAE372CDE910321BD19DF976
:101DB0004030DA17CDE9103204349DF8483013F082
:101DC00003074FD0049B32465146039808F038FC75
:101DD0000028C0F25A8105440BE654F8043BDA1798
:101DE000CDE91032E9E70229E6D11AB243F3C03354
:101DF000CDE91023E0E7022B24D1CB1E042B04D81D
:101E0000DFE803F0181010181800012954F8043BFB
:101E10004FF0000214D00229CDE91032CDD19BB28F
:101E20001093CAE7073424F00704F4E80223CDE94D
:101E30001023C2E754F8043B109300231193BCE72E
:101E4000DBB2CDE7042B08D1073424F00704D4E932
:101E500000230834CDE91023AFE7032BADD154F8AC
:101E6000043BDDE79DF84B0078283FF6C2AD6228C1
:101E70001ED8252850D058287FF4BBAD0DF13E0365
:101E800012AA00930AABDDE91001FFF74DFDBBF18B
:101E9000000F814680F2C280B9F1000F3FF4A9AD76
:101EA0000DF13E06A6EB0903002F7BD0013379E04C
:101EB000633815283FF69DAD01A252F820F000BF0F
:101EC000931F0008F11F0008F3190008F319000818
:101ED000F3190008F3190008F11F0008F3190008AE
:101EE000F3190008F3190008F31900083F2000084F
:101EF00017200008511F0008F3190008F319000803
:101F0000291F0008F319000817200008F31900081A
:101F1000F3190008172000085146039B9847002832
:101F2000C0F2B380013564E5BBF1000FDDF84090ED
:101F30000ADB5946484608F0ABF8B9F1000F3FF408
:101F400058AD09EB000620E04846FEF7D9F9F8E75E
:101F50001098002800F087800DF13E060AAB12AA07
:101F600000210096FFF7E0FCBDF84A30BBF1000FFE
:101F7000814603F0EF0343F4F04343F01003ADF860
:101F80004A304ADA00283FF434ADA6EB09030027B3
:101F900008E0109B00270DF129060DF128098DF8A6
:101FA000283001239DF84A1011F01002069260D0EB
:101FB0000233139A134405924A0644BF14995B18DE
:101FC000B8F1000F6EDDA8EB03089DF84830580704
:101FD000C3F3800B66D459065AD53FB151463846F3
:101FE000039B9847002850DB01355F46302350E0C3
:101FF0001E0756BFC3F300132B275F01DDE9102333
:10200000002BBFF63BAF52424FF02D0763EB43036B
:10201000CDE9102332E7002730E700270DF13E031A
:102020009DF84810A3EB09036FF386119B458DF8CB
:1020300048107FF631AFABEB030313932CE7109BF3
:1020400007293FF6D6ACDFE801F00C04060C0808BF
:102050000C0C1D70CDE41D80CBE4EA17C3E90052DF
:10206000C7E41D60C5E4314E07460523A6F1050906
:1020700098E7080748BF01339BE718460793514686
:10208000039B98470028079B04DA17B0BDE8F08F40
:102090002023C34659460BF1FF3B0029EDDC4544A4
:1020A000D8466D1A37B151463846039B98470028E9
:1020B000EBDB01359DF84A30DA0601D41B0706D563
:1020C00051463020039B98470028DEDB0135069BF4
:1020D0003BB151469DF84B00039B98470028D4DB49
:1020E0000135059F2F4406E051463020039B984759
:1020F0000028CADB01357B1B002BF5DC33464A4642
:102100005146039808F09CFA0028BEDB0544A84419
:10211000A8EB0503002B7FF76CAC51462020039BF6
:1021200098470028B1DB0135F2E700BFD6D300089D
:102130002DE9F041451D00AF04461FD96D468CB016
:102140006B46164A03F110065A61154AC3E9062484
:1021500004221A62134A5A62134A9A62134A1A6193
:1021600008F085FA034690B1324611484FF46151A8
:1021700000239F2603DF0120AD4605E00122042154
:1021800008F0A3FF0028D9D1BD46BDE8F0814FF487
:1021900061513246064800F0CBFBECE723D3000840
:1021A000D7D3000869D30008000203050600000227
:1021B00004CA0008F8B50C4F1546089A0446BB68D7
:1021C0000E46C3F89020FFF7B3FF48B932462B46BE
:1021D000204608F053FABB680022C3F89020F8BDEF
:1021E0006FF00C00F7E700BFE00F012038B50A4D93
:1021F0000446069AAB68C3F89020FFF799FF38B9F8
:10220000204608F05BFAAB680022C3F8902038BD86
:102210006FF00C00F7E700BFE00F0120034A002039
:10222000536823F002035360704700BF002004E0AE
:10223000064B1A6842F400721A601A6842F48072FF
:102240001A60034B034A1A60704700BF003C02400B
:10225000F40001200024F4002DE9F047044607466D
:102260004FF00109DFF8508014B93846BDE8F08717
:1022700094FAA4F5B5FA85F509FA05F32E0108EBF1
:1022800005156FEA030A24EA03042B7B002BEBD02D
:1022900058F806301B694BB946440422284607EA21
:1022A0000A077368196808F04AFDDDE72846984771
:1022B0000028D9D1F0E700BF24CA00082DE9484121
:1022C00008F0BCFC20B105486B2603DFBDE848815F
:1022D0000248BDE8484109F014BE00BF480E012085
:1022E0002DE9704100228FB01B491C4809F0FCFD0C
:1022F00008F0A4FC0E23C8B10024194819494FF472
:10230000407208AD5626CDE90A34CDE90844CDE93E
:102310000C44154B03DF08F091FCC0B110485C265B
:10232000124903DF00200FB0BDE8708100240025B2
:1023300000904FF440720B49CDE90330CDE9010024
:10234000094B0748CDE9064505F02CFAE3E70749B4
:10235000034809F0F9FBE5E7BFAC0008480E01208F
:1023600098090120001801207D27000800D40008EA
:102370002DE9484108F062FC20B105484C2603DFF6
:10238000BDE848810248BDE8484104F065BF00BF90
:10239000200201202DE9F047804620480F4608F032
:1023A00054FC0646002832D000252846BDE8F087B8
:1023B000237B83B12368DB680BB1204698476368B1
:1023C00083F8069023681B69CBB963680422204612
:1023D000196808F0B4FC013610345445E8D3B8F15C
:1023E000000FE2D0002DDFD02846FFF735FF05466D
:1023F000002FF7D06420002108F034FCF2E72046DB
:1024000098470028E1D009FA06F31D43E3E7044C9E
:102410000546DFF810A04FF00109DEE7C8110120E2
:1024200024CA000834CA0008014B53F82000704742
:102430005CCA000808B5034608462BB1044A13607D
:1024400000F05CFD002008BD6FF01500FBE700BF49
:10245000C000012010B5044C23780BB9FFF788FFAA
:102460000123237010BD00BF4C140120034B002238
:102470009B68C3F89020024B18687047E00F01205A
:10248000C411012010B504460A4808F0DEFB5CB117
:10249000094BBFF35B8F53E8001F013943E800127B
:1024A000002AF8D1BFF35B8FFFF708FFBDE81040AB
:1024B000FFF75EBFC0110120C41101200020064BB0
:1024C000BFF35B8F014653E8000F43E80012002A78
:1024D000F9D1BFF35B8F7047C011012070B5FFF7D2
:1024E000EDFF084C0546084EB44200D370BD63684A
:1024F0005B792BB123685B6813B129462046984766
:102500001034F1E724CA000834CA000810B5044C9E
:102510000449204608F0F8F9034B1C6010BD00BFC9
:102520004001012048CA0008B811012000230D4ACB
:102530004FF47A710C4810B513700C4A13600C4AB2
:102540001360FFF777FFFFF7E1FF0A4B0A491846D0
:102550008B4200D310BD1A1A5C681033121101327D
:102560002271F5E74D140120AFAC0008C011012025
:10257000C411012024CA000834CA00080146002200
:102580000023014808F0ECB940010120014808F09F
:1025900091BA00BF40010120024B0146186808F0C3
:1025A000DDBA00BFB8110120014808F01BBB00BF15
:1025B00040010120264B70B51878002846D0FFF75F
:1025C000E5FF054600283ED1224B234C1B68002B1B
:1025D00012DD08F05AFB0A220023FEF709F9D4E9BC
:1025E0000032C01A40F2E93361EB0201984271F106
:1025F000000101D3FFF772FFD4E9003213F57A73BB
:1026000042F10002C4E90032BDE87040FFF7CCBFE0
:1026100063685B7923B12368294620461B68984785
:102620001034B442F4D32846FFF7B6FF0B4BBFF388
:102630005B8F53E8001F013943E80012002AF8D1EC
:10264000BFF35B8FC0E7064C064EEAE770BD00BFE4
:102650004C140120C0110120400E0120C4110120A2
:1026600024CA000834CA000870B50D4D297861B934
:102670000C4C01200C4EFFF78DFEB44206D308F03F
:1026800031FB0028FBD101232B7070BD63685B799F
:102690001BB1236820469B6898471034EDE700BFC4
:1026A0004D14012024CA000834CA000810B5064C95
:1026B000049AA368C3F89020FFF7D6FFA368002010
:1026C000C3F8900010BD00BFE00F01202DE9534179
:1026D0001D4808F0BAFA1D4B04461B787BB1EFF396
:1026E0001184102383F31288BFF36F8F08F0FAFA76
:1026F00084F31188BFF36F8F02B0BDE85081144B93
:102700001B68002BF8D0A8B908F098FA38B1114826
:1027100042F2107122462346682603DFECE70022CE
:1027200000230C48CDE9002342F21072002306F08A
:10273000B9FBE1E70928DFD1FFF7C0FD02B0BDE832
:102740005041FFF715BE00BFC41101204D140120F8
:10275000BC110120480E0120064B10B504461B6831
:1027600098472146A060044808F085F9BDE810406C
:10277000FFF7ACBFC00001204001012000212DE97E
:10278000F0470846FFF706FE044658B34FF4FA75C3
:10279000002708F053FA48B34A2603DF1E4B18609F
:1027A00028B11E4B1B68092B01DDFFF7E1FD002658
:1027B000DFF86CA03CB12046FFF74EFD044610B98F
:1027C0004FF0FF352F4608F08DFA814640B9DEB94B
:1027D00008F034FAD0B1134829463A464F2603DFB1
:1027E0004E46E7E74FF0FF352F46D2E705F020FFD2
:1027F000D4E733689B691BB10022304611469847E5
:1028000010365645F5D3E3E7074EFAE705482A4662
:102810003B4604F091FDE3E7BC110120C411012007
:1028200034CA00082002012024CA000810B5064C52
:10283000049AA368C3F89020FFF7BCFEA3680022A7
:10284000C3F8902010BD00BFE00F0120044A054BE3
:102850009B1AB1EBD30F34BF52F831000020704700
:10286000DCC9000824CA0008B0B500AF28B9E9B136
:102870006C4688B06A461C4B03E06C4688B06A46DA
:102880001A4B53614FF4E251194B1A4893614FF4BC
:1028900000739383184B42F8103F08F035FA174B3A
:1028A000A5469B68D3F8900008F0CAFB144C154865
:1028B000001BC50840F3CF00904206DD042B09D968
:1028C0006C4688B06A46104BDBE76C4688B06A46B7
:1028D0000E4BD6E7954202D80846BD46B0BD04EB84
:1028E000C2042079F9E700BF61D400080CD40008C5
:1028F000EAD4000804CA000803000001E00F012028
:10290000DCC9000824CA0008BFD4000890D400081D
:1029100070B5064C12B2069EA568C5F89060FFF728
:10292000A3FFA3680022C3F8902070BDE00F012030
:102930002DE9F04F8FB0C1F34A280D46914604AF00
:102940000C0DB8607B60B8F1000F63D0002607F172
:1029500014034FF0040B4FF00A0AC7F80C803246FC
:102960007E624846C7E90766019307F11C03CDF86C
:1029700008B0CDF800A0F968FEF778FBB0F5006F5D
:1029800003461CD36C468AB0D9F8041004AB264821
:102990001A46C3E9050140F2FF712448D9614FF49A
:1029A000007119844FF41251214B42F8103F334605
:1029B00008F05BFAA5462C37BD46BDE8F08FC0F3A2
:1029C0000A0804F117003B60184468F3532520F00F
:1029D00007008008FFF7D2FD044690B13B6800F184
:1029E0001001144A4846F961C7E9083607F1140393
:1029F000CDF808B0CDE900A307F11C03F968FEF794
:102A000035FB68F353257B68B96820462A4608F0F1
:102A1000BDF9D0E704F1170020F007008008FFF7A8
:102A2000ADFD0446EDE700BF09D50008E4C9000884
:102A3000040000015FAD000870B5064C069EA56855
:102A4000C5F89060FFF774FFA3680020C3F89000FA
:102A500070BD00BFE00F01202DE9F04F85B00446A6
:102A60008846934602AF9946BE6B3D6B002E38D028
:102A7000FB6B102100207B60009333467A6BFEF7DE
:102A800023F9B0F5006F82462CD308F061F9A8B99C
:102A900008F05EF950B134480221344A40F2FF7325
:102AA0009D2603DF0C37BD46BDE8F08F40F2FF7373
:102AB0002E4A02212C4808F0C2F9F3E76C4688B090
:102AC00002AA2A4B4FF4C4512748536140F2FF73C6
:102AD0009361032342F8103F002308F0C6F9A5468E
:102AE000E0E7B24604F007040BF0070BE40044EA09
:102AF0008B1444EA4A2444EA055408F029F9E8B161
:102B00000AF10703002523F00703ADEB030D0DF1D8
:102B1000080B3EB1FB6B51465846009333467A6B27
:102B2000FEF7D2F82E465D4608F012F94B46A0B1EA
:102B30002A462146404608F098F9B3E705F1170008
:102B4000504420F007008008FFF718FD054610B13B
:102B500000F1100BDDE70646E6E722464146304627
:102B600008F014F99EE700BFE4C9000848D5000842
:102B7000406820B1034BC01A40F3CF0070474FF0BC
:102B8000FF307047DCC900080EB403B503AB014643
:102B9000054853F8042B019308F09BF902B05DF847
:102BA00004EB03B0704700BFE1AE0008CA0605D4CD
:102BB0008B064CBF02490349FFF7E6BF704700BFD1
:102BC00081D5000880D500082DE9F04F89B09A46DC
:102BD00004460D46149B90469DF84CB00693159BF9
:102BE000179E0593169B0493BBF1000F00F09D8088
:102BF00006F4807306F00209079308F083F8024692
:102C000000283ED092492046FFF7BEFF0746B9F1A3
:102C1000000F08D016F0440F35D12A468D492046C2
:102C2000FFF7B2FF074406F0010353B18A4B204679
:102C30008A4953F82B208A4B002A08BF1A46FFF70F
:102C4000A3FF06F48073002B49D006F00803002B85
:102C500063D1B8F1000F66D0424682492046FFF7A3
:102C600093FF0546069B3D44002B6DD1049B002B32
:102C700073D1F30700F1E58031462046FFF796FF58
:102C8000D9E00746C3E7784B18680028CAD0774BCD
:102C90004FF47A794FF03C0C1B68B5FBF3F5B5FBAC
:102CA000F0F100FB11554FF4616309FB05F5B1FB31
:102CB000F3F2B5FBF0FE03FB121100FB1E55B1FB56
:102CC000FCF309FB05F50CFB1311B5FBF0F50091C6
:102CD00020466749CDE901E5FFF756FFA2E706F078
:102CE0000803EBB1634B2046634953F82B20FFF7F1
:102CF0004BFF0546B8F1000F05D042465949204622
:102D0000FFF742FF0544BAF1000FABD052465B49D2
:102D10002046FFF739FF0544A4E74FF0000AE1E73A
:102D200006F00805E6E745469CE7BAF1010F069B69
:102D300006D1002B65D1049B002B7CD000250CE034
:102D4000002BF8D04E485DE04E48069B22464E4987
:102D500007F036FB049B002B69D0DFF83081DFF8E9
:102D60003091049F4FF0000A31462046102F28BFB3
:102D70001027FFF71BFF554546DC059B4FF0010A66
:102D8000494620461A78FFF7FFFE1AF0070F03D1D5
:102D900041462046FFF7F8FE57453CD9059B49467A
:102DA000204613F80A20FFF7EFFE0AF1010ABAF1F4
:102DB000100FEAD14FF0000A36492046FFF7E4FE33
:102DC0005246059B20469A5C334B995C11F0970F55
:102DD000324908BF2E22FFF7D7FE0AF1010ABAF1E5
:102DE000100F1DD01AF0070F03D141462046FFF700
:102DF000CBFE57455246E4D841462046FFF7C4FE75
:102E0000EBE720485D46A0E7414620460AF1010A6B
:102E1000FFF7BAFEAFE722492046FFF7B5FEC4E749
:102E2000059B3B440593049BDB1B049399D1BBF1A9
:102E3000000F7FF41EAF204609B0BDE8F04F08F048
:102E40003BB8074A20460549FFF79EFE14E700BF3E
:102E500088D500088CD500086CCA000825ED00084C
:102E600083D50008B1D50008D0110120CC11012074
:102E700095D5000880CA0008B5D50008BBD5000864
:102E800017AF0008E1AE0008D3AE0008C8D50008AF
:102E9000C0D50008CAD5000831D100089AE2000860
:102EA000C6D5000842F20F73114A8B4273B504462F
:102EB00028BF0B4605680521684607F095FB636847
:102EC00006460B2228465B680A4907F0E7FF63685D
:102ED0003246694628465B6807F0E0FF63681B22BC
:102EE00005495B68284607F0D9FF02B070BD00BFF6
:102EF0007CE20008E8D50008CCD5000800210123B9
:102F0000064A904206D8064A01B901231360054BD0
:102F100018607047400801215B00F2E740420F0053
:102F2000CC110120D01101202DE9F8430D460446B3
:102F300000EB01090D4F4C4502D12846BDE8F8834E
:102F400014F8018BEFF3058656B908F0A0F838B1F4
:102F500026F0FF06384646EA08018F2603DFEAE737
:102F6000BB68414601485B689847E4E734C5000800
:102F7000014B036003207047C8CA00082DE9F047E1
:102F8000064600AF0C4600293ED0E9468AB0A36849
:102F90006D46D1E9001240484FF0050AA846C5E940
:102FA0000501C5E9072348F810AF002342464FF456
:102FB00021513A48FFF7BCFCCD466369AD46D4E9E0
:102FC00003123748C5F810A0C5E90501C5E9072374
:102FD000002342464FF421513048FFF7A9FCCD466B
:102FE000E56908F015F820BB2E4A2B4601212B4835
:102FF00007F025FFA56908F00BF850BB2A4A2B46BD
:103000000121264807F01BFF012E0BD1EFF30585A8
:10301000103D07F0FDFF68BB244A2B4631461F4890
:1030200007F00DFF2146304603F01EFABD46BDE80D
:10303000F08788B06A461B4BC2E90535032342F886
:10304000103F00234FF4C2511448FFF771FCCD46E6
:10305000D0E7E84688B06A46134BC2E9053503233A
:1030600042F8103F00234FF4C2510C48FFF760FCB8
:10307000C546C9E7E84688B06A460C4BC2E9053543
:10308000032342F8103F00234FF4C2510348FFF7D7
:103090004FFCC546C6E700BF69D6000804CA000851
:1030A00098D60008C7D60008D6D6000804D700086E
:1030B00030BFFFF7FDBF00BF86461E488068D0F8CE
:1030C000A4004FF4806C6044EC4680F309880EB590
:1030D0002DE901101748806800F0D6FEBDE8011008
:1030E000DCF80000DCF804C02DE90110624649401C
:1030F00006F07CFFBDE801106044BDE80E4080F39F
:103100000988704603B40B488068D0F8A01051F0CD
:103110000101EFF3148C5CF0010CC0F8A010BFF3B8
:103120004F8F8CF31488BFF36F8F03BCDFF808C098
:1031300060470000E00F012003A600084FF0A20C3A
:10314000664503D1EC462DE9305002E0EC462DE90E
:103150003010DFF858C04FEA8606B444DCF800C0EF
:10316000E047DDF810E0DDF80CC08CF3098803B40B
:103170000F488068D0F8A01051F00101C0F8A010ED
:10318000BFF34F8FEFF3148C5CF0010C8CF31488B9
:10319000BFF36F8F03BC4FF000014FF000024FF000
:1031A0000003C4465CF0010C60470000A4CE000898
:1031B000E00F012037B54FF0FF3301930023C55CCA
:1031C0001DB18B4201D00133F9E71846002101916E
:1031D0000199116003B030BD054BDA699B689A42D2
:1031E00004D0044A536843F080535360704700BFD3
:1031F000E00F012000ED00E07FB507F036FF00286A
:103200005BD15549554807F03AFF554B9B6A9901E8
:1032100069D507F02AFF00285AD152494F4807F0D4
:103220002EFF1E204E4B9B6ADA0108D507F01DFFCA
:1032300000285AD14C49494807F021FF1F20484B2C
:103240009B6A1B0308D507F010FF002858D1474997
:10325000424807F014FF2120414B9B6A590308D5CF
:1032600007F003FF002856D141493C4807F007FF0B
:1032700022203B4B9B6A9A0308D507F0F6FE0028F4
:1032800054D13C49354807F0FAFE2320344B9B6A61
:10329000DB0308D507F0E9FE002852D136492F4854
:1032A00007F0EDFE24202E4A936A6FEA03436FEA8B
:1032B0001343936207B05DF804FB274B04AA4FF455
:1032C0008251264805930223049307F0D5FE9CE71C
:1032D000244B04AA4FF482512048059302230493FF
:1032E00007F0CAFE9DE71D209CE71F4B04AA4FF480
:1032F00082511A4805930223049307F0BDFE9DE70F
:103300001A4B04AA4FF482511448059302230493E4
:1033100007F0B2FE9FE7164B04AA4FF482510F4804
:1033200005930223049307F0A7FEA1E7114B04AA1B
:103330004FF48251094805930223049307F09CFE41
:10334000A3E70D4B04AA4FF48251044805930223CE
:10335000049307F091FEA5E717D7000804CA0008F8
:1033600000ED00E02FD7000842D700085CD7000826
:103370007AD700089FD70008B9D700082DE9F04395
:1033800087B005468946904600AF07F06EFE0028DC
:1033900043D17949794807F072FE794B9B6ADA0686
:1033A00053D507F062FE002843D17649734807F0F1
:1033B00066FE1124724B9B6A1B0708D507F055FE69
:1033C000002844D170496D4807F059FE12246C4B17
:1033D0009B6A9E0763D507F048FE002843D16B49DE
:1033E000664807F04CFE664B5E6B9B6A1C0640F11C
:1033F000A58007F03AFE002841D1654A33460121F5
:103400005E4807F01CFDB9F1000F04D05C4A936AD6
:1034100023F080039362132443E0574B07F110021B
:103420004FF4825155487B6102233B6107F024FE33
:10343000B3E7544B07F110024FF482514F487B61C0
:1034400002233B6107F018FEB3E71024B2E74E4BAE
:1034500007F110024FF4825148487B6102233B611F
:1034600007F00AFEB2E7494B07F110024FF4825110
:1034700042487B6102233B6107F0FEFDB3E76C46E7
:1034800088B06A46424B4FF4C2513C48C2E9053607
:10349000032342F8103F07F0EFFDA546B3E76FF0B6
:1034A0001506374B9B6AD80708D507F0DEFD0028C4
:1034B00047D13849314807F0E2FD1424304B9B6A6C
:1034C000990608D507F0D1FD002846D132492B488E
:1034D00007F0D5FD15242A4B9A6AD20602D49A6ABF
:1034E00090070AD55B68190507D52946304600F0D4
:1034F0004BFC10B180F309880224214B9A6A920692
:1035000003D55A6A22F400525A629A6A42F0FF02C4
:103510009A62224BAA6923F00103934229D8204BD7
:1035200023F00103934224D91E4BAB6101232046B3
:103530001C3788F80030BD46BDE8F0836FF01506F3
:1035400069E7144B07F110024FF482510B487B617D
:1035500002233B6107F090FDAFE70F4B07F110022C
:103560004FF4825105487B6102233B6107F084FDE3
:10357000B0E70023DBE700BFE4D7000804CA000877
:1035800000ED00E0FAD700082DD8000840D8000868
:1035900058D800086ED800088DD80008BF31000840
:1035A000C1310008D13100082DE9F04387B004464D
:1035B0000E46154600AF07F058FD002873D1744938
:1035C000744807F05CFD744B9B6AD90440F183801A
:1035D00007F04BFD002872D170496E4807F04FFD8F
:1035E00017206D4B9B6A1A0508D507F03EFD002891
:1035F00073D16B49674807F042FD1820664B9B6A00
:103600009B051ED507F031FD002872D16549614840
:1036100007F035FD604BD3F838809B6A18040FD54E
:1036200007F023FD002870D15F4A43460121594825
:1036300007F005FC26B1584A936A23F400439362CD
:103640001920554B9B6A590508D507F00EFD002837
:103650006BD156494F4807F012FD1A204E4B9A6A1B
:10366000D2057AD507F001FD00286AD150494948B2
:1036700007F005FD1B20484A936A43F47F43936299
:103680004C4BA26923F0010393427ED84A4B23F0AE
:103690000103934279D9494BA36101231C372B7055
:1036A000BD46BDE8F0833A4B07F110024FF482515A
:1036B00038487B6102233B6107F0DEFC83E7374B30
:1036C00007F110024FF4825132487B6102233B61C3
:1036D00007F0D2FC84E7162083E7314B07F1100294
:1036E0004FF482512B487B6102233B6107F0C4FCFD
:1036F00083E72C4B07F110024FF4825125487B6180
:1037000002233B6107F0B8FC84E7E94688B06A46CB
:10371000254B4FF4C2511F48C2E90538032342F834
:10372000103F07F0A9FCCD4684E7204B07F11002BB
:103730004FF4825117487B6102233B6107F09CFCE8
:103740008BE71B4B07F110024FF4825111487B614C
:1037500002233B6107F090FC8CE79B6A9B048AD5AF
:1037600007F083FC28B916490A4807F088FC1C209A
:1037700081E7134B07F110024FF4825105487B613A
:1037800002233B6107F078FCF1E7002386E700BFE6
:10379000BCD8000804CA000800ED00E0D2D8000838
:1037A0002DD80008E3D80008FCD8000811D900087B
:1037B0002CD90008BF310008C1310008D131000800
:1037C0008DD800082DE9F041974B8AB004460025BA
:1037D000D3F8048000AFC8F3080685F31188BFF35F
:1037E0006F8F02F07F43B3F17F4F0AD102F00C03D9
:1037F000082B26D107F039FCB8B98C498C4807F062
:103800003EFC00252C460023FB71F31E092B00F221
:10381000EB80DFE813F01B00DC00DF00D900E900DB
:10382000E900E900E900E900E200804B07F1180235
:103830004FF482517E48FB610223BB6107F01CFC00
:10384000DFE710074CBF0C460125DCE707F00DFC55
:1038500090B97849764807F012FC0023FB71724B4F
:10386000DA6A920720D507F000FC88B972497048DF
:1038700007F005FC002365E06E4B07F118024FF4DA
:1038800082516B48FB610223BB6107F0F5FBE4E763
:10389000694BFB61022307F118024FF4825164481F
:1038A000BB6107F0E9FBE5E7DA6A002A06DA07F010
:1038B000DCFB08B96149DAE7604BEAE7DB6A5B00E9
:1038C000D8D507F0D2FB30BB5D49594807F0D7FB8C
:1038D000554BA1695A6942F480725A61BFF34F8F08
:1038E000BFF36F8F5A6931F8021C22F480725A615B
:1038F000BFF34F8FBFF36F8F4DF60272914216D018
:103900009A6AD2B2002A50D0FA1D01212046FFF750
:1039100035FD034616E04A4B07F118024FF4825179
:103920004348FB610223BB6107F0A6FBD0E7266892
:1039300007F09BFB48BB434A334601213C4807F054
:103940007EFA2368FA79E2B907F1080604F1200C3F
:103950002068083454F8041C3246644503C21646F5
:10396000F6D17A6A002D5AD0C2F3080121B96FEA64
:1039700052226FEA42227A6207F108011846FFF7E5
:10398000FDFA2837BD46BDE8F081E84688B06A46B2
:103990002C4B4FF4C2512648C2E90536032342F8A6
:1039A000103F07F069FBC546CBE79A6A12F47F4FD8
:1039B00005D0FA1D01212046FFF7F6FDA9E79B6A15
:1039C000B3F5803FFFF456AFFFF716FCA1E7FA1DF1
:1039D00000219BE7FA1D0021EDE707F046FB08B93F
:1039E000194944E7184B54E718F4F87F174AE8469A
:1039F0008AB0174B18BF13466A461649103E0C484A
:103A0000D661C2E905134FF400734FF411511384CA
:103A1000114B42F8103F07F02FFBC5462AE722F46E
:103A2000FF7222F00102A6E700ED00E072D9000863
:103A300004CA00089DD90008B4D90008D5D90008E7
:103A4000E3D9000802DA00081EDA000859D9000894
:103A500044D9000842DA000804000001044B5A6906
:103A600042F010025A615A6922F008025A61704706
:103A700000ED00E0EFF30880EFF3098101B5724635
:103A8000FFF7A0FE01BD00BF0A4880F308881020A0
:103A900080F3118808484FF40461401880F30988C6
:103AA000EFF314800221084380F31488BFF36F8F73
:103AB00000F0F6F800300120401B0120084B9B6805
:103AC00083420BD1EFF3058343B1064B5A6842F0B2
:103AD00080525A605A6A22F400425A6204F0B6BD1B
:103AE000E00F012000ED00E001B508F039F8BDE875
:103AF00001401C498A684FF040001044EFF3098CE4
:103B000080E8F01F102080F31288BFF36F8F164FEC
:103B10004FF00066CA698A603E60D2F898000023C0
:103B2000C2F8983080F3118804B5104600F0ACF963
:103B3000BDE80440D2F8A000EFF3148323F00103A2
:103B400043EA000383F31488BFF36F8F02F1400050
:103B500090E8F01F8CF3098801B504F045F8BDE842
:103B600001407047E00F012004ED00E01EF0040F5B
:103B70000CBFEFF30880EFF30980816911F8021C94
:103B8000EFF31482032909D012F0010F01D10229A9
:103B9000FFD001B5724607F042FA01BDDFF894C0CC
:103BA000DCF808C0DCF8A4C00CF5806C4FF02008ED
:103BB000ACF1080CACEB080CF0B404B4024642447F
:103BC000C16911F4007F03D031F4007102F10402E5
:103BD000CCF800204CF80820CCF81C1001466246B6
:103BE000F0C9F0C230C930C208F104084CF80850DE
:103BF0001149CCF818108169884604BCF0BC8CF3DC
:103C000009884FF0A30C664502D306604FF0A20668
:103C100008488068D0F8A01021F00101C0F8A01079
:103C2000BFF34F8F22F0010282F31488BFF36F8F2E
:103C300070470000E00F01203D31000840B200282D
:103C400007DB0123410900F01F00024A834042F8CC
:103C50002130704700E100E040B2013100284FEA16
:103C60000111C9B206DB00F1604000F5614080F847
:103C70000013704700F00F00014B1954704700BF4C
:103C800014ED00E0044B054A23F07F039360BFF37B
:103C90004F8FBFF36F8F70470000000800ED00E00A
:103CA00008B5FFF7EFFF0B4AD2F8883023F4700312
:103CB000C2F88830EFF3148323F0040383F31488ED
:103CC000BFF36F8F02F0E8FC04F07CFE00F0B2F866
:103CD00002F080FD00ED00E00F4C9A4688469146C8
:103CE00083B5A3680746D3F88C0008F032FAA568BC
:103CF00040304A46AC6F41466E6FEB6F4034403EF9
:103D0000C5F8A400AC67E41A6E6753463846CDE99F
:103D10000064FFF7D1F900BFE00F012070B5044641
:103D2000084615461E4607F014FF28B1636F40335E
:103D30006367A36F403BA367227BA5F12003104973
:103D400012F0040F0F4A45F8206C18BF0A4622F003
:103D5000010245F8082C049A45F81C2C059A45F8F0
:103D6000182C069A45F8142C4FF0807245F8042C54
:103D700023660023C4F89830C4E9283370BD00BF1F
:103D8000D93C000803A60008174A034610B59468FA
:103D90002CB3D4F8A400A0B1EFF3148212F0010206
:103DA0000CD113F1160F05D0A0F140049C4218D895
:103DB000984216D9884298BF002010BDD4F88C00D4
:103DC000F8E713F1160F626F05D0A2F140049C4290
:103DD000F3D89342F1D2914238BF1046EDE7204626
:103DE000EBE71046E9E700BFE00F012008B5044605
:103DF0000C4B0E461546986003F0F6FE204600F088
:103E000043F82C4686F309880020044B9847204647
:103E1000002100220023024C2047000099B0000836
:103E200003A60008E00F0120014B10221A61704721
:103E300000ED00E0002304481021C2180133622B7A
:103E400082F80013F9D1704700E100E008B5EFF304
:103E50000583064A103B02EBC30152F83300496860
:103E60008847BDE80840FFF7B7B900BF54C5000850
:103E7000024B0121024A034800F008BA0000052065
:103E800000000120F8CA00082DE9F04F83B0054674
:103E90006E4600AF88B06A46524B4FF00409DFF817
:103EA00048815361C2E9068042F8109F00234FF415
:103EB00004514E48FEF73CFDD5F88840B546002C2D
:103EC00055D088B06A46DFF828B1D461C2E905B898
:103ED00042F8109F00234FF404514448FEF728FD98
:103EE000B54694F868A088B06A46C2E905B8D461BE
:103EF00042F8109F00233D484FF40451DFF8F4B01E
:103F0000FEF716FD04F160033848B5462646002446
:103F10007B6073683BB3A146C7F800D001348AB018
:103F20003168E4B26A46DFF8D0C0C2E9071305235E
:103F3000C2E905C842F8103F00234FF42451FEF7B0
:103F4000F7FC0C233268BAF1010A03FB09F9D7F830
:103F500000D026480BEB09034BF8092072685A6021
:103F6000B2689A6003D00C367B689E42D1D16E460F
:103F700088B06A46214BD561C2E90538042342F86E
:103F8000103F002319484FF40451FEF7D1FCD5F837
:103F9000A430B5461748D5F874C093B9ACF14003C6
:103FA0000C226243811883504022154B1148C1E90D
:103FB0000123611CC9B200F0B5F90C37BD46BDE85C
:103FC000F08FD5F88C602146AA6F0C250134403B58
:103FD00069436244E4B2921B451846506A60094A3C
:103FE000AA60DDE755DA0008D0DA0008FCC900084D
:103FF00076DA0008F81101208FDA0008A9DA000843
:1040000000000B1500000B13134A98B5C2F8980076
:1040100000AF0B688AB023F01F03034343F0100383
:10402000C2F89C308B6843F00103C2F8A0306A46A6
:104030000C688B680949C2E90843516106230849A5
:10404000C2E9061042F8103F00234FF444510548DE
:10405000FEF76EFCBD4698BD00ED00E0F8DA000802
:10406000CEDB0008FCC90008F8B5234B00AF0446BE
:104070000E46D3F890300546C3F30723013B984220
:1040800022D9EFF3058555B11C4A234601211C486E
:1040900006F0D5FE6FF015052846BD46F8BD06F0C2
:1040A000F6FF0028F0D06E4688B06A46134BC2E98E
:1040B0000534032342F8103F4FF4C2512B461048F9
:1040C000FEF736FCB546E5E76C4688B06A460D4B10
:1040D00053610D4BC2E90630042342F8103F002320
:1040E0004FF404510648FEF723FC31462846A54606
:1040F000FFF78AFFD0E700BF00ED00E00FDB00080C
:10410000FCC9000835DB0008DADB0008F0B585B033
:1041100005460C466E4600AF88B06A460E4B5361AA
:104120000E4BC2E90630042342F8103F00234FF43F
:1041300004510B48FEF7FCFB2368B546391D7B6034
:10414000D4E9010306F0C3FF03432846FB60FFF7F1
:104150008BFF1437BD46F0BD5ADB0008F3DB0008C7
:10416000FCC90008044B0522C3F89420BFF34F8F0D
:10417000BFF36F8F704700BF00ED00E0BFF35F8FAC
:10418000024B0022C3F89420704700BF00ED00E00E
:10419000044B054AD3F890301078C3F30723181A5C
:1041A000704700BF00ED00E04F1401202DE9F04101
:1041B0000346EFF3118C102686F31288BFF36F8F3E
:1041C000314CD4F89000C0F307200138451C05D1CC
:1041D0008CF31188BFF36F8FBDE8F081EFF3118787
:1041E00086F31288BFF36F8FC4F89800D4F8A050FC
:1041F00087F31188BFF36F8FEF07E6D5EFF31187D1
:1042000086F31288BFF36F8FC4F89800D4F89C50DF
:10421000D4F8A08087F31188BFF36F8F71B34F1E5E
:10422000DF19D2D225F01F05AB42CED3C8F3440824
:104230004FF0010E013D08F101080EFA08FE754429
:10424000BD42C2D3EFF31181102383F31288BFF371
:104250006F8F0D4BC3F89800D3F8A03081F311880D
:10426000BFF36F8F180EC3F302634AB1DE1E7042B4
:104270007041B0FA80F040094042A9E70F46CFE70D
:1042800000F00200F5E700BF00ED00E02DE9F0418D
:10429000214D00AF884604462A780026464513DAA9
:1042A0006368002B34D0591E0B4211D11F2B0FD93C
:1042B000236819420CD12146D0B2FFF727FF10F135
:1042C000160F24D16FF015022A70BD46BDE8F081AB
:1042D000EFF3058434B1114A33460121104806F04A
:1042E000AEFDEFE706F0D3FE0028F4D0E84688B034
:1042F0006A460A4BC2E90536032342F8103F4FF4E1
:10430000C25123460648FEF713FBC546DAE7421CB6
:1043100001360C34C2E700BF4F14012081DB0008D6
:10432000FCC90008134B70B50D461B7804460026E7
:10433000AE420BDB13F1160F07D00F490020D1F866
:104340009020C2F3072293420DDB70BD62683AB140
:104350002146D8B2FFF7DAFE10F1160FF5D0431C54
:1043600001360C34E4E7C1F898300133C1F8A000FD
:10437000E5E700BF4F14012000ED00E02DE9F04714
:104380005E4A84B05E4ED2F89030356800AFC3F319
:1043900007239D4200F2AE806C4688B0D2F8903080
:1043A0006A465849C3F307235161D3610423564930
:1043B000916142F8103F00234FF4045153484FF0ED
:1043C0000C08FEF7B5FAA5460024FFF7D7FEAC426D
:1043D0001BD34F4C3846DFF83C812570FEF7C8FDF3
:1043E00000250646DFF83091DFF830A1AE4214D147
:1043F000237800204149D1F89020C2F3072293424C
:1044000072DB0020FFF7AEFE42E07168204608FB39
:1044100004110134FFF7F8FDD9E738684FEA051CAD
:1044200000EB0511CB6803EA0803B3F5000F45D094
:104430000AD8B3F5001F2FD0B3F5800F35D0B3F5F0
:10444000801F10D00135D1E7B3F1807F3FD0B3F1A9
:10445000007FF7D150F80C30886806F038FE4A68C3
:1044600040F4802009E050F80C30886806F02FFEF8
:1044700040F088504A6840F43020F860391D2078B8
:10448000C7E90123FFF7F0FD002829DA6FF01500D6
:104490001037BD46BDE8F08750F80C30886806F04C
:1044A00016FE4A6840EA0900E7E750F80C308868D1
:1044B00006F00DFE4A6840EA0A00DEE750F80C30CC
:1044C000886806F004FE4A6840F08270D5E750F82C
:1044D0000C30886806F0FBFD4A6840F08870CCE735
:1044E000237801332370ADE7C1F898300133C1F868
:1044F000A00080E74FF0FF30CAE700BF00ED00E00A
:1045000004CB0008A4DB0008BFDB0008FCC90008DE
:104510004F1401200000F0FF000008110000020607
:1045200008B50E4807F05CFE0D4807F059FE0D482F
:1045300007F056FE0C4807F053FE0C4807F050FEFB
:104540000B4807F04DFE0B4807F04AFE0A4807F0FB
:1045500047FE0A4807F044FE002008BDCC010120B8
:10456000B80101207C010120A4010120900101205B
:10457000F00101201002012000020120E0010120D1
:10458000014B1860704700BFD0000120F8B5064607
:104590000D460024064FAC4208DA3B6898470A28CB
:1045A000305504F1010401D00D28F4D12046F8BDA6
:1045B000CC0001202DE9F041DFF87C8000AFC8423B
:1045C0000446D8F808300D463A6AC3F890201BD349
:1045D0006E468CB06A46194B4FF4615118485361CE
:1045E000184B1562C2E90634174B5362174B93629E
:1045F000174B42F8103F06F083FDD8F80830B54657
:10460000D3F8900006F01CFD19B1C3434A1E934233
:10461000DED901222946204606F057FD064600282D
:10462000D6D129462046FFF7B1FFD8F80830C3F8A5
:104630009060BD46BDE8F081E00F012023D3000863
:1046400004CA000832DC000869D300080002030530
:1046500006000002F8B50D46461EC0F10104084FE1
:10466000A3199D4201DC2846F8BD73780A2B02D1BC
:104670003B680D2098473B6816F8010F9847EFE715
:10468000D00001202DE9F041DFF87C8000AFC84266
:104690000446D8F808300D463A6AC3F890201BD378
:1046A0006E468CB06A46194B4FF4615118485361FD
:1046B000184B1562C2E90634174B5362174B9362CD
:1046C000174B42F8103F06F01BFDD8F80830B546EE
:1046D000D3F8900006F0B4FC19B1C3434A1E9342CC
:1046E000DED900222946204606F0EFFC06460028C7
:1046F000D6D129462046FFF7ADFFD8F80830C3F8D9
:104700009060BD46BDE8F081E00F012023D3000892
:1047100004CA000817DC0008D0D90008000203050D
:10472000060000022DE9F041054600244FF0010883
:104730000E4E0F4F2B7871691A19D2B208FA02F295
:1047400001EA02008A4309D153FA84F3706157F8F1
:1047500033201AB107EBC3035968904701346A78D4
:10476000E3B29A42E6D2BDE8F08100BF003C0140CE
:1047700070120120044B18440023013300F8012B70
:104780009942FADC704700BF1001012007B50622EC
:1047900001210020FFF7EEFF002206201146FFF75F
:1047A0005BFA012107220846FFF7E4FF00220720F9
:1047B0001146FFF751FA082201210220FFF7DAFF24
:1047C000002208201146FFF747FA092201210320A1
:1047D000FFF7D0FF002209201146FFF73DFA0A2219
:1047E00001210420FFF7C6FF00220A201146FFF72F
:1047F00033FA052117220846FFF7BCFF00221720D5
:104800001146FFF729FA282206210A20FFF7B2FFF6
:10481000002228201146FFF71FFA4FF4804344225C
:104820000648CDE9002383681B6823B16946984791
:1048300003B05DF804FB6FF05700F9E754C30008BC
:10484000034660B1B0FA80F2C2F11F02D2B205494C
:104850008856054A11680B431360FFF7EFB9FF2232
:10486000F5E700BF10010120003C0140024A136837
:1048700023EA000313607047003C0140032921D85C
:10488000DFE801F0020C10190F4B9A6822EA0002CF
:104890009A60DA6822EA0002DA6070470A4B9A6886
:1048A0000243F5E7084BDA680243DA609A6822EAC5
:1048B00000029A607047044B9A6802439A60DA6873
:1048C0001043D860704700BF003C014030B5B0B124
:1048D000B0FA80F3C3F11F03DBB20B4850F833404A
:1048E0008C4204D100EBC3056D68954205D044B9F4
:1048F00040F8331000EBC3004260002030BDFF23BE
:10490000EBE76FF00F00F9E77012012060B1B0FA29
:1049100080F3C3F11F03DBB2044A002142F83310D5
:1049200002EBC30251607047FF23F5E770120120CC
:1049300000F003020F23043292009340074A43EA37
:104940009000C3B2023352F82320030C93FAA3F36E
:1049500002EA1040B3FA83F3D840704700380140B0
:1049600038B5284B14460D4618680B88C3F30B0264
:10497000092A1DD0072A134611D8CAB1931E052B48
:1049800006D8DFE803F0360336341E284FF4FA4029
:1049900020602B68B3F5805F2DD2002038BD402AFF
:1049A0000DD008D822F00402302AF1D0382BEFD0F5
:1049B0006FF08500F2E7442A0BD0A82AF7E78008B9
:1049C000E6E700F0B5F81923B0FBF3F04FF4D87325
:1049D00058434008DCE700F0ABF81923B0FBF3F0D4
:1049E0004FF4D87358430923B0FBF3F0D0E70648DF
:1049F000CEE70020CCE7C3F313330133B0FBF3F071
:104A00002060CAE7F400012040787D0170B5444D74
:104A100000F0C2F8434C284606F03BFC01F084FB52
:104A2000A368414AC3F30313D35C20FA03F6137857
:104A30001D41AE4202D2284601F0A4FB236823F4B4
:104A400080232360236843F480332360354B1A6846
:104A50009103FCD55A6F42F001025A675A6F9207D0
:104A6000FCD59A6802F00C02082A17D11A6894073C
:104A700007D41A6842F001021A602A4A136898079C
:104A8000FCD5284B9A6822F003029A609A6812F0CB
:104A90000C0FFBD19A6822F0F0029A60214C236837
:104AA00023F08073236023689901FCD4636823F4A6
:104AB00040336360636823F0706343F010636360A6
:104AC00000F03AF8236843F080732360154B1A68AE
:104AD0009201FCD59A6822F0F0029A609A6822F05E
:104AE000030242F002029A609A6802F00C02082A5D
:104AF000FAD1AE4202D3284601F044FB0B4B002012
:104B0000074A1A60074A936823F4E05343F4A0531A
:104B10009360936823F4604343F40043936070BD53
:104B200000E6DF0C00380240B3E00008F40001208A
:104B30000048704740787D01114B12495A68114076
:104B4000114A0A4311495A605A681140104A0A43EF
:104B50005A601A6842F080721A60A3F5E4331A684A
:104B600042F480321A605A68D203FCD51A6842F4C3
:104B700000321A60074A53689B03FCD5704700BF98
:104B8000003802400080BCFF196C40000080BFF07C
:104B9000196C400900700040064B82B01A6C42F05C
:104BA00080521A641B6C03F080530193019B02B086
:104BB000704700BF0038024008B5074806F026FEDF
:104BC00038B10648FFF7DCFC0448FCF70BFE002078
:104BD00008BD6FF01200FBE734C50008E14B000888
:104BE0000A2838B50446074D04D1AB680D21284684
:104BF0005B689847AB68E1B202485B68984720461B
:104C000038BD00BF34C500082DE9F843D0F8048052
:104C10001746D0F810900D46D8F808001E4606F04A
:104C20008CFAB7F5001F044616D1D8F8084028467C
:104C3000FFF77EFE84420CD1294606F07EFA044638
:104C4000FFF714FE2046FFF761FE00212046FFF724
:104C500015FE0020BDE8F883B7F5800F20D0B6F12F
:104C6000806F19D0B6F1C06F18D0B6F1007F1AD19D
:104C700002264A460F492046FFF728FEB0B9D8F869
:104C80000810284606F05CFA20463146FFF7F6FD8C
:104C90002046FFF7D5FDDCE70126EAE70326E8E733
:104CA0006FF08500D6E76FF01500D3E76FF00F00C7
:104CB000D0E700BF15B5000838B503690446586051
:104CC0000A4D284606F0A2FD60B1AB6861681B681A
:104CD0000C3123B12846984700EAE07038BD6FF0E8
:104CE0005700F9E76FF01200F8E700BF54C300085F
:104CF0002DE9F0412F4E00AF14460546B3685FFA28
:104D000081F83A6AC3F89020FBF77AFA294606F050
:104D10002FFCA0B9A86803684BBB6C468AB06A46F2
:104D2000254B4FF441515361244B9361244BC2E90D
:104D30000730244B5362244B42F8103F0EE06C4680
:104D400088B06A46214B4FF4E25153611B4B93618B
:104D50004FF4007393831E4B42F8103F1D4806F03A
:104D600017FCB368A546D3F8900006F069F9E20293
:104D7000D5F810C006D514F4402F03D0E30748BF80
:104D800084F440240121DCF8003024F48012E4078C
:104D900001FA08F14CBF0B438B434146CCF800307D
:104DA000036828469847B3680022C3F89020BD46A0
:104DB000BDE8F081E00F012045DD0008F0DE0008CD
:104DC0008EDD000800020103050000021EDD000860
:104DD0000300000104CA00082DE9F041334C00AF84
:104DE00006460D46A3683A6AC3F89020FBF708FA16
:104DF000314606F0BDFBA0B9B3685A684ABB6D46A0
:104E00008AB06A462A4951612A4991612A49C2E910
:104E100007132A4B4FF441515362294B42F8103F7C
:104E20000EE06D4688B06A46264B4FF4E25153615E
:104E3000204B93614FF400739383234B42F8103F50
:104E4000224806F0A5FBAD46A368D3F8900006F013
:104E5000F7F86B1D17D96E468CB06A461C4B4FF4A1
:104E600061511A485361134BC2E90635042313629A
:104E7000184B5362184B9362184B42F8103F06F0E0
:104E800087FBB546E0E701220421284606F01DF91C
:104E900080460028DFD1B368294630465B689847D2
:104EA000A368C3F89080BD46BDE8F081E00F012003
:104EB00045DD0008D7DE00089CDD00080002010384
:104EC000050000021EDD00080300000104CA0008FE
:104ED00023D3000869D3000800020305060000027E
:104EE0002DE9F047244E00AF91460446B36888464A
:104EF000BA6AC3F89020FBF783F9214606F038FB25
:104F00000546B8B9A368D3F808A0BAF1000F29D1B3
:104F10006C468AB06A46194951611949916119492B
:104F2000C2E90713184B4FF441515362174B42F833
:104F3000103F0EE06C4688B06A46154B4FF4E251C4
:104F400053610F4B93614FF400739383114B42F8FD
:104F5000103F114806F01CFBB368A546D3F890003B
:104F600006F06EF84A4641462046D047B368C3F87B
:104F70009050BD46BDE8F087E00F012045DD0008F8
:104F8000B7DE0008A9DD00080002010305000002E9
:104F90001EDD00080300000104CA00082DE9F041ED
:104FA000224E00AF04468846B3683A6AC3F89020A0
:104FB000FBF726F9214606F0DBFA0546A0B9A368FF
:104FC000DA684ABB6C468AB06A4619495161194988
:104FD00091611949C2E90713184B4FF441515362CB
:104FE000174B42F8103F0EE06C4688B06A46154BEE
:104FF0004FF4E25153610F4B93614FF4007393836D
:10500000114B42F8103F114806F0C2FAB368A546AA
:10501000D3F8900006F014F8414620469047B36854
:10502000C3F89050BD46BDE8F08100BFE00F0120FD
:1050300045DD000899DE0008BDDD0008000201031F
:10504000050000021EDD00080300000104CA00087C
:105050002DE9F041224E00AF04468846B3683A6A13
:10506000C3F89020FBF7CCF8214606F081FA0546FC
:10507000A0B9A3681A694ABB6C468AB06A46194946
:105080005161194991611949C2E90713184B4FF44D
:1050900041515362174B42F8103F0EE06C4688B006
:1050A0006A46154B4FF4E25153610F4B93614FF435
:1050B00000739383114B42F8103F114806F068FAD1
:1050C000B368A546D3F8900005F0BAFF41462046E4
:1050D0009047B368C3F89050BD46BDE8F08100BF6B
:1050E000E00F012045DD000879DE0008CFDD000873
:1050F00000020103050000021EDD0008030000019C
:1051000004CA00082DE9F041224E00AF044688464B
:10511000B3683A6AC3F89020FBF772F8214606F0AC
:1051200027FA0546A0B9A3685A694ABB6C468AB0FB
:105130006A4619495161194991611949C2E9071330
:10514000184B4FF441515362174B42F8103F0EE099
:105150006C4688B06A46154B4FF4E25153610F4BD1
:1051600093614FF400739383114B42F8103F114841
:1051700006F00EFAB368A546D3F8900005F060FF7C
:10518000414620469047B368C3F89050BD46BDE8FD
:10519000F08100BFE00F012045DD00085CDE000863
:1051A000E3DD000800020103050000021EDD000827
:1051B0000300000104CA00082DE9F8432C4E00AF9B
:1051C00014460546B3685FFA81F8BA6AC3F89020BE
:1051D000FBF716F8294606F0CBF9B8B9AB68D3F857
:1051E0001890B9F1000F29D16C468AB06A4621495E
:1051F0005161214991612149C2E90713204B4FF4C4
:10520000415153621F4B42F8103F0EE06C4688B08C
:105210006A461D4B4FF4E2515361174B93614FF4B3
:1052200000739383194B42F8103F194806F0B0F908
:10523000B368A546D3F8900005F002FF23022A695F
:1052400007D50123126803FA08F3134201D084F052
:10525000C064104B04F0B072414628462340C84752
:10526000B3680022C3F89020BD46BDE8F88300BFB4
:10527000E00F012045DD000838DE0008F4DD0008FD
:1052800000020103050000021EDD0008030000010A
:1052900004CA000840000006F8B5214E00AF0446DD
:1052A000B3683A6AC3F89020FAF7AAFF214606F0DD
:1052B0005FF90546A0B9A3681A6A4ABB6C468AB072
:1052C0006A4618495161184991611849C2E90713A2
:1052D000174B4FF441515362164B42F8103F0EE00A
:1052E0006C4688B06A46144B4FF4E25153610E4B42
:1052F00093614FF400739383104B42F8103F1048B2
:1053000006F046F9B368A546D3F8900005F098FE7C
:1053100020469047B368C3F89050BD46F8BD00BF23
:10532000E00F012045DD00081CDE00080CDE00084F
:1053300000020103050000021EDD00080300000159
:1053400004CA00082DE9F047044600EBC106002519
:105350001C4FB44201D1002014E02068C30600F0C5
:105360001F0911D4656845F02005C0F3481AC0F341
:105370004420102823D857F82080B8F1000F0DD111
:105380006FF01200BDE8F087B9F1100F04D0B9F149
:10539000110FEAD16568E8E73025E6E7404606F0F8
:1053A00035FA0028ECD04B462A460AF00F01404659
:1053B00006F0C6F8002804F10804CADAE2E76FF044
:1053C0001500DFE700CC00087FB506F072F938B9A8
:1053D0000A4A01210A4807B05DF804EB05F026BD32
:1053E000064B059302230493002304AA4FF4825131
:1053F0000348FDF79DFA07B05DF804FB1BDF0008CA
:105400001CCA0008F8B50C46036941685D68237939
:10541000012B15D09F1E7E427E41B6026279022A80
:1054200096BF444F4FF4005737F81270A279022A02
:1054300009D0042A2FD0003B18BF01231B0306E02C
:105440004FF4C066EAE7B3FA83F35B091B07E2791E
:105450000968012A14BF4FF0000C4FF4407CA542AC
:105460001CD10A6822F0805222F4B05232431A430F
:105470000A604B6823F440533B434B6043681A680F
:10548000936823F4407343EA0C0393602968BDE8F2
:10549000F84006F08AB94FF48053D8E7D1F800E01D
:1054A0000EF4C06E764506D0D1F800E02EF4C06E42
:1054B0004EEA06060E6041680E68716801F44051BC
:1054C0008F4204D0716821F44051394371604168C2
:1054D0000E68316801F010218B4204D0316821F050
:1054E00010210B433360436819688B6803F44073E1
:1054F0009C4505D08B6823F4407343EA0C038B6012
:1055000043681B689968490405D5032A09D09A683D
:1055100022F4804204E0032A03D19A6842F48042D4
:105520009A6021682B68994203D006F03EF92368FF
:105530002B60F8BD32D200082DE9F04387B0064653
:105540004568D0F8108000AF7A48C8F8000006F02F
:105550005DF90446B8B906F0ACF838B9764A0121CD
:10556000764805F063FC6FF012041CE0724B7B611F
:1055700002233B61234607F110024FF482516F482A
:10558000FDF7D6F9EFE7D8F80000E96883681B68F3
:1055900073B19847044668B93A460021286A05F075
:1055A000FAFF041E1EDA20461C37BD46BDE8F08314
:1055B0006FF0570406F07DF838B9614A01215F4861
:1055C00005F034FC002CEEDBE6E75D4B7B6102234B
:1055D0003B61002307F110024FF482515748FDF759
:1055E000A7F9EFE73B68002219791868FFF7AAFED0
:1055F000041ED8DB756833692C68D3F804902368DF
:1056000023F001032360686806F000F9804650B972
:1056100006F04FF808B94B4AA1E74A4B7B610223D9
:105620003B614346A7E7D5E901018368DB6803B125
:10563000984754E8003F43F00C0344E80032002A46
:10564000F7D149463046FFF7DDFE2B7D1BB1A3683D
:1056500043F00803A3606B7D1BB1636843F4004310
:105660006360AB7D1BB1636843F480336360EB7DA3
:105670001BB1636843F4003363602B7E002B4FD073
:10568000314B9C4232D0A3F54C439C422ED003F5C3
:1056900080639C422AD003F580639C4226D003F5A8
:1056A00080639C4222D003F544439C421ED0A3F564
:1056B0001C439C421AD003F580639C4216D06C4672
:1056C00088B033686A462149C2E905134FF4007374
:1056D00093831F4B42F8103F00234FF4E2511748C9
:1056E000FDF726F9A5466FF015045CE773681A68A4
:1056F000936843F48043936023686A7E23F0787351
:1057000043EA425323602368AA7E23F4F81343EA52
:1057100002432360EB7E1BB1A36843F40043A36004
:10572000236843F001032360E3699B02FCD5002456
:1057300039E700BF54C3000849DF00081CCA00084D
:1057400068DF000888DF000800100140A3DF0008C0
:1057500003000001F8B5436802460E4691F805E0E3
:105760001C68036908795D6801288B791ED1BEF138
:10577000020F72D9022B1F464FF4C0614FF4005C38
:1057800000F08380042B7BD020B1C31E012B79D97C
:105790004FF48050BCF5805F00F08180BCF5405F25
:1057A0007FD0BCF1000F1CD101231BE002280AD1DD
:1057B000BEF1020F5DD9022B1F464FF480610BD062
:1057C0004FF4005CDEE7BEF1020F55D9022B1F46F5
:1057D00054D100285FD00021C31E012B52D90020D4
:1057E0000227032373454DD105F021FFB84249D16B
:1057F000F37903B3012B56D12C4B9C421BD0A3F55C
:105800004C439C4217D003F580639C4213D003F5B0
:1058100080639C420FD003F580639C420BD003F55C
:1058200044439C4207D0A3F51C439C4203D003F59C
:1058300080639C4226D123683146104623F0010341
:105840002360FFF7DFFD236843F00103236096E840
:10585000030085E803000020F8BD4FF4C061144F39
:10586000022B37F81EC01F468CD170B94FF0805004
:1058700090E74FF48061F2E70021F0E700219FE715
:10588000002885D06FF08500E6E7C31E012BF9D90B
:10589000022700207EE701464FF08050A1E7002359
:1058A000A0E702239EE7032BA6D0EBE70010014000
:1058B00032D20008F8B5214E00AF0446B3683A6A08
:1058C000C3F89020FAF79CFC214605F08CFF0546B2
:1058D000A0B9A3689A684ABB6C468AB06A46184960
:1058E0005161184991611849C2E90713174B4FF4E8
:1058F00041515362164B42F8103F0EE06C4688B09F
:105900006A46144B4FF4E25153610E4B93614FF4CE
:1059100000739383104B42F8103F104805F073FF5B
:10592000B368A546D3F8900005F08AFB204690475F
:10593000B368C3F89050BD46F8BD00BFE00F01202A
:1059400045DD00089DE00008F0DF000800020103CB
:10595000050000021EDD00080300000104CA000863
:10596000F8B5354C00AF06460D46A3683A6AC3F851
:105970009020FAF745FC314605F035FFA0B9B36831
:105980001A684ABB6D468AB06A462C4951612C4957
:1059900091612C49C2E907132B4B4FF441515362DB
:1059A0002A4B42F8103F0EE06D4688B06A46284BFD
:1059B0004FF4E2515361224B93614FF40073938390
:1059C000244B42F8103F244805F01DFFAD46A36864
:1059D000D3F8900005F034FB6B1C17D16E468CB0E9
:1059E0006A461E4B4FF461511B485361144BC2E988
:1059F0000635012313621A4B53621A4B93621A4BFA
:105A000042F8103F05F0FFFEB546E0E701222846C8
:105A1000114605F05AFB0028E0D1B3681B6843B17A
:105A2000294630469847A3680022C3F89020BD4617
:105A3000F8BD6FF05700F6E7E00F012045DD0008E4
:105A400089E00008FADF00080002010305000002F7
:105A50001EDD00080300000104CA000823D300086B
:105A600069D300080002030506000002F8B5314CB6
:105A700000AF06460D46A3683A6AC3F89020FAF7CD
:105A8000BFFB314605F0AFFEA0B9B3681A684ABB48
:105A90006D468AB06A462849516128499161284972
:105AA000C2E90713274B4FF441515362264B42F88A
:105AB000103F0EE06D4688B06A46244B4FF4E25129
:105AC00053611E4B93614FF400739383204B42F854
:105AD000103F204805F097FEAD46A368D3F890002C
:105AE00005F0AEFAEB1C17D96E468CB06A461A4B1D
:105AF0004FF4615117485361104BC2E90635022338
:105B00001362164B5362164B9362164B42F8103FCA
