:020000040800F2
:10000000003C0120B5110008E3540008A1110008CC
:10001000A1110008A1110008A111000800000000B2
:100020000000000000000000000000009112000825
:10003000A11100080000000015120008A529000801
:100040006D1500086D1500086D1500086D15000888
:100050006D1500086D1500086D1500086D15000878
:100060006D1500086D1500086D1500086D15000868
:100070006D1500086D1500086D1500086D15000858
:100080006D1500086D1500086D1500086D15000848
:100090006D1500086D1500086D1500086D15000838
:1000A0006D1500086D1500086D1500086D15000828
:1000B0006D1500086D1500086D1500086D15000818
:1000C0006D1500086D1500086D1500086D15000808
:1000D0006D1500086D1500086D1500086D150008F8
:1000E0006D1500086D1500086D1500086D150008E8
:1000F0006D1500086D1500086D1500086D150008D8
:100100006D1500086D1500086D1500086D150008C7
:100110006D1500086D1500086D1500086D150008B7
:100120006D1500086D1500086D1500086D150008A7
:100130006D1500086D1500086D1500086D15000897
:100140006D1500086D1500086D1500086D15000887
:100150006D1500086D1500086D1500086D15000877
:100160006D1500086D1500086D1500086D15000867
:100170006D1500086D1500086D1500086D15000857
:100180006D1500086D1500086D1500086D15000847
:100190006D1500086D1500086D1500086D15000837
:1001A0006D1500086D1500086D1500086D15000827
:1001B0006D1500086D1500086D1500086D15000817
:0801C0006D1500086D15000823
:1001C8000B49C0F307230246C0B231F8133031F8A7
:1001D80010100B441E2B08DC0C2006494343C8189A
:1001E800CB589A4218BF002070470020704700BFC4
:1001F8006075000860090120F8B506460F46064CF0
:100208001F25236813B139462046B047013D04F144
:100218000C04F6D1F8BD00BF600901200000000001
:1002280000000000000000000000000000000000C6
:1002380000000000000000000000000000000000B6
:1002480000000000000000000000000000000000A6
:100258000000000000000000000000000000000096
:100268000000000000000000000000000000000086
:100278000000000000000000000000000000000076
:100288000000000000000000000000000000000066
:100298000000000000000000000000000000000056
:1002A8000000000000000000000000000000000046
:1002B8000000000000000000000000000000000036
:1002C80053B94AB9002908BF00281CBF4FF0FF31B5
:1002D8004FF0FF3000F00CB8ADF1080C6DE904CE1A
:1002E80000F012F8DDF804E0DDE9022304B07047FD
:1002F800704700BF10F8012B11F8013B012A28BFF5
:100308009A42F7D0D01A70472DE9F04786468C46B6
:100318000846089E154674461946002B40F0C280D0
:100328008542B2FA82F245D94AB1C2F1200300FAF5
:1003380002FC2EFA03F3954043EA0C0C94404FEA72
:10034800154EA8B2BCFBFEF8230C0EFB18CC08FB1C
:1003580000F943EA0C43994528D9EB1808F1FF370F
:1003680004D2994502D9A8F102072B44A3EB09034B
:10037800A4B2B3FBFEFC0EFB1C330CFB00F044EAFA
:100388000344A04214D92C190CF1FF3304D2A04223
:1003980002D9ACF102032C44241A43EA07401EB1E7
:1003A800D440002334607360BDE8F0874746DDE73A
:1003B8006346F1E792BB431B01214FEA154EAFB2EA
:1003C800B3FBFEFC200C0EFB1C330CFB07F840EAC9
:1003D8000343984562D9EB180CF1FF3004D29845D5
:1003E80002D9ACF102002B44A3EB0803A4B2B3FB7F
:1003F800FEFC0EFB1C330CFB07F744EA0344A74240
:100408004ED92C190CF1FF3304D2A74202D9ACF112
:1004180002032C44E41B43EA0040C0E7C2F1200376
:1004280020FA03F1954090402EFA03F303434FEA74
:10043800154EAFB2B1FBFEFC0EFB1C10190C0CFBE9
:1004480007F841EA0041884504FA02F422D96918FC
:100458000CF1FF3004D2884502D9ACF102002944DE
:10046800A1EB08019BB2B1FBFEFC0EFB1C110CFBBF
:1004780007F743EA01439F420ED9EB180CF1FF310D
:1004880004D29F4202D9ACF102012B44DB1B41EAA2
:10049800004192E76046E3E76146F7E76046A3E775
:1004A8006346B7E7834206D916B9002108467BE7B9
:1004B800C6E900E0F9E7B3FA83F78FB9834201D3BD
:1004C800724508D8BEEB020460EB030301209C468A
:1004D8001EB9002168E73846FAE7C6E9004CF8E794
:1004E800C7F1200CBB4022FA0CF41C432EFA0CF185
:1004F80020FA0CF3B84001434FEA14490EFA07F505
:10050800B3FBF9F81FFA84FE09FB18300B0C08FB43
:100518000EFA43EA00439A4502FA07F240D9E31873
:1005280008F1FF3004D29A4502D9A8F10200234409
:10053800A3EB0A0389B2B3FBF9F809FB183308FBEC
:100548000EFE41EA03418E452CD9611808F1FF33AC
:1005580004D28E4502D9A8F10203214443EA00409F
:10056800A0FB0298A1EB0E014145CE46434602D3BB
:1005780006D14D4504D2B9EB020E68EB04030138ED
:10058800002EA6D0B5EB0E0261EB030101FA0CFCBC
:1005980022FA07F34CEA0303F940C6E9003198E769
:1005A8004046C5E74346D9E7012801F004012DE993
:1005B800F04D14468AB01E4602D0042840F0B3809D
:1005C8006368002BC0F2AF805B4FA368BB4200F2A8
:1005D800AA8002AD002976D0294600F0A1F9DDE90C
:1005E8000232B2F1004F08BF002B0AD05B42284606
:1005F80062EB4202CDE90232049B5B42049300F0B5
:1006080031F92146284604F06EFE4C49D4E90032FF
:1006180099424FF0040393412BDADDE902030228E3
:1006280073F1000254DB013842F2107243F1FF33D8
:10063800A0FB020102FB0311414C04F08BFE80FB7E
:1006480004483BA3D3E9002320464146FFF738FE80
:100658003B4A0023CDE9060120464146FFF730FE1C
:1006680000230892012206A92846CDE9022304F0B6
:100678003AFEDDE90248B8F1000F4FDB54EA0803FF
:10068800049828D188BB22464346684605F034FDC5
:10069800DDE900AB4146204604F05CFE5B4652466D
:1006A800684605F04EFDDDE9004854EA0803F1D13B
:1006B8002EB100230022C6E900230023B3600020E6
:1006C8000AB0BDE8F08D94E80F0085E80F009CE7BC
:1006D80000200146B0E74FF0FF336FF0004290452D
:1006E80008BF9C4201D1B8421BD042F21073154A90
:1006F800C117A4FB034503FB08580023FFF7E0FDDF
:100708004FF0FF3224186FF0004348EB0108A24273
:1007180073EB0801B7D214469846B4E70024A04604
:10072800B1E71C46FBE76FF01500C9E7AFF300809F
:1007380000CA9A3B00000000FFC99A3B08FA824BA6
:1007480040420F00A08601000C4B01460C4A10B530
:1007580004461B6812680B4804F04AFE21460A4802
:1007680004F046FE094B64224FF0FF304FF0FF3192
:100778001A60BDE8104004F036BC00BF40080120F4
:10078800800801207E720008BB7200086008012002
:100798000A4B01460A4A10B504461B681268094804
:1007A80004F026FE2146084804F022FE4FF0FF30F0
:1007B8004FF0FF31BDE8104004F015BC400801209F
:1007C80060080120E27200081F73000808B5084A93
:1007D800084B09491B6809680848126804F008FEB4
:1007E8004FF0FF304FF0FF31BDE8084004F0FBBB8D
:1007F8006008012040080120800801204673000895
:1008080008B5104A0321104804F00CF80F4A0321D8
:100818000F4804F007F80F490B4805F068FD0E492A
:10082800094805F064FD0D49094805F060FD0C49CB
:10083800074805F05CFD4FF0FF304FF0FF3104F042
:10084800D2FBF8E7AC08012044120120A0080120DF
:1008580078110120D80E0120400E0120A80D01209A
:10086800100D0120214B70B582689A4215DD0133C5
:10087800D0E9001692FBF3F301294FEAE37476F10D
:10088800000520DAC91844EB0604C0E90014184929
:1008980001FB03238360012070BD002AFBDAB2F15B
:1008A800004F1BBF9B1A13490323B3FBF1F3D0E995
:1008B8000041DE1700290FDA01F100459C42B541DD
:1008C8000ADA0020E8E7CD439D426FF00045A5EB2A
:1008D8000605A541D6DAF4E7E41A61EB0601C0E99A
:1008E8000041044901FB03228260D4E7FFC99A3B17
:1008F800003665C400CA9A3B30B50446EFF311854B
:10090800102383F31288BFF36F8F044B0FCB84E857
:100918000F0085F31188BFF36F8F30BD700F012072
:1009280001282DE95F410C4606D0042825D06FF038
:10093800150004B0BDE8508104F01FFD42F21072AA
:100948000023FFF7BDFC134B5A43C4E90001A26022
:1009580004F0F9FC68B168467B2603DF6946204647
:1009680004F0C1FC18B90C4B0FCB84E80F00002031
:10097800DFE76846FFF7C0FFF0E704F0FEFC42F24D
:1009880010720023FFF79CFC024B5A43C4E9000194
:10099800A260ECE7A0860100B06D000810F1110F0D
:1009A80010B5044604D9084B9B68D86F04F087FD3E
:1009B8000122102104F0BAFD0028F4D12046BDE838
:1009C8001040FFF799BF00BF4C15012010B5054C2A
:1009D800049AA368DA67FFF7E1FFA3680020D867E5
:1009E80010BD00BF4C15012001287FB50D462DD143
:1009F8008A68184B9A4229D804F0BFFC42F2107258
:100A080000236C46FFF75CFC4042134B61EB41014D
:100A18005343CDE9000120460293FFF723FF2946FF
:100A2800204604F060FCEFF31186102383F312884C
:100A3800BFF36F8F094D94E80F0085E80F0086F328
:100A48001188BFF36F8F002004B070BD6FF01500E0
:100A5800FAE700BFFFC99A3B6079FEFF700F0120DB
:100A680011F1110F38B505460C4604D9084B9B689F
:100A7800D86F04F024FD00221021204604F056FD12
:100A88000028F3D121462846BDE83840FFF7ACBF1F
:100A98004C15012010B5054C049AA368DA67FFF7D6
:100AA800DFFFA3680022DA6710BD00BF4C150120E4
:100AB80012F1110F2DE9F04106460F4615461C4666
:100AC80004D90F4B9B68D86F04F0F9FC0022102161
:100AD800284604F02BFD0028F3D14CB114F1110F76
:100AE800EFD801221021204604F020FD0028E8D18B
:100AF80023462A4639463046BDE8F041FFF754BD43
:100B08004C15012070B5054C069EA568EE67FFF7E9
:100B1800CFFFA3680022DA6770BD00BF4C15012023
:100B2800014B1B68184700BFDC080120014B186007
:100B3800704700BFDC08012070B504464518044E14
:100B4800AC4200D170BD336814F8010B9847F7E741
:100B5800DC08012070B504468EB00D46EFF305861B
:100B6800C6B904F0C5FCA8B13422314601A805F085
:100B7800FBFC02232A4621468DF8063001A80D4BBE
:100B8800029303F0D3FF059B13B101A804F009FCFD
:100B98000EB070BD1022002101A805F0E5FC02236B
:100BA8002A4621468DF8063001A8034B029303F02C
:100BB800BDFFEDE7DD530008290B0008F8B5104F1D
:100BC800C842089A0446BB680D46DA6703D3BB6877
:100BD800D86F04F074FC19B1C3434A1E9342F6D986
:100BE80000222946204604F0A1FC06460028EED142
:100BF80020462946FFF7A0FFBB683046DE67F8BDF0
:100C08004C15012080B505460F4691469A46EFF3EC
:100C18000583DBB904F06CFCC0B14A2603DF044647
:100C2800DFF8388005F00CFD064640F808405246CB
:100C380049463846A84756F80840EFF3058343B9B4
:100C480004F056FC28B12046552603DF03F016FAB7
:100C5800E5E7204600F0C4FAF8E700BF0800000006
:100C6800F8B50D4F1546089A0446BB680E46DA6774
:100C7800431D05D96FF00C00BB680022DA67F8BD88
:100C88000122042104F052FC0028F3D132462B46FD
:100C9800204604F0BAFBEFE74C15012038B50B4DA0
:100CA8000446069AAB68DA67431D05D96FF00C0055
:100CB800AB680022DA6738BD0122042104F036FC53
:100CC8000028F3D1204604F0C3FBF1E74C150120BE
:100CD800034A0020536823F002035360704700BFA3
:100CE800002004E0064B1A6842F400721A601A6881
:100CF80042F480721A60034B034A1A60704700BFBF
:100D0800003C0240000901200024F400014B03606C
:100D180003207047C06D000830BFFFF7FDBF00BF5C
:100D28002DE9F0410B4E0546DFF82C80324606EBE4
:100D38000807CC1B0949204605F008FCA019083C07
:100D48004246002105F010FC07F10800C5F8844070
:100D5800BDE8F0810000000004000000AC6D000850
:100D680086461E488068D0F894004FF4806C604432
:100D7800EC4680F309880EB52DE901101748806804
:100D880000F00EFCBDE80110DCF80000DCF804C03F
:100D98002DE901106246494005F0E6FBBDE8011067
:100DA8006044BDE80E4080F30988704603B40B48E0
:100DB8008068D0F8901051F00101EFF3148C5CF0CA
:100DC800010CC0F89010BFF34F8F8CF31488BFF359
:100DD8006F8F03BCDFF808C0604700004C15012086
:100DE8000D0C00084FF0A10C664503D1EC462DE927
:100DF800305002E0EC462DE93010DFF858C04FEAD9
:100E08008606B444DCF800C0E047DDF810E0DDF801
:100E18000CC08CF3098803B40F488068D0F8901090
:100E280051F00101C0F89010BFF34F8FEFF3148C0D
:100E38005CF0010C8CF31488BFF36F8F03BC4FF088
:100E480000014FF000024FF00003C4465CF0010CB3
:100E580060470000F06F00084C15012037B54FF0CF
:100E6800FF3301930023C55C1DB18B4201D00133D0
:100E7800F9E71846002101910199116003B030BDCE
:100E8800054B5A699B689A4204D0044A536843F058
:100E980080535360704700BF4C15012000ED00E0FF
:100EA800134B9A6A12F0007F9A6A14BF1E201D2005
:100EB80012F0807F9A6A18BF1F2012F4002F9A6AD6
:100EC80018BF212012F4802F9A6A18BF222012F42A
:100ED800003F9A6A18BF232012F4803F9A6A6FEA8B
:100EE800024218BF24206FEA12429A62704700BF7C
:100EF80000ED00E02E4B70B516469A6A054612F0D2
:100F0800100F9A6A14BF1124102412F0080F9A6A5D
:100F180018BF122492070AD5586B9A6A140641D54D
:100F280019B19A6A22F080029A62132401E06FF0E4
:100F380015001F4B9A6A12F0010F9A6A18BF142401
:100F480012F0200F9A6A18BF1524D20602D49B6AA1
:100F58009B070AD5164B5B68190506D5294600F08C
:100F68009FFA10B180F309880224114B9A6A9206FD
:100F780003D55A6A22F400525A629A6A42F0FF0272
:100F88009A620C4BAA6923F0010393420DD80A4BCD
:100F980023F00103934208D9084BAB610123204693
:100FA800337070BD6FF01500BFE70023F7E700BF8F
:100FB80000ED00E06F0E0008710E0008810E0008B9
:100FC800204B30B50446986A9D6A10F4805F14BFC0
:100FD8001720162015F4006F9D6A18BF1820AD055C
:100FE80009D5986B986A000404D519B1996A21F457
:100FF800004199621920134B996A11F4806F996A1C
:1010080018BF1A20C90519D49B6A13F4005F18BFCA
:101018001C200C498B6A43F47F438B620A4BA169FD
:1010280023F001038B420BD8084B23F001038B42BA
:1010380006D9074BA3610123137030BD1B20E8E7D5
:101048000023F9E700ED00E06F0E0008710E0008BC
:10105800810E0008494BF0B55B688BB0044600254B
:10106800C3F3080385F31188BFF36F8F02F07F4045
:10107800B0F17F4F11D102F00C0008280DD01007F5
:101088004CBF0C4601250022033B8DF80720032B9B
:1010980005D8DFE803F0256569622C46F3E70023ED
:1010A8009DF80720D2B902AE04F120072068083461
:1010B80054F8041C3246BC4203C21646F6D1099ABB
:1010C800002D55D0C2F3080121B96FEA52226FEA08
:1010D8004222099202A9184604F0DAF90BB0F0BDD1
:1010E800264BDA6A9107DAD4DA6A002AD7DBDA6A99
:1010F8005200D4D55A69A16942F480725A61BFF38B
:101108004F8FBFF36F8F5A6931F8021C22F4807237
:101118005A61BFF34F8FBFF36F8F4DF60272914242
:101128000AD09A6AD2B24AB10DF1070201212046CB
:10113800FFF7E0FE0346B3E72368B1E79A6A12F4C3
:101148007F4F06D00DF1070201212046FFF738FF37
:10115800F0E79B6AB3F5803FA1D3FFF7A1FEE9E76B
:101168000DF107020021E2E70DF107020021ECE78B
:1011780022F4FF7222F00102ABE700BF00ED00E0AD
:10118800044B5A6942F010025A615A6922F0080267
:101198005A61704700ED00E0EFF30880EFF3098132
:1011A80001B57246FFF756FF01BD00BF0A4880F33C
:1011B8000888102080F3118808484FF4046140180B
:1011C80080F30988EFF314800221084380F3148820
:1011D800BFF36F8F00F0F2F8003C012000180120E7
:1011E800084B9B6883420BD1EFF3058343B1064B51
:1011F8005A6842F080525A605A6A22F400425A628F
:1012080002F04ABF4C15012000ED00E01B498A6836
:101218004FF030001044EFF3098C80E8F01F1020E5
:1012280080F31288BFF36F8F154F4FF000664A693D
:101238008A603E60D2F88400124C2060D2F88800A0
:101248000023C2F8883080F3118804B5104600F0F6
:10125800A7F9BDE80440D2F89000EFF3148323F017
:10126800010343EA000383F31488BFF36F8F02F18D
:10127800300090E8F01F8CF3098870474C15012066
:1012880004ED00E0000801201EF0040F0CBFEFF38E
:101298000880EFF30980816911F8021CEFF31482CA
:1012A800032909D012F0010F01D10229FFD001B59D
:1012B800724604F0F3F801BDDFF894C0DCF808C00A
:1012C800DCF894C00CF5806C4FF02008ACF1080CE9
:1012D800ACEB080CF0B404B402464244C16911F402
:1012E800007F03D031F4007102F10402CCF8002031
:1012F8004CF80820CCF81C1001466246F0C9F0C230
:1013080030C930C208F104084CF808501149CCF82B
:1013180018108169884604BCF0BC8CF309884FF02A
:10132800A20C664502D306604FF0A1060848806803
:10133800D0F8901021F00101C0F89010BFF34F8F42
:1013480022F0010282F31488BFF36F8F7047000008
:101358004C150120ED0D000840B2002807DB0123E1
:10136800410900F01F00024A834042F821307047CB
:1013780000E100E040B2013100284FEA0111C9B292
:1013880006DB00F1604000F5614080F8001370470B
:1013980000F00F00014B1954704700BF14ED00E036
:1013A800044B054A23F07F039360BFF34F8FBFF3CD
:1013B8006F8F70470000000800ED00E008B5FFF7E8
:1013C800EFFF0B4AD2F8883023F47003C2F8883054
:1013D800EFF3148323F0040383F31488BFF36F8FB0
:1013E80001F06AFD02F0EEFF00F0B0F801F0CCFD6C
:1013F80000ED00E00E4C9A468846914683B5A368F6
:101408000746986F04F0D6FFA56840304A466C6ED0
:1014180041462E6EAB6E4034403EC5F894006C6673
:10142800E41A2E6653463846CDE90064FFF798FC67
:101438004C15012070B50446084615461E4604F0B2
:1014480018FD28B1236E40332366636E403B636604
:10145800227BA5F12003104912F0040F0F4A45F82A
:10146800206C18BF0A4622F0010245F8082C049A9D
:1014780045F81C2C059A45F8182C069A45F8142CA2
:101488004FF0807245F8042C23650023C4F8883097
:10149800C4E9243370BD00BFFD1300080D0C00081B
:1014A800164A034610B5946824B3D4F8940098B14A
:1014B800EFF3148212F001020CD113F1160F05D0CC
:1014C800A0F140049C4217D8984215D9884298BF89
:1014D800002010BDA06FF9E713F1160F226E05D09A
:1014E800A2F140049C42F4D89342F2D2914238BF10
:1014F8001046EEE72046ECE71046EAE74C150120D7
:1015080015460D4A0E4608B50C4B9060D0F884205D
:101518001A6000F045F82C4686F309880020044B31
:1015280098472046002100220023024C2047000053
:10153800035500080D0C00084C1501200008012077
:10154800014B10221A61704700ED00E000230448A7
:101558001021C2180133622B82F80013F9D17047A9
:1015680000E100E008B5EFF30583064A103B02EB03
:10157800C30152F8330049688847BDE80840FFF7BF
:101588007FBC00BF1C690008024B0121024A0348C6
:1015980000F01CB90000052000000120F06D0008D3
:1015A800F0B5436F002B41D093F8C84003F1C00C4D
:1015B8000021204D4FF00C0E5A6872B11F684A1C6A
:1015C8000EFB01F1013CD2B205EB01066F505968E0
:1015D80071609968B160114602D00C336345EBD154
:1015E800D0F89430134C73B10A46866F0131D0E9B4
:1015F8001853C9B22B440C256A439B1BA518A65047
:101608006B600D4BAB60D0F894308BB10C22403B33
:101618004A430131A018A3504022084BC9B2C0E97F
:1016280001230448BDE8F04000F0F4B81946D7E7B4
:10163800036EEBE71013012000000B1300000B15DD
:10164800084AC2F898000B6823F01F03034343F0CD
:101658001003C2F89C308B6843F00103C2F8A03035
:10166800704700BF00ED00E01FB50B68024601930C
:10167800D1E9010303F05CFF03430393084BD3F85C
:101688009030C3F30723013B9A4206D801A91046BC
:10169800FFF7D6FF05B05DF804FB6FF01500F9E71A
:1016A80000ED00E0044B0522C3F89420BFF34F8FF0
:1016B800BFF36F8F704700BF00ED00E0BFF35F8F8F
:1016C800024B0022C3F89420704700BF00ED00E0F1
:1016D800044B054AD3F890301078C3F30723181A3F
:1016E800704700BF00ED00E0441601202DE9F041ED
:1016F8000346EFF3118C102686F31288BFF36F8F21
:10170800314CD4F89000C0F307200138451C05D1AE
:101718008CF31188BFF36F8FBDE8F081EFF3118769
:1017280086F31288BFF36F8FC4F89800D4F8A050DE
:1017380087F31188BFF36F8FEF07E6D5EFF31187B3
:1017480086F31288BFF36F8FC4F89800D4F89C50C2
:10175800D4F8A08087F31188BFF36F8F71B34F1E41
:10176800DF19D2D225F01F05AB42CED3C8F3440807
:101778004FF0010E013D08F101080EFA08FE75440C
:10178800BD42C2D3EFF31181102383F31288BFF354
:101798006F8F0D4BC3F89800D3F8A03081F31188F0
:1017A800BFF36F8F180EC3F302634AB1DE1E704297
:1017B8007041B0FA80F040094042A9E70F46CFE7F0
:1017C80000F00200F5E700BF00ED00E0F8B5104FAB
:1017D8000D46044600263B78AE4206DA62689AB1A6
:1017E800511E0A4203D06FF015033B70F8BD1F2A43
:1017F800F9D922681142F6D12146D8B2FFF734FF51
:1018080010F1160FEFD0431C01360C34E4E700BF8B
:1018180044160120134B70B50D461B78044600266C
:10182800AE420BDB13F1160F07D00F490020D1F899
:101838009020C2F3072293420DDB70BD62683AB173
:101848002146D8B2FFF710FF10F1160FF5D0431C50
:1018580001360C34E4E7C1F898300133C1F8A00030
:10186800E5E700BF4416012000ED00E0544B2DE9E8
:10187800F043544C85B0D3F890302568C3F3072360
:101888009D4200F29A8000200C26FFF717FF854240
:101898001AD14D4C68464D4F2570FFF737FA002591
:1018A8000646DFF81C81DFF82891AE4213D1237871
:1018B80000204349D1F89020C2F30722934276DBF7
:1018C8000020FFF7EFFE42E0616806FB0011FFF71A
:1018D800B7FE0130DBE700984FEA051C00EB051165
:1018E800CB683B40B3F5000F48D00AD8B3F5001FCA
:1018F80030D0B3F5800F36D0B3F5801F10D0013546
:10190800D3E7B3F1807F42D0B3F1007FF7D150F82D
:101918000C30886803F00CFE4A6840F4802009E027
:1019280050F80C30886803F003FE40F088504A688D
:1019380040F4302003902078CDE90123D8F8903086
:10194800C3F30723013B98422AD96FF0150005B06D
:10195800BDE8F08350F80C30886803F0E9FD4A6868
:1019680040EA0900E6E750F80C30886803F0E0FD2B
:1019780040F0C0604A6840F40030DBE750F80C30B3
:10198800886803F0D5FD4A6840F08270D2E750F8C5
:101998000C30886803F0CCFD4A6840F08870C9E7CD
:1019A80001A9FFF74DFE237801332370A7E7C1F89B
:1019B80098300133C1F8A0007CE74FF0FF30C6E74C
:1019C80000ED00E0FC6D0008441601200000F0FF67
:1019D80000000811024808B504F033FD002008BDD6
:1019E8004C09012008B5024B1B689847002008BD28
:1019F8002408012010B5054C049AA368DA67FFF79C
:101A0800F1FFA3680022DA6710BD00BF4C15012062
:101A1800034B044A1860937843F0020393707047AD
:101A280024080120140801200C23012110B5013BD2
:101A38000A464FEA4101FAD10A48B2F5006F20F48C
:101A4800FF6121F0070101F5006409D101308442EA
:101A580088BF4FF48062044803F008FC002010BDE2
:101A68001946F8E7FF0701202C0801202DE9F0416D
:101A7800054600244FF001080E4E0F4F2B78716970
:101A88001A19D2B208FA02F201EA02008A4309D10D
:101A980053FA84F3706157F833201AB107EBC30384
:101AA8005968904701346A78E3B29A42E6D2BDE8B1
:101AB800F08100BF003C0140E8130120044B1844AA
:101AC8000023013300F8012B9942FADC704700BF6C
:101AD8001C09012007B5062201210020FFF7EEFFAF
:101AE800002206201146FFF745FC0121072208467F
:101AF800FFF7E4FF002207201146FFF73BFC08220E
:101B080001210220FFF7DAFF002208201146FFF723
:101B180031FC092201210320FFF7D0FF0022092010
:101B28001146FFF727FC0A2201210420FFF7C6FF10
:101B380000220A201146FFF71DFC0521172208463E
:101B4800FFF7BCFF002217201146FFF713FC2822DD
:101B580006210A20FFF7B2FF002228201146FFF7CE
:101B680009FC4FF4804344220648CDE900238368EA
:101B78001B6823B16946984703B05DF804FB6FF012
:101B88005700F9E71C670008034660B1B0FA80F215
:101B9800C2F11F02D2B205498856054A11680B43A3
:101BA8001360FFF7D9BBFF22F5E700BF1C0901202E
:101BB800003C0140024A136823EA0003136070479F
:101BC800003C0140032921D8DFE801F0020C10197C
:101BD8000F4B9A6822EA00029A60DA6822EA000249
:101BE800DA6070470A4B9A680243F5E7084BDA68EF
:101BF8000243DA609A6822EA00029A607047044B4E
:101C08009A6802439A60DA681043D860704700BF48
:101C1800003C014030B5B0B1B0FA80F3C3F11F0306
:101C2800DBB20B4850F833408C4204D100EBC305BB
:101C38006D68954205D044B940F8331000EBC300F5
:101C48004260002030BDFF23EBE76FF00F00F9E79B
:101C5800E813012060B1B0FA80F3C3F11F03DBB2CF
:101C6800044A002142F8331002EBC3025160704766
:101C7800FF23F5E7E813012000F003020F230432E5
:101C880092009340074A43EA9000C3B2023352F8E5
:101C98002320030C93FAA3F302EA1040B3FA83F368
:101CA800D84070470038014038B5284B14460D46D7
:101CB80018680B88C3F30B02092A1DD0072A13469C
:101CC80011D8CAB1931E052B06D8DFE803F03603F6
:101CD80036341E284FF4FA4020602B68B3F5805F35
:101CE8002DD2002038BD402A0DD008D822F0040299
:101CF800302AF1D0382BEFD06FF08500F2E7442A74
:101D08000BD0A82AF7E78008E6E700F0B5F8192312
:101D1800B0FBF3F04FF4D87358434008DCE700F009
:101D2800ABF81923B0FBF3F04FF4D87358430923E9
:101D3800B0FBF3F0D0E70648CEE70020CCE7C3F3CA
:101D480013330133B0FBF3F02060CAE70009012028
:101D580040787D0170B5444D00F0C2F8434C2846E8
:101D680003F0B8FC00F0E6FEA368414AC3F303138E
:101D7800D35C20FA03F613781D41AE4202D22846FE
:101D880000F006FF236823F480232360236843F4CC
:101D980080332360354B1A689103FCD55A6F42F0A3
:101DA80001025A675A6F9207FCD59A6802F00C0232
:101DB800082A17D11A68940707D41A6842F0010252
:101DC8001A602A4A13689807FCD5284B9A6822F0AB
:101DD80003029A609A6812F00C0FFBD19A6822F0FD
:101DE800F0029A60214C236823F0807323602368F3
:101DF8009901FCD4636823F440336360636823F07B
:101E0800706343F01063636000F03AF8236843F0AE
:101E180080732360154B1A689201FCD59A6822F0EA
:101E2800F0029A609A6822F0030242F002029A6075
:101E38009A6802F00C02082AFAD1AE4202D3284668
:101E480000F0A6FE0B4B0020074A1A60074A936869
:101E580023F4E05343F4A0539360936823F460435E
:101E680043F40043936070BD00E6DF0C0038024085
:101E780012750008000901200048704740787D016C
:101E8800114B12495A681140114A0A4311495A60C4
:101E98005A681140104A0A435A601A6842F0807220
:101EA8001A60A3F5E4331A6842F480321A605A685B
:101EB800D203FCD51A6842F400321A60074A536804
:101EC8009B03FCD5704700BF003802400080BCFF70
:101ED800196C40000080BFF0196C40090070004088
:101EE800064B82B01A6C42F080521A641B6C03F0E5
:101EF80080530193019B02B0704700BF0038024035
:101F080008B5074803F073FE38B10648FFF780FDAF
:101F18000448FEF70BFE002008BD6FF01200FBE737
:101F2800FC680008311F00080A2838B50446074D28
:101F380004D1AB680D2128465B689847AB68E1B2CD
:101F480002485B689847204638BD00BFFC68000817
:101F58002DE9F843D0F804801746D0F810900D46C4
:101F6800D8F808001E4603F009FBB7F5001F044621
:101F780016D1D8F808402846FFF77EFE84420CD1D7
:101F8800294603F0FBFA0446FFF714FE2046FFF744
:101F980061FE00212046FFF715FE0020BDE8F8830A
:101FA800B7F5800F20D0B6F1806F19D0B6F1C06FA9
:101FB80018D0B6F1007F1AD102264A460F492046AA
:101FC800FFF728FEB0B9D8F80810284603F0D9FA68
:101FD80020463146FFF7F6FD2046FFF7D5FDDCE742
:101FE8000126EAE70326E8E76FF08500D6E76FF0F9
:101FF8001500D3E76FF00F00D0E700BF5F59000866
:1020080038B50369044658600A4D284603F0EFFDC9
:1020180060B1AB6861681B680C3123B128469847EA
:1020280000EAE07038BD6FF05700F9E76FF0120072
:10203800F8E700BF1C670008F8B51A4F1446089A5D
:10204800CEB2BB680546DA67FEF7BAF8002211215E
:1020580002F0D4FC10B9A86803681BB9BB68D86F34
:1020680003F02DFAE202D5F810C006D514F4402F7B
:1020780003D0E30748BF84F440240121DCF8003092
:1020880024F48012E40701FA06F14CBF0B438B439A
:102098003146CCF80030036828469847BB680022D0
:1020A800DA67F8BD4C150120F8B5134F0D46089AAC
:1020B8000446BB68DA67FEF783F80022112102F0B4
:1020C8009DFC10B9A3685B681BB9BB68D86F03F0A7
:1020D800F6F96B1DF9D801220421284603F026FAE7
:1020E80006460028F1D1A368294620465B68984730
:1020F800BB68DE67F8BD00BF4C1501202DE9F04133
:102108000E4E9046089A0F46B3680546DA67FEF702
:1021180057F80022112102F071FC044610B9AB688F
:102128009B681BB9B368D86F03F0C9F942463946B2
:1021380028469847B368DC67BDE8F0814C15012054
:10214800F8B50D4E0F46089A0546B368DA67FEF7EC
:1021580037F80022112102F051FC044610B9AB688F
:10216800DB681BB9B368D86F03F0A9F9394628466C
:102178009847B368DC67F8BD4C150120F8B50D4EDB
:102188000F46089A0546B368DA67FEF719F8002281
:10219800112102F033FC044610B9AB681B691BB966
:1021A800B368D86F03F08BF9394628469847B36867
:1021B800DC67F8BD4C150120F8B50D4E0F46089A9E
:1021C8000546B368DA67FDF7FBFF0022112102F02C
:1021D80015FC044610B9AB685B691BB9B368D86FC6
:1021E80003F06DF9394628469847B368DC67F8BDAF
:1021F8004C1501202DE9F041164F1446089ACEB22D
:10220800BB680546DA67FDF7DBFF0022112102F003
:10221800F5FB28B9AB68D3F81880B8F1000F03D1E3
:10222800BB68D86F03F04BF923022A6906D501234E
:102238001268B340134218BF84F0C064064B04F020
:10224800B072314628462340C047BB680022DA678F
:10225800BDE8F0814C1501204000000670B50C4E19
:102268000546069AB368DA67FDF7AAFF002211212E
:1022780002F0C4FB044610B9AB681B6A1BB9B3680B
:10228800D86F03F01CF928469847B368DC6770BD1F
:102298004C1501202DE9F047044600EBC106002546
:1022A8001C4FB44201D1002014E02068C30600F09E
:1022B8001F0911D4656845F02005C0F3481AC0F31A
:1022C8004420102823D857F82080B8F1000F0DD1EA
:1022D8006FF01200BDE8F087B9F1100F04D0B9F122
:1022E800110FEAD16568E8E73025E6E7404603F0D4
:1022F8007EFC0028ECD04B462A460AF00F014046E7
:1023080003F03FFB002804F10804CADAE2E76FF0A3
:102318001500DFE7F86E0008F8B50C460369416858
:102328005D682379012B15D09F1E7E427E41B6023F
:102338006279022A96BF444F4FF4005737F812705B
:10234800A279022A09D0042A2FD0003B18BF012302
:102358001B0306E04FF4C066EAE7B3FA83F35B09B0
:102368001B07E2790968012A14BF4FF0000C4FF4EB
:10237800407CA5421CD10A6822F0805222F4B05257
:1023880032431A430A604B6823F440533B434B6083
:1023980043681A68936823F4407343EA0C03936014
:1023A8002968BDE8F84003F050BB4FF48053D8E7E4
:1023B800D1F800E00EF4C06E764506D0D1F800E002
:1023C8002EF4C06E4EEA06060E6041680E6871680B
:1023D80001F440518F4204D0716821F440513943CF
:1023E800716041680E68316801F010218B4204D099
:1023F800316821F010210B433360436819688B68FA
:1024080003F440739C4505D08B6823F4407343EA7A
:102418000C038B6043681B689968490405D5032A37
:1024280009D09A6822F4804204E0032A03D19A680A
:1024380042F480429A6021682B68994203D003F0E5
:1024480004FB23682B60F8BD78720008F7B50646D0
:10245800446805695348286003F0C9FB002800F068
:1024680097802868E16883681B68002B00F09480D7
:1024780098470028C0F28E8001AA0021206A03F044
:1024880098FA0028C0F28680019B00221979186802
:10249800FFF700FF00287DDB756833692C685F68EB
:1024A800236823F001032360686803F0A0FB002879
:1024B8006ED0D5E901018368DB6803B1984754E819
:1024C800003F43F00C0344E80032002AF7D13946B4
:1024D8003046FFF721FF2B7D1BB1A36843F00803AB
:1024E800A3606B7D1BB1636843F400436360AB7DFD
:1024F8001BB1636843F480336360EB7D1BB1636891
:1025080043F4003363602B7E002B38D0264B9C426B
:102518001BD0A3F54C439C4217D003F580639C4223
:1025280013D003F580639C420FD003F580639C426F
:102538000BD003F544439C4207D0A3F51C439C42AF
:1025480003D003F580639C4229D173681A689368A5
:1025580043F48043936023686A7E23F0787343EAE8
:10256800425323602368AA7E23F4F81343EA024304
:102578002360EB7E1BB1A36843F40043A360236888
:1025880043F001032360E3699B02FCD5002001E0CE
:102598006FF0120003B0F0BD6FF05700FAE76FF06C
:1025A8001500F7E71C67000800100140F8B54368FC
:1025B80002460E4691F805E01C68036908795D68D3
:1025C80001288B791ED1BEF1020F72D9022B1F464A
:1025D8004FF4C0614FF4005C00F08380042B7BD083
:1025E80020B1C31E012B79D94FF48050BCF5805F10
:1025F80000F08180BCF5405F7FD0BCF1000F1CD19A
:1026080001231BE002280AD1BEF1020F5DD9022B7B
:102618001F464FF480610BD04FF4005CDEE7BEF13B
:10262800020F55D9022B1F4654D100285FD0002134
:10263800C31E012B52D900200227032373454DD115
:1026480003F01EFAB84249D1F37903B3012B56D1EE
:102658002C4B9C421BD0A3F54C439C4217D003F54E
:1026680080639C4213D003F580639C420FD003F52E
:1026780080639C420BD003F544439C4207D0A3F5EA
:102688001C439C4203D003F580639C4226D12368F7
:102698003146104623F001032360FFF73DFE23680F
:1026A80043F00103236096E8030085E80300002057
:1026B800F8BD4FF4C061144F022B37F81EC01F46F7
:1026C8008CD170B94FF0805090E74FF48061F2E7F9
:1026D8000021F0E700219FE7002885D06FF08500F2
:1026E800E6E7C31E012BF9D9022700207EE7014641
:1026F8004FF08050A1E70023A0E702239EE7032BB9
:10270800A6D0EBE7001001407872000870B50C4EB7
:102718000546069AB368DA67FDF752FD00225E2186
:1027280002F06CF9044610B9AB689B681BB9B36832
:10273800D86F02F0C4FE28469847B368DC6770BDBE
:102748004C15012070B5154E0D46069A0446B3681F
:10275800DA67FDF735FD00225E2102F04FF910B966
:10276800A3681B681BB9B368D86F02F0A8FE6B1C7E
:10277800F9D001222846114602F0D8FE0028F2D1ED
:10278800A3681B6833B1294620469847B3680022DE
:10279800DA6770BD6FF05700F8E700BF4C150120ED
:1027A80070B5114C0D46069A0646A368DA67FDF720
:1027B80007FD00225E2102F021F910B9B3681B68F9
:1027C8001BB9A368D86F02F07AFEEB1CF9D8012276
:1027D8000221284602F0AAFE0028F2D1A368D86791
:1027E8006FF0850070BD00BF4C150120F8B50E4E86
:1027F800CFB2089A0546B368DA67FDF7E1FC002214
:102808005E2102F0FBF8044610B9AB685B681BB99F
:10281800B368D86F02F053FE284639469847B36824
:102828002046DC67F8BD00BF4C15012038B50B4CBD
:102838000546069AA368DA67FDF7C2FC00225E2106
:1028480002F0DCF818B9A968A268496819B9A36840
:10285800D86F02F034FED06738BD00BF4C15012098
:1028680070B5154E0D46069A0446B368DA67FDF74B
:10287800A7FC00225E2102F0C1F810B9A3681B6909
:102888001BB9B368D86F02F01AFE15F1090FF8D812
:1028980001220821284602F049FE0028F1D1A36848
:1028A8001B6933B1294620469847B3680022DA6786
:1028B80070BD6FF05700F8E74C15012070B5154E44
:1028C8000D46069A0446B368DA67FDF779FC0022DC
:1028D8005E2102F093F8024610B9A3681B691BB980
:1028E800B368D86F02F0EBFD15F1090FF8D808218D
:1028F800284602F01BFE0028F2D1A368DB6833B13A
:10290800294620469847B3680022DA6770BD6FF001
:102918005700F8E74C1501204FF0E0230F4910B598
:102928009C691A6908689B6902F480320C4934B9B9
:1029380093B903464AB90A681044C01A10BD002B5F
:1029480008BF03460AB9A342F5D90A6802440A60D7
:102958004FF0E0221269EEE70446F3E7481501203C
:10296800441501200A4B1022002083F8232045F249
:102978006042084B1A6045F25F42074B18604FF0FF
:10298800E0235A6198611A6942F007021A61704798
:1029980000ED00E04815012044150120684620F0AC
:1029A80007018D4619B5FFF7B7FF1149114B0868A4
:1029B800D3E90042001942F10002C3E900020E4ABD
:1029C80000230B6045F26043D2E90041001BB0FBD5
:1029D800F3F043431B1941F10001C2E9003101F052
:1029E80017FEFEF74DFABDE819408546704700BF4F
:1029F80044150120880F0120800F01202DE9F041A6
:102A0800DFF8E08099B1421C0BD14FF0E022136946
:102A180023F0010313614FF07F43C8F80030BDE88D
:102A2800F081D8F80060012807DC00270BE0431C80
:102A3800D8F80060F7D140F20730B0F5427FA8BF60
:102A48004FF44270471EEFF31185102383F3128869
:102A5800BFF36F8FFFF760FF234C4FF0E0239969B6
:102A6800D4E9002380184FF0000243F10003C4E9C1
:102A780000031E4B1A601E4B1A68831A2ED445F2A7
:102A8800604C0CFB073303F5A8435F33B3FBFCF73B
:102A9800131A40F246520CFB0733934238BF1346D1
:102AA800144A934228BF1346C8F800304FF0E0227A
:102AB800013B90695361002381429361A1EB0003BC
:102AC800D4E9001238BF9B195B1842F10002C4E92F
:102AD800003285F31188BFF36F8FA0E740F24653A9
:102AE800E2E700BF48150120880F012044150120A6
:102AF800800F0120A06EFF0038B5EFF31185102379
:102B080083F31288BFF36F8F084B1C68084B1B6850
:102B1800E41AFFF701FF85F31188BFF36F8F45F2C1
:102B280060432044B0FBF3F038BD00BF880F01209C
:102B3800800F0120134908B58B6803F00C03042BA0
:102B48001BD0082B1BD14A684B68496802F03F022A
:102B580013F48003C1F388111ABF0B4800230B48F4
:102B6800A1FB0001FDF7ACFB064B5B68C3F3014317
:102B780001335B00B0FBF3F008BD0348FCE70348F2
:102B8800FAE700BF0038024040787D010024F400D5
:102B980000285DD02F4B1A681B6802F44042B2F53A
:102BA800404F33D113F4803310D102F10F6202F594
:102BB8008C52904248D8284A904247D8274A904297
:102BC80035D8274A904209D902230DE0254B98426F
:102BD80038D8234B98424FF0060305D8224A904232
:102BE80002D9012B38BF012320490A6822F00F02BD
:102BF8001A430A600A6802F00F02934202D00A6878
:102C080002F00F02981A18BF0120704703F44043DE
:102C1800B3F5004F05D103F10F6303F5A3439842C1
:102C280012D80D4B984211D80C4B984201D9032366
:102C3800DAE70B4B9842C7D80B4B984294BF002356
:102C48000123D1E70723CFE70523CDE70423CBE70B
:102C58000120704700700040000E2707804A5D057C
:102C6800008793038058840C80C3C901003C02404C
:102C780038B5054C054DAC4200D338BD204620344C
:102C880003F0E8FBF7E700BF1C6700081C690008B1
:102C980070B5044688B10378C3B10D4D0D4EB542E9
:102CA80001D3002409E029688C4208D1284602F0A3
:102CB8009EFF002814BF2C460024204670BD2046E5
:102CC800FDF718FB0028F1D02035E8E71C46F4E7AB
:102CD8001C6700081C69000810B50A4C8CB0014636
:102CE800109A6846A368DA67302203F0E1FB38B926
:102CF8006846FFF7CDFFA3680022DA670CB010BD65
:102D08000020F8E74C15012038B50B4C0546069A0B
:102D1800A368DA67FDF754FA0122002101F06EFE7C
:102D2800024618B1A368D86F02F0C9FB284602F022
:102D38005EFFA368DA6738BD4C15012070B50B4DEE
:102D48000646069AAB68DA67FDF73AFA01220021CF
:102D580001F054FE044618B1AB68D86F02F0AFFB1F
:102D6800304602F04FFFAB68DC6770BD4C150120A0
:102D780038B5EFF31185102383F31288BFF36F8FF3
:102D8800064B9C6802F05EFF85F31188BFF36F8FD6
:102D98002046BDE83840FEF723BA00BF4C15012095
:102DA80038B50A4B53F82040013053F82050A5425B
:102DB80000D838BD606830B1037FDB0701D402F06A
:102DC80044FF0834F3E723689847FAE7D86F000808
:102DD800324B01220320F0B5314C87B0314E1A70C6
:102DE800FFF7DEFF01F042FE0420FFF7D9FF25467A
:102DF8003034B54214D32C4C2C4FBC4236D3284C1B
:102E080000F08CFF2A4DB44232D300F09BFFFDF74F
:102E1800F7FC284A137B23F00103137307B0F0BDB6
:102E280054F80C3C059354F8103C049354F8143CA3
:102E3800039354F8183C029354F81C3C019354F83B
:102E4800203C009354E90A2354E90C0100F076FB76
:102E580054F8303C5D65CAE7216803F0E7FA636817
:102E6800585904350028F7D10834C6E70025F6E795
:102E7800D4E90A23B3F1FF3F08BFB2F1FF3F05D001
:102E880052EA0301206803D101F0B8F83034BAE7F8
:102E98002946183001F010FBF8E700BF451601205D
:102EA800586C0008486D00082C6C00082C6C000851
:102EB800915F00082810012006480021064A08B53D
:102EC800121A02F0D9FE0548054A0021121A02F02A
:102ED800D3FE08BD780C0120481601200000002010
:102EE8000000002070B50B4D0646069AAB68DA67FD
:102EF800FDF766F90122002101F080FD044618B1B2
:102F0800AB68D86F02F0DBFA304602F0B9FEAB6866
:102F1800DC6770BD4C15012070B59823154E86B03E
:102F2800012203FB00660023134D04460193134955
:102F3800CDE904230F22CDE9023214234FF4A07205
:102F480003FB00554FF4C0700D4B00FB04113046D5
:102F5800009500F0F3FA737B0A4A23F00403EE604D
:102F68002C7473734FF4046304FB033313446B60D2
:102F780006B070BD900F01204C15012040200120A3
:102F88009B5C000800180120BFB50020FFF708FF70
:102F9800274B83F30888274D0024F023264F85F814
:102FA8002230EC772C766C76AC7685F820406B6A0C
:102FB80043F4E0236B62FEF7E3F8FEF7C1FA4FF043
:102FC800FF33AB62EB62FEF751FC1C4DFEF7DCFAF7
:102FD8001B4800F02DFCFFF74BFEFDF783FE012098
:102FE800FFF7DEFE0220FFF7DBFE00F0DFFE154BE9
:102FF80015494FF480625D612846144B009405938F
:103008000123CDE90144CDE903433B4600F096FA9C
:103018006A7B0646284622F004026A7302F077FFAC
:103028002046FFF779FF3A4631462846FEF768FA08
:103038004020012000ED00E0D92D000828100120D3
:10304800C01001204C15012000380120227500080D
:1030580070B50B4D0646069AAB68DA67FDF7B0F80F
:103068000122032101F0CAFC044618B1AB68D86FED
:1030780002F025FA304602F01FFEAB68DC6770BD2F
:103088004C1501202DE9F341044617461E46EFF37F
:103098001188102383F31288BFF36F8FC368334AF4
:1030A8007BB180689168884219D057EA060318D125
:1030B80088F31188BFF36F8F6FF00F0002B0BDE87F
:1030C800F081916891F90E1001332161E3609368F2
:1030D800A36088F31188BFF36F8F0020EEE72169A2
:1030E800F2E791F90E106FF07E0290F90E309942D6
:1030F800A8BF19469142B8BF11468B422DDD02F098
:10310800D3FD0546224641461948CDE9007600F030
:1031180011FD0028E1D0EFF31186102383F3128804
:10312800BFF36F8FA068D0B1236821699C420AD091
:103138004BB193F90E309942A8BF19466FF07E0340
:103148009942B8BF194602F0AFFD40B13146084870
:1031580000F084FD6FF00A00B0E70025D2E7002DEB
:10316800F4D186F31188BFF36F8FF3E74C15012074
:10317800461601202DE9F0410D4D1746089A88465C
:10318800AB680646DA67FDF71BF80022032101F059
:1031980035FC044618B1AB68D86F02F090F93B468D
:1031A80042463046FFF76EFFAB68DC67BDE8F0814A
:1031B8004C150120F8B583680546002B40D0234AFA
:1031C800926893423FD1C368012B03D9013BC36086
:1031D8000020F8BDEFF31187102383F31288BFF3A3
:1031E8006F8F0169806802F05FFD2C68A54207D1E6
:1031F8000023C5E9023387F31188BFF36F8FE7E730
:10320800002CF5D0002604F11800D4E90032136030
:103218005A60637BA66023F00203C4E90066637307
:1032280002F020FFAC6094F90E3020462B61C4F800
:103238008C6002F06CFE3946054800F00FFDC7E7C8
:103248006FF01500C5E74FF0FF30C2E74C150120BD
:103258004616012070B50B4D0646069AAB68DA672C
:10326800FCF7AEFF0022032101F0C8FB044618B1A9
:10327800AB68D86F02F023F93046FFF79BFFAB68C5
:10328800DC6770BD4C15012070B50C4D0646069ADA
:10329800AB68DA67FCF794FF4FF0FF32052101F0C5
:1032A800ADFB044618B1AB68D86F02F008F9304698
:1032B80002F08DFDAB682046DC6770BD4C1501201F
:1032C80070B50C4D0646069AAB68DA67FCF778FFCE
:1032D8000022052101F092FB044618B1AB68D86FB3
:1032E80002F0EDF8304602F07BFDAB682046DC6763
:1032F80070BD00BF4C150120F8B50C4D0F46089A5B
:103308000646AB68DA67FCF75BFF0022052101F08F
:1033180075FB044618B1AB68D86F02F0D0F839468F
:10332800304602F084FDAB68DC67F8BD4C1501201F
:10333800F8B50C4D0F46089A0646AB68DA67FCF7F5
:103348003FFF0022052101F059FB044618B1AB6884
:10335800D86F02F0B4F83946304602F072FDAB6817
:10336800DC67F8BD4C15012037B51146EFF3118520
:10337800102282F31288BFF36F8F04689CB1236810
:103388000121426823F003039442036008BF4360AD
:10339800204602F010FD044685F31188BFF36F8FB5
:1033A800204603B030BD51EA0302F5D000F108020F
:1033B800CDE900131046294600F0BCFB0028EFD1E8
:1033C800014B9B681C69EBE74C1501202DE9F04186
:1033D8000D4D1746089A8846AB680646DA67FCF72B
:1033E800EFFE0022052101F009FB044618B1AB6885
:1033F800D86F02F064F83B4642463046FFF7B4FF08
:10340800AB68DC67BDE8F0814C15012038B50B4C82
:103418000546069AA368DA67FCF7D2FE0022052162
:1034280001F0ECFA18B1A368D86F02F048F82B68DD
:10343800A268D067B3FA83F0400938BD4C15012063
:1034480070B50B4D0646069AAB68DA67FCF7B8FE0E
:103458000022052101F0D2FA044618B1AB68D86FF2
:1034680002F02DF8304602F0F6FCAB68DC6770BD60
:103478004C15012070B50B4D0646069AAB68DA6705
:10348800FCF79EFE0022052101F0B8FA044618B1A7
:10349800AB68D86F02F013F8304602F0E0FCAB6876
:1034A800DC6770BD4C150120EFF305833BB9054B74
:1034B8009B68D8897F288CBF002001207047002096
:1034C800704700BF4C15012008B5044B9A68049B4F
:1034D800D367FFF7E9FF0023D36708BD4C15012028
:1034E80038B50B4C0546069AA368DA67FCF768FE00
:1034F8000022092101F082FA034618B1A368D86FA7
:1035080001F0DDFFA26895F90E00D36738BD00BF52
:103518004C150120034B00226FF057009B68DA67B7
:10352800704700BF4C150120034B00226FF0570075
:103538009B68DA67704700BF4C1501202DE9FF47EB
:103548000E4605464FF0000914461F46DDF8408038
:1035580002F080FF304602F07DFFAE67C5F87C9030
:103568002846294602F062FF05F158034FF0040A85
:103578003046C5F8089085F80C8085F80DA085F8C8
:103588000F90C5E916330F9BC5E90699AB7302F096
:1035980070FC002848D0022C36D86300013BB246A4
:1035A800B3FBF4F35C43A146344428462146FDF7B7
:1035B800B7FB07300E9B314620F00700244EA86663
:1035C800241A28462246C5E918A902930D9B01939F
:1035D8000C9B00933B46FDF72DFF00236B65B368FA
:1035E80063B1284601F0B4F918F0080F03D0294652
:1035F800B06801F0DDF9B368D3F880302046C5F82B
:10360800803004B0BDE8F087631E0124B3FA83F369
:10361800C3F1200304FA03F35A1EB2FA82F2C2F18C
:10362800200294402344B9E7073424F007047F3488
:1036380024F03F043F2C05D880F31188BFF36F8F27
:10364800504602DF06F1400AA4F14009ACE700BF8A
:103658004C1501202DE9F04F87B09A460D461646C5
:103668000446149FDDE91698FCF7AAFD4FF0FF32D7
:10367800092101F0C3F9274B18B19B68D86F01F0F5
:103688001EFF2846FCF79CFD4FF0FF320B218346B6
:1036980001F0B4F91F4B9B680028EFD1DBF8082034
:1036A8001268B242EAD37A07E8D517F00102E5D1E9
:1036B800139910311E29E1D893F90E1013988842F6
:1036C800DCDB139B294620460393129B0293119B34
:1036D8000193109BCDE90472009332465346FFF7DD
:1036E8002DFFB8F1FF3F08BFB9F1FF3F05D058EAF9
:1036F800090306D1204600F081FC204607B0BDE84A
:10370800F08F4A46434604F11800034900F0D4FEFE
:10371800F3E700BF4C150120915F00082DE9F04741
:1037280088B0184E91469A46119C0746B368884659
:10373800129A14F1190FDA6703D9B368D86F01F038
:10374800BEFE00221821204601F0F0FE05460028A2
:10375800F3D1D4E90032D4E90201D4E904E4CDE993
:103768000132109B4A46CDE9030100934146534676
:103778003846CDE906E4FFF76DFFB368DD6708B0AA
:10378800BDE8F0874C150120F8B5134D0C46089A92
:103798000646AB68DA67FCF713FD0022092101F041
:1037A8002DF918B1AB68D86F01F089FE06F1180041
:1037B80002F080FC14F1090F07460E46F2D80122E8
:1037C8000821204601F0B2FE0028EBD1C4E90076BA
:1037D800AA68D067F8BD00BF4C150120F8B5134D95
:1037E8000C46089A0646AB68DA67FCF7E9FC002243
:1037F800092101F003F918B1AB68D86F01F05FFE39
:1038080006F1180000F0E8FE14F1090F07460E460D
:10381800F2D801220821204601F088FE0028EBD1C9
:10382800C4E90076AA68D067F8BD00BF4C1501202E
:1038380040F20113054A838100234267C0F88030B3
:10384800C0E91833024B9860704700BF7815012013
:103858004C1501200A4A6FF00A019368C3F88C10CE
:103868000849C3F888004B6843F080534B60002335
:1038780083F31188BFF36F8F9368D3F88C00704778
:103888004C15012000ED00E070B590F90D20437B48
:10389800002A36DBD90634D11B4C63F07F0322465D
:1038A8004373E16952F8183F934207D1C0E90021F8
:1038B8000860E06111E09942F8D01B68002BF5D050
:1038C80090F90E5093F90E60B542F4D0AE42F2DD95
:1038D8005968C0E9003108605860A569954200D070
:1038E80005B9E568A3685A7BD20604D1DA897F2A2C
:1038F80001D9AA6932B1AB4202D0284600F00AFDCC
:10390800656170BD6361FCE74C15012038B590F91D
:103918000D200146437B002A04DA03F07F0343733A
:1039280002F0AEFA0D4D2A46AB6852F8184F944291
:1039380000D004B9EC688B4207D05A7BD20604D178
:10394800DA897F2A01D9A2692AB1A34202D0204686
:1039580000F0E0FC23466B6138BD00BF4C15012028
:10396800B3F1FF3F08BFB2F1FF3F03D0024918305F
:1039780000F0A2BD704700BF915F000870B590F9D4
:103988000D200146437B002A04DA03F07F034373CA
:1039980002F076FA4B7B1C4C63F07F0322464B7394
:1039A80052F8183FE069934207D1C1E9002001604D
:1039B800E16111E09842F8D01B68002BF5D091F92D
:1039C8000E5093F90E60B542F4D0AE42F2DD58685D
:1039D800C1E9003001605960A569A368954200D02B
:1039E80005B9E5688B4207D05A7BD20604D1DA893B
:1039F8007F2A01D9AA692AB1AB4202D0284600F031
:103A080089FC2B46636170BD4C150120F8B5394C13
:103A18000746A268824224D1EFF305830BBBEFF37C
:103A28001186102383F31288BFF36F8F537B03F043
:103A38007F0343F01003537302F022FA234653F82E
:103A4800185F9D4200D005B9E568A3689D4202D081
:103A5800284600F05FFC30466561BDE8F840FFF796
:103A6800F9BEEFF31185102383F31288BFF36F8F2C
:103A78007B7BD90604D585F31188BFF36F8FF8BD1A
:103A8800D90943F0100219D17A73A6691A4B9E42DC
:103A980000D006B9E668A368B34202D0304600F009
:103AA80039FCA36866619F42E5D1EFF30583002BDB
:103AB800E1D13A7BD2070AD42846CEE703F07F0348
:103AC800384643F010037B7302F0DAF9DDE785F33B
:103AD8001188BFF36F8F83F31188BFF36F8F0423AF
:103AE800184602DFEFF31180102383F31288BFF327
:103AF8006F8FB2E74C1501206415012070B50C4D8D
:103B08000646069AAB68DA67FCF75AFB00220921D9
:103B180000F074FF044618B1AB68D86F01F0CFFC11
:103B28003046FFF773FFAB682046DC6770BD00BF07
:103B38004C150120F8B50E4B0C4611460D4A9868F5
:103B4800DDE906671060EFF31182102282F3128814
:103B5800BFF36F8F9D68284602F0B1F928463246B8
:103B68003B46FFF7FDFE2046BDE8F840FFF772BE72
:103B78004C1501206C150120F8B50446EFF31187A8
:103B8800102383F31288BFF36F8F437B49B203F08E
:103B98001F02002A0CBF0126002639D103F07F033B
:103BA8002D4D437302F06CF9437B2A46817363F011
:103BB8007F03437352F8183F934227D1E869C4E959
:103BC80000200460EC610FE09842F8D01B68002BDD
:103BD800F5D093F90EC06145F6D08C45F4DD5968EF
:103BE800C4E900310C605C60AC69944200D004B94F
:103BF800EC68AB689C4202D0204600F08BFB6C61FD
:103C080087F31188BFF36F8F3046F8BDE869DEE7A8
:103C18009B071ED5856802F033F981732B689D4296
:103C280009D16B68C4E900531C606C60E8E76A68F6
:103C38009342F6D01B68002BF3D093F90E209142E3
:103C4800F5D08A42F3DD5A68C4E9003214605C603A
:103C5800D6E78173D4E700BF4C15012049B9EFF3CB
:103C6800058030B9054B5A699B689A4201D0FFF725
:103C7800F1BD81F31188BFF36F8F70474C15012098
:103C880010B5EFF31184102282F31288BFF36F8FFF
:103C9800427BD10604D484F31188BFF36F8F10BD23
:103CA80022F010024273FFF7EFFD21460248BDE8FB
:103CB8001040FFF7D3BF00BF4616012070B50C4D6A
:103CC8000646069AAB68DA67FCF77AFA00220921F9
:103CD80000F094FE044618B1AB68D86F01F0EFFB12
:103CE8003046FFF7CDFFAB682046DC6770BD00BFEC
:103CF8004C150120034648B9EFF3058232B9064A4C
:103D080051699268914201D0FFF7A4BD83F31188ED
:103D1800BFF36F8F704700BF4C150120EFF311817F
:103D2800102383F31288BFF36F8F054B9A68D37BF8
:103D3800013BD37381F31188BFF36F8F704700BFC6
:103D48004C15012070B5EFF31186102383F3128808
:103D5800BFF36F8F144DAB68DA7B0132DA732A46F2
:103D680052F8184F944200D004B9EC685A7BD20636
:103D780004D1DA897F2A01D9A2692AB1A34202D0E3
:103D8800204600F0C7FA23466B6186F31188BFF31B
:103D98006F8FEFF31180102383F31288BFF36F8FB7
:103DA800BDE87040FFF7A6BF4C150120024B03F198
:103DB8001802C3E9062270474C15012008B5FFF721
:103DC800DBFE70B1074B9B68DB7B53B9EFF31180C7
:103DD800102383F31288BFF36F8FBDE80840FFF705
:103DE80089BF08BD4C150120F8B5124E0C46089A3B
:103DF8000746B368DA67FCF7E3F90022092100F007
:103E0800FDFD054618B1B368D86F01F058FB0E2CBC
:103E1800F9DC14F1100FF6DB97F90E2063B29A4221
:103E2800F1DC38462146FFF7C9FFB3682846DD674D
:103E3800F8BD00BF4C15012070B5EFF311861023B3
:103E480083F31288BFF36F8F0E4D2B4653F8184F2C
:103E58009C4200D004B9EC68AB685A7BD20604D106
:103E6800DA897F2A01D9A2692AB1A34202D0204661
:103E780000F050FA234631466B610348BDE87040B4
:103E8800FFF7ECBE4C1501204616012010B5054C75
:103E9800049AA368DA67FFF7CFFFA3680020D86702
:103EA80010BD00BF4C15012070B5EFF3118610232B
:103EB80083F31288BFF36F8F1B4CA168E0690B680E
:103EC800814214BF1A46002249680B605960A368F2
:103ED800E1692AB9154AC3E900210B60E3610CE0E6
:103EE80093F90E0092F90E50A84218D0854216DDBB
:103EF8005168C3E900210B605360A5690B4B9D42D3
:103F080000D005B9E568A3689D4202D0284600F0B4
:103F180001FA30466561BDE87040FFF79BBC8A42F4
:103F2800D8D01268D5E700BF4C15012064150120D0
:103F3800F8B550EA010306460C4603D1FFF7B4FF73
:103F48000020F8BDEFF31187102383F31288BFF325
:103F58006F8F124D124BA8681860FFF7D7FCA8683E
:103F6800234632460F49183000F0A6FAAA680446DC
:103F78003846537B43F004035373FFF76BFCAB687D
:103F8800D3E90A23B3F1004F08BF002AD8D102F0C1
:103F9800ADF8201A20EAE070D3E700BF4C150120E5
:103FA8006C150120915F000810B5054C049AA368B0
:103FB800DA67FFF779FFA3680020D86710BD00BF54
:103FC8004C15012010B5054C049AA368DA6701F076
:103FD800FAFFA3680022DA6710BD00BF4C15012064
:103FE80010B5054C049AA368DA6702F014F8A368C0
:103FF8000022DA6710BD00BF4C15012038B5044611
:10400800EFF31185102383F31288BFF36F8F437B7F
:104018005B070FD5183002F025F8637B204623F0A4
:1040280004036373FFF730FC29460548BDE83840B0
:10403800FFF714BE85F31188BFF36F8F38BD00BF3B
:104048004616012070B50C4D0646069AAB68DA672D
:10405800FCF7B6F80022092100F0D0FC044618B19C
:10406800AB68D86F01F02BFA3046FFF7C7FFAB6893
:104078002046DC6770BD00BF4C150120014B9868D5
:10408800704700BF4C150120024B98680023C36796
:10409800704700BF4C1501202DE9F8430446077B03
:1040A800EFF31185102383F31288BFF36F8F437BDF
:1040B800190705D585F31188BFF36F8FBDE8F8831D
:1040C800D90943F0080266D14273A36813B12046A8
:1040D80001F0DEFE04F1180004F1580801F0C2FFF7
:1040E800A66DB04511D04FF0000976B1304601F009
:1040F800CFFE06F1180001F0B5FF3046C6F88C90E7
:10410800FFF7C2FBA66DB045EFD1DFF8D080D8F835
:1041180008309C4247D1EFF30589B9F1000918BF6F
:104128004FF00109D8F818602D4A964200D00EB910
:10413800D8F80C60B34202D0304600F0EBF82046C5
:10414800C8F8146002F0C0F8204600F04BFCA06FDD
:1041580002F089F9204602F086F9B9F1000F02D081
:104168002048FFF765FBD8F808309C4231D1EFF3BF
:10417800058373BB227BD20718D42846FFF76AFB56
:10418800FB079BD5002383F31188BFF36F8F0423AC
:10419800184602DF92E703F07F0343F008034373F6
:1041A80001F06EFE91E74FF00009BBE785F3118837
:1041B800BFF36F8F83F31188BFF36F8F0423184603
:1041C80002DFEFF31180102383F31288BFF36F8FA0
:1041D800D4E785F31188BFF36F8FD1E74C15012021
:1041E80064150120C0100120F8B5014615461C468B
:1041F800EFF31186102383F31288BFF36F8F437B8D
:104208001B0718D452EA04031BD0114FB868884220
:104218001AD000F158038A689A4215D0583101F033
:104228004EFEB8682A462346FFF79AFB3046BDE89B
:10423800F840FFF70FBB002086F31188BFF36F8F9C
:10424800F8BD6FF00F00F7E76FF02C00F4E700BF40
:104258004C150120F8B50A4F1546089A0446BB6864
:104268000E46DA6701F01EFE40B932462B4620465C
:10427800FFF7BAFFBB680022DA67F8BD0020F9E74C
:104288004C15012038B50B4D0446069AAB68DA6721
:1042980001F008FE48B9237BDB0703D5AB68D86F6C
:1042A80001F00DF92046FCF79BFFAB680020D867AA
:1042B80038BD00BF4C150120044B0122C01A044B25
:1042C800C0105843034B1A54704700BF58110120BF
:1042D800ABAAAAAA46160120C3897F2B12D80A4B7B
:1042E8001B6863B1094B90F90E201B689A4209DBE1
:1042F800437BDB0606D1064BC31A18BF012303F024
:10430800010070470023FAE7040901207015012015
:10431800900F01200E4B70B51E7C05460D4C06EB28
:10432800460304EBC304204601F09CFE0A4B00221E
:1043380028469A55FFF7D0FF48B1084B2046084950
:104348001A68013ABDE87040D31700F0B5B870BDDF
:104358004C1501205811012046160120040901209E
:10436800C142000838B5EFF31185102383F3128892
:10437800BFF36F8F104B114A9C681068A04206D19A
:10438800FFF7C8FF85F31188BFF36F8F38BD002191
:104398001B7C11600A4AD35C002BF3D02046FFF740
:1043A8009BFF0028EED0637BDB0602D12046FFF797
:1043B800E5FA2046E4E700BF4C1501206C15012002
:1043C800461601200D480E4A0E49121A08B501F08A
:1043D80055FC0D480D4A0E49121A01F04FFC0D48C4
:1043E8000D4A0E49121A01F049FC0D480D4A0E49B2
:1043F800121ABDE8084001F041BC00BFA008012026
:10440800740C0120408000080000012000000120F9
:10441800A077000800000020000000201484000895
:1044280000000120A0080120A0770008024B1868AE
:10443800984208BF0020704708090120034B1B68F9
:104448000BB9FEF759BB0020704700BF7415012057
:1044580030B570B10B4B5B6898420AD0036843B122
:10446800D3E90421D0E90445121941EB0501C3E958
:104478000421D0E9003213605A600023C0E90033F8
:1044880030BD00BF0809012070B50A490246FFF790
:10449800CDFF034600204D68014603B970BDD3E93E
:1044A8000446001941EB06019342F7D09D42F5D02E
:1044B8001B68F2E708090120B3F1FF3F08BFB2F11A
:1044C800FF3F2DE9F84F0446994615461F467AD016
:1044D8008160EFF31188102383F31288BFF36F8F85
:1044E800B9F1000FDFF8E4A020DBFFF7A7FF0135E3
:1044F800064649F100092D18DAE9002749EBE0736F
:104508004FF00109C4E90453AD1843EB0707FFF75F
:104518008DFFDFF8BCE00346DEF804A0EBB9C4E980
:1045280000EACAF80040CEF8044028E0DAE90012B0
:104538006FF001035B1A4FF0FF3161EB02025B1B66
:1045480062EB0902012B4FF0000972F10001BCBFB8
:1045580001230022C0E90432D9E7D3E9041CD4E9D5
:1045680004208A4270EB0C0B24DA891A5A686CEB27
:104578000000C3E90410C4E9003214605C60FFF76E
:1045880055FF84420ED1134B1B685BB9B9F1000F7C
:1045980002D1FFF753FF0646304601F04CFD0021DB
:1045A800FEF72CFA88F31188BFF36F8F2846394637
:1045B800BDE8F88F521A60EB0C009A45C4E9042054
:1045C800ADD01B68AAE700252F46EFE77011012040
:1045D800080901207415012070B5EFF31186102227
:1045E80082F31288BFF36F8F084A0368D2E9004547
:1045F80023B1FFF749FF241845EB010586F311881D
:10460800BFF36F8F2046294670BD00BF701101208F
:104618002DE9F047EFF31185102383F31288BFF3D8
:104628006F8FDFF8A4900026DFF8A0800027C9F874
:104638000000FFF7FBFED9F80030D8E900ECD917E5
:1046480050B1D0E90442A34271EB020A1CDAE41A21
:1046580062EB0102C0E9044213EB0E034FF00004C1
:104668004CEB01012046C9F80040C8E9003101F0CF
:10467800E2FC2146FEF7C2F985F31188BFF36F8F7C
:10468800BDE8F047FFF76EBE14EB0E024CEBE47387
:10469800C0E90467C8E90023FFF7DAFE85F311884B
:1046A800BFF36F8F83689847EFF31185102383F367
:1046B8001288BFF36F8FD9F800301B1BC9F8003080
:1046C800FFF7B4FEB7E700BF741501207011012091
:1046D80010B5EFF31184102383F31288BFF36F8FA3
:1046E800FFF7ACFE054A0346D2E90001181841EB72
:1046F800E37184F31188BFF36F8F10BD701101202F
:10470800F8B50E4D0446089AAB68DA67FFF7E0FF84
:1047180014F1090F07460E4603D9AB68D86F00F0AD
:10472800CEFE01220821204600F000FF0028F4D127
:10473800C4E90076AA68D067F8BD00BF4C1501200F
:10474800F8B507460C46164601F08DFB08B1002067
:10475800F8BD0E4B9B68D3F88050002DF7D0221D72
:10476800F5D2EFF31184102383F31288BFF36F8F10
:1047780047F004012846B04784F31188BFF36F8FD0
:104788000028E4D040F8045BE2E700BF4C150120A4
:104798000146024A0020FFF7D3BF00BF6F5200084E
:1047A80070B50C4E0446069ACDB2B368DA67431D5D
:1047B80005D96FF00C00B3680022DA6770BD0122DA
:1047C800042100F0B3FE0028F3D12946204601F069
:1047D800E0FCF0E74C1501202DE9F041DFF84080BE
:1047E80017461E46089AD8F8083004460D46DA6778
:1047F800431D07D96FF00C00D8F808300022DA679B
:10480800BDE8F0810122042100F090FE0028F1D1DA
:104818003A4633462946204601F0FCFCECE700BF47
:104828004C1501202DE9F0470E4690460446D8B3B2
:1048380021B1CAB31E4B1B788B4235D3EFF31189D4
:10484800102383F31288BFF36F8F0025C022204600
:10485800294684F8C85001F087FE04F1C003C4E972
:104868003033BEB14FF00C0A58F82570204639464F
:1048780001F0FEFCA8B10AFB0543013597E80700E3
:1048880083E8070094F8C830B54203F1010384F8BF
:10489800C830E9D3002089F31188BFF36F8FBDE8D2
:1048A800F0876FF01500F6E76FF01500F7E700BF27
:1048B80047160120F8B50D46044658B301F0D8FC58
:1048C80040B3EFF31181102383F31288BFF36F8F86
:1048D800124B271D4FF00C0C1E7800239E4206DC5D
:1048E8006FF01B0081F31188BFF36F8FF8BD0CFBCD
:1048F80003F2B85808B10133F0E72E68A318A650A0
:104908006A685A60AA689A6094F8C830013384F8D3
:10491800C830E7E76FF01500E8E700BF4716012049
:1049280010B500F0FEFD074C074B00221870114629
:104938002046FFF777FF05492046FFF7BBFF002019
:1049480010BD00BF7815012047160120100901206D
:1049580030B5EFF31184102383F31288BFF36F8F00
:10496800094B00F16C029B685B6FD3F8C41003F12C
:10497800C005C0E91B510A60C3F8C420436784F32B
:104988001188BFF36F8F30BD4C15012038B5064C28
:10499800064DAC4201D3002038BD62680021206872
:1049A800083401F0E1FDF4E72C6C0008546C0008B1
:1049B80030B50D4685B0044601F002FD0190284649
:1049C80001F0FEFC019B0133CDE9020405D0013062
:1049D80003D001A90248FBF70FFC05B030BD00BFAA
:1049E8007163000808B501F0EBFC431C014602D0D6
:1049F8000148FBF701FC08BDA963000838B5154656
:104A0800044660B311B183798B4228D1E3799A07C0
:104A18000AD5E5B1013525D1E37913F0010F0CBFB3
:104A280000206FF06F0019E00F4B986801F0C8FC88
:104A3800431C13D04209231D00F01F0053F8222005
:104A4800012383401342E4D14FF0FF3006E0E379BD
:104A580013F0010F14BF00206FF0150038BD6FF080
:104A68000800FBE70020F9E74C150120014800F099
:104A7800BFBC00BF2775000838B5064C064DAC42D0
:104A880001D3002038BDD4E901122046143401F0C6
:104A98002CFDF4E74C0901204C090120F8B50F4D15
:104AA8000746089A0846AB680E46DA67FBF788FBA4
:104AB80001220921FFF7A2FF044618B1AB68D86F9D
:104AC80000F0FDFC384601F034FD0028F6D03146F0
:104AD80001F07FFCAB682046DC67F8BD4C1501206F
:104AE80010B5094C049AA368DA6701F022FD18B9D9
:104AF800A368D86F00F0E3FCA16801F07DFCA3680F
:104B08000020D86710BD00BF4C150120024B0020C3
:104B18009B68D867704700BF4C150120024B0020E6
:104B28009B68D867704700BF4C1501202DE9F04FEE
:104B38008DB043680293837815469A07804640F102
:104B48000D8100240E78002E00F00A81252E0BD04E
:104B58004B1C03930134029B41463046984700287A
:104B6800C0F2F6800399EDE74E788B1C252E03934F
:104B7800F0D00027B946BB46BBF11F0F38D8A6F1C5
:104B88002003102B0AD8DFE803F02A0909300909A5
:104B9800092109090928092D09091F00A6F130036F
:104BA800092B33D92A2E37D11BF0400F55F8043B77
:104BB80040F08280002BA7BF4BF0200B9946C3F131
:104BC80000094BF0280B01E04BF0010B039B13F895
:104BD800016B0393002ECFD130E04BF0020B4BF06A
:104BE800040BF3E74BF0080BF0E74BF0100BEDE785
:104BF800BBF17F0F19D8A6F13003092BD2D81BF0CF
:104C0800400F03D00A2101FB0737DFE70A2101FB28
:104C180009394BF0200BD9E72E2E06D11BF0400F97
:104C280040F09E804BF0400BD0E76C2E31D02BD853
:104C3800682E36D06A2E3CD04C2E3AD0002F46F043
:104C48002003B8BF2BF04002A3F16501BCBF1FFAD7
:104C580082FB0027022901D9612B2FD1073525F0C6
:104C68000705DFF8ACA2083507271BF0080F66D048
:104C78000AEB070B56465E4563D1A4EB0A0A06EB1E
:104C88000A02A9EB07096FE1742E9FD07A2E9DD0F6
:104C9800D4E71BF0800F18BF4BF4007B4BF0800B60
:104CA80094E71BF4807F18BF4BF4007B4BF4807BA8
:104CB8008CE74BF4207B89E71F4687E7A6F1630161
:104CC800122900F2F080DFE811F013004F00EE0027
:104CD800EE00EE00EE004F00EE00EE00EE00EE00FB
:104CE800EE00FE00E900EE00EE001B00EE00AF0053
:104CF80055F8043B8DF8183001270DF1180AB4E770
:104D080055F804AB834BBAF1000F08BF9A461BF065
:104D1800400F14BF39464FF0FF31504601F02CFCCC
:104D28000746A2E7029B41462020984700280FDB50
:104D3800013EB742F6D34C44A41BB14698E74E4611
:104D4800F7E716F8010B029B41469847002892DACC
:104D580098F8023043F0040388F802304FF0FF342B
:104D680020460DB0BDE8F08F1BF0800F34D01BF447
:104D7800007F2CD0073525F00705AA4669685AF840
:104D8800080B2BF010050029ADB237DA404261EB71
:104D9800410145F480650DF1180B0A235A4601F0CC
:104DA800F7FBA0EB0B0301936B0662D5019B25F083
:104DB80001019F4289B240F3A180002E00F0998042
:104DC80015F0100240F09C80BB460D4623E0AA4631
:104DD8005AF8040BC117D4E7AA461BF4807F5AF887
:104DE800041B01D10846F5E71BF4007F15BF48B244
:104DF80008B241F3C01141F3C031C2E750EA0103E0
:104E0800C9D11BF0400FC6D0002FC4D12BF011021E
:104E180095B2BB46019740F2064115EA01021CBF54
:104E28000BF1010B00222CE02BF010021FFA82FB81
:104E38000A231BF0800C49D01BF400711DBF0735F5
:104E480025F00705AA46AA461ABF5AF8080B69684A
:104E58005AF8040B50EA010545D12BF016051BF052
:104E6800400FADB242D0002F40D12BF0170295B2BF
:104E7800019715F0100248D0019B002E42D103F192
:104E8800010B29075AD4EB0706D5D9456FDD0199DF
:104E9800A9EB0B035F18CB465B4649E04BF0100BC0
:104EA80010237826C5E7782B04D1C6F1780343F0A0
:104EB8001003BEE7029B4146252098470028FFF6CD
:104EC80047AF023447E608230026B2E7AA461BF498
:104ED80080715AF8040BBDD01BF400711ABFC0B220
:104EE800614680B2B6E72BF0060295B20DF1180BB9
:104EF80054E725F01105ADB2BB468CE70D46B8E77F
:104F08003B460D4603F1020BBBE7DDF804B082E730
:104F1800567500084F750008CDE904324146029BDA
:104F2800202098470028FFF613AF049B059A013309
:104F38009945F1DCA4EB0B01CC189B460AB3029B04
:104F48004146302098470028FFF602AF8EB9013459
:104F58002744019B391B994224DC1D465DBB019AFD
:104F6800A9EB0B09224455461446914435E0019FAC
:104F780092E7023441463046029B98470028E7DA18
:104F8800E6E640F206410D42E2D015F0020F14BFEA
:104F98002B20202015F4806F04F10104414618BF2E
:104FA8002D20E9E7029B414630209847002804F16C
:104FB8000104CEDACCE606AB013D4146585D029BC2
:104FC80098470028CADAC3E6029B41462020984742
:104FD800002804F10104FFF6BBAEA9EB0403002B83
:104FE800F2DCBFE570472DE9784105460C46EFF342
:104FF800058343B900F07CFA28B12846214650269B
:1050080003DFBDE8788128462146BDE8784100F0F5
:10501800DABF00EBC100408840087047F8B5034686
:10502800FFF7F7FFB0FA80F0CA000C468DB2C0F166
:105038001F00171D063203EB800CDCF8106056B910
:10504800012101FA00F0D9680143D960CCF8104079
:10505800DD539D52F8BDF1000431585AD85303EB83
:10506800C0009E52C5805D52F4E710B500EBC10444
:10507800E388994202F104010AD1012303FA02F2FA
:10508800C36823EA0203C360002340F8213010BD3F
:10509800A28840F8213000EBC20100EBC300CB80AE
:1050A8008280F4E708B50346FFF7B3FFB0FA80F251
:1050B8001846C2F11F02BDE80840FFF7D6BF2DE928
:1050C800F843B1FA81F503460E46C5F11F0900EB16
:1050D8008908D8F81020C2B10327D8F8104018461C
:1050E8002146FFF796FFB04206D34A461846FFF717
:1050F800BCFF2046BDE8F88303EBC404013FE08809
:10510800C8F8100001D08242E7D1C5F120024FF063
:10511800FF349440DA681440EBD094FAA4F2B2FA5F
:1051280082F2111D53F821402146DFE738B50346C6
:10513800FFF76FFF04460D4618461146FFF769FF53
:10514800044403EBC505600068801846FFF761FF5B
:10515800014423F8314038BD38B50C460346FFF703
:1051680058FF511AA51A03EBC4040544480060808F
:1051780003EBC2006C004480184623F83210114635
:10518800FFF747FF014423F8315038BD38B50546CD
:105198000C46FFF73EFF014405EBC1035B88DA07C5
:1051A8000AD42846FFF77EFF21462846FFF731FF3D
:1051B80022182846FFF7BAFF35F83410611A05EBB4
:1051C800C1035B88DB070CD42846FFF76BFF35F873
:1051D800341022462846611AFFF7A8FF35F8343004
:1051E800E41A21462846BDE83840FFF717BF61B1E9
:1051F80000680439091A21F00703C90803445A88CA
:1052080022F001025A80FFF7C1BF704770B50568E8
:1052180009B9002070BD01F00703CC0828460B33FC
:1052280004EBD304AB689C4228BF1C462146FFF719
:1052380046FF06460028ECD001462846FFF7E9FE5F
:10524800A04207D932192846FFF786FF284611469B
:10525800FFF7E4FE05EBC6025388104643F001034E
:1052680004305380D6E71146FFF7D0BF043A2DE942
:10527800F041CC1D11444FF0000824F0070421F040
:1052880007010E1B0460414604F11000F708C4F83A
:105298000C80B7FA87F2A760C2F12405C2F1200298
:1052A800AD009200073501F05FF9A4F800802046B0
:1052B800ED086B0004EBC50243F0010363807B1B20
:1052C80059005180A21924F835502946A2F80280C5
:1052D800A35304EBC7035A8842F001025A80BDE881
:1052E800F041FFF79BBEF0B4D0E90032D1E9005499
:1052F800002A16DA002C08DA5F424FF0004666EB07
:105308000206BD4274EB06061ADB5B1942EB040287
:10531800C0E9003283688A6813448360F0BCFBF7F5
:10532800A1BA53EA0206F0D0012D74F10006ECDBB5
:10533800DE43AE426FF00046A6EB0206A641E3E765
:105348000020F0BC7047EFF305830BB900F0D0B82C
:10535800002070472DE9784105460C46FFF7F3FF1A
:1053680028B928462146BDE8784100F02CBE2846D9
:105378002146502603DFBDE878812DE94741FFF734
:10538800E2FF20B903B0BDE8404100F0B3BE684673
:105398006E2603DFDDE9000103B0BDE8408100208F
:1053A80070472DE97841044600F114050669EFF3CA
:1053B800058353B900F09CF838B131462846542685
:1053C80003DF00232361BDE8788131462846FBF7D7
:1053D800B3FBF6E70B69CA18013310B5202B044656
:1053E800084614750B6101D1FFF7DBFF204610BD9D
:1053F8000FB407B504A951F8040B0191FBF7AAFBF8
:1054080003B05DF804EB04B070472DE9F041154690
:105418001C46FAF7D5FEC0B183790E2B15D18668E4
:105428009EB1EFF305834BB900F062F830B1304616
:10543800294622462A2603DFBDE8F0812A4623466C
:105448003046BDE8F041FDF71DBE6FF01500F3E7EB
:105458002DE95041FAF7B4FEB0B183790E2B13D180
:1054680084688CB1E3687BB1EFF305833BB900F046
:105478003FF820B120462B2603DFBDE850812046A7
:10548800BDE85041FDF796BE6FF01500F5E770478F
:10549800012801D1EFF30583FDF76ABC38B504464E
:1054A800056800F025F820B12368023B022B28BFCD
:1054B800032521462846BDE83840FFF7E9BF00B577
:1054C80089B0044600212022684601F04DF8E368BF
:1054D800694603200693FDF74BFC08B5FBF71CFC57
:1054E800BDE80840FBF7CCBC00210120FFF7D0BF86
:1054F800EFF3148000F00100704761B662B680F3E4
:105508001188BFF36F8F704772B6002383F3118839
:10551800BFF36F8FBFF34F8F30BF62B6BFF36F8F8C
:10552800704708B5FCF7D4F8023808BDFCF7DEB8B8
:10553800202809D9B0F1004F08D80138B0FA80F016
:10554800C0F11F0040007047082070473E20704798
:105558002DE9784104460D46EFF305834BB9FFF773
:10556800C7FF30B120462946972603DF0020BDE853
:10557800788129462046FCF735FAF7E7012088406C
:10558800704700F003020F2304329200934043EA6D
:105598009000C3B2020C9B0092FAA2F203F180437E
:1055A800B2FA82F203F59C33914010B59C6824EA64
:1055B80010400143996010BD0B8882B0C3F30B0300
:1055C80003F57D62C2F30B02782A14D803F18043F5
:1055D800486803F50E331A68024300201A600B88E6
:1055E800C3F30B0303F1804303F50E331B680193E8
:1055F800019B02B070476FF08500FAE70B88C3F390
:105608000B0303F57D62C2F30B02782A0AD803F173
:1056180080434968002003F50E331A6822EA010224
:105628001A6070476FF0850070470138082809D85C
:1056380040F27513C34013F0010F14BF00206FF040
:10564800850070476FF08500704710B50888C0F373
:105658000B00FFF7EAFF00281FDB4A68FF2A1BD070
:1056680093B2C2F38454C2F3054203F1804304FAAF
:1056780002F203F50E33186820EA02021A6049683C
:105688008BB2CA0EC1F3054103F180438A4003F58A
:105698000E33186802431A60002010BD0888C0F352
:1056A8000B0008B500F57D63C3F30B03782B0AD80C
:1056B80000F180404B6800F50E300268934314BF38
:1056C8000120022008BDFFF7B0FF002814BF012009
:1056D8000220F7E77047436800205B681B690B608E
:1056E800704743685B68586942400A40424000205E
:1056F8005A617047436800205B6899617047436846
:10570800090400205B6899617047436800205A6863
:1057180053694B405361704710B503699868F8B1F5
:10572800884219D1DC680868A142986000D1D86025
:10573800002008602AB19A680A60DA68996002B99C
:10574800D960002010E0814206D108682060D8683E
:105758008142EDD1DC60EBE7044600680028F2D115
:10576800002AE8D16FF0150010BDF0B5446801209B
:105778001E46C2F38013676888408B404FF0030EC3
:1057880027EA000702F030053B43202D90FAA0F7E6
:10579800B7FA87F76360D4F808C0C2F3C1134FEAB9
:1057A8004707C2F341220EFA07F72CEA070C90FAD2
:1057B800A0F7B7FA87F74FEA470703FA07F343EA70
:1057C8000C03A36090FAA0F3B3FA83F3E7684FEAF7
:1057D80043030EFA03F327EA030790FAA0F3B3FA98
:1057E80083F34FEA430302FA03F242EA0702E26054
:1057F80016D107292BD8226A90FAA0F32BB3B3FA53
:1058080083F39B000F2101FA03F322EA030290FAC3
:10581800A0F3B3FA83F39B0006FA03F3134323625E
:1058280090FAA0F3B3FA83F3032190FAA0F05B0097
:10583800B0FA80F022682D0901FA03F3400022EA49
:10584800030385401D432560F0BD2B46D9E7030AB5
:10585800616A93FAA3F282B1B2FA82F292000F2738
:1058680093FAA3F3B3FA83F307FA02F29B0021EA4F
:1058780002029E4016436662D2E72A46EEE712F419
:10588800003CF8B505460C4613461DD0960714D5BE
:1058980050075DD55022D90611D542F4007203F4A1
:1058A800C061B1F5806F42D0B1F5C06F19D0B1F5C4
:1058B800007F18D142F0800215E01022EBE79F0626
:1058C800EDD542F48062EAE7D60305D5D00605D4C3
:1058D800C2F340129202E2E73022E0E74FF400728E
:1058E800DDE742F4C07213F440372E6908D03069FE
:1058F80020FA04F1C9075FBF0121A14001433161CA
:10590800BCF1000F06D0180314D569680123496853
:10591800A3408B61002321466868FFF726FF27B95B
:10592800336923FA04F2D2070CD40020F8BD42F4FC
:105938008072D8E75903EDD501212846A140FFF729
:10594800DEFEE7E70122A24023EA02033361ECE727
:105958006FF08500EAE770B50B468968054611B116
:105968005E680C6801B970BD8A682A4002D04B682D
:10597800304698471CB1236821461C46F2E7234667
:10598800FAE7F8B51F46044640680E461546FFF785
:10599800ECFE112F07D101212B0501FA06F104D5E0
:1059A80063685B6899610020F8BD2046FFF7A7FE91
:1059B800F9E730B5036813600579046804EBC5049A
:1059C800A34202D36FF0010030BD5C798C4201D054
:1059D8000833F0E70020F7E74368C1F34B1001F004
:1059E8001F011B68C05801238B4003424FF0000081
:1059F80014BF012300231370704710B54368C1F327
:105A08004B1001F01F011A68012384588B4023436F
:105A18008350002010BD10B54368C1F34B14012218
:105A280001F01F0118688A40235823EA0203235013
:105A3800002010BD38B504460D46FFF7DEFF2946A5
:105A48002046FFF7E8FF002038BD37B502690C464D
:105A5800436810681D68D9688368DB6873B101AA58
:105A6800984700280ADB2B6823F400432B60019B2E
:105A780003EB5403B3FBF4F39BB2EB6003B030BD0C
:105A8800B0F5805F07D0B0F1805F09D1002914BF5D
:105A9800012002207047002914BF0320042070470A
:105AA800002914BF02200320704743681B68D86987
:105AB800DA69C0F3C000D107DA6948BF40F00200D4
:105AC8009207DA6948BF40F004005107DA6948BF15
