:020000040800F2
:1000000000340120BD160008737F0008A9160008FF
:10001000A9160008A9160008A9160008000000008B
:100020000000000000000000000000009917000818
:10003000A9160008000000001D1700087D34000804
:10004000AD1A0008AD1A0008AD1A0008AD1A000874
:10005000AD1A0008AD1A0008AD1A0008AD1A000864
:10006000AD1A0008AD1A0008AD1A0008AD1A000854
:10007000AD1A0008AD1A0008AD1A0008AD1A000844
:10008000AD1A0008AD1A0008AD1A0008AD1A000834
:10009000AD1A0008AD1A0008AD1A0008AD1A000824
:1000A000AD1A0008AD1A0008AD1A0008AD1A000814
:1000B000AD1A0008AD1A0008AD1A0008AD1A000804
:1000C000AD1A0008AD1A0008AD1A0008AD1A0008F4
:1000D000AD1A0008AD1A0008AD1A0008AD1A0008E4
:1000E000AD1A0008AD1A0008AD1A0008AD1A0008D4
:1000F000AD1A0008AD1A0008AD1A0008AD1A0008C4
:10010000AD1A0008AD1A0008AD1A0008AD1A0008B3
:10011000AD1A0008AD1A0008AD1A0008AD1A0008A3
:10012000AD1A0008AD1A0008AD1A0008AD1A000893
:10013000AD1A0008AD1A0008AD1A0008AD1A000883
:10014000AD1A0008AD1A0008AD1A0008AD1A000873
:10015000AD1A0008AD1A0008AD1A0008AD1A000863
:10016000AD1A0008AD1A0008AD1A0008AD1A000853
:10017000AD1A0008AD1A0008AD1A0008AD1A000843
:10018000AD1A0008AD1A0008AD1A0008AD1A000833
:10019000AD1A0008AD1A0008AD1A0008AD1A000823
:1001A000AD1A0008AD1A0008AD1A0008AD1A000813
:1001B000AD1A0008AD1A0008AD1A0008AD1A000803
:0801C000AD1A0008AD1A000899
:1001C8000B49C0F307230246C0B231F8133031F8A7
:1001D80010100B44162B08DC0C2006494343C818A2
:1001E800CB589A4218BF002070470020704700BFC4
:1001F80064B30008C4080120F8B506460F46064C4B
:100208001725236813B139462046B047013D04F14C
:100218000C04F6D1F8BD00BFC4080120000000009E
:1002280000000000000000000000000000000000C6
:1002380000000000000000000000000000000000B6
:1002480000000000000000000000000000000000A6
:100258000000000000000000000000000000000096
:100268000000000000000000000000000000000086
:100278000000000000000000000000000000000076
:100288000000000000000000000000000000000066
:100298000000000000000000000000000000000056
:1002A8000000000000000000000000000000000046
:1002B8000000000000000000000000000000000036
:1002C80053B94AB9002908BF00281CBF4FF0FF31B5
:1002D8004FF0FF3000F00CB8ADF1080C6DE904CE1A
:1002E80000F012F8DDF804E0DDE9022304B07047FD
:1002F800704700BF10F8012B11F8013B012A28BFF5
:100308009A42F7D0D01A70472DE9F04786468C46B6
:100318000846089E154674461946002B40F0C280D0
:100328008542B2FA82F245D94AB1C2F1200300FAF5
:1003380002FC2EFA03F3954043EA0C0C94404FEA72
:10034800154EA8B2BCFBFEF8230C0EFB18CC08FB1C
:1003580000F943EA0C43994528D9EB1808F1FF370F
:1003680004D2994502D9A8F102072B44A3EB09034B
:10037800A4B2B3FBFEFC0EFB1C330CFB00F044EAFA
:100388000344A04214D92C190CF1FF3304D2A04223
:1003980002D9ACF102032C44241A43EA07401EB1E7
:1003A800D440002334607360BDE8F0874746DDE73A
:1003B8006346F1E792BB431B01214FEA154EAFB2EA
:1003C800B3FBFEFC200C0EFB1C330CFB07F840EAC9
:1003D8000343984562D9EB180CF1FF3004D29845D5
:1003E80002D9ACF102002B44A3EB0803A4B2B3FB7F
:1003F800FEFC0EFB1C330CFB07F744EA0344A74240
:100408004ED92C190CF1FF3304D2A74202D9ACF112
:1004180002032C44E41B43EA0040C0E7C2F1200376
:1004280020FA03F1954090402EFA03F303434FEA74
:10043800154EAFB2B1FBFEFC0EFB1C10190C0CFBE9
:1004480007F841EA0041884504FA02F422D96918FC
:100458000CF1FF3004D2884502D9ACF102002944DE
:10046800A1EB08019BB2B1FBFEFC0EFB1C110CFBBF
:1004780007F743EA01439F420ED9EB180CF1FF310D
:1004880004D29F4202D9ACF102012B44DB1B41EAA2
:10049800004192E76046E3E76146F7E76046A3E775
:1004A8006346B7E7834206D916B9002108467BE7B9
:1004B800C6E900E0F9E7B3FA83F78FB9834201D3BD
:1004C800724508D8BEEB020460EB030301209C468A
:1004D8001EB9002168E73846FAE7C6E9004CF8E794
:1004E800C7F1200CBB4022FA0CF41C432EFA0CF185
:1004F80020FA0CF3B84001434FEA14490EFA07F505
:10050800B3FBF9F81FFA84FE09FB18300B0C08FB43
:100518000EFA43EA00439A4502FA07F240D9E31873
:1005280008F1FF3004D29A4502D9A8F10200234409
:10053800A3EB0A0389B2B3FBF9F809FB183308FBEC
:100548000EFE41EA03418E452CD9611808F1FF33AC
:1005580004D28E4502D9A8F10203214443EA00409F
:10056800A0FB0298A1EB0E014145CE46434602D3BB
:1005780006D14D4504D2B9EB020E68EB04030138ED
:10058800002EA6D0B5EB0E0261EB030101FA0CFCBC
:1005980022FA07F34CEA0303F940C6E9003198E769
:1005A8004046C5E74346D9E701282DE9F043074609
:1005B8008BB014461E4601F0040802D0042840F00F
:1005C800B6806368002BC0F2B280204600F032FA91
:1005D800002800F0AC8002ADB8F1000F4ED02946DB
:1005E800384600F08BFB284600F0F6FA21462846EC
:1005F80000F098FA5249D4E9003299424FF00403C6
:1006080093412BDADDE90203022873F100023ADB99
:10061800013842F2107243F1FF33A0FB020102FBE2
:100628000311484F07F0BAFB80FB074742A3D3E901
:10063800002320463946FFF743FE424A0023CDE90E
:10064800060120463946FFF73BFE002308920122A7
:1006580006A92846CDE9022300F064FA04983A4A2C
:10066800904213D939494FF429733948394A07F068
:1006780007FC4FF42971374807F0EBFB94E80F00AB
:1006880085E80F00B6E700200146CAE7DDE9024722
:10069800002F40DB54EA07031AD118BB22463B4619
:1006A800684608F0C0F8DDE900893946204607F0B9
:1006B80075FB4B464246684608F0DAF8DDE9004724
:1006C80054EA0703F1D15EBB00200BB0BDE8F0830C
:1006D8004FF0FF336FF000418F4208BF9C4201D1B9
:1006E80090421BD042F210731B4AC117A4FB03456A
:1006F80003FB07570023FFF7E3FD4FF0FF322418F1
:100708006FF0004347EB0107A24273EB0701C5D224
:1007180014461F46C2E700242746BFE71C46FBE7EE
:1007280000230022C6E900230023B360CCE76FF062
:100738001500CAE7AFF3008000CA9A3B000000002A
:1007480008FA824B40420F00FFC99A3BD199000832
:100758006597000833990008A086010008B507F0DE
:10076800DEF9104B1049114A002818BF19461048E5
:1007780006F066FF07F0D3F960B90E4917230E4A51
:100788000E4807F07DFB0E4807F07AFB17210A4850
:1007980007F05FFB4FF0FF304FF0FF31BDE8084036
:1007A80007F0C4B9E2960008ED960008FE96000826
:1007B8001B970008519700083597000865970008AF
:1007C800829700082DE970418FB007F0A8F930B37F
:1007D80000244FF0FF3104231B484FF4006208AD9A
:1007E8005626CDE90A13CDE90844CDE90C4417494A
:1007F800174B03DF07F093F9164B1749174A0028E0
:1008080018BF1946164806F01BFF4FF0FF304FF08F
:10081800FF3107F08BF900200FB0BDE8708100228E
:10082800002300900949CDE906234FF0FF33042245
:10083800CDE90100CDE9033203484FF40062044BCF
:1008480004F020F8D6E700BF180B0120002801208B
:1008580065070008E2960008ED960008FE96000875
:100868001B97000870B50C46002934D002680B1F8E
:100878009B1AD90823F0070313445D88E8070DD4B1
:10088800AF23154A1549164807F0FAFA21461548C4
:1008980007F0F6FAAF21104807F0DBFA104607F028
:1008A80058F9084432F83060801B81420BD0B723D6
:1008B800094A0D490A4807F0E3FA21460B4807F0B0
:1008C800DFFAB721E7E725F0010510465D80BDE8AE
:1008D800704007F0FBB970BDA5970008CD970008D8
:1008E80065970008DE970008169800083C980008ED
:1008F800B2F5802F2DE9F0410ED33C4940F2132385
:100908003B4A3C4807F0BCFA3B4807F0B9FA40F2CA
:100918001321374807F09DFA042A0CD8374940F2CA
:100928001A23334A334807F0ABFA354807F0A8FAD8
:1009380040F21A21EDE7043ACD1D8E1825F007057F
:1009480026F00706761B172E4FEAD6070CD82D4936
:1009580040F22323264A274807F092FA284807F04E
:100968008FFA40F22321D4E7B7FA87F44FF0000852
:100978000560C4F12002C4F12404AF60A400C5F8E6
:100988000C800734E408631CBB420CD91E494FF4A1
:100998000E73174A174807F073FA194807F070FAE8
:1009A8004FF40E71B5E74146920005F1100008F0CA
:1009B80093F8A5F800806300284605EBC40243F0CD
:1009C80001036B803B1B59005180AA1925F834405C
:1009D8002146A2F80280AB5305EBC7035A8842F0C0
:1009E80001025A80BDE8F04107F0B8B878980008CD
:1009F800A5970008659700088E980008A598000834
:100A0800C6980008DF98000808990008064C0749AE
:100A18000748224608B540F2531307F031FA40F26E
:100A28005311204607F015FA339900086999000810
:100A38006597000808B508B9FFF7E8FF8068034B19
:100A480098428CBF0020012008BD00BFFFC99A3B17
:100A580070B558B92C494FF4BF732C4A2C4807F08D
:100A68000FFA4FF4BF71294807F0F3F98268294B50
:100A78009A4220DD0133D0E9001692FBF3F30129F5
:100A88004FEAE37476F100052BDAC91844EB060443
:100A9800C0E90014204901FB03238360FFF7CAFF64
:100AA800F0B91E494FF4DE73184A194807F0E8F9FF
:100AB8004FF4DE71D7E7002AF0DAB2F1004F1BBF1E
:100AC8009B1A17490323B3FBF1F3D0E90041DE1762
:100AD80000290FDA01F100459C42B5410ADA0020ED
:100AE80070BDCD439D426FF00045A5EB0605A541BD
:100AF800CBDAF4E7E41A61EB0601C0E900410849E2
:100B080001FB03228260C9E769990008339900084C
:100B180065970008FFC99A3B003665C4E899000844
:100B280000CA9A3BF8B50D46044610B1FFF782FF9C
:100B380058B925494FF4EA73244A254807F0A0F923
:100B48004FF4EA71214807F084F91DB12846FFF7F0
:100B580071FF48B91F4940F2D5131C4A1C4807F0D9
:100B68008FF940F2D511EDE7D4E90032D5E900015B
:100B7800002A18DA002908DA5F424FF0004666EBCF
:100B88000206B84271EB06061CDB1B18204642EB36
:100B98000102C4E90032A368AA681344A360BDE84F
:100BA800F840FFF755BF53EA0206EED0012871F16D
:100BB8000006EADBDE4386426FF00046A6EB02063B
:100BC8008E41E1E70020F8BD7B99000833990008C1
:100BD80065970008A699000810B50446FFF72AFF94
:100BE80058B9104940F2FF130F48104A07F048F966
:100BF80040F2FF110D4807F02CF9D4E90032B2F1A8
:100C0800004F08BF002B0CD05B42204662EB42022B
:100C1800C4E90032A3685B42A360BDE81040FFF757
:100C280017BF10BDD19900086597000833990008CF
:100C380038B5044640B926495A23264A264807F0BB
:100C48001FF95A21234816E0EFF31185102383F387
:100C58001288BFF36F8F214805F092FB68B988238B
:100C68001F4A20491C4807F00BF91C491E4807F089
:100C780007F988211A4807F0ECF8184805F0A4FB92
:100C88001A4B0FCB84E80F00144805F087FB68B9AE
:100C980040F23113124A16490F4807F0F1F80F498C
:100CA800144807F0EDF840F23111E3E785F31188B5
:100CB800BFF36F8F2046FFF7BDFE38B90E4960239A
:100CC800044A054807F0DCF86021BBE738BD00BFDF
:100CD800259A0008FE99000865970008B80D0120BC
:100CE800379A0008699A00087E9A0008B00B01201C
:100CF800949A0008AB9A0008C09A000801282DE9C8
:100D08005F410C4606D0042831D06FF0150004B0BE
:100D1800BDE8508107F055F842F210720023FFF742
:100D2800CFFA1A4B5A43C4E90001A26007F02FF822
:100D3800C8B168467B2603DF69462046FFF7F2FE06
:100D480018B9134B0FCB84E80F002046FFF772FE4B
:100D5800D0B9104953231048104A07F091F853218D
:100D68000E4807F076F86846FFF762FFE4E707F0F9
:100D780028F842F210720023FFF7A2FA034B5A43F5
:100D8800C4E90001A260E0E70020C0E7A0860100F6
:100D980010920008E899000865970008FE99000875
:100DA80010F1110F10B5044604D9084B9B68D86F91
:100DB80007F0CDF80122102107F000F90028F4D13E
:100DC8002046BDE81040FFF733BF00BFFC0F0120ED
:100DD80010B5054C049AA368DA67FFF7E1FFA3682A
:100DE8000020D86710BD00BFFC0F012001287FB587
:100DF8000D4652D10846FFF71DFE00284DD006F0DB
:100E0800E0FF42F2107200236C46FFF759FA244BB8
:100E18005A43CDE9000120460292FFF7DDFE29463C
:100E28002046FFF77FFEEFF31186102383F3128825
:100E3800BFF36F8F1B4805F0A3FA68B988231A4AD5
:100E48001A491B4807F01CF816491A4807F018F801
:100E58008821154806F0FDFF124805F0B5FA164D31
:100E680094E80F0085E80F000E4805F097FA68B976
:100E780040F231130C4A11490D4807F001F80949AD
:100E88000F4806F0FDFF40F23111E2E786F31188C2
:100E9800BFF36F8F002004B070BD6FF01500FAE744
:100EA800A0860100B80D0120379A0008699A000849
:100EB800659700087E9A0008B00B0120949A0008F4
:100EC800AB9A000811F1110F38B505460C4604D944
:100ED800084B9B68D86F07F03AF80022102120468B
:100EE80007F06CF80028F3D121462846BDE83840C1
:100EF800FFF77CBFFC0F012010B5054C049AA368CE
:100F0800DA67FFF7DFFFA3680022DA6710BD00BFCA
:100F1800FC0F012012F1110F2DE9F04106460F4692
:100F280015461C4604D90F4B9B68D86F07F00FF87D
:100F380000221021284607F041F80028F3D14CB1CF
:100F480014F1110FEFD801221021204607F036F8CE
:100F58000028E8D123462A4639463046BDE8F04104
:100F6800FFF722BBFC0F012070B5054C069EA56853
:100F7800EE67FFF7CFFFA3680022DA6770BD00BFF6
:100F8800FC0F0120014B1B68184700BF40080120D7
:100F9800014B1860704700BF4008012070B5044637
:100FA8004518044EAC4200D170BD336814F8010BEB
:100FB8009847F7E74008012070B504468EB00D4603
:100FC800EFF30586C6B906F0DBFFA8B13422314637
:100FD80001A807F081FD02232A4621468DF8063034
:100FE80001A80D4B029306F03DFB059B13B101A828
:100FF80006F0FBFE0EB070BD1022002101A807F01C
:101008006BFD02232A4621468DF8063001A8034BC2
:10101800029306F027FBEDE7257E00088D0F0008F8
:10102800F8B5104FC842089A0446BB680D46DA67FF
:1010380003D3BB68D86F06F08AFF19B1C3434A1EB1
:101048009342F6D900222946204606F0B7FF064605
:101058000028EED120462946FFF7A0FFBB6830469E
:10106800DE67F8BDFC0F012080B505460F469146A6
:101078009A46EFF30583DBB906F082FFC0B14A2632
:1010880003DF0446DFF8388007F092FD064640F893
:101098000840524649463846A84756F80840EFF3F4
:1010A800058343B906F06CFF28B12046552603DFB7
:1010B80004F078FEE5E7204600F016FBF8E700BFED
:1010C80008000000F8B50D4F1546089A0446BB689D
:1010D8000E46DA67431D05D96FF00C00BB68002285
:1010E800DA67F8BD0122042106F068FF0028F3D171
:1010F80032462B46204606F0D0FEEFE7FC0F0120D3
:1011080038B50B4D0446069AAB68DA67431D05D916
:101118006FF00C00AB680022DA6738BD01220421A9
:1011280006F04CFF0028F3D1204606F0D9FEF1E77F
:10113800FC0F0120034A0020536823F00203536088
:10114800704700BF002004E0064B1A6842F40072A2
:101158001A601A6842F480721A60034B034A1A60D4
:10116800704700BF003C0240640801200024F400DE
:10117800014B0360032070472092000830BFFFF73F
:10118800FDBF00BF2DE9F0410B4E0546DFF82C806E
:10119800324606EB0807CC1B0949204607F08EFCAF
:1011A800A019083C4246002107F096FC07F1080008
:1011B800C5F88440BDE8F08100000000040000008C
:1011C8001092000886461E488068D0F894004FF4B4
:1011D800806C6044EC4680F309880EB52DE9011057
:1011E8001748806800F07CFCBDE80110DCF80000BE
:1011F800DCF804C02DE901106246494007F06CFC98
:10120800BDE801106044BDE80E4080F309887046CF
:1012180003B40B488068D0F8901051F00101EFF347
:10122800148C5CF0010CC0F89010BFF34F8F8CF356
:101238001488BFF36F8F03BCDFF808C06047000055
:10124800FC0F0120711000084FF0A10C664503D176
:10125800EC462DE9305002E0EC462DE93010DFF87D
:1012680058C04FEA8606B444DCF800C0E047DDF811
:1012780010E0DDF80CC08CF3098803B40F488068CF
:10128800D0F8901051F00101C0F89010BFF34F8FC3
:10129800EFF3148C5CF0010C8CF31488BFF36F8FA0
:1012A80003BC4FF000014FF000024FF00003C446AA
:1012B8005CF0010C6047000054940008FC0F01200A
:1012C80037B54FF0FF3301930023C55C1DB18B4246
:1012D80001D00133F9E71846002101910199116005
:1012E80003B030BD054B5A699B689A4204D0044A42
:1012F800536843F080535360704700BFFC0F0120D0
:1013080000ED00E0134B9A6A12F0007F9A6A14BF4E
:101318001E201D2012F0807F9A6A18BF1F2012F429
:10132800002F9A6A18BF212012F4802F9A6A18BFDA
:10133800222012F4003F9A6A18BF232012F4803F3B
:101348009A6A6FEA024218BF24206FEA12429A6230
:10135800704700BF00ED00E0F8B5374B164605466C
:101368009A6A12F0100F9A6A14BF1124102412F00E
:10137800080F9A6A18BF122497070AD5586B9A6AF9
:10138800140641D519B19A6A22F080029A62132490
:1013980001E06FF01500284B9A6A12F0010F9A6A63
:1013A80018BF142412F0200F9A6A18BF1524D1060A
:1013B80002D49B6A9A070AD51F4F7B681B0506D57E
:1013C800294600F00DFB10B380F3098802241A4B5C
:1013D8009A6A920603D55A6A22F400525A629A6AA5
:1013E80042F0FF029A62154BAA6923F00103934267
:1013F8001FD8134B23F0010393421AD9114BAB6149
:10140800012320463370F8BD6FF01500BFE7BB6AB3
:10141800D906DCD50C494FF492730C4A0C4806F0F7
:101428002FFD0C4806F02CFD4FF49271074806F08A
:1014380010FD0023E5E700BF00ED00E0D31200082F
:10144800D5120008E5120008489B0008119B000807
:1014580065970008929B0008204B30B50446986AAF
:101468009D6A10F4805F14BF1720162015F4006FD2
:101478009D6A18BF1820AD0509D5986B986A0004B5
:1014880004D519B1996A21F4004199621920134BC6
:10149800996A11F4806F996A18BF1A20C90519D47E
:1014A8009B6A13F4005F18BF1C200C498B6A43F435
:1014B8007F438B620A4BA16923F001038B420BD84F
:1014C800084B23F001038B4206D9074BA361012384
:1014D800137030BD1B20E8E70023F9E700ED00E0BA
:1014E800D3120008D5120008E51200085E4BF0B5CB
:1014F8005B688BB004460025C3F3080385F31188A5
:10150800BFF36F8F02F07F40B0F17F4F08D102F038
:101518000C00082804D012074CBF0C46012574B9EA
:10152800524940F21143524A524806F0A9FC524827
:1015380006F0A6FC40F211414D4806F08AFC002254
:10154800033B8DF80720032B00F28680DFE803F0C9
:10155800027C805F444AD36A13F002037CD1D16ACB
:1015680000291ADBD36A5B0061D55369A16943F48A
:1015780080735361BFF34F8FBFF36F8F536931F897
:10158800021C23F480735361BFF34F8FBFF36F8F37
:101598004DF60273994220D123689DF80720D2B9ED
:1015A80002AE04F120072068083454F8041C3246BF
:1015B800BC4203C21646F6D1099A002D4ED0C2F39A
:1015C800080121B96FEA52226FEA4222099202A960
:1015D800184606F0A5FC0BB0F0BD936ADBB23BB130
:1015E8000DF1070201212046FFF7B6FE0346D4E7B6
:1015F800936A13F47F4F06D00DF1070201212046AC
:10160800FFF72AFFF2E7936AB3F5803F02D3FFF7AB
:1016180079FEEBE7194940F2EA23154A154806F026
:101628002FFC174806F02CFC40F2EA2184E7134906
:1016380040F2ED230E4A0F4806F022FC114806F04E
:101648001FFC40F2ED2177E70DF107020021CAE700
:101658000DF107020021D2E700239EE722F4FF7272
:1016680022F00102B2E700BF00ED00E0B59B0008E0
:10167800119B000865970008C89B000800A4000893
:10168800069C00082A9C0008044B5A6942F0100284
:101698005A615A6922F008025A61704700ED00E069
:1016A800EFF30880EFF3098101B57246FFF71EFFDB
:1016B80001BD00BF0A4880F30888102080F3118814
:1016C80008484FF40461401880F30988EFF3148048
:1016D8000221084380F31488BFF36F8F00F00EF9DE
:1016E8000034012000180120084B9B6883420BD16D
:1016F800EFF3058343B1064B5A6842F080525A60B3
:101708005A6A22F400425A6204F05ABBFC0F0120C4
:1017180000ED00E01B498A684FF030001044EFF3F9
:10172800098C80E8F01F102080F31288BFF36F8FB8
:10173800154F4FF000664A698A603E60D2F884000F
:10174800124C2060D2F888000023C2F8883080F359
:10175800118804B5104600F0C3F9BDE80440D2F87A
:101768009000EFF3148323F0010343EA000383F3AB
:101778001488BFF36F8F02F1300090E8F01F8CF3EC
:1017880009887047FC0F012004ED00E000080120E3
:101798001EF0040F0CBFEFF30880EFF30980816996
:1017A80011F8021CEFF31482032909D012F0010F7B
:1017B80001D10229FFD001B5724606F0B7FB01BD81
:1017C800DFF894C0DCF808C0DCF894C00CF5806C35
:1017D8004FF02008ACF1080CACEB080CF0B404B4E2
:1017E80002464244C16911F4007F03D031F400710C
:1017F80002F10402CCF800204CF80820CCF81C10A8
:1018080001466246F0C9F0C230C930C208F1040886
:101818004CF808501149CCF818108169884604BC66
:10182800F0BC8CF309884FF0A20C664502D3066021
:101838004FF0A10608488068D0F8901021F0010107
:10184800C0F89010BFF34F8F22F0010282F3148882
:10185800BFF36F8F70470000FC0F01205112000882
:1018680040B2002807DB0123410900F01F00024AAB
:10187800834042F82130704700E100E038B54B1C46
:1018880004460D460F2B0FD96B23104A10491148F7
:1018980006F0F6FA294610480F23224606F0F0FA19
:1018A8006B210A4806F0D5FA40B21B010028DBB2CA
:1018B80006DB00F1604000F5614080F8003338BD78
:1018C80000F00F00054A1354F9E700BF5A9C0008BE
:1018D800969C000865970008B19C000814ED00E08C
:1018E800044B054A23F07F039360BFF34F8FBFF388
:1018F8006F8F70470000000800ED00E008B5FFF7A3
:10190800EFFF0B4AD2F8883023F47003C2F888300E
:10191800EFF3148323F0040383F31488BFF36F8F6A
:1019280002F014F904F058FD00F0B0F802F076F96E
:1019380000ED00E00E4C9A468846914683B5A368B0
:101948000746986F05F026FDA56840304A466C6E3C
:1019580041462E6EAB6E4034403EC5F894006C662E
:10196800E41A2E6653463846CDE90064FFF72AFC90
:10197800FC0F012070B50446084615461E4606F0C1
:10198800C0FE28B1236E40332366636E403B636616
:10199800227BA5F12003104912F0040F0F4A45F8E5
:1019A800206C18BF0A4622F0010245F8082C049A58
:1019B80045F81C2C059A45F8182C069A45F8142C5D
:1019C8004FF0807245F8042C23650023C4F8883052
:1019D800C4E9243370BD00BF3D1900087110000828
:1019E800164A034610B5946824B3D4F8940098B105
:1019F800EFF3148212F001020CD113F1160F05D087
:101A0800A0F140049C4217D8984215D9884298BF43
:101A1800002010BDA06FF9E713F1160F226E05D054
:101A2800A2F140049C42F4D89342F2D2914238BFCA
:101A38001046EEE72046ECE71046EAE7FC0F0120E7
:101A480015460D4A0E4608B50C4B9060D0F8842018
:101A58001A6000F045F82C4686F309880020044BEC
:101A680098472046002100220023024C204700000E
:101A7800937F000871100008FC0F01200008012066
:101A8800014B10221A61704700ED00E00023044862
:101A98001021C2180133622B82F80013F9D1704764
:101AA80000E100E008B5EFF30583064A103B02EBBE
:101AB800C30152F8330049688847BDE80840FFF77A
:101AC80011BC00BF8C8E0008024B0121024A03485A
:101AD80000F082B9000005200000012050920008A3
:101AE800F8B5426F0546002A44D092F8C80002F1C2
:101AF800C00C0023494C4FF00C0E5168F1B1112B6A
:101B08000ED947494FF48173464A474806F0B8F959
:101B1800464806F0B5F94FF48171424806F099F944
:101B28000EFB03F617680133013804EB0601A751D1
:101B38005668DBB24E6096688E6002D00C329445CF
:101B4800DBD1D5F894203548FAB1AE6F112BD5E921
:101B580018120A44A2EB06020ED931494FF48C73CD
:101B6800304A314806F08CF9304806F089F94FF4CC
:101B78008C71D2E71346E4E70C215943013344182A
:101B8800DBB2465062602A4AA260D5F8944094B10C
:101B9800403C284DAC4222D240F23913214A264912
:101BA800214806F06DF921462A46244806F068F9CE
:101BB80040F23911B1E72C6EAA6F403CA2420ED018
:101BC8004FF4A273174A1E49174806F059F92146DF
:101BD800AA6F1C4806F054F94FF4A2719DE7112B27
:101BE8000CD90F494FF4A5730E4A0F4806F048F96F
:101BF8000E4806F045F94FF4A5718EE70C225A43BA
:101C0800811884504020104AC1E90102591C034838
:101C1800C9B2BDE8F84000F01DB900BFBC0D0120F5
:101C28002A9D0008F19C0008659700084C9D000853
:101C380000000B13003401207A9D0008AD9D0008B8
:101C4800EA9D0008169E000800000B15084AC2F815
:101C580098000B6823F01F03034343F01003C2F8F6
:101C68009C308B6843F00103C2F8A030704700BF76
:101C780000ED00E01FB50B6802460193D1E90103AE
:101C880006F09EF903430393084BD3F89030C3F34F
:101C98000723013B9A4206D801A91046FFF7D6FF51
:101CA80005B05DF804FB6FF01500F9E700ED00E002
:101CB800044B0522C3F89420BFF34F8FBFF36F8FF7
:101CC800704700BF00ED00E0BFF35F8F024B0022BA
:101CD800C3F89420704700BF00ED00E0044B054AAC
:101CE800D3F890301078C3F30723181A704700BF51
:101CF80000ED00E0081101202DE9F0410346EFF363
:101D0800118C102686F31288BFF36F8F314CD4F8EC
:101D18009000C0F307200138451C05D18CF31188C9
:101D2800BFF36F8FBDE8F081EFF3118786F3128858
:101D3800BFF36F8FC4F89800D4F8A05087F31188C8
:101D4800BFF36F8FEF07E6D5EFF3118786F312889D
:101D5800BFF36F8FC4F89800D4F89C50D4F8A080D3
:101D680087F31188BFF36F8F71B34F1EDF19D2D27B
:101D780025F01F05AB42CED3C8F344084FF0010E3F
:101D8800013D08F101080EFA08FE7544BD42C2D3B0
:101D9800EFF31181102383F31288BFF36F8F0D4B7C
:101DA800C3F89800D3F8A03081F31188BFF36F8F80
:101DB800180EC3F302634AB1DE1E70427041B0FAD6
:101DC80080F040094042A9E70F46CFE700F0020043
:101DD800F5E700BF00ED00E0F8B5194E0D460446E2
:101DE80000273378AF4203DB3370163307D0F8BDD2
:101DF80062680AB3511E0A4211D0EA2333704FF4C5
:101E0800BB73104A1049114806F03AF829461048A1
:101E180006F036F84FF4BB710A4806F01AF81F2A84
:101E2800EBD922681142E8D12146D8B2FFF722FF48
:101E380010F1160FE1D0431C01370C34D2E700BF74
:101E480008110120509E000800A4000865970008AA
:101E5800D49E00081B4B70B50D461B78044600261F
:101E6800AE420BDB13F1160F1BD017490020D1F837
:101E78009020C2F3072293420DDB70BD62683AB12D
:101E88002146D8B2FFF7F6FE10F1160F09D0431C11
:101E980001360C34E4E7C1F898300133C1F8A000EA
:101EA800E5E740F29513094A09490A4805F0E8FFB1
:101EB8002946094805F0E4FF40F29511034805F06A
:101EC800C8FF00BF0811012000ED00E0509E000887
:101ED80000A4000865970008009F00082DE9F04F4E
:101EE8006D4E85B06D4CD6F890302568C3F3072346
:101EF8009D4213D940F2AD13694A6A496A4805F010
:101F0800BFFFD6F8902029466848C2F3072205F09B
:101F1800B7FF40F2AD11624805F09BFF00200C2688
:101F2800FFF7D2FE85421DD1614C6846614F25708E
:101F3800FFF71EF900250646DFF85C81DFF8789187
:101F4800AE4216D1237800205349D1F89020C2F32D
:101F580007229342C0F29A800020FFF7A9FE05B03D
:101F6800BDE8F08F616806FB0011FFF76FFE0130D6
:101F7800D8E7009A290102EB0513D3F80CA00AEA66
:101F88000700B0F5000F64D00AD8B0F5001F3AD0AA
:101F9800B0F5800F50D0B0F5801F12D00135CFE7D3
:101FA800B0F1807F60D0B0F1007FF7D1D3F804A002
:101FB8005258986806F004F840F48020CDE901A250
:101FC8000BE0986805F0FCFF40F08850D3F804A0B7
:101FD800525840F43020CDE901A20390D8F890304F
:101FE8002078C3F30723013B984248D92D4940F292
:101FF800D7132B4A2C4805F043FF304805F040FF23
:1020080040F2D71187E7986805F0DAFFD3F804B0F3
:10201800525840EA09001AF0010F0390CDE901B2C5
:10202800DCD027497B231E4A1F4805F029FF254895
:1020380005F026FF7B216EE7986805F0C1FFD3F80D
:1020480004A0525840F0C060CDE901A240F400302D
:10205800C3E7D3F804A05258986805F0B1FF40F0E0
:102068008270CDE901A2B8E7D3F804A05258986865
:1020780005F0A6FF40F08870CDE901A2ADE701A9FF
:10208800FFF7E4FD23780133237087E7C1F8983020
:102098000133C1F8A00058E700ED00E05C920008A9
:1020A800509E000800A40008659700082D9F0008AE
:1020B800081101200000F0FF00000811B69F000879
:1020C800619F0008879F0008024808B506F08BFC4E
:1020D800002008BDB008012008B5024B1B689847CE
:1020E800002008BD2408012010B5054C049AA368F7
:1020F800DA67FFF7F1FFA3680022DA6710BD00BFB7
:10210800FC0F0120034B044A1860937843F0020344
:102118009370704724080120140801200C23012122
:1021280010B5013B0A464FEA4101FAD10A48B2F517
:10213800006F20F4FF6121F0070101F5006409D167
:102148000130844288BF4FF480620448FEF7D0FB18
:10215800002010BD1946F8E7FF0701202C080120D0
:102168002DE9F041054600244FF001080E4E0F4FAF
:102178002B7871691A19D2B208FA02F201EA020040
:102188008A4309D153FA84F3706157F833201AB19E
:1021980007EBC3035968904701346A78E3B29A425F
:1021A800E6D2BDE8F08100BF003C0140940E01205A
:1021B800044B18440023013300F8012B9942FADC40
:1021C800704700BF8008012007B5062201210020C2
:1021D800FFF7EEFF002206201146FFF74FFB012113
:1021E80007220846FFF7E4FF002207201146FFF701
:1021F80045FB082201210220FFF7DAFF0022082010
:102208001146FFF73BFB092201210320FFF7D0FF0E
:10221800002209201146FFF731FB0A220121042080
:10222800FFF7C6FF00220A201146FFF727FB05210A
:1022380017220846FFF7BCFF002217201146FFF7B8
:102248001DFB282206210A20FFF7B2FF00222820C2
:102258001146FFF713FB4FF4804344220648CDE9AB
:10226800002383681B6823B16946984703B05DF86B
:1022780004FB6FF05700F9E78C8C000808B503469B
:1022880030B1B0FA80F2C2F11F02D2B20F2A0BD9D4
:102298000A4940F20F130A480A4A05F0F1FD40F2D4
:1022A8000F11084805F0D5FD07498856074A1168F7
:1022B8000B431360BDE80840FFF7D2BA36A0000808
:1022C80065970008EF9F000880080120003C014046
:1022D800024A136823EA000313607047003C014078
:1022E80008B5174B03291ED8DFE801F0020B0E16BC
:1022F8009A6822EA00029A60DA6822EA0002DA6042
:1023080008BD9A680243F6E7DA680243DA609A6819
:1023180022EA00029A60F3E79A6802439A60DA6850
:102328001043D860ECE707494FF4AB730648074AF7
:1023380005F0A6FD4FF4AB71044805F08AFD00BF17
:10234800003C014000A4000865970008EF9F0008C2
:1023580030B5B0B1B0FA80F3C3F11F03DBB20B485C
:1023680050F833408C4204D100EBC3056D689542A8
:1023780005D044B940F8331000EBC3004260002098
:1023880030BDFF23EBE76FF00F00F9E7940E012053
:1023980060B1B0FA80F3C3F11F03DBB2044A002135
:1023A80042F8331002EBC30251607047FF23F5E790
:1023B800940E012000F003020F2304329200934090
:1023C800074A43EA9000C3B2023352F82320030CB1
:1023D80093FAA3F302EA1040B3FA83F3D8407047A4
:1023E8000038014038B5284B14460D4618680B884C
:1023F800C3F30B02092A1DD0072A134611D8CAB104
:10240800931E052B06D8DFE803F0360336341E2862
:102418004FF4FA4020602B68B3F5805F2DD200207E
:1024280038BD402A0DD008D822F00402302AF1D055
:10243800382BEFD06FF08500F2E7442A0BD0A82A9A
:10244800F7E78008E6E700F0B5F81923B0FBF3F0EA
:102458004FF4D87358434008DCE700F0ABF8192371
:10246800B0FBF3F04FF4D87358430923B0FBF3F0F3
:10247800D0E70648CEE70020CCE7C3F31333013397
:10248800B0FBF3F02060CAE76408012040787D01C2
:1024980070B5444D00F0C2F8434C284605F062FE82
:1024A80001F01CF9A368414AC3F30313D35C20FA73
:1024B80003F613781D41AE4202D2284601F03CF9DA
:1024C800236823F480232360236843F48033236044
:1024D800354B1A689103FCD55A6F42F001025A67CE
:1024E8005A6F9207FCD59A6802F00C02082A17D195
:1024F8001A68940707D41A6842F001021A602A4A37
:1025080013689807FCD5284B9A6822F003029A6052
:102518009A6812F00C0FFBD19A6822F0F0029A60C8
:10252800214C236823F08073236023689901FCD42D
:10253800636823F440336360636823F0706343F097
:102548001063636000F03AF8236843F080732360F7
:10255800154B1A689201FCD59A6822F0F0029A602D
:102568009A6822F0030242F002029A609A6802F026
:102578000C02082AFAD1AE4202D3284601F0DCF850
:102588000B4B0020074A1A60074A936823F4E0536C
:1025980043F4A0539360936823F4604343F40043E7
:1025A800936070BD00E6DF0C003802404BA80008BD
:1025B800640801200048704740787D01114B12499A
:1025C8005A681140114A0A4311495A605A68114021
:1025D800104A0A435A601A6842F080721A60A3F5DA
:1025E800E4331A6842F480321A605A68D203FCD580
:1025F8001A6842F400321A60074A53689B03FCD5F4
:10260800704700BF003802400080BCFF196C4000D2
:102618000080BFF0196C400900700040064B82B082
:102628001A6C42F080521A641B6C03F080530193B9
:10263800019B02B0704700BF0038024008B5074848
:1026480005F0C3FF38B10648FFF75CFD0448FEF704
:102658009FFC002008BD6FF01200FBE76C8E00089D
:102668006D2600080A2838B50446074D04D1AB6822
:102678000D2128465B689847AB68E1B202485B6861
:102688009847204638BD00BF6C8E000810B5036916
:1026980061B920493F23204A204805F0F1FB204832
:1026A80005F0EEFB3F211C4805F0D3FB486850B904
:1026B8001C494023184A194805F0E2FB1A4805F05E
:1026C800DFFB4021EFE79868F8B1884219D1DC6850
:1026D8000868A142986000D1D860002008602AB13B
:1026E8009A680A60DA68996002B9D960002010E037
:1026F800814206D108682060D8688142EDD1DC604B
:10270800EBE7044600680028F2D1002AE8D16FF010
:10271800150010BDBEA000087DA000086597000840
:10272800C7A00008D6A00008E8A000082DE9F843D3
:10273800D0F804801746D0F810900D46D8F8080055
:102748001E4605F063FCB7F5001F044616D1D8F8FD
:1027580008402846FFF72EFE84420CD1294605F092
:1027680055FC0446FFF7B4FD2046FFF711FE002193
:102778002046FFF7B5FD0020BDE8F883B7F5800FC8
:1027880020D0B6F1806F19D0B6F1C06F18D0B6F16D
:10279800007F1AD102264A460F492046FFF7D8FD86
:1027A800B0B9D8F80810284605F033FC2046314661
:1027B800FFF796FD2046FFF761FDDCE70126EAE713
:1027C8000326E8E76FF08500D6E76FF01500D3E73A
:1027D8006FF00F00D0E700BFE527000870B5D1E91A
:1027E8000161054609B10C6801B970BD8A682A40C3
:1027F80010D04B6863B90B4964230B4A0B4805F0AA
:102808003FFB0B4805F03CFB6421074805F021FB22
:10281800304698471CB1236821461C46E4E7234606
:10282800FAE700BFFFA000087DA000086597000830
:10283800E8A0000838B50369044658600A4D2846E0
:1028480005F0C3FE60B1AB6861681B680C3123B149
:102858002846984700EAE07038BD6FF05700F9E75E
:102868006FF01200F8E700BF8C8C0008F8B5544FE1
:102878001446089ACEB2BB680546DA67FDF7A0FC95
:102888000022112104F0DAFD10B9A9680B681BB900
:10289800BB68D86F05F05BFB14F0FC6FD5F804E05B
:1028A800D5F810C00ED047494FF47873464A4748C8
:1028B80005F0E6FA464805F0E3FA4FF47871424825
:1028C80005F0C7FA04F03003302B0CD1414940F22F
:1028D800E3333D4A3D4805F0D3FA3F4805F0D0FAC6
:1028E80040F2E331EBE73D4B3D4A234093420CD1A4
:1028F8003C4940F2E733344A344805F0C1FA3A48D3
:1029080005F0BEFA40F2E731D9E704F00603042BDC
:1029180009D1364940F2EA332B4A2C4805F0B0FA7F
:1029280040F2EA31CBE714F4402316D0A2030CD4CA
:102938002F4940F2ED33244A244805F0A1FA2D48E6
:1029480005F09EFA40F2ED31B9E7B3F5402F19D002
:10295800294BA34301D184F440240120DEF8003040
:1029680024F48012B040184219D1244940F2FD33B2
:10297800154A164805F084FA214805F081FA40F214
:10298800FD319CE71F4940F2F1330F4A0F4805F02B
:1029980077FA1D4805F074FA40F2F1318FE7DCF858
:1029A8000030E4074CBF034383432846CCF800308B
:1029B8000B6831469847BB680022DA67F8BD00BF4C
:1029C800FC0F0120DBA10008A5A1000865970008FD
:1029D8004AA200086EA20008A7A20008020003008D
:1029E80002000100E4A2000831A3000880A3000847
:1029F800B3A3000802A4000801001000B6A4000850
:102A0800F4A400083DA400088AA40008F8B5134FF0
:102A18000D46089A0446BB68DA67FDF7D1FB002229
:102A2800112104F00BFD10B9A3685B681BB9BB68E2
:102A3800D86F05F08CFA6B1DF9D8012204212846BD
:102A480005F0BCFA06460028F1D1A36829462046BD
:102A58005B689847BB68DE67F8BD00BFFC0F0120C4
:102A68002DE9F0410E4E9046089A0F46B368054688
:102A7800DA67FDF7A5FB0022112104F0DFFC04460C
:102A880010B9AB689B681BB9B368D86F05F05FFADB
:102A98004246394628469847B368DC67BDE8F08166
:102AA800FC0F0120F8B50D4E0F46089A0546B3688D
:102AB800DA67FDF785FB0022112104F0BFFC04460C
:102AC80010B9AB68DB681BB9B368D86F05F03FFA7B
:102AD800394628469847B368DC67F8BDFC0F0120E3
:102AE800F8B50D4E0F46089A0546B368DA67FDF744
:102AF80067FB0022112104F0A1FC044610B9AB6861
:102B08001B691BB9B368D86F05F021FA3946284606
:102B18009847B368DC67F8BDFC0F0120F8B50D4E87
:102B28000F46089A0546B368DA67FDF749FB0022A5
:102B3800112104F083FC044610B9AB685B691BB92A
:102B4800B368D86F05F003FA394628469847B36842
:102B5800DC67F8BDFC0F01202DE9F041424F144617
:102B6800089ACEB2BB680546DA67FDF729FB002252
:102B7800112104F063FC28B9AB68D3F81880B8F1C8
:102B8800000F03D1BB68D86F05F0E1F904F4C00366
:102B980069682A69B3F5C00F0ED1344940F27B3316
:102BA800334A344805F06CF9334805F069F940F2C6
:102BB8007B312F4805F04DF963B9304940F27F3336
:102BC8002B4A2C4805F05CF92D4805F059F940F2DC
:102BD8007F31EEE704F0E863B3F1C86F0CD12949FF
:102BE80040F28233224A234805F04AF9264805F084
:102BF80047F940F28231DCE704F0C863B3F5800F8F
:102C08000CD1224940F28F33194A1A4805F038F995
:102C18001F4805F035F940F28F31CAE701230968EA
:102C2800B3400B420CD11B494FF46573104A11484D
:102C380005F026F9184805F023F94FF46571B8E74F
:102C4800210204D51268134218BF84F0C064134BE4
:102C580004F0B072314628462340C047BB680022C2
:102C6800DA67BDE8F08100BFFC0F012006A5000867
:102C7800A5A100086597000853A500087FA50008CE
:102C8800AFA50008DAA500086DA60008C1A60008CF
:102C980028A70008B6A40008F4A40008400000060D
:102CA80070B50C4E0546069AB368DA67FDF788FAE0
:102CB8000022112104F0C2FB044610B9AB681B6A5C
:102CC8001BB9B368D86F05F042F928469847B3682E
:102CD800DC6770BDFC0F01202DE9F047044600EBCE
:102CE800C1060025244FB44201D1002014E0206819
:102CF800C30600F01F0811D4656845F02005C0F32D
:102D0800481AC0F34420102832D857F82090B9F157
:102D1800000F1CD16FF01200BDE8F087B8F1100F5A
:102D280013D0B8F1110F01D16568E8E7B8F1000FC9
:102D3800E5D112494FF4A7731148124A05F0A0F8DB
:102D48004FF4A7710F4805F084F83025D7E74846B7
:102D580005F03BFC0028DDD043462A460AF00F0167
:102D6800484605F017FB002804F10804BBDAD3E74E
:102D78006FF01500D0E700BF5C930008A5A7000816
:102D8800659700086DA7000837B502690D464368C6
:102D980010681C68D9688368DB68F3B101AA984792
:102DA80000281ADB236823F400432360019B03EB0C
:102DB8005503B3FBF5F39BB2E360E3680F2B0CD824
:102DC8000749E223074A084805F05AF8074805F07A
:102DD80057F8E221034805F03CF803B030BD00BFC6
:102DE80002A80008CEA700086597000817A80008E1
:102DF800F8B50C46036941685D682379012B15D045
:102E08009F1E7E427E41B6026279022A96BF444FD7
:102E18004FF4005737F81270A279022A09D0042A11
:102E28002FD0003B18BF01231B0306E04FF4C066F8
:102E3800EAE7B3FA83F35B091B07E2790968012A19
:102E480014BF4FF0000C4FF4407CA5421CD10A6817
:102E580022F0805222F4B05232431A430A604B687F
:102E680023F440533B434B6043681A68936823F448
:102E7800407343EA0C0393602968BDE8F840FFF704
:102E880083BF4FF48053D8E7D1F800E00EF4C06E4A
:102E9800764506D0D1F800E02EF4C06E4EEA06065C
:102EA8000E6041680E68716801F440518F4204D089
:102EB800716821F440513943716041680E68316886
:102EC80001F010218B4204D0316821F010210B430E
:102ED8003360436819688B6803F440739C4505D0D8
:102EE8008B6823F4407343EA0C038B6043681B68C8
:102EF8009968490405D5032A09D09A6822F48042C2
:102F080004E0032A03D19A6842F480429A60216857
:102F18002B68994203D0FFF737FF23682B60F8BD71
:102F2800DC960008F7B506464468056953482860EA
:102F380005F04BFB002800F097802868E16883685B
:102F48001B68002B00F0948098470028C0F28E8000
:102F580001AA0021206A05F035FA0028C0F286800F
:102F6800019B002219791868FFF7B6FE00287DDB5F
:102F7800756833692C685F68236823F00103236050
:102F8800686805F022FB00286ED0D5E90101836846
:102F9800DB6803B1984754E8003F43F00C0344E86A
:102FA8000032002AF7D139463046FFF721FF2B7D42
:102FB8001BB1A36843F00803A3606B7D1BB1636872
:102FC80043F400436360AB7D1BB1636843F4803313
:102FD8006360EB7D1BB1636843F4003363602B7E51
:102FE800002B38D0264B9C421BD0A3F54C439C4267
:102FF80017D003F580639C4213D003F580639C428D
:103008000FD003F580639C420BD003F544439C42E8
:1030180007D0A3F51C439C4203D003F580639C4270
:1030280029D173681A68936843F4804393602368CE
:103038006A7E23F0787343EA425323602368AA7EAA
:1030480023F4F81343EA02432360EB7E1BB1A36821
:1030580043F40043A360236843F001032360E3695A
:103068009B02FCD5002001E06FF0120003B0F0BD18
:103078006FF05700FAE76FF01500F7E78C8C00083F
:1030880000100140F8B5436802460E4691F805E085
:103098001C68036908795D6801288B791ED1BEF127
:1030A800020F72D9022B1F464FF4C0614FF4005C27
:1030B80000F08380042B7BD020B1C31E012B79D96B
:1030C8004FF48050BCF5805F00F08180BCF5405F14
:1030D8007FD0BCF1000F1CD101231BE002280AD1CC
:1030E800BEF1020F5DD9022B1F464FF480610BD051
:1030F8004FF4005CDEE7BEF1020F55D9022B1F46E4
:1031080054D100285FD00021C31E012B52D90020C2
:103118000227032373454DD105F0A0F9B84249D1E0
:10312800F37903B3012B56D12C4B9C421BD0A3F54A
:103138004C439C4217D003F580639C4213D003F59F
:1031480080639C420FD003F580639C420BD003F54B
:1031580044439C4207D0A3F51C439C4203D003F58B
:1031680080639C4226D123683146104623F0010330
:103178002360FFF73DFE236843F00103236096E8D0
:10318800030085E803000020F8BD4FF4C061144F28
:10319800022B37F81EC01F468CD170B94FF08050F3
:1031A80090E74FF48061F2E70021F0E700219FE704
:1031B800002885D06FF08500E6E7C31E012BF9D9FA
:1031C800022700207EE701464FF08050A1E7002348
:1031D800A0E702239EE7032BA6D0EBE700100140EF
:1031E800DC96000870B50C4E0546069AB368DA6797
:1031F800FCF7E6FF00225E2104F020F9044610B92E
:10320800AB689B681BB9B368D86F04F0A0FE28466A
:103218009847B368DC6770BDFC0F012070B5154E88
:103228000D46069A0446B368DA67FCF7C9FF002220
:103238005E2104F003F910B9A3681B681BB9B368D1
:10324800D86F04F084FE6B1CF9D001222846114681
:1032580004F0B4FE0028F2D1A3681B6833B12946F4
:1032680020469847B3680022DA6770BD6FF05700B0
:10327800F8E700BFFC0F012070B5114C0D46069A07
:103288000646A368DA67FCF79BFF00225E2104F07C
:10329800D5F810B9B3681B681BB9A368D86F04F0D8
:1032A80056FEEB1CF9D801220221284604F086FEBE
:1032B8000028F2D1A368D8676FF0850070BD00BF01
:1032C800FC0F0120F8B50E4ECFB2089A0546B36838
:1032D800DA67FCF775FF00225E2104F0AFF80446B8
:1032E80010B9AB685B681BB9B368D86F04F02FFEE0
:1032F800284639469847B3682046DC67F8BD00BFC2
:10330800FC0F012038B50B4C0546069AA368DA670E
:10331800FCF756FF00225E2104F090F818B9A9685E
:10332800A268496819B9A368D86F04F010FED0677D
:1033380038BD00BFFC0F012070B5154E0D46069A2A
:103348000446B368DA67FCF73BFF00225E2104F00D
:1033580075F810B9A3681B691BB9B368D86F04F076
:10336800F6FD15F1090FF8D801220821284604F0C6
:1033780025FE0028F1D1A3681B6933B129462046F0
:103388009847B3680022DA6770BD6FF05700F8E716
:10339800FC0F012070B5154E0D46069A0446B36819
:1033A800DA67FCF70DFF00225E2104F047F80246B9
:1033B80010B9A3681B691BB9B368D86F04F0C7FDBF
:1033C80015F1090FF8D80821284604F0F7FD002860
:1033D800F2D1A368DB6833B1294620469847B36821
:1033E8000022DA6770BD6FF05700F8E7FC0F012084
:1033F8004FF0E0230F4910B59C691A6908689B696A
:1034080002F480320C4934B993B903464AB90A68C0
:103418001044C01A10BD002B08BF03460AB9A342C6
:10342800F5D90A6802440A604FF0E0221269EEE713
:103438000446F3E7F40F0120F00F01200A4B102295
:10344800002083F8232045F26042084B1A6045F2B9
:103458005F42074B18604FF0E0235A6198611A6980
:1034680042F007021A61704700ED00E0F40F0120F6
:10347800F00F0120684620F007018D4619B5FFF7C7
:10348800B7FF1149114B0868D3E90042001942F10E
:103498000002C3E900020E4A00230B6045F26043B4
:1034A800D2E90041001BB0FBF3F043431B1941F183
:1034B8000001C2E9003103F0EBF9FDF713FFBDE8A5
:1034C80019408546704700BFF00F0120C80B012046
:1034D800C00B01202DE9F041DFF82C8199B1421C85
:1034E8000BD14FF0E022136923F0010313614FF071
:1034F8007F43C8F80030BDE8F081D8F800500128B3
:1035080007DC00270BE0431CD8F80050F7D140F245
:103518000730B0F5427FA8BF4FF44270471EEFF363
:103528001184102383F31288BFF36F8F374802F09A
:1035380027FF68B98823364A3649374804F0A0FC83
:103548003249364804F09CFC8821314804F081FC5B
:103558002E4802F039FF324EFFF74AFF4FF0E023C2
:103568009969D6E9002380184FF0000243F100035F
:10357800C6E900032B4B1A602B4B1A68831A3BD4FD
:1035880045F2604C0CFB073303F5A8435F33B3FBEC
:10359800FCF7131A40F246520CFB0733934238BF2C
:1035A8001346224A934228BF13464FF0E022C8F838
:1035B8000030013B90695361002381429361A1EB84
:1035C8000003124838BF5B19D6E900125B1842F1B4
:1035D8000002C6E9003202F0E1FE80B940F2311380
:1035E8000B4A13490C4804F04BFC0849114804F0F5
:1035F80047FC40F23111A8E740F24653D5E784F37F
:103608001188BFF36F8F76E7F40F0120F80F0120C0
:10361800379A0008699A0008659700087E9A00089A
:10362800C80B0120F00F0120C00B0120A06EFF0085
:10363800949A0008AB9A000838B5EFF31185102367
:1036480083F31288BFF36F8F1B4802F099FE68B9A5
:1036580088231A4A1A491B4804F012FC16491A48CA
:1036680004F00EFC8821154804F0F3FB124802F020
:10367800ABFE164B1C68164B1B68E41AFFF7B8FE26
:1036880004440D4802F08AFE68B940F231130B4A2F
:1036980010490C4804F0F4FB07490F4804F0F0FB0C
:1036A80040F23111DFE785F31188BFF36F8F45F2E0
:1036B8006040B4FBF0F038BDF80F0120379A0008DD
:1036C800699A0008659700087E9A0008C80B0120CF
:1036D800C00B0120949A0008AB9A0008134908B55A
:1036E8008B6803F00C03042B1BD0082B1BD14A68F2
:1036F8004B68496802F03F0213F48003C1F3881154
:103708001ABF0B4800230B48A1FB0001FCF7D8FDAA
:10371800064B5B68C3F3014301335B00B0FBF3F076
:1037280008BD0348FCE70348FAE700BF0038024039
:1037380040787D010024F40000285DD02F4B1A68E2
:103748001B6802F44042B2F5404F33D113F4803382
:1037580010D102F10F6202F58C52904248D8284AE3
:10376800904247D8274A904235D8274A904209D9EB
:1037780002230DE0254B984238D8234B98424FF04E
:10378800060305D8224A904202D9012B38BF0123EB
:1037980020490A6822F00F021A430A600A6802F0F8
:1037A8000F02934202D00A6802F00F02981A18BF5B
:1037B8000120704703F44043B3F5004F05D103F1EE
:1037C8000F6303F5A343984212D80D4B984211D8C2
:1037D8000C4B984201D90323DAE70B4B9842C7D820
:1037E8000B4B984294BF00230123D1E70723CFE76F
:1037F8000523CDE70423CBE7012070470070004084
:10380800000E2707804A5D05008793038058840CC3
:1038180080C3C901003C024038B50C4C0C4DAC4289
:1038280011D90C4919230C4A0C4804F029FB0C48FF
:1038380004F026FB1921084804F00BFB204620342D
:1038480005F0DAF8EBE7F9D338BD00BF8C8C000837
:103858008C8E000883A800085BA8000865970008FC
:103868009BA8000870B50446E0B1037833B3144D43
:10387800144EB5421FD914492823144A144804F099
:10388800FFFA144804F0FCFA2821104804F0E1FA81
:1038980029688C4208D1284604F097FE002814BFF6
:1038A8002C460024204670BD2046FCF723FD002846
:1038B800F1D02035DDE7EBD30024F3E71C46F1E730
:1038C8008C8C00088C8E000883A800085BA8000870
:1038D800659700089BA8000810B50A4C8CB00146F3
:1038E800109A6846A368DA67302205F0B3F838B949
:1038F8006846FFF7B7FFA3680022DA670CB010BD6F
:103908000020F8E7FC0F012038B50B4C0546069A55
:10391800A368DA67FCF754FC0122002103F08EFD4E
:10392800024618B1A368D86F04F011FB284604F0CA
:103938004CFEA368DA6738BDFC0F012070B50B4D4B
:103948000646069AAB68DA67FCF73AFC01220021C2
:1039580003F074FD044618B1AB68D86F04F0F7FAA9
:10396800304604F03DFEAB68DC6770BDFC0F0120FB
:1039780070B50446EFF31186102383F31288BFF362
:103988006F8F0E4B9D6804F04BFE042C0CD10C4934
:1039980087230C4A0C4804F073FA0C4804F070FAB8
:1039A8008721084804F055FA86F31188BFF36F8F12
:1039B8002846BDE87040FDF797BE00BFFC0F012008
:1039C800E1A80008BAA8000865970008FEA8000842
:1039D80038B50A4B53F82040013053F82050A5421F
:1039E80000D838BD606830B1037FDB0701D404F02C
:1039F8001AFE0834F3E723689847FAE73C9400086E
:103A0800464B01220320F0B5454C87B0454D1A704E
:103A1800FFF7DEFF03F04AFD0420FFF7D9FFAC42B1
:103A2800264628D940494223404A414804F028FA0A
:103A3800404804F025FA42213C4804F00AFA54F8B8
:103A48000C3C059354F8103C049354F8143C03932D
:103A580054F8183C029354F81C3C019354F8203C49
:103A6800009354E90A2354E90C0100F03DFE54F890
:103A7800303C5E65D3E7AE4204F13004DFD32E4C10
:103A88002E4FBC4216D92E495323284A284804F001
:103A9800F7F9284804F0F4F95321CDE7216804F038
:103AA80097FF6368985904360028F7D10834E8E787
:103AB8000026F6E7FCD31A4C01F0AAFD214EAC42D1
:103AC8001FD919496623194A194804F0D9F9194820
:103AD80004F0D6F96621AFE7D4E90A23B3F1FF3F32
:103AE80008BFB2F1FF3F05D052EA0301206803D1B5
:103AF80002F0E4F83034E2E73146183002F0E6FC30
:103B0800F8E7E9D301F0F6FDFCF75CFE0E4A137BFB
:103B180023F00103137307B0F0BD00BF09110120A2
:103B2800AC910008AC91000859A9000833A9000815
:103B3800659700089BA800089C9100089C910008C4
:103B480086A9000893870008680C01200648002110
:103B5800064A08B5121A04F07DFD0548054A0021F9
:103B6800121A04F077FD08BD180B01200C11012072
:103B7800000000200000002070B50B4D0646069A94
:103B8800AB68DA67FCF71CFB0122002103F056FC46
:103B9800044618B1AB68D86F04F0D9F9304604F080
:103BA8005DFDAB68DC6770BDFC0F012070B5982324
:103BB800154E86B0012203FB00660023134D044610
:103BC80001931349CDE904230F22CDE902321423CE
:103BD8004FF4A07203FB00554FF4C0700D4B00FB6F
:103BE80004113046009500F07FFD737B0A4A23F0EC
:103BF8000403EE602C7473734FF4046304FB033303
:103C080013446B6006B070BDD00B0120FC0F01207F
:103C180040200120ED3C000800180120BFB500201D
:103C2800FFF7D6FE274B83F30888274D0024F0239F
:103C3800264F85F82230EC772C766C76AC7685F8B2
:103C480020406B6A43F4E0236B62FDF71DFDFDF72E
:103C580017FF4FF0FF33AB62EB62FEF73FF91C4DE5
:103C6800FDF732FF1B4800F041FFFFF7D5FDFDF7D8
:103C78006BFA0120FFF7ACFE0220FFF7A9FE01F066
:103C8800C9FD154B15494FF480625D612846144BF8
:103C9800009405930123CDE90144CDE903433B4654
:103CA80000F022FD6A7B0646284622F004026A7369
:103CB80001F09AF82046FFF779FF3A463146284640
:103CC800FDF7BEFE4020012000ED00E0093A0008A3
:103CD800680C0120000D0120FC0F0120003001209C
:103CE800ABA9000808B50D4B9B6893F90E30002B63
:103CF80009DB1024EFF3118384F31288BFF36F8F6D
:103D080004F04AF9F6E706491C230648064A04F077
:103D1800B7F81C21044804F09CF800BFFC0F0120F0
:103D2800D6A9000865970008B0A9000870B50B4D22
:103D38000646069AAB68DA67FCF742FA01220321C5
:103D480003F07CFB044618B1AB68D86F04F0FFF8A9
:103D5800304604F094FCAB68DC6770BDFC0F0120B2
:103D68002DE9F341044617461E46EFF3058565B174
:103D780058496F23584A594804F082F8584804F0C3
:103D88007FF86F21544804F064F8EFF3118810238A
:103D980083F31288BFF36F8F524802F0F1FA60B9CB
:103DA8008823514A51494D4804F06AF84D49504812
:103DB80004F066F888214C48E5E74A4802F004FB1D
:103DC800E3684C4A9BB1A0689168884229D057EAB9
:103DD80006032ED1434802F0E1FAA0B188F3118816
:103DE800BFF36F8F6FF00F0002B0BDE8F0819168EC
:103DF80091F90E1001333B482161E3609368A36099
:103E080002F0CCFA78B940F23113374A3A493348CC
:103E180004F036F83349394804F032F840F23111E9
:103E2800C9E72169E6E788F31188BFF36F8F00209F
:103E3800DAE791F90E106FF07E0290F90E30994290
:103E4800A8BF19469142B8BF11468B4202DD04F063
:103E58000EFC0546224641462248CDE9007601F08F
:103E6800B3F90028E3D0EFF31186102383F3128807
:103E7800BFF36F8F1B4802F083FA002890D01948CF
:103E880002F0A2FAA068C0B1236821699C420AD056
:103E98004BB193F90E309942A8BF19466FF07E03D3
:103EA8009942B8BF194604F0E2FB30B131460D48DB
:103EB80001F0E6FA6FF00A0096E7002DF6D10948FE
:103EC80002F06CFA00289ED086F31188BFF36F8F3A
:103ED800F0E700BF25AA0008FEA9000865970008BA
:103EE80037AA00081C100120379A0008699A0008B0
:103EF8007E9A0008FC0F0120949A0008AB9A0008EB
:103F08002DE9F0410D4D1746089A8846AB680646DC
:103F1800DA67FCF755F90022032103F08FFA04460B
:103F280018B1AB68D86F04F012F83B4642463046E9
:103F3800FFF716FFAB68DC67BDE8F081FC0F0120D6
:103F4800F8B50546EFF3058363B15549D723554ABC
:103F5800554803F095FF554803F092FFD721514883
:103F680003F077FF8368002B00F09380504A926833
:103F7800934240F09180C3683BB94E49EF23494AC8
:103F8800494803F07DFFEF21E9E7012B03D0013B0E
:103F9800C3600020F8BDEFF31187102484F3128862
:103FA800BFF36F8F444802F0EBF960B98823434AA6
:103FB80043493D4803F064FF3F49424803F060FF2E
:103FC80088213E48CCE73C4802F0FEF92969A868F8
:103FD80004F04DFBEFF3118384F31288BFF36F8F66
:103FE80083F31188BFF36F8F5BB93749A623374A2C
:103FF8002D4803F045FF364803F042FFA621334819
:10400800AEE72C68A54215D100232B48C5E9023339
:1040180002F0C4F9002837D140F23113274A2D495C
:10402800214803F02DFF24492B4803F029FF40F2D3
:104038003111C6E7002CE7D0A3683BB927498F2385
:10404800224A194803F01CFF8F21D8E7D4E900322F
:10405800002604F1180013605A60637BA66023F001
:104068000203C4E90066637302F00CFBAC6094F9C8
:104078000E3020462B61C4F88C6000F0B5FE39463E
:104088000D4801F0FDF984E787F31188BFF36F8FBE
:104098007FE76FF015007DE74FF0FF307AE700BF4C
:1040A80025AA0008FEA900086597000837AA000895
:1040B800FC0F01205CAA00081C100120379A000898
:1040C800699A00087E9A0008A3AA000873AA000843
:1040D800BBAA0008949A0008AB9A0008BEAA000878
:1040E80070B50B4D0646069AAB68DA67FCF768F8B8
:1040F8000022032103F0A2F9044618B1AB68D86F77
:1041080003F025FF3046FFF71BFFAB68DC6770BD87
:10411800FC0F012008B583684BB90B498F230B4866
:104128000B4A03F0ADFE8F21094803F092FED0E957
:10413800003213605A600023427B836022F002023F
:10414800C0E90033427308BDBEAA0008659700089D
:1041580073AA00082DE9F04704460D4691469A4691
:104168009DF8206000F10807EFF31188102383F30E
:104178001288BFF36F8F384602F002F960B98823BE
:104188004A4A4B494B4803F07BFE39464A4803F0FC
:1041980077FE882145481BE0384602F015F906B13C
:1041A8006568EFF31183102282F31288BFF36F8FD3
:1041B80083F31188BFF36F8F63B94049A623404A40
:1041C8003C4803F05DFE3F4803F05AFEA6213C48F8
:1041D80003F03FFE234653F80C6F9E4216D0AEB153
:1041E80030460024FFF796FF06F1180002F04AFA5D
:1041F8003046C6F88C40C6F8109000F0F5FD4146F0
:10420800384601F03DF92046BDE8F087BAF1000FC5
:1042180014D0082002F0DAFC00283FD00122C0F8B0
:1042280004900260016801F003015DB922680A4345
:104238000260626820606AB960600BE04846C9F8AD
:1042480000A0EFE72A68032A1DD801606168A1B9B8
:10425800C4E900000024384602F0A0F808BB40F288
:104268003113124A1849134803F00AFE3946174811
:1042780003F006FE40F231118CE70A6802F00302EF
:1042880002430A60D8E722F003020A4302602A6860
:1042980002F0030240EA02032B60DBE76FF00B0435
:1042A800D9E788F31188BFF36F8FACE7379A000816
:1042B800699A0008659700087E9A0008A3AA000872
:1042C80073AA0008BBAA0008949A0008AB9A0008D1
:1042D80070B50C4D0646069AAB68DA67FBF770FFB7
:1042E8004FF0FF32052103F0A9F8044618B1AB6876
:1042F800D86F03F02CFE304604F0D7F9AB6820469F
:10430800DC6770BDFC0F0120F8B5044600F1080514
:10431800EFF31186102787F31288BFF36F8F2846B3
:1043280002F02EF860B988232B4A2C492C4803F058
:10433800A7FD29462B4803F0A3FD8821264818E04D
:10434800284602F041F8EFF3118387F31288BFF390
:104358006F8F83F31188BFF36F8F63B92249A62348
:10436800224A1F4803F08CFD214803F089FDA6214D
:104378001E4803F06EFD204650F80C4F844214D0BE
:104388009CB12046FFF7C6FE04F1180002F07AF946
:1043980000232046C4F88C30236100F025FD314607
:1043A8002846BDE8F84001F06BB8284601F0F6FF52
:1043B80068B940F23113084A0E49094803F060FD14
:1043C80029460D4803F05CFD40F23111B6E786F34B
:1043D8001188BFF36F8FF8BD379A0008699A0008F3
:1043E800659700087E9A0008A3AA000873AA000827
:1043F800BBAA0008949A0008AB9A000870B50C4D47
:104408000646069AAB68DA67FBF7DAFE0022052152
:1044180003F014F8044618B1AB68D86F03F097FDA1
:104428003046FFF771FFAB682046DC6770BD00BF00
:10443800FC0F0120F8B50C4D0F46089A0646AB68EC
:10444800DA67FBF7BDFE0022052102F0F7FF0446FC
:1044580018B1AB68D86F03F07AFD3946304604F0DE
:104468002EF9AB68DC67F8BDFC0F0120F8B50C4DE0
:104478000F46089A0646AB68DA67FBF7A1FE0022EA
:10448800052102F0DBFF044618B1AB68D86F03F0D2
:104498005EFD3946304604F01CF9AB68DC67F8BDB0
:1044A800FC0F01202DE9F743064690461F4600F110
:1044B8000805EFF31189102383F31288BFF36F8F78
:1044C800284601F05DFF68B98823244A2449254815
:1044D80003F0D6FC2946244803F0D2FC88211F4863
:1044E80003F0B7FC284601F06FFF3468F4B1236885
:1044F80020467268012123F003039442336008BF09
:10450800736004F0C6F80446284601F047FFE8B98E
:1045180040F23113114A1549124803F0B1FC2946FB
:10452800134803F0ADFC40F23111D8E758EA07030D
:10453800EAD006F10C0249462846CDE9008700F08A
:1045480043FE38B90B4B9B681C6903E089F311885B
:10455800BFF36F8F204603B0BDE8F083379A000899
:10456800699A0008659700087E9A0008949A0008DE
:10457800AB9A0008FC0F01202DE9F0410D4D1746BC
:10458800089A8846AB680646DA67FBF719FE0022E8
:10459800052102F053FF044618B1AB68D86F03F049
:1045A800D6FC3B4642463046FFF77CFFAB68DC67EB
:1045B800BDE8F081FC0F012038B50B4C0546069A82
:1045C800A368DA67FBF7FCFD0022052102F036FF3D
:1045D80018B1A368D86F03F0BAFC2B68A268D0673B
:1045E800B3FA83F0400938BDFC0F012070B50B4DBC
:1045F8000646069AAB68DA67FBF7E2FD002205215A
:1046080002F01CFF044618B1AB68D86F03F09FFC9A
:10461800304604F068F8AB68DC6770BDFC0F012019
:1046280070B50B4D0646069AAB68DA67FBF7C8FD0E
:104638000022052102F002FF044618B1AB68D86FCA
:1046480003F085FC304604F052F8AB68DC6770BDB7
:10465800FC0F0120EFF305833BB9054B9B68D88914
:104668007F288CBF0020012070470020704700BFC2
:10467800FC0F012008B5044B9A68049BD367FFF729
:10468800E9FF0023D36708BDFC0F012038B50B4CA8
:104698000546069AA368DA67FBF792FD002209210E
:1046A80002F0CCFE034618B1A368D86F03F04FFCA4
:1046B800A26895F90E00D36738BD00BFFC0F012032
:1046C800034B00226FF057009B68DA67704700BF02
:1046D800FC0F0120034B00226FF057009B68DA673C
:1046E800704700BFFC0F01202DE9F04F85B005464B
:1046F8000E4614461F46DDE911B8BBF10F0F18D15D
:10470800584B9F4219D118F0040F29D0304603F0B6
:10471800F8FF28BB40F21523534A5449544803F084
:10472800AFFB29463246534803F0AAFB40F2152155
:1047380013E00BF110031E2BE5D940F205234A4A7A
:104748004D494B4803F09CFB59466FF00F030E226E
:104758004A4803F095FB40F20521434803F079FBF2
:1047680028464FF0000904F047F9304604F044F9B0
:10477800AE67C5F87C902846294604F029F94FF021
:10478800040A05F158033046C5F8089085F80C80EE
:1047980085F80DA085F80EB085F80F90C5E9163399
:1047A800C5E9069903F0ADFF002848D0022C44D98A
:1047B800631E0124B3FA83F3C3F1200304FA03F35D
:1047C8005A1EB2FA82F2C2F1200294402344013BFD
:1047D800B246B3FBF4F35C43A14634442846214671
:1047E800FCF7D0FC0730109B314620F00700244E20
:1047F800A866241A28462246C5E918A902930F9BE1
:1048080001930E9B00933B46FDF7B4F800236B65BC
:10481800B36863B1284602F0A9FC18F0080F03D06A
:104828002946B06802F0E4FDB368D3F8803020462A
:10483800C5F8803005B0BDE8F08F6300C7E70734DE
:1048480024F007047F3424F03F043F2C05D880F37C
:104858001188BFF36F8F504602DF06F1400AA4F1BA
:104868004009BAE7ED3C0008D5AA0008AEAB00083D
:1048780065970008F1AB0008FDAA00087DAB0008A9
:10488800FC0F0120F0B587B00446DDE91276EFF39E
:10489800058575B1194940F29223194A194803F060
:1048A800EFFA194803F0ECFA40F29221144803F0A9
:1048B800D0FA0595109D04950F9D03950E9D0295C0
:1048C8000D9D01950C9D0095FFF70EFFB6F1FF3F7A
:1048D80008BFB7F1FF3F05D056EA070305D12046C8
:1048E80001F0ECF9204607B0F0BD3A46334604F132
:1048F8001800064901F0EAFDF4E700BF25AA000800
:10490800D5AA0008659700081CAC00089387000822
:104918002DE9F04F87B09A460D4616460446149F77
:10492800DDE91698FBF74CFC4FF0FF32092102F045
:1049380085FD274B18B19B68D86F03F008FB284604
:10494800FBF73EFC4FF0FF320B21834602F076FD69
:104958001F4B9B680028EFD1DBF808201268B24291
:10496800EAD37A07E8D517F00102E5D11399103197
:104978001E29E1D893F90E1013988842DCDB139BAB
:10498800294620460393129B0293119B0193109B87
:10499800CDE90472009332465346FFF7A5FEB8F1FD
:1049A800FF3F08BFB9F1FF3F05D058EA090306D118
:1049B800204601F083F9204607B0BDE8F08F4A464B
:1049C800434604F11800034901F080FDF3E700BFF6
:1049D800FC0F0120938700082DE9F04788B0184E96
:1049E80091469A46119C0746B3688846129A14F174
:1049F800190FDA6703D9B368D86F03F0A8FA002251
:104A08001821204603F0DAFA05460028F3D1D4E944
:104A18000032D4E90201D4E904E4CDE90132109B63
:104A28004A46CDE903010093414653463846CDE94D
:104A380006E4FFF76DFFB368DD6708B0BDE8F087EF
:104A4800FC0F0120F8B5134D0C46089A0646AB68D2
:104A5800DA67FBF7B5FB0022092102F0EFFC18B179
:104A6800AB68D86F03F073FA06F1180001F068FE1E
:104A780014F1090F07460E46F2D8012208212046F4
:104A880003F09CFA0028EBD1C4E90076AA68D06745
:104A9800F8BD00BFFC0F0120F8B5134D0C46089A6D
:104AA8000646AB68DA67FBF78BFB0022092102F0A8
:104AB800C5FC18B1AB68D86F03F049FA06F11800C5
:104AC80001F092FE14F1090F07460E46F2D80122B2
:104AD8000821204603F072FA0028EBD1C4E90076D9
:104AE800AA68D067F8BD00BFFC0F012040F201138F
:104AF800054A838100234267C0F88030C0E9183333
:104B0800024B9860704700BF34100120FC0F012051
:104B18000A4A6FF00A019368C3F88C100849C3F871
:104B280088004B6843F080534B60002383F311885F
:104B3800BFF36F8F9368D3F88C007047FC0F012088
:104B480000ED00E038B590F90D200146437B002ABE
:104B580011DA03F07F0343731B4B984209D11B49B9
:104B680056231B481B4A03F08BF95621194803F0BA
:104B780070F903F0CDFD184D2A46AB6852F8184F6E
:104B8800944200D004B9EC688B4214D05BB9134945
:104B9800D523134A0E4803F073F9124803F070F94D
:104BA800D5210F48E3E75A7BD20604D1DA897F2A58
:104BB80001D9A2692AB1A34202D0204601F054FBD0
:104BC80023466B6138BD00BFD00B012068AC0008DC
:104BD8006597000841AC0008FC0F0120BAAC00083A
:104BE80089AC0008BBAA000808B583684BB9094915
:104BF8008F230948094A03F043F98F21074803F036
:104C080028F903F085FD437B23F002034373002357
:104C1800836008BDBEAA00086597000873AA00084B
:104C280070B590F90D20437B002A50DBD9064ED190
:104C380063F07F034373274B984209D126494F23DA
:104C48002648274A03F01CF94F21254803F001F9AB
:104C5800244C2246E16952F8183F934207D1C0E933
:104C680000210860E06111E09942F8D01B68002B30
:104C7800F5D090F90E5093F90E60B542F4D0AE42DB
:104C8800F2DD5968C0E9003108605860A5699542AD
:104C980000D005B9E568A3685BB91349D523134A61
:104CA8000E4803F0EDF8124803F0EAF8D5210F4852
:104CB800CCE75A7BD20604D1DA897F2A01D9AA69BE
:104CC80032B1AB4202D0284601F0CEFA656170BD20
:104CD8006361FCE7D00B012068AC00086597000809
:104CE80041AC0008FC0F0120BAAC000889AC0008F0
:104CF800BBAA000870B590F90D200146437B002A35
:104D0800314C10DA03F07F03A042437309D12F49D5
:104D180056232F4A2F4803F0B3F856212C4803F0A6
:104D280098F803F0F5FC4B7BA14263F07F034B73CB
:104D380007D126494F23264A264803F0A1F84F21D8
:104D4800ECE7254C2246E06952F8183F934207D118
:104D5800C1E900200160E16111E09842F8D01B68C8
:104D6800002BF5D091F90E5093F90E60B542F4D0AE
:104D7800AE42F2DD5868C1E9003001605960A569AA
:104D8800A368954200D005B9E5688B4214D05BB999
:104D98001249D523124A0F4803F072F8114803F05C
:104DA8006FF8D5210E48BAE75A7BD20604D1DA89C2
:104DB8007F2A01D9AA692AB1AB4202D0284601F05C
:104DC80053FA2B46636170BDD00B012068AC000814
:104DD80041AC000865970008FC0F0120BAAC000838
:104DE80089AC0008BBAA000838B50446EFF3118562
:104DF800102383F31288BFF36F8F174801F0C0FAAE
:104E080068B98823154A1649164803F039F8124933
:104E1800154803F035F88821104803F01AF80E48B1
:104E280001F0D2FA2046FFF7FBFE0B4801F0B6FA74
:104E380068B940F23113094A0C490A4803F020F8CE
:104E480005490B4803F01CF840F23111E4E785F3FB
:104E58001188BFF36F8F38BD20100120379A0008E2
:104E6800699A0008659700087E9A0008949A0008D5
:104E7800AB9A0008F8B56C4D0446AE68864259D125
:104E8800EFF30583002B55D1EFF31187102383F33C
:104E98001288BFF36F8F654801F072FA60B98823F2
:104EA800634A6449644802F0EBFF6049634802F0D2
:104EB800E7FF88215E4813E05C4801F085FA737BC0
:104EC80003F07F0343F0100373735D4B9E4209D1D7
:104ED8005C49562358485C4A02F0D2FF56215A488A
:104EE80002F0B7FF304603F013FC2B4653F8184F77
:104EF8009C4200D004B9EC68AB689C4202D02046C2
:104F080001F0B2F949486C6101F048FA68B940F219
:104F18006B13474A4D49484802F0B2FF43494C4891
:104F280002F0AEFF40F26B11C4E73846BDE8F84026
:104F3800FFF7EEBDEFF31186102383F31288BFF35A
:104F48006F8F3A4801F01CFA0028A8D0374801F0C2
:104F58003BFA637BDA0612D5344801F01FFA0028C1
:104F68005DD140F23113324A3849334802F088FFA4
:104F78002E49374802F084FF40F231119AE7D909E7
:104F880043F010023ED16273AF69324B9F4200D0AA
:104F980007B9EF68AB68BB4202D0384601F064F944
:104FA800AB686F619C42D7D1EFF30585002DD3D153
:104FB800237BDB071FD51D4801F0F0F90028D0D06E
:104FC80086F31188BFF36F8F85F31188BFF36F8F56
:104FD8000423184602DFEFF31186102383F31288A7
:104FE800BFF36F8F114801F0CBF900283FF457AF9A
:104FF8000E4801F0E9F90D4801F0D0F9002886D0F3
:10500800304693E703F07F0343F0100363730C4BC0
:105018009C423FF45DAF204603F07AFBB4E786F389
:105028001188BFF36F8FF8BDFC0F012020100120FD
:10503800379A0008699A0008659700087E9A000860
:10504800D00B012068AC000841AC0008949A000815
:10505800AB9A00081410012070B50C4D0646069A4C
:10506800AB68DA67FBF7ACF80022092102F0E6F931
:10507800044618B1AB68D86F02F069FF3046FFF7F5
:10508800F9FEAB682046DC6770BD00BFFC0F01204D
:1050980038B50446EFF31185102383F31288BFF364
:1050A8006F8F184801F06CF968B98823164A1749B8
:1050B800174802F0E5FE1349164802F0E1FE882180
:1050C800114802F0C6FE0F4801F07EF9A36813B13B
:1050D8002046FFF789FD0B4801F060F968B940F2F6
:1050E8003113094A0C490A4802F0CAFE05490B481F
:1050F80002F0C6FE40F23111E2E785F31188BFF3F2
:105108006F8F38BD20100120379A0008699A00086F
:10511800659700087E9A0008949A0008AB9A0008E0
:1051280038B50446EFF31185102383F31288BFF3D3
:105138006F8F1E4801F024F968B988231C4A1D495D
:105148001D4802F09DFE19491C4802F099FE88216D
:10515800174802F07EFE154801F036F9637B13F01C
:10516800280F0BD1A36813B12046FFF73DFD637BE1
:10517800204623F004036373FFF752FD0B4801F048
:105188000DF968B940F23113094A0D490A4802F08D
:1051980077FE06490B4802F073FE40F23111D7E75B
:1051A80085F31188BFF36F8F38BD00BF2010012031
:1051B800379A0008699A0008659700087E9A0008DF
:1051C800949A0008AB9A00082DE9F047DFF8D4A0BC
:1051D8001746354D0446DAF808200E46334BA842E8
:1051E800DDE908981A600BD1314940F27223314841
:1051F800314A02F045FE40F272212F4802F029FEA2
:10520800EFF31183102383F31288BFF36F8F2846BF
:1052180001F0B6F860B98823284A2949254802F0E0
:105228002FFE2946274802F02BFE88212348E5E770
:10523800284601F0C9F8DAF808503946284603F03C
:105248007CFAB8F1FF3F08BFB9F1FF3F06D04A46E4
:1052580043461D4905F1180001F038F9204601F0D0
:105268009DF868B9194940F26B13144A114802F0C5
:1052780007FE2146164802F003FE40F26B11D5E7FF
:10528800094801F08BF840B9104940F26B130B4AFA
:10529800084802F0F5FD0449ECE73046BDE8F04760
:1052A800FFF736BCFC0F012020100120241001203C
:1052B800E1AC00086597000841AC0008379A00087F
:1052C800699A00087E9A000893870008949A000853
:1052D800AB9A00082DE9F04104460D46EFF311871B
:1052E800102383F31288BFF36F8F584801F048F8F2
:1052F80060B98823564A5749574802F0C1FD5349B7
:10530800564802F0BDFD8821514818E04F4801F089
:105318005BF8637B03F01F02002A0CBF01260026FE
:105328005DD103F07F0363734D4B9C4209D14D4916
:10533800562349484C4A02F0A3FD56214A4802F038
:1053480088FD2046DFF8248103F0E2F9637B4246BA
:105358006DB263F07F03A573637352F8183F9342ED
:105368003AD1D8F81C10C4E900210C60C8F81C40D8
:105378000FE09942F7D01B68002BF4D093F90E0088
:105388008542F6D0A842F4DD5968C4E900310C60C2
:105398005C60D8F81840944200D00CB9D8F80C409A
:1053A800D8F808309C4202D0204600F05DFFC8F8CB
:1053B8001440264800F0F2FF00283FD140F2311394
:1053C800234A2B49244802F05BFD2049294802F072
:1053D80057FD40F2311197E7D8F81C10CCE79B072E
:1053E8002AD5A16841B924498F231B48234A02F0D2
:1053F80047FD8F212148A2E76DB2204603F088F9C6
:10540800A5730B68994209D14B68C4E900131C6065
:105418004C60CEE74A689342F6D01B68002BF3D065
:1054280093F90E209542F5D0AA42F3DD5A68C4E9F3
:10543800003214605C60BCE7A573BAE787F3118893
:10544800BFF36F8F3046BDE8F08100BF2010012008
:10545800379A0008699A0008659700087E9A00083C
:10546800D00B012068AC000841AC0008FC0F0120FB
:10547800949A0008AB9A0008BEAA000873AA00080C
:1054880070B504460D46F9B9EFF30586E6B91A4B2F
:105498005A699B689A4217D000F080FF78B940F2A9
:1054A8006B13164A1649174802F0EAFC21461648BB
:1054B80002F0E6FC40F26B11104802F0CAFC3046DC
:1054C800BDE87040FFF724BB204600F067FF68B9CD
:1054D80040F23113094A0A490A4802F0D1FC214630
:1054E800094802F0CDFC40F23111E5E785F3118857
:1054F800BFF36F8F70BD00BFFC0F0120379A000803
:10550800949A000865970008AB9A000838B50446D5
:10551800EFF31185102383F31288BFF36F8F1D48B3
:1055280000F02EFF68B988231B4A1C491C4802F06A
:10553800A7FC18491B4802F0A3FC8821164802F072
:1055480088FC144800F040FF637BDA0616D4114843
:1055580000F024FF68B940F231130F4A124910488D
:1055680002F08EFC0B49114802F08AFC40F231111E
:10557800E4E785F31188BFF36F8F38BD23F010037C
:1055880020466373FFF74CFB29460248BDE83840C4
:10559800FFF776BF20100120379A0008699A0008A3
:1055A800659700087E9A0008949A0008AB9A00084C
:1055B80070B50C4D0646069AAB68DA67FAF700FE36
:1055C8000022092101F03AFF044618B1AB68D86FF0
:1055D80002F0BDFC3046FFF799FFAB682046DC6758
:1055E80070BD00BFFC0F0120034648B9EFF30582E8
:1055F80032B9064A51699268914201D0FFF788BAD8
:1056080083F31188BFF36F8F704700BFFC0F012031
:1056180010B5EFF31184102383F31288BFF36F8F53
:10562800284800F0ADFE60B98823274A2749284852
:1056380002F026FC2349274802F022FC8821224850
:1056480012E0204800F0C0FEEFF3058373B1224951
:1056580040F20633214A1E4802F012FC204802F0AC
:105668000FFC40F206311D4802F0F3FB1D4B9A680F
:10567800D37B012B0CD11C4940F20733174A14483D
:1056880002F0FEFB164802F0FBFB40F20731EAE7A6
:10569800013BD3730B4800F081FE68B940F2311327
:1056A800094A12490A4802F0EBFB0649104802F081
:1056B800E7FB40F23111C2E784F31188BFF36F8F23
:1056C80010BD00BF20100120379A0008699A000811
:1056D800659700087E9A000825AA000841AC0008D2
:1056E800BBAA0008FC0F01201AAD0008949A000814
:1056F800AB9A000870B5EFF31186102383F3128874
:10570800BFF36F8F374800F03BFE60B98823364AF5
:105718003649374802F0B4FB3249364802F0B0FB4C
:105728008821314813E0344D2E4800F04DFEAB6817
:10573800DA7B72B9314940F21233314A2C4802F00F
:105748009FFB304802F09CFB40F212312C4802F0DB
:1057580080FBEFF3058161B12B4940F21333284AEE
:10576800234802F08DFB274802F08AFB40F21331F0
:10577800ECE70132DA732A4652F8184F944200D007
:1057880004B9EC685A7BD20604D1DA897F2A01D998
:10579800A2692AB1A34202D0204600F065FD234643
:1057A80010486B6100F0FAFD68B940F231130E4AF7
:1057B80016490F4802F064FB0A49154802F060FBDD
:1057C80040F23111ADE786F31188BFF36F8FEFF325
:1057D8001180102383F31288BFF36F8FBDE87040E8
:1057E800FFF702BF20100120379A0008699A0008C5
:1057F800659700087E9A0008FC0F01204BAD000851
:1058080041AC0008BBAA000825AA0008949A000821
:10581800AB9A0008024B03F11802C3E9062270474D
:10582800FC0F012001F110031E2B10B50C4612D9F4
:1058380040F2CF33114A1249124802F021FB2146A7
:1058480011486FF00F030E2202F01AFB40F2CF311D
:105858000A4802F0FEFAFFF73DFD70B10B4B9B685A
:10586800DB7B53B9EFF31180102383F31288BFF366
:105878006F8FBDE81040FFF7B7BE10BD41AC000800
:105888007CAD0008659700087DAB0008FC0F01207F
:10589800F8B5124E0C46089A0746B368DA67FAF765
:1058A8008FFC0022092101F0C9FD054618B1B36833
:1058B800D86F02F04CFB0E2CF9DC14F1100FF6DB5C
:1058C80097F90E2063B29A42F1DC38462146FFF779
:1058D800A9FFB3682846DD67F8BD00BFFC0F0120AB
:1058E80070B5EFF31186102383F31288BFF36F8F1F
:1058F8001F4800F045FD68B988231E4A1E491F4805
:1059080002F0BEFA1A491E4802F0BAFA882119486C
:1059180002F09FFA1B4D164800F056FD2B4653F82F
:10592800184F9C4200D004B9EC68AB685BB91649C3
:10593800D523164A114802F0A3FA154802F0A0FA36
:10594800D5211248E4E75A7BD20604D1DA897F2AA6
:1059580001D9A2692AB1A34202D0204600F084FCF2
:10596800234631466B610248BDE87040FFF788BDA9
:1059780020100120379A0008699A000865970008E6
:105988007E9A0008FC0F0120BAAC000889AC000818
:10599800BBAA000810B5054C049AA368DA67FFF79C
:1059A8009FFFA3680020D86710BD00BFFC0F01202F
:1059B80070B5EFF3058373B1394940F22E43394A84
:1059C800394802F05DFA394802F05AFA40F22E419D
:1059D800344802F03EFAEFF31186102383F312885D
:1059E800BFF36F8F324800F0CBFC60B98823314A8F
:1059F80031492D4802F044FA2D49304802F040FA66
:105A080088212C48E5E72E4C294800F0DDFCA168E8
:105A1800E0690B68814214BF1A46002249680B608E
:105A28005960A368E1692AB9264AC3E900210B60D5
:105A3800E3610CE093F90E0092F90E50A84225D0CC
:105A4800854223DD5168C3E900210B605360A569D5
:105A58001C4B9D4200D005B9E568A3689D4202D061
:105A6800284600F001FC1248656100F097FC88B9EF
:105A780040F26B130F4A14490B4802F001FA0C4923
:105A8800124802F0FDF940F26B11BAE78A42CBD016
:105A98001268C8E73046BDE87040FFF739B800BF64
:105AA80025AA000841AC000865970008BBAA0008B1
:105AB80020100120379A0008699A00087E9A000889
:105AC800FC0F012014100120949A0008AB9A0008DA
