:020000040810E2
:10000000C0110030DD061008ED291008C9061008DF
:10001000C9061008C9061008C9061008000000002B
:100020000000000000000000000000009D07100814
:10003000C9061008000000003D0710080518100848
:100040002509100825091008250910082509100898
:100050002509100825091008250910082509100888
:100060002509100825091008250910082509100878
:100070002509100825091008250910082509100868
:1002980008B50349034802F0B3F8002008BD00BFC1
:1002A800263A1008463A1008014B1B68184700BF49
:1002B8000000003030B585B004460D4610220021FC
:1002C800684602F08CFE02238DF802302A46044B61
:1002D80001932146684602F0A5F805B030BD00BF7D
:1002E800B102100880B505460E461746984601F03B
:1002F8001FFE034602F0DEFEDFF81890044649F8B8
:100308000030424630463946A84754F8090000F004
:10031800FBF900BF08000000054B5A6822F00202F2
:100328005A605A6822F001025A600020704700BFE4
:100338000010005C1A4B1B49D3F8D82042F48042C5
:10034800C3F8D820D3F8D82082B002F480420192B2
:10035800019AD1F8002422F47F2222F4706242F438
:100368000142C1F80024D1F8002442F00102C1F88A
:100378000024D3F8E02042F00072C3F8E020D3F85C
:10038800E02002F000720092009AD3F8A0301B0718
:1003980003D4054A1369002BFCDA02B0704700BF8A
:1003A800004402580040024000640258014B0360B8
:1003B800012070477838100830BFFFF7FDBF00BF35
:1003C8002DE9F0410B4EDFF8308006EB0807CC1B17
:1003D800054632460949204602F0F3FDA019424677
:1003E8000021083C02F0FBFD2C6707F10800BDE87E
:1003F800F08100BF00000000040000004C38100825
:10040800054B5A699B689A421FBF044A536843F0D8
:1004180080535360704700BFAC03003000ED00E02C
:1004280070B5264B15469A6A12F0100F9A6A14BFD7
:100438001124102412F0080F9A6A18BF1224920788
:1004480006460AD5586B9A6A140634D519B19A6AC1
:1004580022F080029A62132401E06FF01500174B16
:100468009A6A12F0010F9A6A18BF142412F0200F2A
:100478009A6A18BF1524D20602D49B6A9B070AD52C
:100488000E4B5B68190506D5314600F001FA10B12C
:1004980080F309880224094B9A6A920642BF5A6A75
:1004A80022F400525A629A6A42F0FF029A620023CA
:1004B8002B70204670BD6FF01500CCE700ED00E012
:1004C800134B9A6A12F0007F9A6A14BF1E201D20EF
:1004D80012F0807F9A6A18BF1F2012F4002F9A6AC0
:1004E80018BF212012F4802F9A6A18BF222012F414
:1004F800003F9A6A18BF232012F4803F9A6A6FEA75
:1005080002426FEA12429A6218BF2420704700BF65
:1005180000ED00E010B5194B0246986A9C6A10F489
:10052800805F14BF1720162014F4006F9C6A18BF50
:100538001820A40509D5986B986A000404D51AB147
:100548009A6A22F400429A6219200C4B9A6A12F4B1
:10055800806F9A6A18BF1A20D2050CD49B6A13F4CC
:10056800005F18BF1C20054A936A43F47F439362D7
:1005780000230B7010BD1B20F5E700BF00ED00E065
:10058800F0B5484B5B688BB00446C3F308030025FD
:1005980085F31188BFF36F8F02F07F40B0F17F4F72
:1005A80011D102F00C0008280DD010074CBF0C46E2
:1005B80001250022033B8DF80720032B05D8DFE82F
:1005C80003F0246367602C46F3E700239DF80720B7
:1005D800CAB902AE04F1200720686168324603C236
:1005E8000834BC421646F7D1099A002D54D0C2F3FC
:1005F800080121B96FEA52226FEA4222099202A940
:10060800184602F0E5F90BB0F0BD264BDA6A9107FF
:10061800DBD4DA6A002AD8DBDA6A5200D5D55A69FF
:10062800A16942F480725A61BFF34F8FBFF36F8F95
:100638005A6931F8021C22F480725A61BFF34F8F55
:10064800BFF36F8F4DF6027291420AD09A6AD2B206
:100658004AB10DF1070201212046FFF7E1FE0346EA
:10066800B4E72368B2E79A6A12F47F4F05D00DF118
:1006780007010120FFF74EFFF1E79B6AB3F5803FC2
:10068800A3D3FFF71DFFEAE70DF107020021E3E717
:100698000DF107010020EDE722F4FF7222F00102BC
:1006A800ACE700BF00ED00E0044B5A6942F01002CD
:1006B8005A615A6922F008025A61704700ED00E059
:1006C800EFF30880EFF3098101B57246FFF758FF91
:1006D80001BD00BF0A4880F30888102080F3118804
:1006E80008484FF40461401880F30988EFF3148038
:1006F8000221084380F31488BFF36F8F00F090F84D
:10070800C011003000040030084B9B6883420BD1B5
:10071800EFF3058343B1064B5A6842F080525A60A2
:100728005A6A22F400425A6201F008BCAC03003055
:1007380000ED00E014498A684FF030001044EFF3F0
:10074800098C80E8F01F102080F31288BFF36F8FA8
:100758000E4F4FF000664A698A603E60106F0C4C7D
:100768002060506F0023536780F3118804B510464A
:1007780000F0F2F8BDE8044002F1300090E8F01F04
:100788008CF3098870470000AC03003004ED00E0EA
:10079800280200301EF0040F0CBFEFF30880EFF3BF
:1007A8000980816911F8021C0229FFD001B572463F
:1007B80002F014F901BD00BF00B2002807DB044AAB
:1007C8004109012300F01F00834042F8213070479F
:1007D80000E100E000B20028A8BF00F1604001F18C
:1007E8000101B8BF064B4FEA0111ACBF00F56140EB
:1007F80000F00F00C9B2B4BF195480F80013704755
:1008080014ED00E0044B054A23F07F039360BFF327
:100818004F8FBFF36F8F70470000100800ED00E0A6
:1008280008B5FFF7EFFF0B4AD2F8883023F47003BE
:10083800C2F88830EFF3148323F0040383F3148899
:10084800BFF36F8F01F034F901F09AFC00F05AF809
:1008580001F072F900ED00E042F8203C009B42F8FC
:100868001C3C0A49019B42F8183C029B42F8143C84
:1008780021F001014FF0807342F8043C42F8081C53
:100888000023203A02654367704700BFED02100855
:10089800094A0346906870B113F1160F006E05D02F
:1008A800A0F140029A4205D8834203D2814228BF70
:1008B8000020704700207047AC03003008B515468B
:1008C8000B4A0C4B9060026F1A600E4600F044F819
:1008D8002C4686F309880020034B984720460021C0
:1008E80000220023014C2047032A1008ED021008BB
:1008F800AC03003028020030014B10221A61704707
:1009080000ED00E0044800231021C2180133962BA3
:1009180082F80013F9D1704700E100E008B5EFF361
:100928000583064A103B02EBC30152F833004968BD
:100938008847BDE80840FFF763BD00BF383310089B
:10094800024B034A0348012100F076B80000023048
:100958000000003088381008026E054B403A1A60D3
:10096800044A4021C3E901121846012100F06EB87B
:100978002C02003000000B15084AC2F898000B68DA
:1009880023F01F03034343F01003C2F89C308B6825
:1009980043F00103C2F8A030704700BF00ED00E04B
:1009A8002DE9F043DFF8608085B00E461F46044607
:1009B8004FF00009B14523DA6068D8B13FB1411E54
:1009C80008421BD11F2819D92368194216D1236858
:1009D800019302F026F8A36803430393D8F89050D4
:1009E800C5F30725D0B2013DA84207D801A9FFF7F2
:1009F800C3FF421C09F101090C34DBE76FF0150253
:100A0800104605B0BDE8F08300ED00E0044B052278
:100A1800C3F89420BFF34F8FBFF36F8F704700BFA9
:100A280000ED00E0BFF35F8F024B0022C3F8942073
:100A3800704700BF00ED00E010B5034C0123227899
:100A4800FFF7AEFF207010BDD803003008B50B4A81
:100A580000231278FFF7A4FF10F1160F07D0084AF9
:100A68000021D2F89030C3F30723984200DB08BD79
:100A7800C2F89800C2F8A0100130F2E7D80300309D
:100A880000ED00E02DE9F043534B544CD3F890307F
:100A98002568C3F307239D4285B000F29A80FFF7CB
:100AA800C1FF00200C2685421AD14D4C4D4F2570B0
:100AB8006846FFF77BFCDFF82081DFF82C910646BB
:100AC8000025AE4213D1237843490020D1F8902065
:100AD800C2F30722934276DBFFF798FF002042E03B
:100AE800616806FB0011FFF747FF0130DBE700985C
:100AF80000EB05114FEA051CCB683B40B3F5000F2E
:100B080048D00AD8B3F5001F30D0B3F5800F36D0DF
:100B1800B3F5801F10D00135D3E7B3F1807F42D001
:100B2800B3F1007FF7D150F80C3088684A6801F0BB
:100B380078FF40F4802009E050F80C3088684A6853
:100B480001F06FFF40F0885040F43020CDE90123D8
:100B58000390D8F890302078C3F30723013B9842DC
:100B68002AD96FF0150005B0BDE8F08350F80C30B5
:100B780088684A6801F055FF40EA0900E6E750F83E
:100B88000C3088684A6801F04CFF40F0C06040F4BF
:100B98000030DBE750F80C3088684A6801F041FF04
:100BA80040F08270D2E750F80C3088684A6801F04B
:100BB80038FF40F08870C9E701A9FFF7DDFE237808
:100BC80001332370A7E7C1F89830C1F8A0000133BA
:100BD8007CE74FF0FF30C6E700ED00E04C38100826
:100BE800D80300300000F0FF0000081108B5024BE0
:100BF8001B689847002008BD3802003008B5064930
:100C0800064821F00701C1F1405202F5003201F017
:100C180092FE002008BD00BF071200303C020030E1
:100C28002DE9F041114F054600244FF001084FF01F
:100C3800B0462A781319DBB208FA03F0D6F8C830A0
:100C480030EA03030AD152FA84F3C6F8C80057F809
:100C580033201AB107EBC303596890476A78013407
:100C6800E3B29A42E5D2BDE8F08100BF4802003005
:100C7800044B03EB400000230133994220F8022B78
:100C8800FADC70473400003010B50A4A0A494FF4BC
:100C98008013D2F8A40088420BD0581CF9D0013B2D
:100CA800F7D183F31188BFF36F8F0424204602DF46
:100CB800EFE710BD006402580001008007B5062266
:100CC80001210020FFF7D4FF002211460620FFF77C
:100CD80081FD012108460722FFF7CAFF00221146BD
:100CE8000720FFF777FD082201210220FFF7C0FF48
:100CF800002211460820FFF76DFD0922012103207B
:100D0800FFF7B6FF002211460920FFF763FD0A220C
:100D180001210420FFF7ACFF002211460A20FFF74B
:100D280059FD052108461722FFF7A2FF00221146A8
:100D38001720FFF74FFD282206210A20FFF798FF0A
:100D4800002211462820FFF745FD02230748F42218
:100D5800CDE9002383681B6823B16946984703B02F
:100D68005DF804FB6FF05700F9E700BF5831100831
:100D7800034680B1B0FA80F2C2F11F02D2B207492D
:100D880031F912004FF0B042D2F8C0100B43C2F84C
:100D9800C030FFF711BDFF22F1E700BF340000307B
:100DA80038B50D460446FFF76FFF032D0DD8DFE871
:100DB80005F0021116204FF0B0431A6822EA040227
:100DC8001A605A6822EA04025A600E4B4FF4807285
:100DD8005A6238BD4FF0B0431A682243F0E74FF02B
:100DE800B0435A6822435A601A6822EA04021A6019
:100DF800EBE74FF0B0431A6822431A605A6814436D
:100E08005C60E2E70064025830B5B0B1B0FA80F334
:100E1800C3F11F03DBB20B4850F833408C4204D1B6
:100E280000EBC3056D68954205D044B940F833100E
:100E380000EBC3004260002030BDFF23EBE76FF0FA
:100E48000F00F9E74802003060B1B0FA80F3C3F14F
:100E58001F03DBB2044A002142F8331002EBC3023D
:100E680051607047FF23F5E74802003038B500F0BD
:100E7800030304339B000F259D4045EA90050C466B
:100E8800FFF702FF05F003039B0003F1B0432A0CB0
:100E9800D3F8081492FAA2F2B2FA82F202F01F0210
:100EA800944021EA15410C43C3F80844024B4FF41F
:100EB80080725A6238BD00BF0064025800F0030215
:100EC800043292000F23934043EA900000F003039A
:100ED8000233074A52F82320030C93FAA3F3B3FA18
:100EE80083F302EA104003F01F03D840704700BFA5
:100EF8000004005810B51A4B18680B88C3F30B038D
:100F0800F42B07D8D72B08D8022B1FD0D42B12D0FC
:100F1800012B19D06FF0850013E003F62873012424
:100F2800C3F30B0304FA03F30E4C23420AD140F235
:100F380011142342EED010600B68B3F5805F07D21E
:100F4800002010BD4008F6E7074B1B690020F2E7B8
:100F5800C3F313330133B0FBF3F01060F0E700BFC5
:100F6800240000300010111100440258024B034ABB
:100F78001A600020704700BF2400003000C2EB0B4D
:100F880010B50A4A0A494FF48013D2F88C008842F7
:100F98000BD0581CF9D0013BF7D183F31188BFF36C
:100FA8006F8F0424204602DFEFE710BD006402586B
:100FB8000001008010B50B88C3F30B03012B0C460E
:100FC80027D14B68FF2B22D0FFF7DAFF626893B274
:100FD80003F1B04303F51133C2F384501968C2F327
:100FE800054200FA02F221EA02021A6061688BB235
:100FF80003F1B04303F51133CA0E1868C1F3054174
:101008008A4002431A60044B4FF48072DA60002071
:1010180010BD6FF08500FBE70064025810B50B881F
:1010280003F62C73C3F30B03202B0C4610D8FFF7E1
:10103800A7FF238808496068C3F30B035A5822EABC
:1010480000025A50054B4FF48072DA60002010BD40
:101058006FF08500FBE700BF604402580064025847
:1010680013B50B8803F62C73C3F30B03202B0C4624
:1010780016D8FFF785FF23880B4A6068C3F30B0374
:101088009958014399502388C3F30B0300209B58B8
:101098000193019B054B4FF48072DA6002B010BDDA
:1010A8006FF08500FAE700BF6044025800640258F8
:1010B8002DE9F843D0F80480D0F81090D8F808004B
:1010C80017460D461E4601F0C1FCB7F5001F044641
:1010D80016D12846D8F80840FFF7F0FE84420CD114
:1010E800294601F0B3FC044601F0B3FC2046FFF7A3
:1010F800ABFE00212046FFF753FE0020BDE8F88331
:10110800B7F5800F20D0B6F1806F19D0B6F1C06F57
:1011180018D0B6F1007F1AD1022610494A46204657
:10112800FFF772FEB0B9D8F808102846FFF79EFE00
:1011380020463146FFF734FE2046FFF719FEDCE76C
:101148000126EAE70326E8E76FF08500D6E76FF0A7
:101158001500D3E76FF00F00D0E700BFB92B1008D8
:1011680010B50A4A0A494FF48013D2F8A000884201
:101178000BD0581CF9D0013BF7D183F31188BFF38A
:101188006F8F0424204602DFEFE710BD0064025889
:101198000001008038B543685D680C46FFF7E0FF42
:1011A8006B6963406B61034B4FF480721A620020D5
:1011B80038BD00BF0064025870B543685E680D46CC
:1011C8001446FFF7CDFF73695C402C405C40034B2D
:1011D80074614FF480721A62002070BD0064025876
:1011E8002DE9F84345680124164688468C4002F0EC
:1011F80030079946FFF7B4FF6A68C6F3801322EAFE
:10120800040203FA08F313436B60D5F808C004FA24
:1012180008F202EB4200C6F3C11151432CEA000C5C
:1012280041EA0C01A960E968C6F34126564321EA60
:1012380000010E43202F6FEA0003EE600FD1B8F1D2
:10124800070F18D802FA08F1286A01FA08F1C1EB69
:10125800011420EA040001FB09F10143296229680D
:101268003F0957430B401F430A4B2F604FF48072CE
:101278001A62BDE8F883240A6443696A6443C4EBCC
:10128800041021EA000104FB09F941EA0901696235
:10129800E5E700BF0064025838B5036904465860A2
:1012A8000A4D284601F0D0FD60B1AB6861681B6843
:1012B8000C3123B12846984700EAE07038BD6FF03A
:1012C8005700F9E76FF01200F8E700BF583110082F
:1012D8002DE9F0471E4F044600EBC1060025B44235
:1012E80001D1002014E02068C30600F01F0911D4C2
:1012F800656845F02005C0F3481AC0F3442010285B
:1013080023D857F82080B8F1000F0DD16FF01200E4
:10131800BDE8F087B9F1100F04D0B9F1110FEAD187
:101328006568E8E73025E6E7404601F08DFD0028CE
:10133800ECD04B462A460AF00F01404601F04EFC1D
:10134800002804F10804CADAE2E76FF01500DFE7C5
:1013580074391008F8B503690C465D68237941684B
:10136800012B16D09F1E7E427E41B6026279022A68
:101378009CBF454F37F81270A27988BF4FF40057C9
:10138800022A09D0042A2FD0003B18BF01231B03CF
:1013980006E04FF4C066E9E7B3FA83F35B091B077D
:1013A800E2790968012A14BF4FF0000C4FF4407C21
:1013B800A5421CD10A6822F0805222F4B05232436E
:1013C8001A430A604B6823F440533B434B6043681D
:1013D8001A68936823F4407343EA0C0393602968FE
:1013E800BDE8F84001F09FBC4FF48053D8E7D1F82E
:1013F80000E00EF4C06E76451FBFD1F800E02EF471
:10140800C06E4EEA06060E6041680E68716801F407
:1014180040518F421FBF716821F4405139437160B8
:1014280041680E68316801F010218B421FBF316896
:1014380021F010210B433360436819688B6803F46B
:1014480040739C451FBF8B6823F4407343EA0C0329
:101458008B6043681B689968490405D5032A09D03D
:101468009A6822F4804204E0032A03D19A6842F47D
:1014780080429A6021682B68994203D001F053FC9E
:1014880023682B60F8BD00BF203A1008F7B505693E
:10149800446806465A48286001F0D6FC002800F047
:1014A800A4802868E16883681B68002B00F0A1808D
:1014B80098470028C0F29B80206A01AA002101F009
:1014C800A5FB0028C0F29380019B002219791868B7
:1014D800FFF7FEFE0028C0F28A80756833692C6821
:1014E8005F68236823F001032360686801F0ACFC9F
:1014F80000287AD0D5E901018368DB6803B19847F1
:1015080054E8003F43F00C0344E80032002AF7D1C6
:1015180039463046FFF71EFF2B7D1BB1A36843F009
:101528000803A3606B7D1BB1636843F400436360E9
:10153800AB7D1BB1636843F480336360EB7D1BB103
:10154800636843F4003363602B7E002B3BD02D4B44
:101558009C421ED0A3F54C439C421AD003F58063ED
:101568009C4216D003F580639C4212D003F5806339
:101578009C420ED003F544439C420AD0A3F51C4379
:101588009C4206D003F580639C4202D01E4B9C42CD
:1015980032D173681A68936843F480439360236870
:1015A8006A7E23F0787343EA425323602368AA7E55
:1015B80023F4F81343EA02432360EB7E1BB1A368CC
:1015C80043F40043A3602B7F1BB1236843F000530F
:1015D8002360236843F001032360E3699A02FCD582
:1015E800E3695B02FCD5002001E06FF0120003B054
:1015F800F0BD6FF05700FAE76FF01500F7E700BF8E
:101608005831100800100140000C0058F8B5436824
:1016180091F805E01C680369024608795D688B79D2
:1016280001280E461FD1BEF1020F76D9022B1F46A4
:101638004FF4C0614FF4005C00F08780042B7FD02A
:1016480020B1C31E012B7DD94FF48050BCF5805FBB
:1016580000F08580BCF5405F00F08380BCF1000F8E
:101668001CD101231BE002280AD1BEF1020F60D968
:10167800022B1F464FF480610BD04FF4005CDDE76E
:10168800BEF1020F58D9022B1F4657D1002862D04D
:101698000021C31E012B55D90020022703237345BF
:1016A80050D101F0FEFAB8424CD1F3791BB3012BAB
:1016B80059D12E4B9C421ED0A3F54C439C421AD0C4
:1016C80003F580639C4216D003F580639C4212D0D8
:1016D80003F580639C420ED003F544439C420AD034
:1016E800A3F51C439C4206D003F580639C4202D0BC
:1016F8001F4B9C4226D1236823F001032360314607
:101708001046FFF727FE236843F00103236096E89D
:10171800030085E803000020F8BD4FF4C061154FB1
:10172800022B37F81EC01F4688D170B94FF0805081
:101738008CE74FF48061F2E70021F0E700219CE795
:10174800002881D06FF08500E6E7C31E012BF9D988
:10175800022700207AE701464FF080509EE70023D9
:101768009DE702239BE7032BA3D0EBE70010014082
:10177800000C0058203A100810B54FF0E0230F492C
:101788009C691A6908689B690D4902F4803234B96A
:1017980093B903464AB90A681044C01A10BD002B11
:1017A80008BF03460AB9A342F5D90A6802440A6089
:1017B8004FF0E0221269EEE70446F3E7A803003091
:1017C800A40300300A4B102283F82320094B44F667
:1017D80020621A60084B002018604FF0E02344F69E
:1017E8001F625A6198611A6942F007021A617047CC
:1017F80000ED00E0A8030030A4030030684620F0A4
:1018080007018D4619B5FFF7B7FF114B1149D3E909
:1018180000420868001942F10002C3E900020E4ABA
:1018280000230B60D2E9004144F62063001BB0FBA3
:10183800F3F043431B1941F10001C2E9003100F004
:1018480079FDFEF7DDFDBDE819408546704700BF0C
:1018580080000030A4030030780000302DE9F0410A
:10186800DFF8DC8099B1421C0BD14FF0E0221369FC
:1018780023F0010313614FF07F43C8F80030BDE83F
:10188800F081D8F80060012807DC00270BE0431C32
:10189800D8F80060F7D140F2453040F2463398421C
:1018A800A8BF1846471EEFF31185102383F312884B
:1018B800BFF36F8FFFF760FF224C4FF0E023996969
:1018C800D4E90023801843F10003C4E900031E4B48
:1018D80000221A601D4B1A68831A2ED444F6206C15
:1018E8000CFB073303F59C431F33B3FBFCF7131AB8
:1018F8000CFB073340F2E242934238BF1346144AC6
:10190800934228BF13464FF0E022C8F80030013B4D
:1019180090695361002393618142A1EB0003D4E9EC
:10192800001238BF9B195B1842F10002C4E900326B
:1019380085F31188BFF36F8FA1E740F2E243E2E736
:10194800A803003080000030A40300307800003085
:10195800A06EFF0038B5EFF31185102383F31288CA
:10196800BFF36F8F084B1C68084B1B68E41AFFF71E
:1019780003FF85F31188BFF36F8F44F6206320447B
:10198800B0FBF3F038BD00BF8000003078000030B5
:1019980038B5EFF31185102383F31288BFF36F8FE7
:1019A800064B9C6801F063FA85F31188BFF36F8FCB
:1019B8002046BDE83840FEF7A7BE00BFAC030030A4
:1019C80038B50A4B53F82040013053F82050A5424F
:1019D80000D838BD606830B1037FDB0701D401F05F
:1019E80049FA0834F3E723689847FAE7083A1008F1
:1019F80070B52A4B2A4C2B4D012286B003201A7051
:101A0800FFF7DEFF00F0F6FC0420FFF7D9FF2646BB
:101A1800AE4204F1300410D300F016FA204C224EE6
:101A2800AC4226D300F024FAFEF732FC1F4A137B9F
:101A380023F00103137306B070BD54F80C3C0593F2
:101A480054F8103C049354F8143C039354F8183C8D
:101A5800029354F81C3C019354F8203C009354E939
:101A68000A2354E90C0100F0CFF854F8303C5E65C5
:101A7800CDE7D4E90A23B3F1FF3F08BFB2F1FF3F36
:101A880005D052EA0301206803D100F02DFA303462
:101A9800C6E73146183000F0BDFBF8E7D90300303F
:101AA800E8371008E8371008452F100808010030FB
:101AB80008B50348034A0021121A01F0F2F908BDDB
:101AC80078000030DC03003070B5002386B00122B6
:101AD800CDE90423134E144D01930F22CDE90232B0
:101AE8001249142303FB005506EBC01604464FF4B5
:101AF800C07000FB04110E4B00954FF4A0723046E5
:101B080000F082F8737B0B4AEE6023F004037373D2
:101B18004FF4046304FB033313442C746B6006B066
:101B280070BD00BF88000030AC030030400C0030AE
:101B3800B32E100800040030BFB50020FFF740FFA7
:101B4800294B83F30888294C294F636943F40073B0
:101B580063610025F02384F82230E57725766576E1
:101B6800A57684F82050636A43F4E0236362FEF7A5
:101B78009BFDFEF7C1FE4FF0FF33A362E362FEF761
:101B880081FFFEF7DDFE1B481B4C00F089F801F0D1
:101B98005AF9FEF7CFFB0120FFF712FF0220FFF7EB
:101BA8000FFF00F099F9154B15495C61154B05932A
:101BB8000123CDE903534FF480623B46CDE901553B
:101BC8000095204600F020F8627B064622F00402C9
:101BD8002046627301F086F92846FFF775FF3A46FA
:101BE80031462046FEF76AFE400C003000ED00E06A
:101BF800F91910088801003008010030AC030030E2
:101C0800C00D00306D3B10082DE9F043073285B058
:101C180022F007020E461F461099017300F158037F
:101C28007F32C0E916330446002322F03F02042124
:101C3800836041733F2A0F98A073C4E90633E373A6
:101C480006F14009A2F1400805D883F31188BFF3D3
:101C58006F8F084602DFB51829462046FEF7B0FB0D
:101C680007300E9B20F00700A066C4E9189802937D
:101C78000D9B01932D1A0C9B00932A463B46314637
:101C88002046FEF7E9FD00236365044B9B6803B11A
:101C9800DB6EE366284605B0BDE8F083AC03003090
:101CA80040F2011383810023C0E91833C366014B56
:101CB80098607047AC030030094A93686FF00A01D6
:101CC8009967084958674B6843F080534B60002375
:101CD80083F31188BFF36F8F9368986F704700BFC5
:101CE800AC03003000ED00E070B590F90D20437BA7
:101CF800002A36DBD90634D11B4C63F07F03224619
:101D0800437352F8183FE169934207D1C0E90021B3
:101D18000860E06111E09942F8D01B68002BF5D00B
:101D280090F90E5093F90E60B542F4D0AE42F2DD50
:101D38005968C0E9003108605860A569954200D02B
:101D480005B9E568A3685A7BD20604D1DA897F2AE7
:101D580001D9AA6932B1AB4202D0284600F0B8F9DD
:101D6800656170BD6361FCE7AC03003070B590F944
:101D78000D20437B002A014604DA03F07F034373F6
:101D880001F09EF84B7B1C4C63F07F0322464B739B
:101D980052F8183FE069934207D1C1E90020016079
:101DA800E16111E09842F8D01B68002BF5D091F959
:101DB8000E5093F90E60B542F4D0AE42F2DD586889
:101DC800C1E9003001605960A569A368954200D057
:101DD80005B9E5688B4207D05A7BD20604D1DA8967
:101DE8007F2A01D9AA692AB1AB4202D0284600F05D
:101DF8006FF92B46636170BDAC03003049B9EFF34E
:101E0800058030B9054B5A699B689A4201D0FFF7A3
:101E180053BF81F31188BFF36F8F7047AC03003055
:101E2800034648B9EFF3058232B9064A5169926808
:101E3800914201D0FFF740BF83F31188BFF36F8F42
:101E4800704700BFAC030030EFF31181102383F318
:101E58001288BFF36F8F054B9A68D37B013BD3730E
:101E680081F31188BFF36F8F704700BFAC03003058
:101E780070B5EFF31186102383F31288BFF36F8FC9
:101E8800144DAB68DA7B0132DA732A4652F8184FE0
:101E9800944200D004B9EC685A7BD20604D1DA899E
:101EA8007F2A01D9A2692AB1A34202D0204600F0B4
:101EB8000FF923466B6186F31188BFF36F8FEFF339
:101EC8001180102383F31288BFF36F8FBDE8704031
:101ED800FFF7A6BFAC030030024B03F11802C3E9B9
:101EE80006227047AC03003038B50446EFF311857D
:101EF800102383F31288BFF36F8F437B5B070FD5E3
:101F0800183001F036F8637B23F00403204663732E
:101F1800FFF7EAFE29460548BDE83840FFF76EBFDF
:101F280085F31188BFF36F8F38BD00BFDA03003027
:101F3800014B9868704700BFAC0300302DE9F843A7
:101F48000446077BEFF31185102383F31288BFF350
:101F58006F8F437B190705D585F31188BFF36F8F02
:101F6800BDE8F883D90943F008025AD14273A3683F
:101F780013B1204600F0ACFF04F1180000F0F9FF9F
:101F8800A66D04F15808B04511D04FF0000976B19C
:101F9800304600F09DFF06F1180000F0EAFFC6F891
:101FA80078903046FFF7A0FEA66DB045EFD1DFF878
:101FB800B880D8F808309C423BD1EFF30589B9F1D5
:101FC800000918BF4FF00109D8F81860274A96424F
:101FD80000D00EB9D8F80C60B34202D0304600F0F9
:101FE80077F8C8F81460B9F1000F02D02048FFF75D
:101FF80057FED8F808309C4231D1EFF3058373BB04
:10200800227BD20718D42846FFF756FEFB07A7D530
:10201800002383F31188BFF36F8F0423184602DF70
:102028009EE703F07F0343F00803437300F048FF83
:102038009DE74FF00009C7E785F31188BFF36F8F5D
:1020480083F31188BFF36F8F0423184602DFEFF381
:102058001180102383F31288BFF36F8FD4E785F3C1
:102068001188BFF36F8FD1E7AC030030C403003091
:1020780088010030044BC01A044BC0105843044B6D
:1020880001221A54704700BF08020030ABAAAAAA5E
:10209800DA030030C3897F2B12D80A4B1B6863B15F
:1020A800094B90F90E201B689A4209DB437BDB063B
:1020B80006D1064BC31A18BF012303F0010070476D
:1020C8000023FAE728000030D003003088000030F1
:1020D80070B50E4B0E4C1E7C06EB460304EBC30496
:1020E8000546204600F045FF0A4B002228469A552F
:1020F800FFF7D0FF48B1084B08491A68013A204653
:10210800D317BDE8704000F085B870BDAC0300304F
:1021180008020030DA030030280000307D20100863
:1021280038B5EFF31185102383F31288BFF36F8F4F
:10213800104B114A9C681068A04206D1FFF7C8FFEF
:1021480085F31188BFF36F8F38BD00211B7C1160A8
:102158000A4AD35C002BF3D02046FFF79BFF0028E8
:10216800EED0637BDB0602D12046FFF7FFFD204659
:10217800E4E700BFAC030030CC030030DA030030E2
:102188000748084A084908B5121A00F08CFE0748A3
:10219800074A0849BDE80840121A00F084BE00BF8B
:1021A8000000003074000030AC3B10080000003024
:1021B80000000030AC3B1008024B1868984208BF7A
:1021C800002070472C000030034B1B680BB9FFF749
:1021D800C1BB0020704700BFD403003030B570B1D8
:1021E8000B4B5B6898420AD0036843B1D3E90421DA
:1021F800D0E90445121941EB0501C3E90421D0E9EE
:10220800003213605A600023C0E9003330BD00BFBC
:102218002C000030B3F1FF3F08BFB2F1FF3F2DE9BA
:10222800F84F0446994615461F467AD08160EFF369
:102238001188102383F31288BFF36F8FB9F1000F51
:10224800DFF8E4A020DBFFF7BFFFDAE9002701355C
:1022580049F100092D1849EBE073C4E90453AD189E
:10226800064643EB07074FF00109FFF7A5FFDFF824
:10227800BCE0DEF804A00346EBB9C4E900EACAF8FA
:102288000040CEF8044028E0DAE900126FF00103BC
:102298005B1A4FF0FF3161EB02025B1B62EB090234
:1022A800012B72F10001BCBF01230022C0E90432F6
:1022B8004FF00009D9E7D3E9041CD4E904208A4285
:1022C80070EB0C0B24DA891A5A686CEB0000C3E92E
:1022D8000410C4E9003214605C60FFF76DFF8442AB
:1022E8000ED1134B1B685BB9B9F1000F02D1FFF790
:1022F8006BFF0646304600F025FE0021FFF7AEFAD8
:1023080088F31188BFF36F8F28463946BDE8F88FE8
:10231800521A60EB0C009A45C4E90420ADD01B6842
:10232800AAE700252F46EFE7200200302C000030F6
:10233800D40300302DE9F047EFF31185102383F320
:102348001288BFF36F8FDFF8A490DFF8A480C9F874
:102358000000FFF731FF00260027D9F80030D8E940
:1023680000ECD91750B1D0E90442A34271EB020A3C
:102378001CDAE41A62EB0102C0E9044213EB0E0313
:102388004FF000044CEB01012046C8E90031C9F8C0
:10239800004000F0D7FD2146FFF760FA85F3118869
:1023A800BFF36F8FBDE8F047FFF7BABE14EB0E021C
:1023B8004CEBE473C0E90467C8E90023FFF70EFF9C
:1023C80085F31188BFF36F8F83689847EFF3118502
:1023D800102383F31288BFF36F8FD9F800301B1BCB
:1023E800C9F80030FFF7E8FEB7E700BFD4030030B4
:1023F80020020030014800F0DDBA00BF723B10082F
:102408000FB407B5064B04AA186852F8041B0192CA
:1024180000F008F803B05DF804EB04B0704700BFA3
:10242800943810082DE9F04F8DB0436802938378F3
:1024380015469A07804640F10D8100240E78002E3B
:1024480000F00A81252E0BD04B1C03930134029B0C
:102458004146304698470028C0F2F6800399EDE7D8
:102468004E788B1C252E0393F0D00027B946BB4627
:10247800BBF11F0F38D8A6F12003102B0AD8DFE8CC
:1024880003F02A0909300909092109090928092D30
:1024980009091F00A6F13003092B33D92A2E37D199
:1024A8001BF0400F55F8043B40F08280002BA7BF7B
:1024B8004BF0200B9946C3F100094BF0280B01E0C3
:1024C8004BF0010B039B13F8016B0393002ECFD144
:1024D80030E04BF0020B4BF0040BF3E74BF0080B2A
:1024E800F0E74BF0100BEDE7BBF17F0F19D8A6F121
:1024F8003003092BD2D81BF0400F03D00A2101FB6F
:102508000737DFE70A2101FB09394BF0200BD9E730
:102518002E2E06D11BF0400F40F09E804BF0400B52
:10252800D0E76C2E31D02BD8682E36D06A2E3CD00E
:102538004C2E3AD0002F46F02003B8BF2BF04002B3
:10254800A3F16501BCBF1FFA82FB0027022901D94C
:10255800612B2FD1073525F00705DFF8ACA2083528
:1025680007271BF0080F66D00AEB070B56465E4597
:1025780063D1A4EB0A0A06EB0A02A9EB07096FE18B
:10258800742E9FD07A2E9DD0D4E71BF0800F18BFF1
:102598004BF4007B4BF0800B94E71BF4807F18BF53
:1025A8004BF4007B4BF4807B8CE74BF4207B89E772
:1025B8001F4687E7A6F16301122900F2F080DFE8E1
:1025C80011F013004F00EE00EE00EE00EE004F0099
:1025D800EE00EE00EE00EE00EE00FE00E900EE0078
:1025E800EE001B00EE00AF0055F8043B8DF81830E4
:1025F80001270DF1180AB4E755F804AB834BBAF17B
:10260800000F08BF9A461BF0400F14BF39464FF021
:10261800FF31504600F0EBFC0746A2E7029B41461B
:102628002020984700280FDB013EB742F6D34C44E0
:10263800A41BB14698E74E46F7E716F8010B029B34
:1026480041469847002892DA98F8023043F004038C
:1026580088F802304FF0FF3420460DB0BDE8F08F07
:102668001BF0800F34D01BF4007F2CD0073525F0E9
:102678000705AA4669685AF8080B2BF010050029C7
:10268800ADB237DA404261EB410145F480650DF1A6
:10269800180B0A235A4600F0B6FCA0EB0B03019373
:1026A8006B0662D5019B25F001019F4289B240F378
:1026B800A180002E00F0998015F0100240F09C8057
:1026C800BB460D4623E0AA465AF8040BC117D4E7C7
:1026D800AA461BF4807F5AF8041B01D10846F5E787
:1026E8001BF4007F15BF48B208B241F3C01141F393
:1026F800C031C2E750EA0103C9D11BF0400FC6D070
:10270800002FC4D12BF0110295B2BB46019740F2BD
:10271800064115EA01021CBF0BF1010B00222CE057
:102728002BF010021FFA82FB0A231BF0800C49D001
:102738001BF400711DBF073525F00705AA46AA46F8
:102748001ABF5AF8080B69685AF8040B50EA0105D1
:1027580045D12BF016051BF0400FADB242D0002F2B
:1027680040D12BF0170295B2019715F0100248D00E
:10277800019B002E42D103F1010B29075AD4EB0724
:1027880006D5D9456FDD0199A9EB0B035F18CB4638
:102798005B4649E04BF0100B10237826C5E7782BF1
:1027A80004D1C6F1780343F01003BEE7029B41460B
:1027B800252098470028FFF647AF023447E608234C
:1027C8000026B2E7AA461BF480715AF8040BBDD064
:1027D8001BF400711ABFC0B2614680B2B6E72BF095
:1027E800060295B20DF1180B54E725F01105ADB2AC
:1027F800BB468CE70D46B8E73B460D4603F1020B96
:10280800BBE7DDF804B082E7A13B10089A3B10084B
:10281800CDE904324146029B202098470028FFF664
:1028280013AF049B059A01339945F1DCA4EB0B0126
:10283800CC189B460AB3029B414630209847002893
:10284800FFF602AF8EB901342744019B391B994228
:1028580024DC1D465DBB019AA9EB0B0922445546B1
:102868001446914435E0019F92E7023441463046D0
:10287800029B98470028E7DAE6E640F206410D4257
:10288800E2D015F0020F14BF2B20202015F4806F22
:1028980004F10104414618BF2D20E9E7029B414697
:1028A80030209847002804F10104CEDACCE606ABC4
:1028B800013D4146585D029B98470028CADAC3E6A5
:1028C800029B414620209847002804F10104FFF6A6
:1028D800BBAEA9EB0403002BF2DCBFE5704700EBAD
:1028E800C100408840087047F8B50346FFF7F7FF76
:1028F800B0FA80F0C0F11F0003EB800CCA00DCF8CE
:102908001060171D0C4606328DB256B9012101FA26
:1029180000F0D9680143D960CCF81040DD539D52CE
:10292800F8BDF1000431585AD85303EBC0009E5249
:10293800C5805D52F4E7043A2DE9F041CC1D1144FD
:1029480024F0070421F007010E1BF708B7FA87F2F5
:10295800C2F12405AD004FF000080735C2F120028E
:10296800ED0804604146A760C4F80C80920004F1A9
:10297800100000F034FB6B0043F00103638004EBAC
:10298800C5027B1B5900A4F800805180A21924F8C5
:102998003550A2F80280A35304EBC70329465A888E
:1029A80042F001025A802046BDE8F041FFF79CBF83
:1029B800002070470FB407B504A951F8040B019122
:1029C800FDF778FC03B05DF804EB04B0704770477E
:1029D800012801D1EFF30583FEF7DABF014600684D
:1029E800FFF7F6BF08B5FDF7E7FCBDE80840FDF7BF
:1029F80007BD00210120FFF7EBBF61B662B680F387
:102A08001188BFF36F8F704772B6002383F3118864
:102A1800BFF36F8FBFF34F8F30BF62B6BFF36F8FB7
:102A28007047202809D9B0F1004F08D80138B0FA0A
:102A380080F0C0F11F0040007047082070473E201A
:102A4800704708B5FEF7D2F8002008BD012088407D
:102A580070474FF0B042D2F8C03023EA0003C2F802
:102A6800C030704743685B681B690B600020704783
:102A780043685B6800209961704743685B68090494
:102A880099610020704710B503699868F8B18842C9
:102A980019D1DC6808689860A14200D1D86000208C
:102AA80008602AB19A680A60DA68996002B9D96040
:102AB800002010E0814206D108682060D868814271
:102AC800EDD1DC60EBE7044600680028F2D1002A6B
:102AD800E8D16FF0150010BD12F4003CF8B50546BA
:102AE8000C4613461DD0960714D550075DD55022C5
:102AF800D90611D542F4007203F4C061B1F5806FB4
:102B080042D0B1F5C06F19D0B1F5007F18D142F0AD
:102B1800800215E01022EBE79F06EDD542F48062B3
:102B2800EAE7D60305D5D00605D4C2F340129202CF
:102B3800E2E73022E0E74FF40072DDE742F4C072CA
:102B480013F440372E6908D0306920FA04F1C90718
:102B58005FBF0121A14001433161BCF1000F06D0E4
:102B6800180314D5696801234968A3408B61686814
:102B780000232146FEF734FB27B9336923FA04F210
:102B8800D2070CD40020F8BD42F48072D8E759036C
:102B9800EDD50121A1402846FFF76FFFE7E70122A5
:102BA800A24023EA02033361ECE76FF08500EAE70D
:102BB80070B50B468968054611B15E680C6801B9A5
:102BC80070BD8A682A4002D04B68304698471CB1CD
:102BD800236821461C46F2E72346FAE7F8B51F4664
:102BE800044640680E461546FEF7FAFA112F07D13B
:102BF80001212B0501FA06F104D563685B68996128
:102C08000020F8BD2046FFF738FFF9E730B5036824
:102C180013600579046804EBC504A34202D36FF07E
:102C2800010030BD5C798C4201D00833F0E7002008
:102C3800F7E74368C1F34B101B6801F01F01C05848
:102C480001238B40034214BF01230023137000208B
:102C5800704710B54368C1F34B101A6801F01F01A3
:102C6800845801238B4023438350002010BD10B5A6
:102C78004368C1F34B14186801F01F01235801225F
:102C88008A4023EA02032350002010BD38B50446C9
:102C98000D46FFF7DEFF29462046FFF7E8FF002034
:102CA80038BDB0F5805F07D0B0F1805F09D1002949
:102CB80014BF012002207047002914BF03200420FC
:102CC8007047002914BF02200320704743681B681F
:102CD800D869DA69D107DA69C0F3C00048BF40F0A3
:102CE80002009207DA6948BF40F004005107DA6928
:102CF80048BF40F02000D20542BF4FF4807240F038
:102D080008001A62C10744BF08221A62820744BF3A
:102D180001221A62410744BF02221A62820644BF96
:102D280004221A62704737B50269436810681D6843
:102D38000C46D9688368DB687BB101AA98470028EC
:102D48000BDB2B6823F400432B6001992CB101EBBA
:102D58005401B1FBF4F189B2E96003B030BD10B59C
:102D680043681B681020DA691206FCD5EFF311825C
:102D780080F31288BFF36F8FDC69240604D482F3D2
:102D88001188BFF36F8FEEE7996282F31188BFF362
:102D98006F8F10BD43681B68DA69100744BF0822AB
:102DA8001A62DA69920643BF5B6A0B7000204FF023
:102DB800FF30704710B50269526812680A604268AD
:102DC8001268126802F4C062B2F5806F04460B46BE
:102DD80033D0A2F5C060424242411A71626812685B
:102DE800526802F44052B2F5805F28D0B2F5405FD5
:102DF80027D0002A0CBF012203225A716268126888
:102E08001068116800F0102001F4C061FFF749FF55
:102E1800987162681268926802F44072A2F5407173
:102E28004A424A41DA7161680968896811F4804F39
:102E380018BF0322DA71002010BD0222CDE700225C
:102E4800DBE70222D9E7704740B1C368587810F031
:102E580001001EBF1878B0FA80F040097047EFF300
:102E68001183102383F31288BFF36F8FFEE708B531
:102E7800FFF7F5FF10B54369044633B90020E2684F
:102E8800537843F00103537010BD98470028F5D0DC
:102E98000028B8BF4042E368FF28A8BFFF20187089
:102EA800EDE700F09CB800F08CB808B51024EFF3FB
:102EB800118384F31288BFF36F8FFFF7A5FDF6E740
:102EC800D0E9003213605A600023C0E9003370472C
:102ED80008B5FFF7F5FF437B23F002034373002394
:102EE800836008BD10B5EFF31184102383F31288B3
:102EF800BFF36F8FFEF7F8FE84F31188BFF36F8F6F
:102F080010BD10B50146EFF31184102383F3128826
:102F1800BFF36F8F437B13F0280F0AD183680BB17F
:102F2800FFF7D6FF4B7B23F004034B730846FEF7ED
:102F3800DBFE84F31188BFF36F8F10BD01211838B1
:102F4800FFF7DFBF08B50246FFF736F970B1D0E9E1
:102F580004319B1A61EBE272B3F1004F72F1000188
:102F680004DA002AACBF1846002008BD6FF0004004
:102F7800FBE738B50246EFF31185102383F3128877
:102F8800BFF36F8F0368CBB1FFF716F904461046FD
:102F9800FFF724F900224FF000438442C0E90423DC
:102FA80006D1FFF711F9FFF7CDFF0021FEF756FC18
:102FB800002085F31188BFF36F8F38BD6FF01500BF
:102FC800F7E70A44914200F1FF3300D1704710B58A
:102FD80011F8014B03F8014F9142F9D110BD024499
:102FE8000346934200D1704703F8011BF9E710B577
:102FF800024601448A42134603D01C780132002C51
:10300800F8D1181A10BDF0B5C3F137070446FFB25E
:1030180003F01F031046082BE6B233D0102B3ED026
:103028006508A40844EA817445EAC1752D194FEA78
:10303800910242EB5102290941EA02716D1842EBF3
:103048001212290A41EA02616D1842EB1222290C78
:1030580041EA02416D1842EB1242AD1842F10002FA
:10306800EC0844EA4274D10804EB8402A6EB42055A
:10307800EDB2092D0CD90134A5F10A0541F1000181
:10308800EDB212E0E40844EA417406F00705C90805
:10309800303554EA010200F8015BBCD1F0BD2409C7
:1030A80044EA017406F00F050909092D84BFED19DA
:1030B800EDB2EDE7014800687047000028020030D3
:1030C800000000005831100821031008000000001B
:1030D800000000007831100800000000B832100825
:1030E80000000000B831100800000000F831100896
:1030F800000000009831100800000000F8321008A5
:1031080000000000D83210080000000098321008B3
:103118000000000078321008000000005832100843
:1031280000000000383210080000000018321008B3
:1031380000000000D8311008000000001833100803
:10314800CD17100800000000050C10080000000052
:10315800A53A1008000000001C381008560000307E
:1031680000000000750F10080000000000000000BB
:103178004C3B1008B83910080C3810086E000030A5
:103188000000000000000000000000000000000037
:10319800873A1008000000000000000054000030CA
:1031A80048020030C50C10080000000000000000B4
:1031B800B23A100898381008E8371008580000305C
:1031C800C8020030A1121008000000000000000032
:1031D800C03A1008AC381008E83710085A00003018
:1031E800DC020030A11210080000000000000000FE
:1031F800CE3A1008C0381008E83710085C000030D4
:10320800F0020030A11210080000000000000000C9
:10321800DC3A1008D4381008E83710085E0000308F
:1032280004030030A1121008000000000000000094
:10323800EA3A1008E8381008E8371008600000304B
:1032480018030030A1121008000000000000000060
:10325800F83A1008FC381008E83710086200003007
:103268002C030030A112100800000000000000002C
:10327800063B100810391008E837100864000030C1
:1032880040030030A11210080000000000000000F8
:10329800143B100824391008E8371008660000307D
:1032A80054030030A11210080000000000000000C4
:1032B800223B100838391008E83710086800003039
:1032C80068030030A1121008000000000000000090
:1032D800303B10084C391008E83710086A000030F5
:1032E8007C030030A112100800000000000000005C
:1032F8003E3B100860391008E83710086C000030B1
:1033080090030030A1121008000000000000000027
:103318005D3B1008BC3910083838100870000030C0
:103328001400003095141008000000000000000090
:1033380000000000FB29100800000000FB2910080D
:1033480000000000FB29100800000000FB291008FD
:1033580000000000FB29100800000000FB291008ED
:10336800853A1008290C1008833A1008290C10080F
:10337800813A1008290C10087F3A1008290C100807
:103388007D3A1008290C100800000000FB291008DD
:1033980000000000FB29100800000000FB291008AD
:1033A80000000000FB29100800000000FB2910089D
:1033B80000000000FB29100800000000FB2910088D
:1033C80000000000FB29100800000000FB2910087D
:1033D80000000000FB29100800000000FB2910086D
:1033E80000000000FB2910087B3A1008290C10087F
:1033F80000000000FB29100800000000FB2910084D
:1034080000000000FB29100800000000FB2910083C
:1034180000000000FB29100800000000FB2910082C
:1034280000000000FB29100800000000FB2910081C
:1034380000000000FB29100800000000FB2910080C
:1034480000000000FB29100800000000FB291008FC
:1034580000000000FB29100800000000FB291008EC
:1034680000000000FB29100800000000FB291008DC
:10347800793A1008290C100800000000FB291008F0
:1034880000000000FB29100800000000FB291008BC
:1034980000000000FB29100800000000FB291008AC
:1034A80000000000FB29100800000000FB2910089C
:1034B80000000000FB29100800000000FB2910088C
:1034C80000000000FB29100800000000FB2910087C
:1034D80000000000FB29100800000000FB2910086C
:1034E80000000000FB29100800000000FB2910085C
:1034F80000000000FB29100800000000FB2910084C
:1035080000000000FB29100800000000FB2910083B
:1035180000000000FB29100800000000FB2910082B
:1035280000000000FB29100800000000FB2910081B
:1035380000000000FB29100800000000FB2910080B
:1035480000000000FB29100800000000FB291008FB
:1035580000000000FB29100800000000FB291008EB
:1035680000000000FB29100800000000FB291008DB
:1035780000000000FB29100800000000FB291008CB
:1035880000000000FB29100800000000FB291008BB
:1035980000000000FB29100800000000FB291008AB
:1035A80000000000FB29100800000000FB2910089B
:1035B80000000000FB29100800000000FB2910088B
:1035C80000000000FB29100800000000FB2910087B
:1035D80000000000FB29100800000000FB2910086B
:1035E80000000000FB29100800000000FB2910085B
:1035F80000000000FB29100800000000FB2910084B
:1036080000000000FB29100800000000FB2910083A
:1036180000000000FB29100800000000FB2910082A
:1036280000000000FB29100800000000FB2910081A
:1036380000000000FB29100800000000FB2910080A
:1036480000000000FB29100800000000FB291008FA
:1036580000000000FB29100800000000FB291008EA
:1036680000000000FB29100800000000FB291008DA
:1036780000000000FB29100800000000FB291008CA
:1036880000000000FB29100800000000FB291008BA
:1036980000000000FB29100800000000FB291008AA
:1036A80000000000FB29100800000000FB2910089A
:1036B80000000000FB29100800000000FB2910088A
:1036C80000000000FB29100800000000FB2910087A
:1036D80000000000FB29100800000000FB2910086A
:1036E80000000000FB29100800000000FB2910085A
:1036F80000000000FB29100800000000FB2910084A
:1037080000000000FB29100800000000FB29100839
:1037180000000000FB29100800000000FB29100829
:1037280000000000FB29100800000000FB29100819
:1037380000000000FB29100800000000FB29100809
:1037480000000000FB29100800000000FB291008F9
:1037580000000000FB29100800000000FB291008E9
:1037680000000000FB29100800000000FB291008D9
:1037780000000000FB29100800000000FB291008C9
:1037880000000000FB29100800000000FB291008B9
:1037980000000000FB29100800000000FB291008A9
:1037A80000000000FB29100800000000FB29100899
:1037B80000000000FB29100800000000FB29100889
:1037C80000000000FB29100800000000FB29100879
:1037D80000000000FB29100800000000FB29100869
:1037E800E12A10086D2A1008C1111008792A10085A
:1037F800832A10089D111008B91010088F2A100884
:0438080000000000BC
:10380C003B2C10085B2C1008772C1008952C1008FA
:10381C00691010082510100800000000FD0E10089B
:0C382C000000000000000000BD0F1008AC
:103838009D2D1008672D1008D52C10081516100896
:04384800BD2D10087A
:10384C00030000005438100800001008573A100804
:10385C0026000206000000305D3A100820000B1113
:10386C000000F01F623A100824000411693A100895
:10387C00000000900000001000000002000000306A
:10388C000000000000000B0604000030FFFF0000E9
:10389C00002802580A000000E000000000040000AC
:1038AC00FFFF00000024025809000000E0000000A7
:1038BC0000020000FFFF000000200258080000007A
:1038CC00E000000000010000FFFF0000001C025897
:1038DC0007000000E000000080000000FFFF000077
:1038EC000018025806000000E00000004000000034
:1038FC00FFFF00000014025805000000E00000006B
:10390C0020000000FFFF000000100258040000001F
:10391C00E000000010000000FFFF0000000C025847
:10392C0003000000E000000008000000FFFF0000A2
:10393C000008025802000000E00000000400000033
:10394C00FFFF00000004025801000000E00000002E
:10395C0002000000FFFF0000000002580000000001
:10396C00E000000001000000F8321008D832100806
:10397C00B8321008983210087832100858321008F3
:10398C003832100818321008F8311008D8311008E5
:10399C00B83110080000000000000000000000001A
:1039AC00000000000000000000000000004402586D
:1039BC00007C0040783110081F120000E03910081C
:1039CC0001000000000000000000000000000000EA
:1039DC00E8391008E800000000000080F0391008F9
:1039EC0001000000F8391008020000000813000064
:1039FC00000200002813000000000000C83010086E
:103A0C00C8301008483110085031100858311008CF
:103A1C005831100800100000003073746D33326898
:103A2C00373437695F646973636F2F73746D333226
:103A3C006837343778782F6D340048656C6C6F209C
:103A4C00576F726C64212025730A00464C41534811
:103A5C00005352414D0053595354454D006D656D03
:103A6C006F7279403930303030303030000A060512
:103A7C000504010301020101010001696E74657204
:103A8C00727570742D636F6E74726F6C6C657240AE
:103A9C003538303030303030007263634035383078
:103AAC003234343030006770696F40353830323220
:103ABC00383030006770696F40353830323234300E
:103ACC0030006770696F403538303232303030003A
:103ADC006770696F40353830323143303000677071
:103AEC00696F403538303231383030006770696F6B
:103AFC00403538303231343030006770696F4035C2
:103B0C0038303231303030006770696F40353830C2
:103B1C003230433030006770696F403538303230A6
:103B2C00383030006770696F40353830323034309F
:103B3C0030006770696F40353830323030303000CB
:103B4C0072657365742D636F6E74726F6C6C6572D5
:103B5C000073657269616C403430303037633030DB
:103B6C00006D61696E002A2A2A20426F6F74696E9B
:103B7C0067205A6570687972204F53206275696CA2
:103B8C00642076342E322E31202A2A2A0A00286EFE
:103B9C00756C6C29002A666C6F61742A0000000039
:103BAC00B9291008000000004B2A10080000000082
:103BBC0000000000000000001C00003000C20100EA
:103BCC00000103000090D003C80000002C0000305E
:103BDC002C000030FF00FF00FF00FF00FF00FF0083
:103BEC00FF00FF00FF00FF00FF00FF00FF00FF00D1
:043BFC00FF00FF00C7
:103C000000000000000000000000000000000000B4
:103C100000000000000000000000000000000000A4
:043C200015E015E0B6
:04000005081006DDFC
:00000001FF
